S00E000053797374656D2E7372656391
S3150800000000000320B5960008059700080597000824
S3150800001005970008059700080597000800000000E6
S31508000020000000000000000000000000D185000864
S315080000300597000800000000D1850008D185000852
S31508000040D1850008D1850008D1850008D18500082A
S31508000050D1850008D1850008D1850008D18500081A
S31508000060D1850008D1850008D1850008D18500080A
S31508000070D1850008D1850008D1850008D1850008FA
S31508000080D1850008D1850008D1850008D1850008EA
S31508000090D1850008D1850008D1850008D1850008DA
S315080000A0D1850008D1850008D1850008D1850008CA
S315080000B0D1850008D1850008D1850008D1850008BA
S315080000C0D1850008D1850008D1850008D1850008AA
S315080000D0D1850008D1850008D1850008D18500089A
S315080000E0D1850008D1850008D1850008D18500088A
S315080000F0D1850008D1850008D185000800000000D8
S31508000100D1850008D1850008D1850008D185000869
S31508000110D1850008D1850008D1850008D185000859
S31508000120D1850008D1850008D1850008D185000849
S31508000130D1850008D1850008D1850008D185000839
S31508000140D1850008D1850008D1850008D185000829
S31508000150D1850008D1850008D1850008D185000819
S31508000160D1850008D1850008D1850008D185000809
S31508000170D1850008D18500080000000000000000B5
S31508000180D1850008D1850008D1850008D1850008E9
S31508000190D1850008D1850008000000000000000095
S315080001A00000000000000000D1850008D185000885
S311080001B0D1850008D1850008D18500081B
S315080001BC10B5054C237833B9044B13B10448AFF387
S315080001CC00800123237010BD50000420000000009D
S315080001DC0099000808B5034B1BB103490348AFF354
S315080001EC008008BD00000000540004200099000897
S315080001FC10F8012B11F8013B012A28BF9A42F7D0B7
S3150800020CD01A7047034613F8012B002AFBD1181A8B
S3150800021C0138704780B400AF034B1B681846BD46BF
S3150800022C5DF8047B704700BF54A3072080B400AF69
S3150800023C044BDB681B0A03F007031846BD465DF83A
S3150800024C047B704700ED00E080B483B000AF034632
S3150800025CFB71094997F907305B09FA7902F01F0215
S3150800026C012000FA02F241F8232000BF0C37BD46E4
S3150800027C5DF8047B704700BF00E100E080B483B0F2
S3150800028C00AF0346FB71094997F907305B09FA7900
S3150800029C02F01F02012000FA02F2203341F8232053
S315080002AC00BF0C37BD465DF8047B704700E100E0E3
S315080002BC80B483B000AF03463960FB7197F90730F9
S315080002CC002B0BDA0D49FB7903F00F03043B3A6854
S315080002DCD2B21201D2B20B441A7609E0084997F940
S315080002EC07303A68D2B21201D2B20B4483F8002313
S315080002FC00BF0C37BD465DF8047B704700ED00E087
S3150800030C00E100E080B489B000AFF860B9607A60AB
S3150800031CFB6803F00703FB61FB69C3F10703042BB6
S3150800032C28BF0423BB61FB690433062B02D9FB697E
S3150800033C033B00E000237B610122BB6902FA03F34D
S3150800034C5A1EBB681A407B699A4001217B6901FADF
S3150800035C03F3591E7B680B40134318462437BD46D6
S3150800036C5DF8047B704780B586B000AF0346B9606C
S3150800037C7A60FB7300237B61FFF758FF78617A6814
S3150800038CB9687869FFF7BEFF024697F90F30114630
S3150800039C1846FFF78DFF00BF1837BD4680BD80B5E0
S315080003AC82B000AF0346FB7197F907301846FFF782
S315080003BC4BFF00BF0837BD4680BD80B582B000AF85
S315080003CC0346FB7197F907301846FFF757FF00BF2E
S315080003DC0837BD4680BD80B584B000AF7860002371
S315080003ECFB737B6893F82530DBB2022B05D07B6850
S315080003FC0422DA630123FB7347E07B681B687A687F
S3150800040C1268126822F00E021A607B681B687A68FA
S3150800041C1268126822F001021A607B689B6C7A6873
S3150800042C926C126822F480721A607B681B6C7A686C
S3150800043C526C02F01C02012101FA02F25A607B6826
S3150800044CDB6C7A68126D5A607B685B6D002B0CD07E
S3150800045C7B685B6D7A68526D126822F480721A603A
S3150800046C7B689B6D7A68D26D5A607B68012283F82B
S3150800047C25207B68002283F824207B689B6B002B45
S3150800048C03D07B689B6B78689847FB7B18461037BC
S3150800049CBD4680BD80B483B000AF78607B6893F8A6
S315080004AC2530DBB218460C37BD465DF8047B704721
S315080004BC80B487B000AF7860396000237B6166E151
S315080004CC3B681A6801217B6901FA03F31340FB6048
S315080004DCFB68002B00F058813B685B6803F003034C
S315080004EC012B05D03B685B6803F00303022B30D164
S315080004FC7B689B683B617B695B00032202FA03F30A
S3150800050CDB433A6913403B613B68DA687B695B00FD
S3150800051C02FA03F33A6913433B617B683A699A60BA
S3150800052C7B685B683B6101227B6902FA03F3DB4358
S3150800053C3A6913403B613B685B681B0903F001028F
S3150800054C7B6902FA03F33A6913433B617B683A69A0
S3150800055C5A603B685B6803F00303032B17D07B6870
S3150800056CDB683B617B695B00032202FA03F3DB431E
S3150800057C3A6913403B613B689A687B695B0002FAEF
S3150800058C03F33A6913433B617B683A69DA603B6863
S3150800059C5B6803F00303022B23D17B69DA087B68BB
S315080005AC083253F822303B617B6903F007039B0042
S315080005BC0F2202FA03F3DB433A6913403B613B68AB
S315080005CC1A697B6903F007039B0002FA03F33A697D
S315080005DC13433B617B69DA087B680832396943F84F
S315080005EC22107B681B683B617B695B00032202FA5D
S315080005FC03F3DB433A6913403B613B685B6803F0E2
S3150800060C03027B695B0002FA03F33A6913433B6105
S3150800061C7B683A691A603B685B6803F44033002BC5
S3150800062C00F0B280614A614B1B6E43F001031366FE
S3150800063C5E4B1B6E03F00103BB60BB685C4A7B69AF
S3150800064C9B08023352F823303B617B6903F00303A2
S3150800065C9B000F2202FA03F3DB433A6913403B6112
S3150800066C7B68B3F1904F2BD07B68524A934225D0C6
S3150800067C7B68514A93421FD07B68504A934219D0E3
S3150800068C7B684F4A934213D07B684E4A93420DD0EF
S3150800069C7B684D4A934207D07B684C4A934201D1FA
S315080006AC07230EE008230CE006230AE0052308E0DE
S315080006BC042306E0032304E0022302E0012300E0FE
S315080006CC00237A6902F00302920093403A691343B5
S315080006DC3B6137497B699B0802333A6941F8232009
S315080006EC3B4B9B683B61FB68DB433A6913403B61B8
S315080006FC3B685B6803F48013002B03D03A69FB68EC
S3150800070C13433B61324A3B699360314BDB683B616F
S3150800071CFB68DB433A6913403B613B685B6803F44F
S3150800072C0013002B03D03A69FB6813433B61284A34
S3150800073C3B69D360264B5B683B61FB68DB433A69D4
S3150800074C13403B613B685B6803F40033002B03D012
S3150800075C3A69FB6813433B611D4A3B6953601C4B62
S3150800076C1B683B61FB68DB433A6913403B613B689A
S3150800077C5B6803F48033002B03D03A69FB68134398
S3150800078C3B61134A3B6913607B6901337B613B68A8
S3150800079C1A687B6922FA03F3002B7FF491AE00BF2B
S315080007AC1C37BD465DF8047B704700BF001002403D
S315080007BC000001400004004800080048000C0048EE
S315080007CC001000480014004800180048001C004897
S315080007DC0004014080B485B000AF78600B467B807E
S315080007EC7B681A697B881340002B02D00123FB73A4
S315080007FC01E00023FB73FB7B18461437BD465DF8F6
S3150800080C047B704780B483B000AF78600B467B805E
S3150800081C13467B707B78002B03D07A887B689A61A9
S3150800082C02E07A887B689A6200BF0C37BD465DF891
S3150800083C047B704780B584B000AF78607B681B6812
S3150800084C9B69FB607B681B681B68BB607B685B6B82
S3150800085C002B05D07B685B6BBA68F9687868984793
S3150800086C00BF1037BD4680BD80B586B000AF786036
S3150800087C7B681B689B697B617B681B681B683B6193
S3150800088C7B6903F48073002B0FD03B6903F080035C
S3150800089C002B0AD07B685B6C43F001027B685A64B8
S315080008AC7B681B684FF48072DA617B6903F480639A
S315080008BC002B0FD03B6903F08003002B0AD07B6812
S315080008CC5B6C43F008027B685A647B681B684FF4C0
S315080008DC8062DA617B6903F40073002B0FD03B69E5
S315080008EC03F08003002B0AD07B685B6C43F0020292
S315080008FC7B685A647B681B684FF40072DA617B6804
S3150800090C5B6CFB60FB6803F00B03002B03D0F968E8
S3150800091C786800F03FFB00BF1837BD4680BD80B530
S3150800092C86B000AFF860B9607A60FB68DB6A7B61F9
S3150800093CBB683B61FB6893F84030012B01D102235D
S3150800094CE1E0FB68012283F840203B6903F02003B1
S3150800095C002B08D07B6803F02003002B03D03969E1
S3150800096CF86800F0B7F93B6903F01003002B4BD07D
S3150800097C7B6803F01003002B46D0FB685B8D9BB29B
S3150800098C002B28D1FB6893F84130DBB2282B08D111
S3150800099C7B69B3F1007F04D13969F86800F0A4FAD1
S315080009AC31E0FB6893F84130DBB2292B0ED17B6919
S315080009BC13F5803F0AD0FB681B681022DA61F868C9
S315080009CC00F0E1FBF86800F026F91CE0FB681B68F0
S315080009DC1022DA618FE0FB681B681022DA61FB686B
S315080009EC5B6C43F00402FB685A647B69002B03D0EA
S315080009FC7B69B3F1807F7ED1FB685B6C1946F8681E
S31508000A0C00F0C8FA77E076E03B6903F00403002BA4
S31508000A1C2FD07B6803F00403002B2AD0FB685B8D70
S31508000A2C9BB2002B18D0FB685B6AFA681268526A8C
S31508000A3CD2B21A70FB685B6A5A1CFB685A62FB686E
S31508000A4C1B8D013B9AB2FB681A85FB685B8D9BB2C2
S31508000A5C013B9AB2FB685A85FB685B8D9BB2002BEF
S31508000A6C4BD17B6913F5803F47D0F86800F0D3F873
S31508000A7C43E03B6903F00803002B09D07B6803F0BD
S31508000A8C0803002B04D03969F86800F040F835E003
S31508000A9C3B6903F00203002B30D07B6803F002039A
S31508000AAC002B2BD0FB685B8D9BB2002B18D0FB68F8
S31508000ABC1B68FA68526A12789A62FB685B6A5A1C57
S31508000ACCFB685A62FB685B8D9BB2013B9AB2FB686A
S31508000ADC5A85FB681B8D013B9AB2FB681A850DE09B
S31508000AEC7B69B3F1807F02D07B69002B06D1F8684D
S31508000AFC00F091F802E000BF00E000BFFB6800229E
S31508000B0C83F84020002318461837BD4680BD80B5AB
S31508000B1C84B000AF786039607B6893F84130DBB2FB
S31508000B2C03F02803282B6AD17B681B689B691B0C6E
S31508000B3CDBB203F00103FB737B681B689B691B0C18
S31508000B4C9BB203F0FE03BB817B681B689B689BB258
S31508000B5CC3F309037B817B681B68DB689BB203F0D4
S31508000B6CFE033B817B68DB68022B38D17B89DB096A
S31508000B7C9AB2BB8953409BB203F00603002B1CD1D7
S31508000B8C7B89BB817B689B6C5A1C7B689A647B68E7
S31508000B9C9B6C022B3BD17B6800229A647B681B6892
S31508000BAC0822DA617B68002283F840207B689B6FF9
S31508000BBCBA89F97B7868984729E03B89BB814FF459
S31508000BCC0041786800F021FB7B68002283F84020FE
S31508000BDC7B689B6FBA89F97B7868984717E04FF45E
S31508000BEC0041786800F011FB7B68002283F84020EE
S31508000BFC7B689B6FBA89F97B7868984707E07B68AE
S31508000C0C1B680822DA617B68002283F8402000BF43
S31508000C1C1037BD4680BD80B584B000AF78607B6860
S31508000C2C1B681B68FB607B68002283F84220FB6804
S31508000C3C03F48043002B08D07B681B687A6812681B
S31508000C4C126822F480421A600CE0FB6803F4004335
S31508000C5C002B07D07B681B687A681268126822F426
S31508000C6C00421A607B6893F84130DBB2292B13D10A
S31508000C7C7B68282283F841207B6821221A6301218C
S31508000C8C786800F0C2FA7B68002283F840207B68FB
S31508000C9CDB6D7868984718E07B6893F84130DBB2CF
S31508000CAC2A2B12D17B68282283F841207B682222C2
S31508000CBC1A630221786800F0A8FA7B68002283F888
S31508000CCC40207B681B6E7868984700BF1037BD4676
S31508000CDC80BD000080B586B000AF786039607B684F
S31508000CEC1B681B683B613B687B617B6893F84130EA
S31508000CFCFB737B681B682022DA61FB7B212B02D0F5
S31508000D0CFB7B292B08D148F20101786800F07DFAA3
S31508000D1C7B6821221A630DE0FB7B222B02D0FB7B1E
S31508000D2C2A2B07D148F20201786800F06EFA7B6824
S31508000D3C22221A637B681B687A681268526842F426
S31508000D4C00425A607B681A687B681B685968644B52
S31508000D5C0B405360786800F016FA3B6903F480433D
S31508000D6C002B13D07B681B687A681268126822F409
S31508000D7C80421A607B689B6B002B1FD07B689B6B31
S31508000D8C1B685B689AB27B685A8517E03B6903F463
S31508000D9C0043002B12D07B681B687A6812681268AD
S31508000DAC22F400421A607B68DB6B002B06D07B684A
S31508000DBCDB6B1B685B689AB27B685A857B6903F0A8
S31508000DCC0403002B20D07B6923F004037B617B682A
S31508000DDC5B6A7A681268526AD2B21A707B685B6A66
S31508000DEC5A1C7B685A627B681B8D002B0CD07B685F
S31508000DFC1B8D013B9AB27B681A857B685B8D9BB20F
S31508000E0C013B9AB27B685A857B685B8D9BB2002B3B
S31508000E1C05D07B685B6C43F004027B685A647B687C
S31508000E2C002283F842207B6800225A637B685B6C3D
S31508000E3C002B10D07B685B6C1946786800F0AAF812
S31508000E4C7B6893F84130DBB2282B44D179697868F2
S31508000E5C00F04AF83FE07B68DB6A13F5803F15D053
S31508000E6C7868FFF7D8FE7B681E4ADA627B68202210
S31508000E7C83F841207B6800221A637B68002283F87A
S31508000E8C40207B685B6E7868984724E07B6893F80B
S31508000E9C4130DBB2222B0FD17B68202283F841200C
S31508000EAC7B6800221A637B68002283F840207B68E3
S31508000EBC1B6E786898470EE07B68202283F84120E1
S31508000ECC7B6800221A637B68002283F840207B68C3
S31508000EDCDB6D7868984700BF1837BD4680BD00BFE4
S31508000EEC00E800FE0000FFFF80B582B000AF786016
S31508000EFC39607B68264ADA627B6800221A637B684B
S31508000F0C202283F841207B68002283F842207B68E4
S31508000F1C00225A633B6803F00403002B22D07B683B
S31508000F2C5B6A7A681268526AD2B21A707B685B6A14
S31508000F3C5A1C7B685A627B681B8D002B12D07B6807
S31508000F4C1B8D013B9AB27B681A857B685B8D9BB2BD
S31508000F5C013B9AB27B685A857B685B6C43F004024A
S31508000F6C7B685A6448F20301786800F04EF97B688E
S31508000F7C1B681022DA617B68002283F840207B68A4
S31508000F8C5B6E7868984700BF0837BD4680BD00BFC2
S31508000F9C0000FFFF80B584B000AF786039607B68CD
S31508000FAC93F84130FB737B68002283F842207B68F8
S31508000FBC5D4ADA627B6800225A857B685A6C3B6804
S31508000FCC1A437B685A64FB7B282B05D0FB7B292BA1
S31508000FDC02D0FB7B2A2B0BD10321786800F015F97C
S31508000FEC7B68282283F841207B68504A5A6311E0B3
S31508000FFC48F20301786800F008F97B6893F84130E9
S3150800100CDBB2602B03D07B68202283F841207B68F7
S3150800101C00225A637B681B6BBB607B689B6B002B3F
S3150800102C39D0BB68112B02D0BB68212B33D17B6816
S3150800103C1B681B6803F48043B3F5804F07D17B68A4
S3150800104C1B687A681268126822F480421A607B68F8
S3150800105C9B6B1846FFF71EFA0346012B17D07B68C5
S3150800106C9B6B334A9A637B68002283F840207B6823
S3150800107C9B6B1846FFF7AFF90346002B4DD07B68E0
S3150800108C9B6B9B6B7A68926B1046984745E0786821
S3150800109C00F050F841E07B68DB6B002B39D0BB685D
S315080010AC122B02D0BB68222B33D17B681B681B68BA
S315080010BC03F40043B3F5004F07D17B681B687A68C5
S315080010CC1268126822F400421A607B68DB6B1846B9
S315080010DCFFF7E0F90346012B17D07B68DB6B144A44
S315080010EC9A637B68002283F840207B68DB6B184682
S315080010FCFFF771F90346002B11D07B68DB6B9B6BF2
S3150800110C7A68D26B1046984709E0786800F012F8AE
S3150800111C05E0786800F00EF802E000BF00E000BFBA
S3150800112C00BF1037BD4680BD0000FFFF2B09000825
S3150800113CDB11000880B582B000AF78607B6893F845
S3150800114C4130DBB2602B0FD17B68202283F841201B
S3150800115C7B6800221A637B68002283F840207B6830
S3150800116C5B6F786898470AE07B6800221A637B688D
S3150800117C002283F840207B681B6F7868984700BF6D
S3150800118C0837BD4680BD80B483B000AF78607B68F5
S3150800119C1B689B6903F00203022B03D17B681B684F
S315080011AC00229A627B681B689B6903F00103012B7A
S315080011BC07D07B681B687A681268926942F001024C
S315080011CC9A6100BF0C37BD465DF8047B704780B545
S315080011DC84B000AF78607B689B6AFB60FB689B6B8E
S315080011EC002B03D0FB689B6B00229A63FB68DB6BB6
S315080011FC002B03D0FB68DB6B00229A63F868FFF7B9
S3150800120C99FF00BF1037BD4680BD80B485B000AFCE
S3150800121C78600B467B800023FB607B8803F0010318
S3150800122C002B0FD0FB6843F04203FB607B6893F8F6
S3150800123C4130DBB203F02803282B03D0FB6843F0BC
S3150800124CB003FB607B8803F00203002B0FD0FB680E
S3150800125C43F04403FB607B6893F84130DBB203F040
S3150800126C2803282B03D0FB6843F0B003FB60B7F9BF
S3150800127C0230002B03DAFB6843F0B803FB607B886B
S3150800128C102B03D1FB6843F09003FB607B88202B63
S3150800129C03D1FB6843F02003FB607B88402B03D10A
S315080012ACFB6843F04003FB607B681B687A6812682E
S315080012BC1168FA68D2430A401A6000BF1437BD4653
S315080012CC5DF8047B7047000080B400AF0D4B1B68BB
S315080012DC03F4C063B3F5806F02D14FF480630BE05F
S315080012EC084BD3F8803003F48073B3F5807F02D1B2
S315080012FC4FF4007300E000231846BD465DF8047BE6
S3150800130C704700BF0070004080B485B000AF7860AD
S3150800131C7B68002B41D14B4B1B6803F4C063B3F5B8
S3150800132C806F31D1474A474BD3F8803023F480730A
S3150800133CC2F88030434A434B1B6823F4C06343F41A
S3150800134C00731360404B1B68322202FB03F33F4ABF
S3150800135CA2FB03239B0C0133FB6002E0FB68013BF9
S3150800136CFB60384B5B6903F48063B3F5806F02D17D
S3150800137CFB68002BF2D1334B5B6903F48063B3F53E
S3150800138C806F58D1032357E02E4A2E4BD3F8803062
S3150800139C23F48073C2F880304DE07B68B3F5007F88
S315080013AC41D1284B1B6803F4C063B3F5806F31D168
S315080013BC244A244BD3F8803043F48073C2F8803027
S315080013CC204A204B1B6823F4C06343F40073136054
S315080013DC1D4B1B68322202FB03F31C4AA2FB032398
S315080013EC9B0C0133FB6002E0FB68013BFB60154B71
S315080013FC5B6903F48063B3F5806F02D1FB68002B3D
S3150800140CF2D1104B5B6903F48063B3F5806F12D18C
S3150800141C032311E00B4A0B4BD3F8803043F480734B
S3150800142CC2F8803007E0074A064B1B6823F4C063F2
S3150800143C43F480631360002318461437BD465DF8E1
S3150800144C047B7047007000404C00042083DE1B436D
S3150800145C80B400AF054A054B5B6843F400735360D0
S3150800146C00BFBD465DF8047B704700BF00700040A6
S3150800147C80B588B000AF78607B68002B01D101235A
S3150800148C3DE3A14B9B6803F00C03BB619E4BDB68E9
S3150800149C03F003037B617B681B6803F01003002BC6
S315080014AC00F0D880BB69002B06D0BB690C2B40F02A
S315080014BC81807B69012B7DD1934B1B6803F002035A
S315080014CC002B05D07B689B69002B01D1012316E301
S315080014DC7B681A6A8C4B1B6803F00803002B04D034
S315080014EC894B1B6803F0F00305E0874BD3F894305F
S315080014FC1B0903F0F0039A4223D97B681B6A18462A
S3150800150C00F0F0FC0346002B01D00123F7E27E4ADB
S3150800151C7D4B1B6843F0080313607B497A4B1B68A9
S3150800152C23F0F0027B681B6A13430B607649764BF3
S3150800153C5B6823F47F427B68DB691B0213434B60B1
S3150800154C25E0714A704B1B6843F0080313606E491B
S3150800155C6D4B1B6823F0F0027B681B6A13430B6008
S3150800156C6949694B5B6823F47F427B68DB691B021C
S3150800157C13434B60BB69002B09D17B681B6A184661
S3150800158C00F0B0FC0346002B01D00123B7E200F0B3
S3150800159CE7FB01465C4B9B681B0903F00F035B4A90
S315080015ACD35C03F01F0321FA03F3594A1360002393
S315080015BCFB734FE07B689B69002B32D0524A524B27
S315080015CC1B6843F001031360FEF724FE386108E03C
S315080015DCFEF720FE02463B69D31A022B01D90323D8
S315080015EC8DE2494B1B6803F00203002BF0D0464AE8
S315080015FC454B1B6843F0080313604349424B1B6871
S3150800160C23F0F0027B681B6A13430B603E493E4B82
S3150800161C5B6823F47F427B68DB691B0213434B60D0
S3150800162C18E0394A384B1B6823F001031360FEF7A0
S3150800163CF1FD386108E0FEF7EDFD02463B69D31A69
S3150800164C022B01D903235AE22F4B1B6803F0020322
S3150800165C002BF0D17B681B6803F00103002B5AD0D2
S3150800166CBB69082B05D0BB690C2B0ED17B69032BE8
S3150800167C0BD1254B1B6803F40033002B4AD07B682F
S3150800168C5B68002B46D1012339E27B685B68B3F5AE
S3150800169C803F06D11C4A1C4B1B6843F480331360ED
S315080016AC1DE07B685B68B3F5A02F0CD1164A164B68
S315080016BC1B6843F480231360134A134B1B6843F4CB
S315080016CC803313600BE0104A0F4B1B6823F48033EE
S315080016DC13600D4A0C4B1B6823F4802313607B683C
S315080016EC5B68002B07D000BF074B1B6803F400335D
S315080016FC002BF9D00FE000BF034B1B6803F4003333
S3150800170C002BF9D107E000BF00100240A0A9000881
S3150800171C4C00042000BF7B681B6803F00203002BF7
S3150800172C48D0BB69042B05D0BB690C2B19D17B6936
S3150800173C022B16D1824B1B6803F48063002B05D051
S3150800174C7B68DB68002B01D10123D8E17C497C4BF3
S3150800175C5B6823F0FE427B681B691B0613434B60D0
S3150800176C28E07B68DB68002B17D0754A744B1B681E
S3150800177C43F48073136000BF714B1B6803F48063DA
S3150800178C002BF9D06E496E4B5B6823F0FE427B68E2
S3150800179C1B691B0613434B600CE0694A684B1B68B4
S315080017AC23F48073136000BF654B1B6803F48063D6
S315080017BC002BF9D17B681B6803F00803002B24D097
S315080017CC7B685B69002B10D05D4A5D4BD3F894306F
S315080017DC43F00103C2F8943000BF594BD3F8943048
S315080017EC03F00203002BF8D00FE0554A544BD3F8FC
S315080017FC943023F00103C2F8943000BF504BD3F851
S3150800180C943003F00203002BF8D17B681B6803F0B5
S3150800181C0403002B78D00023FB77494B9B6D03F010
S3150800182C8053002B0DD1464A454B9B6D43F0805394
S3150800183C9365434B9B6D03F08053BB60BB680123D8
S3150800184CFB77404B1B6803F48073002B0CD13D4A85
S3150800185C3C4B1B6843F48073136000BF394B1B6801
S3150800186C03F48073002BF9D07B689B68012B08D195
S3150800187C334A334BD3F8903043F00103C2F8903017
S3150800188C24E07B689B68052B10D12D4A2C4BD3F88A
S3150800189C903043F00403C2F89030294A284BD3F809
S315080018AC903043F00103C2F890300FE0244A244BE1
S315080018BCD3F8903023F00103C2F89030204A204B1D
S315080018CCD3F8903023F00403C2F890307B689B68F9
S315080018DC002B08D000BF1A4BD3F8903003F0020344
S315080018EC002BF8D007E000BF154BD3F8903003F067
S315080018FC0203002BF8D1FB7F012B05D1104A104BA4
S3150800190C9B6D23F0805393657B681B6803F020035B
S3150800191C002B29D07B685B6A002B15D0084A084B2C
S3150800192CD3F8983043F00103C2F8983000BF044B43
S3150800193CD3F8983003F00203002BF8D014E000BF5C
S3150800194C00100240007000406F4A6F4BD3F8983075
S3150800195C23F00103C2F8983000BF6B4BD3F89830CC
S3150800196C03F00203002BF8D17B689B6A002B00F06E
S3150800197CC5807B689B6A022B40F0A780624BDB68AC
S3150800198C7B617B6903F003027B68DB6A9A422CD184
S3150800199C7B6903F0F0027B681B6B013B1B019A42C7
S315080019AC23D17B6903F4FE427B685B6B1B029A426C
S315080019BC1BD17B6903F078427B689B6BDB069A42EA
S315080019CC13D17B6903F4C0027B68DB6B5B08013BB4
S315080019DC5B059A4209D17B6903F0C0627B681B6C74
S315080019EC5B08013B5B069A4255D0BB690C2B50D061
S315080019FC454B1B6803F08063002B05D1424B1B68D3
S31508001A0C03F08053002B01D0012378E03E4A3E4B6D
S31508001A1C1B6823F08073136000BF3B4B1B6803F0F5
S31508001A2C0073002BF9D13848374BDA68374B13401B
S31508001A3C7A68D16A7A68126B013A120111437A688C
S31508001A4C526B120211437A68D26B5208013A52054C
S31508001A5C11437A68126C5208013A520611437A6895
S31508001A6C926BD2060A431343C360274A264B1B685C
S31508001A7C43F080731360244A234BDB6843F080736E
S31508001A8CD36000BF204B1B6803F00073002BF9D002
S31508001A9C34E0012333E01C4B1B6803F00073002B66
S31508001AAC2CD1194A184B1B6843F080731360164ADD
S31508001ABC154BDB6843F08073D36000BF124B1B6871
S31508001ACC03F00073002BF9D018E0BB690C2B13D06C
S31508001ADC0D4A0D4B1B6823F08073136000BF0A4B2D
S31508001AEC1B6803F00073002BF9D10749064BDA681B
S31508001AFC074B1340CB6001E0012300E00023184696
S31508001B0C2037BD4680BD00BF001002400C809D01E9
S31508001B1CFCFFEEFE80B584B000AF78603960002318
S31508001B2CFB607B68002B01D101230AE1874B1B68FC
S31508001B3C03F00F023B689A4210D28449834B1B6808
S31508001B4C23F00F023B6813430B60804B1B6803F0B2
S31508001B5C0F023B689A4201D00123F2E07B681B68AE
S31508001B6C03F00203002B10D07B689A68784B9B68AD
S31508001B7C03F0F0039A4208D97549754B9B6823F014
S31508001B8CF0027B689B6813438B607B681B6803F0C9
S31508001B9C0103002B6BD07B685B68032B1ED16C4B47
S31508001BAC1B6803F00073002B01D10123C9E000F078
S31508001BBCF3F90246674B9A4246D9654B9B6803F084
S31508001BCCF003002B40D1624A614B9B6823F0F0036B
S31508001BDC43F0800393608023FB6035E07B685B6889
S31508001BEC022B07D15A4B1B6803F40033002B15D173
S31508001BFC0123A6E07B685B68002B07D1544B1B6856
S31508001C0C03F00203002B09D101239AE0504B1B6801
S31508001C1C03F48063002B01D1012392E000F0A0F8B5
S31508001C2C02464C4B9A420FD9494B9B6803F0F0037A
S31508001C3C002B09D1464A464B9B6823F0F00343F028
S31508001C4C800393608023FB604149414B9B6823F0DA
S31508001C5C03027B685B6813438B6000BF3C4B9B6835
S31508001C6C03F00C027B685B689B009A42F6D1FB6812
S31508001C7C802B05D1364A364B9B6823F0F0039360CC
S31508001C8C7B681B6803F00203002B10D07B689A68EC
S31508001C9C2F4B9B6803F0F0039A4208D22C492C4B25
S31508001CAC9B6823F0F0027B689B6813438B60274B79
S31508001CBC1B6803F00F023B689A4210D92349234B41
S31508001CCC1B6823F00F023B6813430B601F4B1B6802
S31508001CDC03F00F023B689A4201D0012331E07B687E
S31508001CEC1B6803F00403002B08D01949184B9B6892
S31508001CFC23F4E0627B68DB6813438B607B681B68A4
S31508001D0C03F00803002B09D01149114B9B6823F4E7
S31508001D1C60527B681B69DB0013438B6000F020F86C
S31508001D2C01460B4B9B681B0903F00F030A4AD35C4D
S31508001D3C03F01F0321FA03F3084A13600023FB720E
S31508001D4CFB7A18461037BD4680BD00BF00200240FE
S31508001D5C0010024000B4C404A0A900084C000420DA
S31508001D6C80B489B000AF0023FB610023BB613D4BF7
S31508001D7C9B6803F00C033B613A4BDB6803F00303E7
S31508001D8CFB603B69002B05D03B690C2B21D1FB680A
S31508001D9C012B1ED1334B1B6803F00803002B07D10C
S31508001DAC304BD3F894301B0A03F00F03FB6105E0A4
S31508001DBC2C4B1B681B0903F00F03FB612A4AFB69B2
S31508001DCC52F82330FB613B69002B0DD1FB69BB61D3
S31508001DDC0AE03B69042B02D1244BBB6104E03B6946
S31508001DEC082B01D1224BBB613B690C2B33D11D4B04
S31508001DFCDB6803F00303BB60BB68022B02D0032B22
S31508001E0C03D005E0194B7B6105E0194B7B6102E0B9
S31508001E1CFB697B6100BF134BDB681B0903F00F03DF
S31508001E2C01337B600F4BDB681B0A03F07F037A696F
S31508001E3C02FB03F27B68B2FBF3F37B61094BDB68AD
S31508001E4C5B0E03F0030301335B003B607A693B6866
S31508001E5CB2FBF3F3BB61BB6918462437BD465DF884
S31508001E6C047B704700100240B8A900080024F4004F
S31508001E7C00127A0080B400AF034B1B681846BD46A7
S31508001E8C5DF8047B704700BF4C00042080B500AF9A
S31508001E9CFFF7F0FF0146064B9B681B0A03F0070386
S31508001EAC044AD35C03F01F0321FA03F3184680BDDA
S31508001EBC00100240B0A9000880B500AFFFF7DAFFA2
S31508001ECC0146064B9B68DB0A03F00703044AD35CFE
S31508001EDC03F01F0321FA03F3184680BD00100240D5
S31508001EECB0A9000880B586B000AF786000233B61C6
S31508001EFC274B9B6D03F08053002B03D0FFF7E4F9B7
S31508001F0C786114E0224A224B9B6D43F0805393650B
S31508001F1C1F4B9B6D03F08053FB60FB68FFF7D4F9EE
S31508001F2C78611B4A1A4B9B6D23F0805393657B692A
S31508001F3CB3F5007F0BD17B68802B13D97B68A02B5C
S31508001F4C02D902233B610DE001233B610AE07B6861
S31508001F5C7F2B02D902233B6104E07B68702B01D1ED
S31508001F6C01233B610B490B4B1B6823F00F023B69A2
S31508001F7C13430B60074B1B6803F00F023B699A422D
S31508001F8C01D0012300E0002318461837BD4680BD52
S31508001F9C001002400020024080B487B000AF2B4BE3
S31508001FACDB6803F00303FB60FB68022B04D0032BEE
S31508001FBC05D0012B06D01FE0254B3B611FE0254BB6
S31508001FCC3B611CE0214B1B6803F00803002B07D16F
S31508001FDC1E4BD3F894301B0A03F00F037B6105E004
S31508001FEC1A4B1B681B0903F00F037B611A4A7B69A2
S31508001FFC52F823303B6102E000233B6100BF134BD0
S3150800200CDB681B0903F00F030133BB600F4BDB685E
S3150800201C1B0A03F07F033A6902FB03F2BB68B2FBA7
S3150800202CF3F33B61094BDB685B0E03F003030133E7
S3150800203C5B007B603A697B68B2FBF3F33B603B68F9
S3150800204C18461C37BD465DF8047B704700100240E5
S3150800205C0024F40000127A00B8A9000880B586B0EE
S3150800206C00AF78600023FB740023BB747B681B6885
S3150800207C03F40063002B3DD07B68DB6E402B0BD042
S3150800208C402B04D8002B0ED0202B15D01DE0602B2E
S3150800209C1ED0802B1CD018E0864A864BDB6843F48E
S315080020AC8033D36015E07B6804330021184601F0B1
S315080020BC15F90346FB740CE07B682033002118469F
S315080020CC01F0FCF90346FB7403E00123FB7400E002
S315080020DC00BFFB7C002B0BD17649764BD3F89C3092
S315080020EC23F0E0027B68DB6E1343C1F89C3001E0F9
S315080020FCFB7CBB747B681B6803F48053002B42D0B3
S3150800210C7B681B6FB3F5007F0FD0B3F5007F05D83E
S3150800211C002B11D0B3F5807F17D01FE0B3F5407FA5
S3150800212C1FD0B3F5806F1CD018E0624A614BDB6890
S3150800213C43F48033D36015E07B68043300211846DA
S3150800214C01F0CCF80346FB740CE07B6820330021C5
S3150800215C184601F0B3F90346FB7403E00123FB743C
S3150800216C00E000BFFB7C002B0BD15249514BD3F836
S3150800217C9C3023F4E0627B681B6F1343C1F89C30D8
S3150800218C01E0FB7CBB747B681B6803F40033002BF3
S3150800219C00F09F8000237B74464B9B6D03F08053A5
S315080021AC002B01D1012300E00023002B0DD0414A5E
S315080021BC404B9B6D43F0805393653E4B9B6D03F0F0
S315080021CC8053BB60BB6801237B743B4A3A4B1B6844
S315080021DC43F480731360FEF71DF8F86009E0FEF708
S315080021EC19F80246FB68D31A022B02D90323FB748F
S315080021FC05E0314B1B6803F48073002BEFD0FB7C96
S3150800220C002B5BD12B4BD3F8903003F440737B61D6
S3150800221C7B69002B1FD07B68D3F890207B699A4288
S3150800222C19D0244BD3F8903023F440737B61214AA0
S3150800223C204BD3F8903043F48033C2F890301D4AC3
S3150800224C1C4BD3F8903023F48033C2F89030194ADB
S3150800225C7B69C2F890307B6903F00103002B16D01A
S3150800226CFDF7D8FFF8600BE0FDF7D4FF0246FB68D4
S3150800227CD31A41F28832934202D90323FB7406E03F
S3150800228C0C4BD3F8903003F00203002BECD0FB7CFC
S3150800229C002B0CD10749074BD3F8903023F4407226
S315080022AC7B68D3F890301343C1F8903008E0FB7C78
S315080022BCBB7405E00010024000700040FB7CBB7448
S315080022CC7B7C012B05D1A04A9F4B9B6D23F0805339
S315080022DC93657B681B6803F00103002B0AD09A49A7
S315080022EC994BD3F8883023F003027B68DB6B1343D6
S315080022FCC1F888307B681B6803F00203002B0AD0F0
S3150800230C9149914BD3F8883023F00C027B681B6CEF
S3150800231C1343C1F888307B681B6803F00403002B51
S3150800232C0AD08949884BD3F8883023F030027B6869
S3150800233C5B6C1343C1F888307B681B6803F0080391
S3150800234C002B0AD08049804BD3F8883023F0C00282
S3150800235C7B689B6C1343C1F888307B681B6803F059
S3150800236C1003002B0AD07849774BD3F8883023F41E
S3150800237C40727B68DB6C1343C1F888307B681B683A
S3150800238C03F02003002B0AD06F496F4BD3F8883023
S3150800239C23F440627B681B6D1343C1F888307B6855
S315080023AC1B6803F40073002B0AD06749664BD3F8F5
S315080023BC883023F440227B685B6E1343C1F888305F
S315080023CC7B681B6803F48063002B0AD05E495E4B5E
S315080023DCD3F8883023F440127B689B6E1343C1F8FC
S315080023EC88307B681B6803F04003002B0AD05649DB
S315080023FC554BD3F8883023F440527B685B6D1343F6
S3150800240CC1F888307B681B6803F08003002B0AD060
S3150800241C4D494D4BD3F8883023F440427B689B6D6D
S3150800242C1343C1F888307B681B6803F48073002B50
S3150800243C0AD04549444BD3F8883023F440327B689C
S3150800244CDB6D1343C1F888307B681B6803F4801373
S3150800245C002B0AD03C493C4BD3F89C3023F00302A2
S3150800246C7B681B6E1343C1F89C307B681B6803F4AE
S3150800247C0053002B28D03449334BD3F8883023F03B
S3150800248C40627B685B6F1343C1F888307B685B6F6F
S3150800249CB3F1006F06D12C4A2B4BDB6843F480133F
S315080024ACD36011E07B685B6FB3F1806F0CD17B68EE
S315080024BC04330121184600F011FF0346FB74FB7C1C
S315080024CC002B01D0FB7CBB747B681B6803F40023D0
S315080024DC002B4DD07B689B6FB3F5804F08D11A4AF9
S315080024EC194BD3F89C3043F48043C2F89C3012E065
S315080024FC154A154BD3F89C3023F48043C2F89C300C
S3150800250C1149114BD3F8883023F040627B689B6FD6
S3150800251C1343C1F888307B689B6FB3F1006F06D103
S3150800252C094A094BDB6843F48013D36020E07B68C7
S3150800253C9B6FB3F5804F09D1034A034BDB6843F411
S3150800254C8033D36014E000BF001002407B689B6F99
S3150800255CB3F1806F0CD17B6804330121184600F067
S3150800256CBDFE0346FB74FB7C002B01D0FB7CBB74C5
S3150800257C7B681B6803F48023002B28D04A494A4BF6
S3150800258CD3F8883023F040627B68DB6F1343C1F8BD
S3150800259C88307B68DB6FB3F1006F06D1424A424B39
S315080025ACDB6843F48013D36011E07B68DB6FB3F10F
S315080025BC806F0CD17B6804330121184600F08EFE1F
S315080025CC0346FB74FB7C002B01D0FB7CBB747B683D
S315080025DC1B6803F48043002B1ED03349324BD3F8C7
S315080025EC883023F040527B68D3F880301343C1F807
S315080025FC88307B68D3F88030B3F1805F0CD17B6868
S3150800260C04330221184600F069FE0346FB74FB7C72
S3150800261C002B01D0FB7CBB747B681B6803F48033EE
S3150800262C002B0BD02049204BD3F89C3023F0040206
S3150800263C7B68D3F884301343C1F89C307B681B68DD
S3150800264C03F40013002B0BD01749174BD3F89C3007
S3150800265C23F018027B68D3F888301343C1F89C30F2
S3150800266C7B681B6803F08073002B17D00E490E4B42
S3150800267CD3F89C3023F440127B68D3F88C30134380
S3150800268CC1F89C307B68D3F88C30B3F5001F05D1A4
S3150800269C054A054BDB6843F48013D360BB7C1846AC
S315080026AC1837BD4680BD00BF0010024080B588B003
S315080026BC00AF78600023FB617B68B3F5003F37D128
S315080026CCAF4BD3F8903003F440733B613B69B3F5D9
S315080026DC007F14D0B3F5407F1ED0B3F5807F01D0B0
S315080026EC00F0F3BDA64BD3F8903003F00203022B8F
S315080026FC40F0E4854FF40043FB6100F0DFBDA04BCE
S3150800270CD3F8943003F00203022B40F0D9854FF42A
S3150800271CFA43FB6100F0D4BD994B1B6803F40033F4
S3150800272CB3F5003F40F0CE85964BFB6100F0CABD71
S3150800273C934BDB6803F00303FB60FB68022B23D087
S3150800274C032B2ED0012B39D18D4B1B6803F00203BA
S3150800275C022B16D18A4B1B6803F00803002B05D0F5
S3150800276C874B1B681B0903F00F0305E0844BD3F852
S3150800277C94301B0A03F00F03834A52F82330BB61CB
S3150800278C1FE00023BB611CE07D4B1B6803F48063D0
S3150800279CB3F5806F02D17D4BBB6112E00023BB61A0
S315080027AC0FE0774B1B6803F40033B3F5003F02D1F7
S315080027BC774BBB6105E00023BB6102E00023BB61DC
S315080027CC00BF7B68B3F5806F00F0CE84B3F5806FDD
S315080027DC2DD8102B00F0F982102B11D8022B00F0F3
S315080027EC4382022B04D8012B00F0FD8100F06DBD4D
S315080027FC042B00F08282082B00F0B38200F065BD32
S3150800280C802B00F00984802B07D8202B00F0158329
S3150800281C402B00F0DE8300F058BDB3F5807F00F046
S3150800282C1E84B3F5007F00F05E8400F04EBDB3F550
S3150800283C803F00F07D83B3F5803F13D8B3F5805FF6
S3150800284C32D0B3F5805F04D8B3F5006F24D000F00E
S3150800285C3CBDB3F5005F2FD0B3F5804F00F0258350
S3150800286C00F033BDB3F5801F00F01C84B3F5801F50
S3150800287C08D8B3F5802F1FD0B3F5002F00F0CD8004
S3150800288C00F023BDB3F5001F00F06383B3F1807F1E
S3150800289C00F0B28400F019BDB9694FF4006000F07D
S315080028ACFDFEF86100F011BDB9694FF4805000F0D7
S315080028BCF5FEF86100F009BD314BD3F8883003F00A
S315080028CC40633B613B69B3F1806F63D0B3F1806FB2
S315080028DC03D8002B00F08B809DE0B3F1006F21D05C
S315080028ECB3F1406F00D096E0254B1B6803F002034A
S315080028FC022B40F08680224B1B6803F00803002B42
S3150800290C05D01F4B1B681B0903F00F0305E01C4B76
S3150800291CD3F894301B0A03F00F031B4A52F82330E2
S3150800292CFB616EE0164B1B6803F00073B3F1007F76
S3150800293C6AD1134BDB6803F48013B3F5801F63D19C
S3150800294C0F4BDB681B0A03F07F03BB60BB69BA68D5
S3150800295C02FB03F20A4BDB681B0903F00F03013376
S3150800296CB2FBF3F3BB61064BDB685B0D03F00303A9
S3150800297C01335B00BA69B2FBF3F3FB6144E000BFB9
S3150800298C0010024090D00300B8A900080024F400F7
S3150800299C00127A00B04B1B6803F00063B3F1006FAA
S315080029AC35D1AD4B1B6903F48013B3F5801F2ED1BB
S315080029BCA94B1B691B0A03F07F03BB60BB69BA688A
S315080029CC02FB03F2A44B1B691B0903F00F0301332B
S315080029DCB2FBF3F3BB61A04B1B695B0D03F003035E
S315080029EC01335B00BA69B2FBF3F3FB610FE09A4B58
S315080029FCD3F8983003F00203022B0BD1974BFB61EB
S31508002A0C08E000BF00F061BC00BF00F05EBC00BF70
S31508002A1C00F05BBC00BF00F058BC8F4BD3F89C3061
S31508002A2C03F48043B3F5804F3DD18B4B1B6803F001
S31508002A3C0073B3F1007F40F04784874BDB6803F4DF
S31508002A4C8033B3F5803F40F03F84834BDB681B0A29
S31508002A5C03F07F03BB60BB69BA6802FB03F27E4BCB
S31508002A6CDB681B0903F00F030133B2FBF3F3BB61FD
S31508002A7C794BDB68DB0E03F01F037B617B69002B4C
S31508002A8C0AD1754BDB6803F40033002B02D01123F3
S31508002A9C7B6101E007237B61BA697B69B2FBF3F3BF
S31508002AACFB6100F011BC6C4BD3F8883003F0406323
S31508002ABC3B613B69B3F1806F56D0B3F1806F02D896
S31508002ACC002B7ED08EE0B3F1006F20D0B3F1406FAF
S31508002ADC00D087E0604B1B6803F00203022B7AD107
S31508002AEC5D4B1B6803F00803002B05D05A4B1B687B
S31508002AFC1B0903F00F0305E0574BD3F894301B0A58
S31508002B0C03F00F03564A52F82330FB6163E0524B2D
S31508002B1C1B6803F00073B3F1007F5ED14E4BDB6884
S31508002B2C03F48013B3F5801F57D14B4BDB681B0A94
S31508002B3C03F07F03BB60BB69BA6802FB03F2464B22
S31508002B4CDB681B0903F00F030133B2FBF3F3BB611C
S31508002B5C414BDB685B0D03F0030301335B00BA6979
S31508002B6CB2FBF3F3FB6138E03B4B1B6803F00063E5
S31508002B7CB3F1006F33D1384B1B6903F48013B3F5EB
S31508002B8C801F2CD1344B1B691B0A03F07F03BB60D7
S31508002B9CBB69BA6802FB03F22F4B1B691B0903F0CE
S31508002BAC0F030133B2FBF3F3BB612B4B1B695B0DB4
S31508002BBC03F0030301335B00BA69B2FBF3F3FB6161
S31508002BCC0DE0254BD3F8983003F00203022B08D1FD
S31508002BDC224BFB6105E000BF76E300BF74E300BF40
S31508002BEC72E300BF70E31C4BD3F8883003F0030381
S31508002BFC3B613B69032B28D801A252F823F000BF8E
S31508002C0C1D2C0008252C00082D2C0008412C00082A
S31508002C1CFFF752F9F8611DE0FFF7A2F8F86119E021
S31508002C2C0D4B1B6803F48063B3F5806F0FD10D4B06
S31508002C3CFB610CE0084BD3F8903003F00203022B2F
S31508002C4C07D14FF40043FB6103E000BF3DE300BF2F
S31508002C5C3BE300BF39E300BF00100240006CDC0206
S31508002C6CB8A900080024F400AF4BD3F8883003F059
S31508002C7C0C033B613B690C2B39D801A252F823F0A3
S31508002C8CC12C0008FB2C0008FB2C0008FB2C0008A8
S31508002C9CC92C0008FB2C0008FB2C0008FB2C000890
S31508002CACD12C0008FB2C0008FB2C0008FB2C000878
S31508002CBCE52C0008FFF7EAF8F8611DE0FFF750F875
S31508002CCCF86119E0984B1B6803F48063B3F5806FC1
S31508002CDC0FD1964BFB610CE0934BD3F8903003F075
S31508002CEC0203022B07D14FF40043FB6103E000BF3C
S31508002CFCEBE200BFE9E200BFE7E28B4BD3F8883082
S31508002D0C03F030033B613B69102B0DD0102B02D816
S31508002D1C002B05D024E0202B0AD0302B12D01FE034
S31508002D2CFFF7B4F8F8611BE0FFF71AF8F86117E03B
S31508002D3C7D4B1B6803F48063B3F5806F0DD17B4B19
S31508002D4CFB610AE0784BD3F8903003F00203022BB0
S31508002D5C05D14FF40043FB6101E000BFB5E200BFAB
S31508002D6CB3E2714BD3F8883003F0C0033B613B697F
S31508002D7C402B0DD0402B02D8002B05D024E0802BFD
S31508002D8C0AD0C02B12D01FE0FFF780F8F8611BE0C1
S31508002D9CFEF7E6FFF86117E0634B1B6803F48063E4
S31508002DACB3F5806F0DD1614BFB610AE05E4BD3F82E
S31508002DBC903003F00203022B05D14FF40043FB615C
S31508002DCC01E000BF81E200BF7FE2574BD3F88830A1
S31508002DDC03F440733B613B69B3F5807F10D0B3F5C0
S31508002DEC807F02D8002B07D026E0B3F5007F0BD0E6
S31508002DFCB3F5407F12D01FE0FFF748F8F8611BE0E7
S31508002E0CFEF7AEFFF86117E0474B1B6803F48063C7
S31508002E1CB3F5806F0DD1454BFB610AE0424BD3F8F5
S31508002E2C903003F00203022B05D14FF40043FB61EB
S31508002E3C01E000BF49E200BF47E23B4BD3F88830BC
S31508002E4C03F440633B613B69B3F5806F10D0B3F56F
S31508002E5C806F02D8002B07D026E0B3F5006F0BD095
S31508002E6CB3F5406F12D01FE0FFF710F8F8611BE0BE
S31508002E7CFEF776FFF86117E02B4B1B6803F48063AB
S31508002E8CB3F5806F0DD1294BFB610AE0264BD3F8BD
S31508002E9C903003F00203022B05D14FF40043FB617B
S31508002EAC01E000BF11E200BF0FE21F4BD3F88830D8
S31508002EBC03F040533B613B69B3F1805F07D0B3F134
S31508002ECC405F00D02FE0FEF74BFFF8612BE0164B66
S31508002EDC1B6803F00063B3F1006F23D1124B1B6917
S31508002EEC03F08073002B1DD00F4B1B691B0A03F0D4
S31508002EFC7F03BB60BB69BA6802FB03F20A4B1B690A
S31508002F0C1B0903F00F030133B2FBF3F3BB61064B4A
S31508002F1C1B695B0E03F0030301335B00BA69B2FB52
S31508002F2CF3F3FB6100BFD0E1001002400024F4006B
S31508002F3CAC4BD3F89C3003F004033B613B69002B84
S31508002F4C03D1FEF7B9FFF861BFE1FEF709FFF86197
S31508002F5CBBE1A44BD3F89C3003F018033B613B69E7
S31508002F6C082B28D0102B09D0002B00D030E0B969DB
S31508002F7C4FF4006000F092FBF86129E0994B1B684E
S31508002F8C03F00203022B20D1964B1B6803F00803AF
S31508002F9C002B05D0934B1B681B0903F00F0305E0A8
S31508002FAC904BD3F894301B0A03F00F038E4A52F851
S31508002FBC2330FB6109E08B4B1B6803F48063B3F584
S31508002FCC806F04D1894BFB6101E000BF7DE100BF36
S31508002FDC7BE1844BD3F8883003F440533B613B695F
S31508002FECB3F5805F09D0B3F5005F0AD0002B00D08B
S31508002FFC11E0FEF74BFFF8610DE0FEF7B1FEF86144
S3150800300C09E0784B1B6803F48063B3F5806F01D134
S3150800301C764BFB6100BF58E1724BD3F8883003F44A
S3150800302C40433B613B69B3F5804F09D0B3F5004F7C
S3150800303C0AD0002B00D011E0FEF728FFF8610DE04E
S3150800304CFEF78EFEF86109E0664B1B6803F4806395
S3150800305CB3F5806F01D1654BFB6100BF35E1614B60
S3150800306CD3F8883003F440333B613B69B3F5803FB2
S3150800307C09D0B3F5003F0AD0002B00D011E0FEF7BB
S3150800308C05FFF8610DE0FEF76BFEF86109E0554B9C
S3150800309C1B6803F48063B3F5806F01D1534BFB6156
S315080030AC00BF12E14F4BD3F89C3003F003033B618E
S315080030BC3B69012B08D0012B02D3022B08D011E057
S315080030CCFEF7E4FEF8610DE0FEF74AFEF86109E04A
S315080030DC444B1B6803F48063B3F5806F01D1434BF3
S315080030ECFB6100BFF1E03F4BD3F8883003F4402373
S315080030FC3B613B69B3F5802F10D0B3F5802F02D80E
S3150800310C002B07D02FE0B3F5002F12D0B3F5402FC4
S3150800311C19D028E0FEF7BAFEF86124E0314BD3F853
S3150800312C943003F00203022B18D14FF4FA43FB61D7
S3150800313C14E02C4B1B6803F48063B3F5806F0FD136
S3150800314C2A4BFB610CE0274BD3F8903003F00203B3
S3150800315C022B07D14FF40043FB6103E000BFB4E038
S3150800316C00BFB2E000BFB0E01E4BD3F8883003F4C2
S3150800317C40133B613B69B3F5801F10D0B3F5801F34
S3150800318C02D8002B07D036E0B3F5001F12D0B3F5E2
S3150800319C401F19D02FE0FEF779FEF8612BE0114B92
S315080031ACD3F8943003F00203022B18D14FF4FA43E8
S315080031BCFB6114E00B4B1B6803F48063B3F5806F5B
S315080031CC16D10A4BFB6113E0064BD3F8903003F08B
S315080031DC0203022B0ED14FF40043FB610AE000BF39
S315080031EC73E000BF00100240B8A900080024F400E0
S315080031FC00BF6AE000BF68E0364BD3F89C3003F496
S3150800320C40133B613B69B3F5801F09D0B3F5001F2A
S3150800321C23D0002B00D050E0FEF7A2FDF8614CE05D
S3150800322C2C4B1B6803F00203022B43D1294B1B685A
S3150800323C03F00803002B05D0264B1B681B0903F06B
S3150800324C0F0305E0234BD3F894301B0A03F00F0346
S3150800325C214A52F82330FB612CE01E4B1B6803F005
S3150800326C0073B3F1007F27D11A4BDB6803F4801384
S3150800327CB3F5801F20D1174BDB681B0A03F07F03BD
S3150800328CBB60BB69BA6802FB03F2124BDB681B090D
S3150800329C03F00F030133B2FBF3F3BB610D4BDB6891
S315080032AC5B0D03F0030301335B00BA69B2FBF3F35E
S315080032BCFB6101E000BF08E000BF06E000BF04E0C8
S315080032CC00BF02E000BF00E000BFFB6918462037CC
S315080032DCBD4680BD00100240B8A9000880B584B070
S315080032EC00AF786039600023FB73704BDB6803F022
S315080032FC0303002B0ED06D4BDB6803F003027B68CF
S3150800330C1B689A4203D17B681B68002B3FD10123AB
S3150800331CFB733CE07B681B68022B0CD0032B13D089
S3150800332C012B20D1614B1B6803F00203002B1DD126
S3150800333C0123FB731AE05D4B1B6803F48063002BB7
S3150800334C16D10123FB7313E0584B1B6803F40033A7
S3150800335C002B0FD1554B1B6803F48023002B09D186
S3150800336C0123FB7306E00123FB7304E000BF02E0B4
S3150800337C00BF00E000BFFB7B002B08D14B494B4B31
S3150800338CDB6823F003027B681B681343CB60FB7B6B
S3150800339C002B40F08680454A444B1B6823F080631B
S315080033AC1360FCF737FFB86009E0FCF733FF0246F9
S315080033BCBB68D31A022B02D90323FB7305E03B4BDC
S315080033CC1B6803F00063002BEFD1FB7B002B68D145
S315080033DC3B68002B13D13548344B1A69344B1340D0
S315080033EC7A68926811027A68D268D20611437A68AA
S315080033FC5268013A12010A43134303612DE03B68F4
S3150800340C012B15D12948294B1A692A4B13407A687E
S3150800341C926811027A6812695208013A52051143E8
S3150800342C7A685268013A12010A431343036114E09D
S3150800343C1E481E4B1A69204B13407A689268110273
S3150800344C7A6852695208013A520611437A685268E8
S3150800345C013A12010A4313430361144A134B1B68BE
S3150800346C43F080631360FCF7D5FEB86009E0FCF7FF
S3150800347CD1FE0246BB68D31A022B02D90323FB736F
S3150800348C05E00A4B1B6803F00063002BEFD0FB7BAF
S3150800349C002B06D10549054B1A697B689B691343B2
S315080034AC0B61FB7B18461037BD4680BD00100240E9
S315080034BC0F80FF070F809FFF0F80FFF980B584B040
S315080034CC00AF786039600023FB73704BDB6803F040
S315080034DC0303002B0ED06D4BDB6803F003027B68ED
S315080034EC1B689A4203D17B681B68002B3FD10123CA
S315080034FCFB733CE07B681B68022B0CD0032B13D0A8
S3150800350C012B20D1614B1B6803F00203002B1DD144
S3150800351C0123FB731AE05D4B1B6803F48063002BD5
S3150800352C16D10123FB7313E0584B1B6803F40033C5
S3150800353C002B0FD1554B1B6803F48023002B09D1A4
S3150800354C0123FB7306E00123FB7304E000BF02E0D2
S3150800355C00BF00E000BFFB7B002B08D14B494B4B4F
S3150800356CDB6823F003027B681B681343CB60FB7B89
S3150800357C002B40F08680454A444B1B6823F0805349
S3150800358C1360FCF747FEB86009E0FCF743FE0246F9
S3150800359CBB68D31A022B02D90323FB7305E03B4BFA
S315080035AC1B6803F00053002BEFD1FB7B002B68D173
S315080035BC3B68002B13D13548344B5A69344B1340AE
S315080035CC7A68926811027A68D268D20611437A68C8
S315080035DC5268013A12010A43134343612DE03B68D2
S315080035EC012B15D12948294B5A692A4B13407A685D
S315080035FC926811027A6812695208013A5205114307
S3150800360C7A685268013A12010A431343436114E07B
S3150800361C1E481E4B5A69204B13407A689268110251
S3150800362C7A6852695208013A520611437A68526806
S3150800363C013A12010A4313434361144A134B1B689C
S3150800364C43F080531360FCF7E5FDB86009E0FCF71E
S3150800365CE1FD0246BB68D31A022B02D90323FB737E
S3150800366C05E00A4B1B6803F00053002BEFD0FB7BDD
S3150800367C002B06D10549054B5A697B689B69134390
S3150800368C4B61FB7B18461037BD4680BD00100240C7
S3150800369C0F80FF070F809FFF0F80FFF980B489B05A
S315080036AC00AF786039600023FB610023BB610023FF
S315080036BC7B617B68B3F5006F0CD17F4BD3F89C30DC
S315080036CC03F0E003BB61BB69602B14D14BF6803366
S315080036DCFB6110E07B68B3F5805F0CD1764BD3F8B1
S315080036EC9C3003F4E063BB61BB69B3F5407F02D140
S315080036FC4BF68033FB61FB69002B40F0D6803B68A8
S3150800370C3B61BB69402B03D0BB69B3F5007F3BD14A
S3150800371C694B1B6803F00073B3F1007F40F0C4805B
S3150800372C654BDB6803F48033002B00F0BD80624BDD
S3150800373CDB681B0903F00F0301333A69B2FBF3F399
S3150800374C3B615D4BDB681B0A03F07F03FB605A4B3E
S3150800375CDB68DB0E03F01F037B617B69002B0AD148
S3150800376C554BDB6803F40033002B02D011237B6125
S3150800377C01E007237B613B69FA6802FB03F27B696C
S3150800378CB2FBF3F3FB618FE0BB69002B3AD14A4BD2
S3150800379C1B6803F00063B3F1006F40F08680464B5C
S315080037AC1B6903F48033002B7FD0434B1B691B0921
S315080037BC03F00F0301333A69B2FBF3F33B613E4B5B
S315080037CC1B691B0A03F07F03FB603B4B1B69DB0E73
S315080037DC03F01F037B617B69002B0AD1364B1B69EF
S315080037EC03F40033002B02D011237B6101E007237D
S315080037FC7B613B69FA6802FB03F27B69B2FBF3F364
S3150800380CFB6152E0BB69802B03D0BB69B3F5806FB3
S3150800381C09D1294B1B6803F48063B3F5806F44D137
S3150800382C264BFB6141E0BB69202B03D0BB69B3F582
S3150800383C807F3AD1204B1B6803F00053B3F1005F2D
S3150800384C33D11D4B5B6903F48033002B2DD01A4BF7
S3150800385C5B691B0903F00F0301333A69B2FBF3F3F7
S3150800386C3B61154B5B691B0A03F07F03FB60124B2C
S3150800387C5B69DB0E03F01F037B617B69002B0AD1A6
S3150800388C0D4B5B6903F40033002B02D011237B61CB
S3150800389C01E007237B613B69FA6802FB03F27B694B
S315080038ACB2FBF3F3FB6100E000BFFB691846243753
S315080038BCBD465DF8047B7047001002400024F400F6
S315080038CC80B483B000AF0346FB71FB79092B01D991
S315080038DCFF2302E0FB793033DBB218460C37BD46C2
S315080038EC5DF8047B704780B582B000AFFB1C0122E3
S315080038FC1946002003F0F4FD7860FB781846083763
S3150800390CBD4680BD80B586B000AF0346FB71384B0B
S3150800391C3B61FB79092B04D00A2B23D0082B61D0E9
S3150800392C52E0344800F0BEF80023FB7510E0FB7D2E
S3150800393C1133DB003A691344FB60FB681B681846B5
S3150800394C00F0B0F82B4800F0ADF8FB7D0133FB75A1
S3150800395C3B6993F88831FA7D9A42E8D3254800F0FA
S3150800396CA1F840E03B6993F885305A1CD1B23A6904
S3150800397C82F885101A463B69134400225A710023B3
S3150800398CFB7516E0FB7D1133DB003A691344FB60CB
S3150800399C3B695A1DFB681B6819461046FCF728FC40
S315080039AC0346002B02D1FB685B689847FB7D013305
S315080039BCFB753B6993F88831FA7D9A42E2D33B69E9
S315080039CC002283F885200EE03B6993F885305A1C53
S315080039DCD1B23A6982F885101A463B691344FA79CA
S315080039EC5A7100E000BF00BF1837BD4680BD00BF46
S315080039FC6C0004201899000880B586B000AF786072
S31508003A0C3960104B7B617B6993F88530002B02D1AA
S31508003A1C0D4800F047F8FFF766FF03463B73002393
S31508003A2C7B733B7B0D2B01D10A233B7307F10C03EC
S31508003A3C184600F037F803463B613B7B1846FFF700
S31508003A4C61FFE0E76C0004201C99000880B584B07F
S31508003A5C02AF114B7B604FF4C6720021786805F0F3
S31508003A6C30FF00230193002300934FF48053032265
S31508003A7C0A490B4805F0BCFC02467B681A607B6851
S31508003A8C00221A714FF4E131002003F033FC386040
S31508003A9C00BF0837BD4680BD6C0004202899000875
S31508003AAC053A000880B584B000AF78607868FCF7F2
S31508003ABCA9FB0346FB73FB7B1A467968002003F0C7
S31508003ACC97FCB860BB68DBB218461037BD4680BD9C
S31508003ADC80B586B000AF0346FB7107F10C030422D0
S31508003AEC0021184605F0EDFEFB79334AA2FB0323A9
S31508003AFC5B09FB75FA79FB7D6FF0630101FB03F338
S31508003B0C13442E4A82FB03129210DB17D31ABB7589
S31508003B1CFB7D1A4692001A44D200D31A9B00DAB2DD
S31508003B2CBB7D19464901C91A8900CB1A5B00DBB261
S31508003B3C1344DAB2FB7913447B75FB7D002B14D046
S31508003B4C04233B75FB7D1846FFF7BAFE03463B7309
S31508003B5CBB7D1846FFF7B4FE03467B737B7D184680
S31508003B6CFFF7AEFE0346BB7319E0BB7D002B0ED0E8
S31508003B7C03233B75BB7D1846FFF7A2FE03463B7332
S31508003B8C7B7D1846FFF79CFE03467B7307E00223F2
S31508003B9C3B757B7D1846FFF793FE03463B7307F18F
S31508003BAC0C031846FFF77EFF03463B613B69DBB205
S31508003BBC18461837BD4680BD1F85EB516766666685
S31508003BCC90B589B000AF0346FB8005237B760023AE
S31508003BDCFB770123BB830123FB820023FB7607F1CA
S31508003BEC080306220021184605F06BFE7B7E013B76
S31508003BFCDBB2BB760BE0BB8B1A46920013445B0018
S31508003C0CBB8397F91A30DBB2013BDBB2BB7697F96B
S31508003C1C1A30002BEFD17B7E013BDBB2BB7638E04A
S31508003C2CFA88BB8BB2FBF3F3FB82FB8A002B05D01D
S31508003C3CFB7F002B02D1BB7E0133FB77FB7F002B6E
S31508003C4C03D197F91A30002B17D1FC7EFB8ADBB20D
S31508003C5C1846FFF735FE03461A4607F12003234498
S31508003C6C03F8182CFA8ABB8B12FB03F39BB2FA885F
S31508003C7CD31AFB80FB7E0133FB76BB8B0D4AA2FB6A
S31508003C8C0323DB08BB8397F91A30DBB2013BDBB2A3
S31508003C9CBB7697F91A30002BC2DA07F108031846D7
S31508003CACFFF700FF03463B613B69DBB21846243736
S31508003CBCBD4690BDCDCCCCCC80B596B000AF0346F6
S31508003CCC0A46FB711346BB71BB79002B02D14FF028
S31508003CDCFF337CE000237B65FB7987F84F3097F838
S31508003CEC4F3003F00F027B6D9B0007F158010B4414
S31508003CFC43F8382C97F84F301B0987F84F307B6DF3
S31508003D0C01337B6597F84F30002BE8D100233B65D0
S31508003D1C3DE07A6D3B6DD31A013B9B0007F15802C7
S31508003D2C134453F8383C092B13DD7A6D3B6DD31AC3
S31508003D3C013B9B0007F15802134453F8383CDBB29D
S31508003D4C3733D9B207F114023B6D13440A461A707D
S31508003D5C12E07A6D3B6DD31A013B9B0007F15802B2
S31508003D6C134453F8383CDBB23033D9B207F114029A
S31508003D7C3B6D13440A461A703B6D013307F1580222
S31508003D8C1344002203F8442C3B6D01333B657A6DD2
S31508003D9C3B6D9A42BDDC07F108030A22302118460E
S31508003DAC05F08FFDBA797B6DD31A07F10802D01886
S31508003DBC7B6D01331A4607F11403194605F076FD97
S31508003DCC07F108031846FFF76DFE0346BB64184651
S31508003DDC5837BD4680BD000080B485B000AF78600A
S31508003DEC7B68002B02D14FF0FF3328E0174BFB60A2
S31508003DFCFB6893F888311F2B02D94FF0FF331EE06E
S31508003E0CFB6893F888311A467B681968FB68113287
S31508003E1C43F83210FB6893F8883118467B685A6861
S31508003E2CF96800F11103DB000B445A60FB6893F840
S31508003E3C88310133DAB2FB6883F8882100231846E7
S31508003E4C1437BD465DF8047B704700BF6C00042030
S31508003E5C80B586B000AF7B600346FB730B46BB810F
S31508003E6C13467B810E4B7B610E48FFF71BFE082021
S31508003E7C05F00FFB38613B6900221A603B69BA8969
S31508003E8C9A803B697A89DA807B691B783A690821BA
S31508003E9C184605F026FB00BF1837BD4680BD00BF87
S31508003EACF80104203099000880B586B000AF7B6015
S31508003EBC0346FB730B46BB8113467B810E4B7B611A
S31508003ECC0E48FFF7EFFD082005F0E3FA38613B6969
S31508003EDC01221A603B69BA899A803B697A89DA8029
S31508003EEC7B691B783A690821184605F0FAFA00BF6F
S31508003EFC1837BD4680BD00BFF8010420409900085C
S31508003F0C80B586B000AF7B600346FB730B46BB815E
S31508003F1C13467B810E4B7B610E48FFF7C3FD0820C9
S31508003F2C05F0B7FA38613B6902221A603B69BA890F
S31508003F3C9A803B697A89DA807B691B783A69082109
S31508003F4C184605F0CEFA00BF1837BD4680BD00BF2F
S31508003F5CF80104204C99000880B586B000AF7B6048
S31508003F6C0346FB730B46BB8113467B810E4B7B6169
S31508003F7C0E48FFF797FD082005F08BFA38613B6968
S31508003F8C03221A603B69BA899A803B697A89DA8076
S31508003F9C7B691B783A690821184605F0A2FA00BF16
S31508003FAC1837BD4680BD00BFF80104205899000893
S31508003FBC80B582B000AF224B7B6000F029FD002251
S31508003FCC2049002004F09AFA38603B68002B02D08E
S31508003FDC1D48FFF767FD00221C49012004F08EFAE4
S31508003FEC38603B68002B02D01748FFF75BFD0022B0
S31508003FFC1749022004F082FA38603B68002B02D07D
S3150800400C1148FFF74FFD00221249032004F076FAF7
S3150800401C38603B68002B02D00B48FFF743FD7B68E2
S3150800402C08334FF41632FF21184605F04AFC7B6814
S3150800403C0833184600F046FD00BF0837BD4680BD5C
S3150800404CF80104205D3E000868990008B53E000892
S3150800405C0D3F0008653F000880B590B000AF0346D9
S3150800406C0A46FB801346BB809D4B7B637B6B03F533
S3150800407C16330D331B78002B0AD1FB88BB87FB88BC
S3150800408C7B877B6B03F516330D3301221A7018E008
S3150800409C7B6B03F5163308331B88FA889A4208D2C9
S315080040ACFB88BB877B6B03F5163308331B887B872A
S315080040BC07E07B6B03F5163308331B88BB87FB8835
S315080040CC7B87BA887B6B03F516330A331B88D31A9E
S315080040DC07EE903AF8EEE76AFA887B6B03F5163327
S315080040EC08331B88D31A07EE903AB8EEE77AC6EE71
S315080040FC877AC7ED0C7ABB8807EE903AB8EE677AE2
S3150800410CFB8807EE903AF8EE676AD7ED0C7A66EEFE
S3150800411CA77A77EE677AFDEEE77AC7ED007A3B88E1
S3150800412CFB85BB8FFB87C0E0FB8F07EE903AB8EE9A
S3150800413C677AD7ED0C7A27EE277AB7F92E3007EE81
S3150800414C903AF8EEE77A77EE277AFDEEE77AC7ED3E
S3150800415C007A3B881BB2BB85BB8DC3F5A0720132B6
S3150800416C13461B019B1A1B011A46FB8F013B134472
S3150800417CBB60BB8DC3F5A072013213461B019B1A9B
S3150800418C1B011A46FB8F1344FB60BB8DC3F5A0724B
S3150800419C013213461B019B1A1B011A46FB8F01336E
S315080041AC13443B61BB8DC3F5A07213461B019B1AC6
S315080041BC1B011A46FB8F013B13447B61BB8DC3F570
S315080041CCA07213461B019B1A1B011A46FB8F13443C
S315080041DCBB61BB8DC3F5A07213461B019B1A1B0151
S315080041EC1A46FB8F01331344FB61BB8DC3F59F72D3
S315080041FC013213461B019B1A1B011A46FB8F013B06
S3150800420C13443B62BB8DC3F59F72013213461B01E7
S3150800421C9B1A1B011A46FB8F13447B62BB8DC3F595
S3150800422C9F72013213461B019B1A1B011A46FB8F00
S3150800423C01331344BB62002387F839302EE097F814
S3150800424C39309B0007F14002134453F8383CB3F558
S3150800425C963F11D32348FFF725FCFB8F1846FFF72B
S3150800426CAFFC2148FFF71EFCBB8D1846FFF7A8FCD0
S3150800427C1E48FFF717FC0CE097F839309B0007F13E
S3150800428C4002134453F8382C7B6B0432002123F874
S3150800429C121097F83930013387F8393097F83930D6
S315080042AC082BCCD9FB8F0133FB87FA8F7B8F9A426D
S315080042BCFFF43AAF7B6B0833184604F0F1F87B6BC6
S315080042CC03F516330833FA881A807B6B03F5163315
S315080042DC0A33BA881A8000BF4037BD4680BD00BF76
S315080042ECF801042084990008949900089C99000800
S315080042FC80B485B000AF03460A46FB801346BB80E4
S3150800430C094BFB60FB6803F516330C3300221A7055
S3150800431CFB6803F516330D3300221A7000BF1437E9
S3150800432CBD465DF8047B7047F801042080B584B05F
S3150800433C00AF03460A46FB801346BB80094BFB605D
S3150800434CFB6808334FF41632FF21184605F0B9FA04
S3150800435CFB680833184604F0A3F800BF1037BD46AF
S3150800436C80BD00BFF801042080B588B000AF786026
S3150800437C3960134BFB61FFF71BFEFB691B7807F1D2
S3150800438C140207F10801184605F0C3F8796907F114
S3150800439C0C030822184605F089FA7B69184605F0BD
S315080043AC8FF8FB68074A52F82330BB61BB69002BB0
S315080043BCE3D03A8A798ABB6910469847DDE700BF8D
S315080043CCF8010420C89E000880B584B002AF0E4BD5
S315080043DC7B600E4A0021786805F073FA0023019376
S315080043EC002300934FF4805303220949094804F02B
S315080043FCFFFF02467B685A607B680D221A7000BF65
S3150800440C0837BD4680BD00BFF801042010580200CD
S3150800441CA09900087543000880B400AFFEE780B584
S3150800442C96B000AF07F1140344220021184605F094
S3150800443C48FA3B4600221A605A609A60DA601A619A
S3150800444C0020FCF761FF0346002B01D0FFF7E4FFC1
S3150800445C18237B610123BB620123FB6200233B63A8
S3150800446C60237B630223FB6301233B6401237B6488
S3150800447C3C23BB640223FB6402233B6502237B6556
S3150800448C07F114031846FCF7F3FF0346002B01D07B
S3150800449CFFF7C2FF0F233B6003237B600023BB603F
S315080044AC0023FB6000233B613B4605211846FDF7BC
S315080044BC31FB0346002B01D0FFF7AEFF00BF583780
S315080044CCBD4680BD80B5C2B000AF07F17403942217
S315080044DC0021184605F0F5F9FFF7A1FF40237B6785
S315080044EC0023C7F8C83007F174031846FDF7B6FD64
S315080044FC0346002B01D0FFF78FFF80237B67002331
S3150800450CC7F8CC3007F174031846FDF7A7FD034628
S3150800451C002B01D0FFF780FF4FF400637B67002365
S3150800452CC7F8E0300123BB670223FB670C23C7F8E7
S3150800453C80300223C7F884300223C7F88830022358
S3150800454CC7F88C304FF48033C7F8903007F17403F2
S3150800455C1846FDF783FD0346002B01D0FFF75CFFD9
S3150800456C4FF080737B670023C7F8003107F174039B
S3150800457C1846FDF773FD0346002B01D0FFF74CFFD9
S3150800458C984A984B1B6E43F480431366954B1B6EE7
S3150800459C03F480433B673B6F924A924B9B6D43F403
S315080045AC003393658F4B9B6D03F40033FB66FB6EF0
S315080045BC8C4A8C4B9B6D43F480239365894B9B6D7E
S315080045CC03F48023BB66BB6E864A864B9B6D43F40D
S315080045DC00139365834B9B6D03F400137B667B6E0C
S315080045EC804A804B9B6D43F4800393657D4B9B6D92
S315080045FC03F480033B663B6E7A4A7A4B1B6E43F494
S3150800460C00131366774B1B6E03F40013FB65FB6DE7
S3150800461C744A744BDB6C43F48013D364714BDB6CB8
S3150800462C03F48013BB65BB6D6E4A6E4B1B6D43F46E
S3150800463C807313656B4B1B6D03F480737B657B6D05
S3150800464C684A684B1B6D43F400731365654B1B6D09
S3150800465C03F400733B653B6D624A624B9B6D43F0FA
S3150800466C010393655F4B9B6D03F00103FB64FB6CC5
S3150800467C5C4A5C4B9B6D43F002039365594B9B6DEF
S3150800468C03F00203BB64BB6C564A564B9B6D43F056
S3150800469C04039365534B9B6D03F004037B647B6C9B
S315080046AC504A504B9B6D43F0080393654D4B9B6DDD
S315080046BC03F008033B643B6C4A4A4A4B1B6E43F4B3
S315080046CC80331366474B1B6E03F48033FB63FB6B1B
S315080046DC444A444B1B6E43F400331366414B1B6E22
S315080046EC03F40033BB63BB6B3E4A3E4B1B6E43F471
S315080046FC802313663B4B1B6E03F480237B637B6B17
S3150800470C384A384B9B6C43F001039364354B9B6CCE
S3150800471C03F001033B633B6B324A324B9B6C43F011
S3150800472C040393642F4B9B6C03F00403FB62FB6A34
S3150800473C2C4A2C4B1B6E43F480531366294B1B6E69
S3150800474C03F48053BB62BB6A264A264B9B6D43F423
S3150800475C80439365234B9B6D03F480437B627B6A92
S3150800476C204A204B9B6D43F4004393651D4B9B6D70
S3150800477C03F400433B623B6A1A4A1A4B9B6D43F09F
S3150800478C80539365174B9B6D03F08053FB61FB6954
S3150800479C144A144BDB6C43F00103D364114BDB6CEA
S315080047AC03F00103BB61BB690E4A0E4BDB6C43F08D
S315080047BC0203D3640B4BDB6C03F002037B617B694E
S315080047CC084A084BDB6C43F00403D364054BDB6CDB
S315080047DC03F004033B613B69024A024BDB6C43F072
S315080047EC080301E000100240D3641C4BDB6C03F099
S315080047FC0803FB60FB68194A184BDB6C43F0100383
S3150800480CD364164BDB6C03F0100207F108031A602D
S3150800481C07F108031B68114A104BDB6C43F02003A5
S3150800482CD3640E4BDB6C03F020023B1D1A603B1D58
S3150800483C1B680A4A094BDB6C43F04003D364074BED
S3150800484CDB6C03F040023B461A603B461B68FCF7E0
S3150800485CFFFD00BF07F58477BD4680BD00100240FA
S3150800486C80B582B000AF5D484FF400739BB200224E
S3150800487C1946FBF7C7FFBFF34F8F0123FB70F91CD3
S3150800488C01230022002002F0DBFA78607B68002BFB
S3150800489C40F08F80962004F069FE1323FB70F91CF8
S315080048AC01230022002002F0CBFA78607B68002BEB
S315080048BC40F081803623FB70F91C0123002200206E
S315080048CC02F0BEFA78607B68002B76D143484FF429
S315080048DC00739BB201221946FBF794FFBFF34F8F67
S315080048EC4823FB70F91C01230022002002F0A8FAC9
S315080048FC78607B68002B62D138484FF400739BB202
S3150800490C00221946FBF77EFFBFF34F8F3A23FB7045
S3150800491CF91C01230022002002F092FA78607B68C9
S3150800492C002B4ED12D484FF400739BB20122194629
S3150800493CFBF768FFBFF34F8F5523FB70F91C012358
S3150800494C0022002002F07CFA78607B68002B3AD1B2
S3150800495C22484FF400739BB200221946FBF752FF0C
S3150800496CBFF34F8F1123FB70F91C01230022002083
S3150800497C02F066FA78607B68002B26D13C2004F09E
S3150800498CF5FD2923FB70F91C01230022002002F0F7
S3150800499C57FA78607B68002B19D18023FB70F91CB9
S315080049AC01230022012002F04BFA78607B68002B69
S315080049BC0EE000BF0CE000BF0AE000BF08E000BF35
S315080049CC06E000BF04E000BF02E000BF00E000BF45
S315080049DC7B6818460837BD4680BD00BF00080048EE
S315080049EC80B582B000AF094B7B600822002178683D
S315080049FC04F067FF7B6801221A607B6801225A6003
S31508004A0C002318460837BD4680BD00BF085A062045
S31508004A1C80B582B000AF254B3B603B681B68012B09
S31508004A2C02D04FF0FF333DE03B685B68012B02D0A8
S31508004A3C4FF0FF3336E01E49002002F08FF97860FC
S31508004A4C7B68002B03D01B48FFF72CF829E01A4982
S31508004A5C012002F083F978607B68002B03D0174895
S31508004A6CFFF720F81DE04FF090404FF480739BB28F
S31508004A7C01221946FBF7C6FEBFF34F8F142004F02C
S31508004A8C75FDFFF7EDFE78607B68002B03D00C48AC
S31508004A9CFFF708F805E03B6802221A603B68022219
S31508004AAC5A607B6818460837BD4680BD085A0620EA
S31508004ABCF09E0008B0990008F89E0008C4990008F2
S31508004ACCDC99000880B586B000AF7860654B3B6111
S31508004ADC3B691B68022B02D04FF0FF33BDE03B69E4
S31508004AEC03221A6060484FF400739BB200221946E1
S31508004AFCFBF788FEBFF34F8F2A233B7307F10C0194
S31508004B0C01230022002002F09BF978617B69002BB7
S31508004B1C40F0928054484FF400739BB20122194618
S31508004B2CFBF770FEBFF34F8F00233B7300237B7399
S31508004B3C07F10C0102230022002002F081F97861AA
S31508004B4C7B69002B7AD100233B73EF237B7307F128
S31508004B5C0C0102230022002002F072F978617B69AD
S31508004B6C002B6DD140484FF400739BB200221946B6
S31508004B7CFBF748FEBFF34F8F2B233B7307F10C0152
S31508004B8C01230022002002F05BF978617B69002B77
S31508004B9C58D135484FF400739BB201221946FBF7DE
S31508004BAC31FEBFF34F8F00233B7300237B7307F152
S31508004BBC0C0102230022002002F042F978617B697D
S31508004BCC002B41D101233B733F237B7307F10C0167
S31508004BDC02230022002002F033F978617B69002B4E
S31508004BEC34D121484FF400739BB200221946FBF7C7
S31508004BFC09FEBFF34F8F2C233B7307F10C010123DE
S31508004C0C0022002002F01CF978617B69002B1FD169
S31508004C1C15484FF400739BB201221946FBF7F2FDB7
S31508004C2CBFF34F8F4FF416327968002002F07CF9E7
S31508004C3C78617B69002B0CE000BF0AE000BF08E036
S31508004C4C00BF06E000BF04E000BF02E000BF00E0C2
S31508004C5C00BF3B6902221A607B6918461837BD46A5
S31508004C6C80BD00BF085A06200008004880B586B0EB
S31508004C7C00AF78603960314B7B617B68002B02D0C2
S31508004C8C3B68002B02D14FF0FF3352E07B695B681F
S31508004C9C022B02D06FF003034BE0D1233B730023A6
S31508004CAC7B730023BB7307F1080207F10C0103237E
S31508004CBC012002F0C5F838613B69002B28D17B7AB4
S31508004CCC1B02BA7A1343DB109AB27B681A8001204E
S31508004CDC04F04CFC91233B7300237B730023BB73BA
S31508004CEC07F1080207F10C010323012002F0A8F8CA
S31508004CFC38613B69002B0DD17B7A1B02BA7A1343B8
S31508004D0CDB109AB23B681A80012004F02FFC02E0F3
S31508004D1C00BF00E000BF80233B7307F10C010123A1
S31508004D2C0022012002F08CF83861012004F01EFCE8
S31508004D3C3B6918461837BD4680BD00BF085A062081
S31508004D4C80B584B000AF0023FB730B4BBB60BB680C
S31508004D5C1A68BB685B689BB219461046FBF73AFDA6
S31508004D6C0346FB71FB79002B01D10123FB73FB7BFB
S31508004D7C18461037BD4680BDE89E000880B582B03F
S31508004D8C00AF074B7B60002300227968002001F0F6
S31508004D9CC7FC38603B6818460837BD4680BD00BF5F
S31508004DAC009F0008B0B58CB000AFF860B9607A60A7
S31508004DBC0C4B07F1100403F5C4750FCD0FC495E819
S31508004DCC070084E80700FB68BB6107F110017B68E4
S31508004DDCBA68002001F0A4FCF862FB6A1846303762
S31508004DECBD46B0BD009F0008B0B58AB000AF78606C
S31508004DFC0C4B07F1080403F5E0750FCD0FC495E8C5
S31508004E0C070084E807007B683B6107F1080100236B
S31508004E1C0022002001F084FC78627B6A1846283749
S31508004E2CBD46B0BD009F000880B582B000AF074BE9
S31508004E3C7B60002300227968002001F071FC386041
S31508004E4C3B6818460837BD4680BD00BF389F00082A
S31508004E5CB0B58CB000AFF860B9607A600C4B07F14E
S31508004E6C100403F1C4050FCD0FC495E8070084E8B8
S31508004E7C0700FB68BB6107F110017B68BA68002064
S31508004E8C01F07EFCF862FB6A18463037BD46B0BDA9
S31508004E9C009F000880B582B000AF074B1968074B16
S31508004EAC1B681A46002001F0F5F978607B681846ED
S31508004EBC0837BD4680BD00BF00000420040004204E
S31508004ECC80B584B000AF7860064BFB6001237A6826
S31508004EDCF968002001F054FCB860BB681846103716
S31508004EECBD4680BD549F000880B584B000AF78607D
S31508004EFC064BFB6002237A68F968002001F040FC37
S31508004F0CB860BB6818461037BD4680BD84A100083A
S31508004F1C80B584B000AF7860074BFB604FF48073A4
S31508004F2C7A68F968002001F02BFCB860BB68184653
S31508004F3C1037BD4680BD00BF10A2000880B58AB0E8
S31508004F4C00AFF860B9607A60002387F82730002331
S31508004F5CFB756FF00103FB617B683B623B6A012BB7
S31508004F6C01D101233B62BB68002B1AD0FB6887F87A
S31508004F7C273016E007F117031846FFF7A1FFB861AB
S31508004F8CBB69002B0AD1FB7D1A46FB681A4097F8B9
S31508004F9C27309A4202D10023FB6107E0012004F076
S31508004FACE5FA3B6A5A1E3A62002BE3D1FB691846AE
S31508004FBC2837BD4680BD000080B582B000AF074BD0
S31508004FCC7B600C220021786804F07BFC7B6801224C
S31508004FDC1A60002318460837BD4680BD105A0620AD
S31508004FEC80B582B000AF0D4B7B607B681B68012BCC
S31508004FFC02D04FF0FF330DE00949002001F09EF86E
S3150800500C38603B68002B01D03B6803E07B680222C2
S3150800501C1A60002318460837BD4680BD105A06206C
S3150800502C64A2000880B582B000AF0D4B7B607B682C
S3150800503C1B68022B02D04FF0FF330CE0002001F066
S3150800504C13FA38603B68002B01D03B6803E07B6899
S3150800505C01221A60002318460837BD4680BD00BFDA
S3150800506C105A062080B58AB000AFF860B9607A602D
S3150800507C454BFB61BB68002B02D14FF0FF337FE039
S3150800508CFB691B68022B02D04FF0FF3378E0FB69F3
S3150800509C03221A60FB68DBB2C3F580737B627A6AFB
S315080050AC7B689A4201D97B687B62FB683B62FA682B
S315080050BC7B681344BB61FFF761FE78617B69002B43
S315080050CC03D03248FEF7EEFC56E06422012102209A
S315080050DCFFF734FF78617B69002B03D02C48FEF769
S315080050ECE1FC49E07A6AB968386AFFF75BFE7861D1
S315080050FC7B69002B03D02748FEF7D4FC3CE06422DE
S3150800510C00210120FFF71AFF78617B69002B03D079
S3150800511C2148FEF7C7FC2FE0FFF786FE78617B690E
S3150800512C002B03D01D48FEF7BDFC25E064220021A8
S3150800513C0220FFF703FF78617B69002B03D0184820
S3150800514CFEF7B0FC18E03A6A7B6A13443B62BA680D
S3150800515C7B6A1344BB603B6A03F58072BB699A424F
S3150800516C03D9BA693B6AD31A01E04FF480737B62A0
S3150800517C3A6ABB699A429ED3FB6902221A600023DB
S3150800518C18462837BD4680BD105A06200C9A0008CA
S3150800519C209A0008889A00089C9A0008549A0008D5
S315080051AC6C9A000880B584B000AF7860304BBB6051
S315080051BCBB681B68022B02D04FF0FF3353E07B68A9
S315080051CCB3F5802F02D34FF0FF334CE0BB680322B4
S315080051DC1A60FFF7D3FDF860FB68002B03D025484F
S315080051ECFEF760FC3BE0642201210220FFF7A6FED5
S315080051FCF860FB68002B03D01F48FEF753FC2EE023
S3150800520C7868FFF7F1FDF860FB68002B03D01B48A4
S3150800521CFEF748FC23E0642200210120FFF78EFEEE
S3150800522CF860FB68002B03D01548FEF73BFC16E02C
S3150800523CFFF7FAFDF860FB68002B03D01148FEF760
S3150800524C31FC0CE0642200210220FFF777FEF8609F
S3150800525CFB68002B03D00C48FEF724FC00BFBB6888
S3150800526C02221A60FB6818461037BD4680BD00BF7F
S3150800527C105A06200C9A0008209A0008B09A0008C2
S3150800528C9C9A0008549A00086C9A000880B586B057
S3150800529C00AFF860B9607A60104B7B61BB68002B75
S315080052AC02D14FF0FF3315E07B691B68022B02D045
S315080052BC4FF0FF330EE07B6903221A607A68B968EF
S315080052CCF868FFF7C5FD38613B69002B7B6902223C
S315080052DC1A603B6918461837BD4680BD105A062019
S315080052EC80B582B000AFFFF7D5FD78607B681846AD
S315080052FC0837BD4680BD000080B584B000AF786025
S3150800530C0B4BFB60FB681B68022B02D04FF0FF337C
S3150800531C0AE0FB6803221A607868FFF7E5FDB860B7
S3150800532CFB6802221A60BB6818461037BD4680BD5A
S3150800533C105A062080B584B000AF78600B4BFB6022
S3150800534CFB681B68022B02D04FF0FF330AE0FB68A0
S3150800535C03221A607868FFF7DBFDB860FB68022247
S3150800536C1A60BB6818461037BD4680BD105A062011
S3150800537C80B584B000AF3B1D02220021184604F00C
S3150800538CA0FA3B1D1846FFF7B7FF0346BB60BB6880
S3150800539C002B02D00E48FEF785FB0E48FEF782FB63
S315080053AC0023FB600CE03A1DFB6813441B78184677
S315080053BCFEF78EFB0848FEF775FBFB680133FB60AE
S315080053CCFB68012BEFD900BF1037BD4680BD00BF67
S315080053DCC09A0008E09A0008E49A000880B5C4B0A0
S315080053EC00AF3B464FF480720021184604F069FA68
S315080053FC3B461846FFF79EFF0346C7F80431D7F815
S3150800540C0431002B02D02948FEF74CFB2848FEF73E
S3150800541C49FB2848FEF746FB2748FEF743FB0023C3
S3150800542CC7F80C3139E00023C7F8083129E0D7F85A
S3150800543C0C311A01D7F808311344C7F80031D7F8DC
S3150800544C0831002B0CD11D48FEF72CFBD7F8003180
S3150800545CDBB202211846FEF72FFC1948FEF722FB91
S3150800546C1848FEF71FFB3A46D7F8003113441B7849
S3150800547C02211846FEF720FCD7F808310133C7F885
S3150800548C0831D7F808310F2BD1D90F48FEF70AFB8C
S3150800549CD7F80C310133C7F80C31D7F80C310F2B70
S315080054ACC1D900BF07F58877BD4680BDE89A0008C4
S315080054BC089B0008409B0008789B0008B09B0008D6
S315080054CCB49B0008B89B0008E49A000880B582B023
S315080054DC00AF0948FEF7E6FAFFF750FC78607B68E0
S315080054EC002B04D00548FEF7DDFA00BF00BF00BF4D
S315080054FC0837BD4680BD00BFBC9B00080C9A000847
