S00E000053797374656D2E7372656391
S3150800000000000320917F0008E17F0008E17F0008D7
S31508000010E17F0008E17F0008E17F0008000000009A
S31508000020000000000000000000000000AD6E00089F
S31508000030E17F000800000000AD6E0008AD6E000804
S31508000040AD6E0008AD6E0008AD6E0008AD6E000816
S31508000050AD6E0008AD6E0008AD6E0008AD6E000806
S31508000060AD6E0008AD6E0008AD6E0008AD6E0008F6
S31508000070AD6E0008AD6E0008AD6E0008AD6E0008E6
S31508000080AD6E0008AD6E0008AD6E0008AD6E0008D6
S31508000090AD6E0008AD6E0008AD6E0008AD6E0008C6
S315080000A0AD6E0008AD6E0008AD6E0008AD6E0008B6
S315080000B0AD6E0008AD6E0008AD6E0008AD6E0008A6
S315080000C0AD6E0008AD6E0008AD6E0008AD6E000896
S315080000D0AD6E0008AD6E0008AD6E0008AD6E000886
S315080000E0AD6E0008AD6E0008AD6E0008AD6E000876
S315080000F0AD6E0008AD6E0008AD6E00080000000089
S31508000100AD6E0008AD6E0008AD6E0008AD6E000855
S31508000110AD6E0008AD6E0008AD6E0008AD6E000845
S31508000120AD6E0008AD6E0008AD6E0008AD6E000835
S31508000130AD6E0008AD6E0008AD6E0008AD6E000825
S31508000140AD6E0008AD6E0008AD6E0008AD6E000815
S31508000150AD6E0008AD6E0008AD6E0008AD6E000805
S31508000160AD6E0008AD6E0008AD6E0008AD6E0008F5
S31508000170AD6E0008AD6E000800000000000000002B
S31508000180AD6E0008AD6E0008AD6E0008AD6E0008D5
S31508000190AD6E0008AD6E000800000000000000000B
S315080001A00000000000000000AD6E0008AD6E0008FB
S311080001B0AD6E0008AD6E0008AD6E0008CC
S315080001BC10B5054C237833B9044B13B10448AFF387
S315080001CC00800123237010BD60000420000000008D
S315080001DC3881000808B5034B1BB103490348AFF334
S315080001EC008008BD00000000640004203881000867
S315080001FC10F8012B11F8013B012A28BF9A42F7D0B7
S3150800020CD01A7047034613F8012B002AFBD1181A8B
S3150800021C0138704780B400AF034B1B681846BD46BF
S3150800022C5DF8047B704700BF00A4072080B400AFBC
S3150800023C044BDB681B0A03F007031846BD465DF83A
S3150800024C047B704700ED00E080B483B000AF034632
S3150800025CFB71094997F907305B09FA7902F01F0215
S3150800026C012000FA02F241F8232000BF0C37BD46E4
S3150800027C5DF8047B704700BF00E100E080B483B0F2
S3150800028C00AF03463960FB7197F90730002B0BDA80
S3150800029C0D49FB7903F00F03043B3A68D2B21201FD
S315080002ACD2B20B441A7609E0084997F907303A682E
S315080002BCD2B21201D2B20B4483F8002300BF0C371A
S315080002CCBD465DF8047B704700ED00E000E100E0F8
S315080002DC80B489B000AFF860B9607A60FB6803F047
S315080002EC0703FB61FB69C3F10703042B28BF04232F
S315080002FCBB61FB690433062B02D9FB69033B00E09F
S3150800030C00237B610122BB6902FA03F35A1EBB6800
S3150800031C1A407B699A4001217B6901FA03F3591E3D
S3150800032C7B680B40134318462437BD465DF8047B9F
S3150800033C704780B586B000AF0346B9607A60FB7328
S3150800034C00237B61FFF772FF78617A68B968786970
S3150800035CFFF7BEFF024697F90F3011461846FFF70E
S3150800036C8DFF00BF1837BD4680BD80B582B000AF83
S3150800037C0346FB7197F907301846FFF765FF00BF70
S3150800038C0837BD4680BD80B584B000AF78600023C1
S3150800039CFB737B6893F82530DBB2022B05D07B68A0
S315080003AC0422DA630123FB7347E07B681B687A68CF
S315080003BC1268126822F00E021A607B681B687A684B
S315080003CC1268126822F001021A607B689B6C7A68C4
S315080003DC926C126822F480721A607B681B6C7A68BD
S315080003EC526C02F01C02012101FA02F25A607B6877
S315080003FCDB6C7A68126D5A607B685B6D002B0CD0CF
S3150800040C7B685B6D7A68526D126822F480721A608A
S3150800041C7B689B6D7A68D26D5A607B68012283F87B
S3150800042C25207B68002283F824207B689B6B002B95
S3150800043C03D07B689B6B78689847FB7B184610370C
S3150800044CBD4680BD80B483B000AF78607B6893F8F6
S3150800045C2530DBB218460C37BD465DF8047B704771
S3150800046C80B487B000AF7860396000237B6166E1A1
S3150800047C3B681A6801217B6901FA03F31340FB6098
S3150800048CFB68002B00F058813B685B6803F003039C
S3150800049C012B05D03B685B6803F00303022B30D1B4
S315080004AC7B689B683B617B695B00032202FA03F35A
S315080004BCDB433A6913403B613B68DA687B695B004E
S315080004CC02FA03F33A6913433B617B683A699A600B
S315080004DC7B685B683B6101227B6902FA03F3DB43A9
S315080004EC3A6913403B613B685B681B0903F00102E0
S315080004FC7B6902FA03F33A6913433B617B683A69F1
S3150800050C5A603B685B6803F00303032B17D07B68C0
S3150800051CDB683B617B695B00032202FA03F3DB436E
S3150800052C3A6913403B613B689A687B695B0002FA3F
S3150800053C03F33A6913433B617B683A69DA603B68B3
S3150800054C5B6803F00303022B23D17B69DA087B680B
S3150800055C083253F822303B617B6903F007039B0092
S3150800056C0F2202FA03F3DB433A6913403B613B68FB
S3150800057C1A697B6903F007039B0002FA03F33A69CD
S3150800058C13433B617B69DA087B680832396943F89F
S3150800059C22107B681B683B617B695B00032202FAAD
S315080005AC03F3DB433A6913403B613B685B6803F032
S315080005BC03027B695B0002FA03F33A6913433B6156
S315080005CC7B683A691A603B685B6803F44033002B16
S315080005DC00F0B280614A614B1B6E43F0010313664F
S315080005EC5E4B1B6E03F00103BB60BB685C4A7B6900
S315080005FC9B08023352F823303B617B6903F00303F3
S3150800060C9B000F2202FA03F3DB433A6913403B6162
S3150800061C7B68B3F1904F2BD07B68524A934225D016
S3150800062C7B68514A93421FD07B68504A934219D033
S3150800063C7B684F4A934213D07B684E4A93420DD03F
S3150800064C7B684D4A934207D07B684C4A934201D14A
S3150800065C07230EE008230CE006230AE0052308E02E
S3150800066C042306E0032304E0022302E0012300E04E
S3150800067C00237A6902F00302920093403A69134305
S3150800068C3B6137497B699B0802333A6941F8232059
S3150800069C3B4B9B683B61FB68DB433A6913403B6108
S315080006AC3B685B6803F48013002B03D03A69FB683C
S315080006BC13433B61324A3B699360314BDB683B61C0
S315080006CCFB68DB433A6913403B613B685B6803F4A0
S315080006DC0013002B03D03A69FB6813433B61284A85
S315080006EC3B69D360264B5B683B61FB68DB433A6925
S315080006FC13403B613B685B6803F40033002B03D063
S3150800070C3A69FB6813433B611D4A3B6953601C4BB2
S3150800071C1B683B61FB68DB433A6913403B613B68EA
S3150800072C5B6803F48033002B03D03A69FB681343E8
S3150800073C3B61134A3B6913607B6901337B613B68F8
S3150800074C1A687B6922FA03F3002B7FF491AE00BF7B
S3150800075C1C37BD465DF8047B704700BF001002408D
S3150800076C000001400004004800080048000C00483E
S3150800077C001000480014004800180048001C0048E7
S3150800078C0004014080B485B000AF78600B467B80CE
S3150800079C7B681A697B881340002B02D00123FB73F4
S315080007AC01E00023FB73FB7B18461437BD465DF846
S315080007BC047B704780B483B000AF78600B467B80AF
S315080007CC13467B707B78002B03D07A887B689A61FA
S315080007DC02E07A887B689A6200BF0C37BD465DF8E2
S315080007EC047B704780B584B000AF78607B681B6863
S315080007FC9B69FB607B681B681B68BB607B685B6BD3
S3150800080C002B05D07B685B6BBA68F96878689847E3
S3150800081C00BF1037BD4680BD80B586B000AF786086
S3150800082C7B681B689B697B617B681B681B683B61E3
S3150800083C7B6903F48073002B0FD03B6903F08003AC
S3150800084C002B0AD07B685B6C43F001027B685A6408
S3150800085C7B681B684FF48072DA617B6903F48063EA
S3150800086C002B0FD03B6903F08003002B0AD07B6862
S3150800087C5B6C43F008027B685A647B681B684FF410
S3150800088C8062DA617B6903F40073002B0FD03B6935
S3150800089C03F08003002B0AD07B685B6C43F00202E2
S315080008AC7B685A647B681B684FF40072DA617B6854
S315080008BC5B6CFB60FB6803F00B03002B03D0F96839
S315080008CC786800F03FFB00BF1837BD4680BD80B581
S315080008DC86B000AFF860B9607A60FB68DB6A7B614A
S315080008ECBB683B61FB6893F84030012B01D10223AE
S315080008FCE1E0FB68012283F840203B6903F0200302
S3150800090C002B08D07B6803F02003002B03D0396931
S3150800091CF86800F0B7F93B6903F01003002B4BD0CD
S3150800092C7B6803F01003002B46D0FB685B8D9BB2EB
S3150800093C002B28D1FB6893F84130DBB2282B08D161
S3150800094C7B69B3F1007F04D13969F86800F0A4FA21
S3150800095C31E0FB6893F84130DBB2292B0ED17B6969
S3150800096C13F5803F0AD0FB681B681022DA61F86819
S3150800097C00F0E1FBF86800F026F91CE0FB681B6840
S3150800098C1022DA618FE0FB681B681022DA61FB68BB
S3150800099C5B6C43F00402FB685A647B69002B03D03A
S315080009AC7B69B3F1807F7ED1FB685B6C1946F8686E
S315080009BC00F0C8FA77E076E03B6903F00403002BF5
S315080009CC2FD07B6803F00403002B2AD0FB685B8DC1
S315080009DC9BB2002B18D0FB685B6AFA681268526ADD
S315080009ECD2B21A70FB685B6A5A1CFB685A62FB68BF
S315080009FC1B8D013B9AB2FB681A85FB685B8D9BB213
S31508000A0C013B9AB2FB685A85FB685B8D9BB2002B3F
S31508000A1C4BD17B6913F5803F47D0F86800F0D3F8C3
S31508000A2C43E03B6903F00803002B09D07B6803F00D
S31508000A3C0803002B04D03969F86800F040F835E053
S31508000A4C3B6903F00203002B30D07B6803F00203EA
S31508000A5C002B2BD0FB685B8D9BB2002B18D0FB6848
S31508000A6C1B68FA68526A12789A62FB685B6A5A1CA7
S31508000A7CFB685A62FB685B8D9BB2013B9AB2FB68BA
S31508000A8C5A85FB681B8D013B9AB2FB681A850DE0EB
S31508000A9C7B69B3F1807F02D07B69002B06D1F8689D
S31508000AAC00F091F802E000BF00E000BFFB680022EE
S31508000ABC83F84020002318461837BD4680BD80B5FC
S31508000ACC84B000AF786039607B6893F84130DBB24C
S31508000ADC03F02803282B6AD17B681B689B691B0CBF
S31508000AECDBB203F00103FB737B681B689B691B0C69
S31508000AFC9BB203F0FE03BB817B681B689B689BB2A9
S31508000B0CC3F309037B817B681B68DB689BB203F024
S31508000B1CFE033B817B68DB68022B38D17B89DB09BA
S31508000B2C9AB2BB8953409BB203F00603002B1CD127
S31508000B3C7B89BB817B689B6C5A1C7B689A647B6837
S31508000B4C9B6C022B3BD17B6800229A647B681B68E2
S31508000B5C0822DA617B68002283F840207B689B6F49
S31508000B6CBA89F97B7868984729E03B89BB814FF4A9
S31508000B7C0041786800F021FB7B68002283F840204E
S31508000B8C7B689B6FBA89F97B7868984717E04FF4AE
S31508000B9C0041786800F011FB7B68002283F840203E
S31508000BAC7B689B6FBA89F97B7868984707E07B68FE
S31508000BBC1B680822DA617B68002283F8402000BF94
S31508000BCC1037BD4680BD80B584B000AF78607B68B1
S31508000BDC1B681B68FB607B68002283F84220FB6855
S31508000BEC03F48043002B08D07B681B687A6812686C
S31508000BFC126822F480421A600CE0FB6803F4004386
S31508000C0C002B07D07B681B687A681268126822F476
S31508000C1C00421A607B6893F84130DBB2292B13D15A
S31508000C2C7B68282283F841207B6821221A630121DC
S31508000C3C786800F0C2FA7B68002283F840207B684B
S31508000C4CDB6D7868984718E07B6893F84130DBB21F
S31508000C5C2A2B12D17B68282283F841207B68222212
S31508000C6C1A630221786800F0A8FA7B68002283F8D8
S31508000C7C40207B681B6E7868984700BF1037BD46C6
S31508000C8C80BD000080B586B000AF786039607B689F
S31508000C9C1B681B683B613B687B617B6893F841303A
S31508000CACFB737B681B682022DA61FB7B212B02D045
S31508000CBCFB7B292B08D148F20101786800F07DFAF4
S31508000CCC7B6821221A630DE0FB7B222B02D0FB7B6F
S31508000CDC2A2B07D148F20201786800F06EFA7B6875
S31508000CEC22221A637B681B687A681268526842F477
S31508000CFC00425A607B681A687B681B685968644BA3
S31508000D0C0B405360786800F016FA3B6903F480438D
S31508000D1C002B13D07B681B687A681268126822F459
S31508000D2C80421A607B689B6B002B1FD07B689B6B81
S31508000D3C1B685B689AB27B685A8517E03B6903F4B3
S31508000D4C0043002B12D07B681B687A6812681268FD
S31508000D5C22F400421A607B68DB6B002B06D07B689A
S31508000D6CDB6B1B685B689AB27B685A857B6903F0F8
S31508000D7C0403002B20D07B6923F004037B617B687A
S31508000D8C5B6A7A681268526AD2B21A707B685B6AB6
S31508000D9C5A1C7B685A627B681B8D002B0CD07B68AF
S31508000DAC1B8D013B9AB27B681A857B685B8D9BB25F
S31508000DBC013B9AB27B685A857B685B8D9BB2002B8C
S31508000DCC05D07B685B6C43F004027B685A647B68CD
S31508000DDC002283F842207B6800225A637B685B6C8E
S31508000DEC002B10D07B685B6C1946786800F0AAF863
S31508000DFC7B6893F84130DBB2282B44D17969786843
S31508000E0C00F04AF83FE07B68DB6A13F5803F15D0A3
S31508000E1C7868FFF7D8FE7B681E4ADA627B68202260
S31508000E2C83F841207B6800221A637B68002283F8CA
S31508000E3C40207B685B6E7868984724E07B6893F85B
S31508000E4C4130DBB2222B0FD17B68202283F841205C
S31508000E5C7B6800221A637B68002283F840207B6833
S31508000E6C1B6E786898470EE07B68202283F8412031
S31508000E7C7B6800221A637B68002283F840207B6813
S31508000E8CDB6D7868984700BF1837BD4680BD00BF34
S31508000E9C00E800FE0000FFFF80B582B000AF786066
S31508000EAC39607B68264ADA627B6800221A637B689B
S31508000EBC202283F841207B68002283F842207B6835
S31508000ECC00225A633B6803F00403002B22D07B688C
S31508000EDC5B6A7A681268526AD2B21A707B685B6A65
S31508000EEC5A1C7B685A627B681B8D002B12D07B6858
S31508000EFC1B8D013B9AB27B681A857B685B8D9BB20E
S31508000F0C013B9AB27B685A857B685B6C43F004029A
S31508000F1C7B685A6448F20301786800F04EF97B68DE
S31508000F2C1B681022DA617B68002283F840207B68F4
S31508000F3C5B6E7868984700BF0837BD4680BD00BF12
S31508000F4C0000FFFF80B584B000AF786039607B681D
S31508000F5C93F84130FB737B68002283F842207B6848
S31508000F6C5D4ADA627B6800225A857B685A6C3B6854
S31508000F7C1A437B685A64FB7B282B05D0FB7B292BF1
S31508000F8C02D0FB7B2A2B0BD10321786800F015F9CC
S31508000F9C7B68282283F841207B68504A5A6311E003
S31508000FAC48F20301786800F008F97B6893F8413039
S31508000FBCDBB2602B03D07B68202283F841207B6848
S31508000FCC00225A637B681B6BBB607B689B6B002B90
S31508000FDC39D0BB68112B02D0BB68212B33D17B6867
S31508000FEC1B681B6803F48043B3F5804F07D17B68F5
S31508000FFC1B687A681268126822F480421A607B6849
S3150800100C9B6B1846FFF71EFA0346012B17D07B6815
S3150800101C9B6B334A9A637B68002283F840207B6873
S3150800102C9B6B1846FFF7AFF90346002B4DD07B6830
S3150800103C9B6B9B6B7A68926B1046984745E0786871
S3150800104C00F050F841E07B68DB6B002B39D0BB68AD
S3150800105C122B02D0BB68222B33D17B681B681B680A
S3150800106C03F40043B3F5004F07D17B681B687A6815
S3150800107C1268126822F400421A607B68DB6B184609
S3150800108CFFF7E0F90346012B17D07B68DB6B144A94
S3150800109C9A637B68002283F840207B68DB6B1846D2
S315080010ACFFF771F90346002B11D07B68DB6B9B6B42
S315080010BC7A68D26B1046984709E0786800F012F8FF
S315080010CC05E0786800F00EF802E000BF00E000BF0B
S315080010DC00BF1037BD4680BD0000FFFFDB080008C7
S315080010EC8B11000880B582B000AF78607B6893F8E6
S315080010FC4130DBB2602B0FD17B68202283F841206C
S3150800110C7B6800221A637B68002283F840207B6880
S3150800111C5B6F786898470AE07B6800221A637B68DD
S3150800112C002283F840207B681B6F7868984700BFBD
S3150800113C0837BD4680BD80B483B000AF78607B6845
S3150800114C1B689B6903F00203022B03D17B681B689F
S3150800115C00229A627B681B689B6903F00103012BCA
S3150800116C07D07B681B687A681268926942F001029C
S3150800117C9A6100BF0C37BD465DF8047B704780B595
S3150800118C84B000AF78607B689B6AFB60FB689B6BDE
S3150800119C002B03D0FB689B6B00229A63FB68DB6B06
S315080011AC002B03D0FB68DB6B00229A63F868FFF709
S315080011BC99FF00BF1037BD4680BD80B485B000AF1F
S315080011CC78600B467B800023FB607B8803F0010369
S315080011DC002B0FD0FB6843F04203FB607B6893F847
S315080011EC4130DBB203F02803282B03D0FB6843F00D
S315080011FCB003FB607B8803F00203002B0FD0FB685F
S3150800120C43F04403FB607B6893F84130DBB203F090
S3150800121C2803282B03D0FB6843F0B003FB60B7F90F
S3150800122C0230002B03DAFB6843F0B803FB607B88BB
S3150800123C102B03D1FB6843F09003FB607B88202BB3
S3150800124C03D1FB6843F02003FB607B88402B03D15A
S3150800125CFB6843F04003FB607B681B687A6812687E
S3150800126C1168FA68D2430A401A6000BF1437BD46A3
S3150800127C5DF8047B7047000080B400AF0D4B1B680B
S3150800128C03F4C063B3F5806F02D14FF480630BE0AF
S3150800129C084BD3F8803003F48073B3F5807F02D102
S315080012AC4FF4007300E000231846BD465DF8047B36
S315080012BC704700BF0070004080B485B000AF7860FE
S315080012CC7B68002B41D14B4B1B6803F4C063B3F509
S315080012DC806F31D1474A474BD3F8803023F480735B
S315080012ECC2F88030434A434B1B6823F4C06343F46B
S315080012FC00731360404B1B68322202FB03F33F4A10
S3150800130CA2FB03239B0C0133FB6002E0FB68013B49
S3150800131CFB60384B5B6903F48063B3F5806F02D1CD
S3150800132CFB68002BF2D1334B5B6903F48063B3F58E
S3150800133C806F58D1032357E02E4A2E4BD3F88030B2
S3150800134C23F48073C2F880304DE07B68B3F5007FD8
S3150800135C41D1284B1B6803F4C063B3F5806F31D1B8
S3150800136C244A244BD3F8803043F48073C2F8803077
S3150800137C204A204B1B6823F4C06343F400731360A4
S3150800138C1D4B1B68322202FB03F31C4AA2FB0323E8
S3150800139C9B0C0133FB6002E0FB68013BFB60154BC1
S315080013AC5B6903F48063B3F5806F02D1FB68002B8D
S315080013BCF2D1104B5B6903F48063B3F5806F12D1DD
S315080013CC032311E00B4A0B4BD3F8803043F480739C
S315080013DCC2F8803007E0074A064B1B6823F4C06343
S315080013EC43F480631360002318461437BD465DF832
S315080013FC047B7047007000405C00042083DE1B43AE
S3150800140C80B400AF054A054B5B6843F40073536020
S3150800141C00BFBD465DF8047B704700BF00700040F6
S3150800142C80B588B000AF78607B68002B01D10123AA
S3150800143C3DE3A14B9B6803F00C03BB619E4BDB6839
S3150800144C03F003037B617B681B6803F01003002B16
S3150800145C00F0D880BB69002B06D0BB690C2B40F07A
S3150800146C81807B69012B7DD1934B1B6803F00203AA
S3150800147C002B05D07B689B69002B01D1012316E351
S3150800148C7B681A6A8C4B1B6803F00803002B04D084
S3150800149C894B1B6803F0F00305E0874BD3F89430AF
S315080014AC1B0903F0F0039A4223D97B681B6A18467A
S315080014BC00F0F0FC0346002B01D00123F7E27E4A2C
S315080014CC7D4B1B6843F0080313607B497A4B1B68FA
S315080014DC23F0F0027B681B6A13430B607649764B44
S315080014EC5B6823F47F427B68DB691B0213434B6002
S315080014FC25E0714A704B1B6843F0080313606E496C
S3150800150C6D4B1B6823F0F0027B681B6A13430B6058
S3150800151C6949694B5B6823F47F427B68DB691B026C
S3150800152C13434B60BB69002B09D17B681B6A1846B1
S3150800153C00F0B0FC0346002B01D00123B7E200F003
S3150800154CE7FB01465C4B9B681B0903F00F035B4AE0
S3150800155CD35C03F01F0321FA03F3594A13600023E3
S3150800156CFB734FE07B689B69002B32D0524A524B77
S3150800157C1B6843F001031360FEF74CFE386108E064
S3150800158CFEF748FE02463B69D31A022B01D9032300
S3150800159C8DE2494B1B6803F00203002BF0D0464A38
S315080015AC454B1B6843F0080313604349424B1B68C1
S315080015BC23F0F0027B681B6A13430B603E493E4BD3
S315080015CC5B6823F47F427B68DB691B0213434B6021
S315080015DC18E0394A384B1B6823F001031360FEF7F1
S315080015EC19FE386108E0FEF715FE02463B69D31A68
S315080015FC022B01D903235AE22F4B1B6803F0020373
S3150800160C002BF0D17B681B6803F00103002B5AD022
S3150800161CBB69082B05D0BB690C2B0ED17B69032B38
S3150800162C0BD1254B1B6803F40033002B4AD07B687F
S3150800163C5B68002B46D1012339E27B685B68B3F5FE
S3150800164C803F06D11C4A1C4B1B6843F4803313603D
S3150800165C1DE07B685B68B3F5A02F0CD1164A164BB8
S3150800166C1B6843F480231360134A134B1B6843F41B
S3150800167C803313600BE0104A0F4B1B6823F480333E
S3150800168C13600D4A0C4B1B6823F4802313607B688C
S3150800169C5B68002B07D000BF074B1B6803F40033AD
S315080016AC002BF9D00FE000BF034B1B6803F4003383
S315080016BC002BF9D107E000BF00100240709100081A
S315080016CC5C00042000BF7B681B6803F00203002B38
S315080016DC48D0BB69042B05D0BB690C2B19D17B6987
S315080016EC022B16D1824B1B6803F48063002B05D0A2
S315080016FC7B68DB68002B01D10123D8E17C497C4B44
S3150800170C5B6823F0FE427B681B691B0613434B6020
S3150800171C28E07B68DB68002B17D0754A744B1B686E
S3150800172C43F48073136000BF714B1B6803F480632A
S3150800173C002BF9D06E496E4B5B6823F0FE427B6832
S3150800174C1B691B0613434B600CE0694A684B1B6804
S3150800175C23F48073136000BF654B1B6803F4806326
S3150800176C002BF9D17B681B6803F00803002B24D0E7
S3150800177C7B685B69002B10D05D4A5D4BD3F89430BF
S3150800178C43F00103C2F8943000BF594BD3F8943098
S3150800179C03F00203002BF8D00FE0554A544BD3F84C
S315080017AC943023F00103C2F8943000BF504BD3F8A1
S315080017BC943003F00203002BF8D17B681B6803F006
S315080017CC0403002B78D00023FB77494B9B6D03F061
S315080017DC8053002B0DD1464A454B9B6D43F08053E5
S315080017EC9365434B9B6D03F08053BB60BB68012329
S315080017FCFB77404B1B6803F48073002B0CD13D4AD6
S3150800180C3C4B1B6843F48073136000BF394B1B6851
S3150800181C03F48073002BF9D07B689B68012B08D1E5
S3150800182C334A334BD3F8903043F00103C2F8903067
S3150800183C24E07B689B68052B10D12D4A2C4BD3F8DA
S3150800184C903043F00403C2F89030294A284BD3F859
S3150800185C903043F00103C2F890300FE0244A244B31
S3150800186CD3F8903023F00103C2F89030204A204B6D
S3150800187CD3F8903023F00403C2F890307B689B6849
S3150800188C002B08D000BF1A4BD3F8903003F0020394
S3150800189C002BF8D007E000BF154BD3F8903003F0B7
S315080018AC0203002BF8D1FB7F012B05D1104A104BF4
S315080018BC9B6D23F0805393657B681B6803F02003AC
S315080018CC002B29D07B685B6A002B15D0084A084B7D
S315080018DCD3F8983043F00103C2F8983000BF044B94
S315080018ECD3F8983003F00203002BF8D014E000BFAD
S315080018FC00100240007000406F4A6F4BD3F89830C6
S3150800190C23F00103C2F8983000BF6B4BD3F898301C
S3150800191C03F00203002BF8D17B689B6A002B00F0BE
S3150800192CC5807B689B6A022B40F0A780624BDB68FC
S3150800193C7B617B6903F003027B68DB6A9A422CD1D4
S3150800194C7B6903F0F0027B681B6B013B1B019A4217
S3150800195C23D17B6903F4FE427B685B6B1B029A42BC
S3150800196C1BD17B6903F078427B689B6BDB069A423A
S3150800197C13D17B6903F4C0027B68DB6B5B08013B04
S3150800198C5B059A4209D17B6903F0C0627B681B6CC4
S3150800199C5B08013B5B069A4255D0BB690C2B50D0B1
S315080019AC454B1B6803F08063002B05D1424B1B6823
S315080019BC03F08053002B01D0012378E03E4A3E4BBE
S315080019CC1B6823F08073136000BF3B4B1B6803F046
S315080019DC0073002BF9D13848374BDA68374B13406C
S315080019EC7A68D16A7A68126B013A120111437A68DD
S315080019FC526B120211437A68D26B5208013A52059D
S31508001A0C11437A68126C5208013A520611437A68E5
S31508001A1C926BD2060A431343C360274A264B1B68AC
S31508001A2C43F080731360244A234BDB6843F08073BE
S31508001A3CD36000BF204B1B6803F00073002BF9D052
S31508001A4C34E0012333E01C4B1B6803F00073002BB6
S31508001A5C2CD1194A184B1B6843F080731360164A2D
S31508001A6C154BDB6843F08073D36000BF124B1B68C1
S31508001A7C03F00073002BF9D018E0BB690C2B13D0BC
S31508001A8C0D4A0D4B1B6823F08073136000BF0A4B7D
S31508001A9C1B6803F00073002BF9D10749064BDA686B
S31508001AAC074B1340CB6001E0012300E000231846E6
S31508001ABC2037BD4680BD00BF001002400C809D013A
S31508001ACCFCFFEEFE80B584B000AF78603960002369
S31508001ADCFB607B68002B01D101230AE1874B1B684D
S31508001AEC03F00F023B689A4210D28449834B1B6859
S31508001AFC23F00F023B6813430B60804B1B6803F003
S31508001B0C0F023B689A4201D00123F2E07B681B68FE
S31508001B1C03F00203002B10D07B689A68784B9B68FD
S31508001B2C03F0F0039A4208D97549754B9B6823F064
S31508001B3CF0027B689B6813438B607B681B6803F019
S31508001B4C0103002B6BD07B685B68032B1ED16C4B97
S31508001B5C1B6803F00073002B01D10123C9E000F0C8
S31508001B6CF3F90246674B9A4246D9654B9B6803F0D4
S31508001B7CF003002B40D1624A614B9B6823F0F003BB
S31508001B8C43F0800393608023FB6035E07B685B68D9
S31508001B9C022B07D15A4B1B6803F40033002B15D1C3
S31508001BAC0123A6E07B685B68002B07D1544B1B68A6
S31508001BBC03F00203002B09D101239AE0504B1B6852
S31508001BCC03F48063002B01D1012392E000F0A0F806
S31508001BDC02464C4B9A420FD9494B9B6803F0F003CB
S31508001BEC002B09D1464A464B9B6823F0F00343F079
S31508001BFC800393608023FB604149414B9B6823F02B
S31508001C0C03027B685B6813438B6000BF3C4B9B6885
S31508001C1C03F00C027B685B689B009A42F6D1FB6862
S31508001C2C802B05D1364A364B9B6823F0F00393601C
S31508001C3C7B681B6803F00203002B10D07B689A683C
S31508001C4C2F4B9B6803F0F0039A4208D22C492C4B75
S31508001C5C9B6823F0F0027B689B6813438B60274BC9
S31508001C6C1B6803F00F023B689A4210D92349234B91
S31508001C7C1B6823F00F023B6813430B601F4B1B6852
S31508001C8C03F00F023B689A4201D0012331E07B68CE
S31508001C9C1B6803F00403002B08D01949184B9B68E2
S31508001CAC23F4E0627B68DB6813438B607B681B68F4
S31508001CBC03F00803002B09D01149114B9B6823F438
S31508001CCC60527B681B69DB0013438B6000F020F8BD
S31508001CDC01460B4B9B681B0903F00F030A4AD35C9E
S31508001CEC03F01F0321FA03F3084A13600023FB725F
S31508001CFCFB7A18461037BD4680BD00BF002002404F
S31508001D0C0010024000B4C404709100085C00042062
S31508001D1C80B489B000AF0023FB610023BB613D4B47
S31508001D2C9B6803F00C033B613A4BDB6803F0030337
S31508001D3CFB603B69002B05D03B690C2B21D1FB685A
S31508001D4C012B1ED1334B1B6803F00803002B07D15C
S31508001D5C304BD3F894301B0A03F00F03FB6105E0F4
S31508001D6C2C4B1B681B0903F00F03FB612A4AFB6902
S31508001D7C52F82330FB613B69002B0DD1FB69BB6123
S31508001D8C0AE03B69042B02D1244BBB6104E03B6996
S31508001D9C082B01D1224BBB613B690C2B33D11D4B54
S31508001DACDB6803F00303BB60BB68022B02D0032B72
S31508001DBC03D005E0194B7B6105E0194B7B6102E00A
S31508001DCCFB697B6100BF134BDB681B0903F00F0330
S31508001DDC01337B600F4BDB681B0A03F07F037A69C0
S31508001DEC02FB03F27B68B2FBF3F37B61094BDB68FE
S31508001DFC5B0E03F0030301335B003B607A693B68B7
S31508001E0CB2FBF3F3BB61BB6918462437BD465DF8D4
S31508001E1C047B704700100240889100080024F400E7
S31508001E2C00127A0080B400AF034B1B681846BD46F7
S31508001E3C5DF8047B704700BF5C00042080B500AFDA
S31508001E4CFFF7F0FF0146064B9B681B0A03F00703D6
S31508001E5C044AD35C03F01F0321FA03F3184680BD2A
S31508001E6C001002408091000880B500AFFFF7DAFF3A
S31508001E7C0146064B9B68DB0A03F00703044AD35C4E
S31508001E8C03F01F0321FA03F3184680BD0010024025
S31508001E9C8091000880B586B000AF786000233B615E
S31508001EAC274B9B6D03F08053002B03D0FFF7E4F907
S31508001EBC786114E0224A224B9B6D43F0805393655C
S31508001ECC1F4B9B6D03F08053FB60FB68FFF7D4F93F
S31508001EDC78611B4A1A4B9B6D23F0805393657B697B
S31508001EECB3F5007F0BD17B68802B13D97B68A02BAD
S31508001EFC02D902233B610DE001233B610AE07B68B2
S31508001F0C7F2B02D902233B6104E07B68702B01D13D
S31508001F1C01233B610B490B4B1B6823F00F023B69F2
S31508001F2C13430B60074B1B6803F00F023B699A427D
S31508001F3C01D0012300E0002318461837BD4680BDA2
S31508001F4C001002400020024080B487B000AF2B4B33
S31508001F5CDB6803F00303FB60FB68022B04D0032B3E
S31508001F6C05D0012B06D01FE0254B3B611FE0254B06
S31508001F7C3B611CE0214B1B6803F00803002B07D1BF
S31508001F8C1E4BD3F894301B0A03F00F037B6105E054
S31508001F9C1A4B1B681B0903F00F037B611A4A7B69F2
S31508001FAC52F823303B6102E000233B6100BF134B20
S31508001FBCDB681B0903F00F030133BB600F4BDB68AF
S31508001FCC1B0A03F07F033A6902FB03F2BB68B2FBF8
S31508001FDCF3F33B61094BDB685B0E03F00303013338
S31508001FEC5B007B603A697B68B2FBF3F33B603B684A
S31508001FFC18461C37BD465DF8047B70470010024036
S3150800200C0024F40000127A008891000880B586B086
S3150800201C00AF78600023FB740023BB747B681B68D5
S3150800202C03F40063002B3DD07B68DB6E402B0BD092
S3150800203C402B04D8002B0ED0202B15D01DE0602B7E
S3150800204C1ED0802B1CD018E0864A864BDB6843F4DE
S3150800205C8033D36015E07B6804330021184601F001
S3150800206C15F90346FB740CE07B68203300211846EF
S3150800207C01F0FCF90346FB7403E00123FB7400E052
S3150800208C00BFFB7C002B0BD17649764BD3F89C30E2
S3150800209C23F0E0027B68DB6E1343C1F89C3001E049
S315080020ACFB7CBB747B681B6803F48053002B42D003
S315080020BC7B681B6FB3F5007F0FD0B3F5007F05D88F
S315080020CC002B11D0B3F5807F17D01FE0B3F5407FF6
S315080020DC1FD0B3F5806F1CD018E0624A614BDB68E1
S315080020EC43F48033D36015E07B680433002118462B
S315080020FC01F0CCF80346FB740CE07B682033002116
S3150800210C184601F0B3F90346FB7403E00123FB748C
S3150800211C00E000BFFB7C002B0BD15249514BD3F886
S3150800212C9C3023F4E0627B681B6F1343C1F89C3028
S3150800213C01E0FB7CBB747B681B6803F40033002B43
S3150800214C00F09F8000237B74464B9B6D03F08053F5
S3150800215C002B01D1012300E00023002B0DD0414AAE
S3150800216C404B9B6D43F0805393653E4B9B6D03F040
S3150800217C8053BB60BB6801237B743B4A3A4B1B6894
S3150800218C43F480731360FEF745F8F86009E0FEF730
S3150800219C41F80246FB68D31A022B02D90323FB74B7
S315080021AC05E0314B1B6803F48073002BEFD0FB7CE6
S315080021BC002B5BD12B4BD3F8903003F440737B6127
S315080021CC7B69002B1FD07B68D3F890207B699A42D9
S315080021DC19D0244BD3F8903023F440737B61214AF1
S315080021EC204BD3F8903043F48033C2F890301D4A14
S315080021FC1C4BD3F8903023F48033C2F89030194A2C
S3150800220C7B69C2F890307B6903F00103002B16D06A
S3150800221CFEF700F8F8600BE0FDF7FCFF0246FB68DA
S3150800222CD31A41F28832934202D90323FB7406E08F
S3150800223C0C4BD3F8903003F00203002BECD0FB7C4C
S3150800224C002B0CD10749074BD3F8903023F4407276
S3150800225C7B68D3F890301343C1F8903008E0FB7CC8
S3150800226CBB7405E00010024000700040FB7CBB7498
S3150800227C7B7C012B05D1A04A9F4B9B6D23F0805389
S3150800228C93657B681B6803F00103002B0AD09A49F7
S3150800229C994BD3F8883023F003027B68DB6B134326
S315080022ACC1F888307B681B6803F00203002B0AD040
S315080022BC9149914BD3F8883023F00C027B681B6C40
S315080022CC1343C1F888307B681B6803F00403002BA2
S315080022DC0AD08949884BD3F8883023F030027B68BA
S315080022EC5B6C1343C1F888307B681B6803F00803E2
S315080022FC002B0AD08049804BD3F8883023F0C002D3
S3150800230C7B689B6C1343C1F888307B681B6803F0A9
S3150800231C1003002B0AD07849774BD3F8883023F46E
S3150800232C40727B68DB6C1343C1F888307B681B688A
S3150800233C03F02003002B0AD06F496F4BD3F8883073
S3150800234C23F440627B681B6D1343C1F888307B68A5
S3150800235C1B6803F40073002B0AD06749664BD3F845
S3150800236C883023F440227B685B6E1343C1F88830AF
S3150800237C7B681B6803F48063002B0AD05E495E4BAE
S3150800238CD3F8883023F440127B689B6E1343C1F84C
S3150800239C88307B681B6803F04003002B0AD056492B
S315080023AC554BD3F8883023F440527B685B6D134346
S315080023BCC1F888307B681B6803F08003002B0AD0B1
S315080023CC4D494D4BD3F8883023F440427B689B6DBE
S315080023DC1343C1F888307B681B6803F48073002BA1
S315080023EC0AD04549444BD3F8883023F440327B68ED
S315080023FCDB6D1343C1F888307B681B6803F48013C4
S3150800240C002B0AD03C493C4BD3F89C3023F00302F2
S3150800241C7B681B6E1343C1F89C307B681B6803F4FE
S3150800242C0053002B28D03449334BD3F8883023F08B
S3150800243C40627B685B6F1343C1F888307B685B6FBF
S3150800244CB3F1006F06D12C4A2B4BDB6843F480138F
S3150800245CD36011E07B685B6FB3F1806F0CD17B683E
S3150800246C04330121184600F011FF0346FB74FB7C6C
S3150800247C002B01D0FB7CBB747B681B6803F4002320
S3150800248C002B4DD07B689B6FB3F5804F08D11A4A49
S3150800249C194BD3F89C3043F48043C2F89C3012E0B5
S315080024AC154A154BD3F89C3023F48043C2F89C305C
S315080024BC1149114BD3F8883023F040627B689B6F27
S315080024CC1343C1F888307B689B6FB3F1006F06D154
S315080024DC094A094BDB6843F48013D36020E07B6818
S315080024EC9B6FB3F5804F09D1034A034BDB6843F462
S315080024FC8033D36014E000BF001002407B689B6FEA
S3150800250CB3F1806F0CD17B6804330121184600F0B7
S3150800251CBDFE0346FB74FB7C002B01D0FB7CBB7415
S3150800252C7B681B6803F48023002B28D04A494A4B46
S3150800253CD3F8883023F040627B68DB6F1343C1F80D
S3150800254C88307B68DB6FB3F1006F06D1424A424B89
S3150800255CDB6843F48013D36011E07B68DB6FB3F15F
S3150800256C806F0CD17B6804330121184600F08EFE6F
S3150800257C0346FB74FB7C002B01D0FB7CBB747B688D
S3150800258C1B6803F48043002B1ED03349324BD3F817
S3150800259C883023F040527B68D3F880301343C1F857
S315080025AC88307B68D3F88030B3F1805F0CD17B68B8
S315080025BC04330221184600F069FE0346FB74FB7CC3
S315080025CC002B01D0FB7CBB747B681B6803F480333F
S315080025DC002B0BD02049204BD3F89C3023F0040257
S315080025EC7B68D3F884301343C1F89C307B681B682E
S315080025FC03F40013002B0BD01749174BD3F89C3058
S3150800260C23F018027B68D3F888301343C1F89C3042
S3150800261C7B681B6803F08073002B17D00E490E4B92
S3150800262CD3F89C3023F440127B68D3F88C301343D0
S3150800263CC1F89C307B68D3F88C30B3F5001F05D1F4
S3150800264C054A054BDB6843F48013D360BB7C1846FC
S3150800265C1837BD4680BD00BF0010024080B588B053
S3150800266C00AF78600023FB617B68B3F5003F37D178
S3150800267CAF4BD3F8903003F440733B613B69B3F529
S3150800268C007F14D0B3F5407F1ED0B3F5807F01D000
S3150800269C00F0F3BDA64BD3F8903003F00203022BDF
S315080026AC40F0E4854FF40043FB6100F0DFBDA04B1E
S315080026BCD3F8943003F00203022B40F0D9854FF47B
S315080026CCFA43FB6100F0D4BD994B1B6803F4003345
S315080026DCB3F5003F40F0CE85964BFB6100F0CABDC2
S315080026EC934BDB6803F00303FB60FB68022B23D0D8
S315080026FC032B2ED0012B39D18D4B1B6803F002030B
S3150800270C022B16D18A4B1B6803F00803002B05D045
S3150800271C874B1B681B0903F00F0305E0844BD3F8A2
S3150800272C94301B0A03F00F03834A52F82330BB611B
S3150800273C1FE00023BB611CE07D4B1B6803F4806320
S3150800274CB3F5806F02D17D4BBB6112E00023BB61F0
S3150800275C0FE0774B1B6803F40033B3F5003F02D147
S3150800276C774BBB6105E00023BB6102E00023BB612C
S3150800277C00BF7B68B3F5806F00F0CE84B3F5806F2D
S3150800278C2DD8102B00F0F982102B11D8022B00F043
S3150800279C4382022B04D8012B00F0FD8100F06DBD9D
S315080027AC042B00F08282082B00F0B38200F065BD82
S315080027BC802B00F00984802B07D8202B00F015837A
S315080027CC402B00F0DE8300F058BDB3F5807F00F097
S315080027DC1E84B3F5007F00F05E8400F04EBDB3F5A1
S315080027EC803F00F07D83B3F5803F13D8B3F5805F47
S315080027FC32D0B3F5805F04D8B3F5006F24D000F05F
S3150800280C3CBDB3F5005F2FD0B3F5804F00F02583A0
S3150800281C00F033BDB3F5801F00F01C84B3F5801FA0
S3150800282C08D8B3F5802F1FD0B3F5002F00F0CD8054
S3150800283C00F023BDB3F5001F00F06383B3F1807F6E
S3150800284C00F0B28400F019BDB9694FF4006000F0CD
S3150800285CFDFEF86100F011BDB9694FF4805000F027
S3150800286CF5FEF86100F009BD314BD3F8883003F05A
S3150800287C40633B613B69B3F1806F63D0B3F1806F02
S3150800288C03D8002B00F08B809DE0B3F1006F21D0AC
S3150800289CB3F1406F00D096E0254B1B6803F002039A
S315080028AC022B40F08680224B1B6803F00803002B92
S315080028BC05D01F4B1B681B0903F00F0305E01C4BC7
S315080028CCD3F894301B0A03F00F031B4A52F8233033
S315080028DCFB616EE0164B1B6803F00073B3F1007FC7
S315080028EC6AD1134BDB6803F48013B3F5801F63D1ED
S315080028FC0F4BDB681B0A03F07F03BB60BB69BA6826
S3150800290C02FB03F20A4BDB681B0903F00F030133C6
S3150800291CB2FBF3F3BB61064BDB685B0D03F00303F9
S3150800292C01335B00BA69B2FBF3F3FB6144E000BF09
S3150800293C0010024090D00300889100080024F4008F
S3150800294C00127A00B04B1B6803F00063B3F1006FFA
S3150800295C35D1AD4B1B6903F48013B3F5801F2ED10B
S3150800296CA94B1B691B0A03F07F03BB60BB69BA68DA
S3150800297C02FB03F2A44B1B691B0903F00F0301337B
S3150800298CB2FBF3F3BB61A04B1B695B0D03F00303AE
S3150800299C01335B00BA69B2FBF3F3FB610FE09A4BA8
S315080029ACD3F8983003F00203022B0BD1974BFB613B
S315080029BC08E000BF00F061BC00BF00F05EBC00BFC1
S315080029CC00F05BBC00BF00F058BC8F4BD3F89C30B2
S315080029DC03F48043B3F5804F3DD18B4B1B6803F052
S315080029EC0073B3F1007F40F04784874BDB6803F430
S315080029FC8033B3F5803F40F03F84834BDB681B0A7A
S31508002A0C03F07F03BB60BB69BA6802FB03F27E4B1B
S31508002A1CDB681B0903F00F030133B2FBF3F3BB614D
S31508002A2C794BDB68DB0E03F01F037B617B69002B9C
S31508002A3C0AD1754BDB6803F40033002B02D0112343
S31508002A4C7B6101E007237B61BA697B69B2FBF3F30F
S31508002A5CFB6100F011BC6C4BD3F8883003F0406373
S31508002A6C3B613B69B3F1806F56D0B3F1806F02D8E6
S31508002A7C002B7ED08EE0B3F1006F20D0B3F1406FFF
S31508002A8C00D087E0604B1B6803F00203022B7AD157
S31508002A9C5D4B1B6803F00803002B05D05A4B1B68CB
S31508002AAC1B0903F00F0305E0574BD3F894301B0AA8
S31508002ABC03F00F03564A52F82330FB6163E0524B7E
S31508002ACC1B6803F00073B3F1007F5ED14E4BDB68D5
S31508002ADC03F48013B3F5801F57D14B4BDB681B0AE5
S31508002AEC03F07F03BB60BB69BA6802FB03F2464B73
S31508002AFCDB681B0903F00F030133B2FBF3F3BB616D
S31508002B0C414BDB685B0D03F0030301335B00BA69C9
S31508002B1CB2FBF3F3FB6138E03B4B1B6803F0006335
S31508002B2CB3F1006F33D1384B1B6903F48013B3F53B
S31508002B3C801F2CD1344B1B691B0A03F07F03BB6027
S31508002B4CBB69BA6802FB03F22F4B1B691B0903F01E
S31508002B5C0F030133B2FBF3F3BB612B4B1B695B0D04
S31508002B6C03F0030301335B00BA69B2FBF3F3FB61B1
S31508002B7C0DE0254BD3F8983003F00203022B08D14D
S31508002B8C224BFB6105E000BF76E300BF74E300BF90
S31508002B9C72E300BF70E31C4BD3F8883003F00303D1
S31508002BAC3B613B69032B28D801A252F823F000BFDE
S31508002BBCCD2B0008D52B0008DD2B0008F12B0008BF
S31508002BCCFFF752F9F8611DE0FFF7A2F8F86119E072
S31508002BDC0D4B1B6803F48063B3F5806F0FD10D4B57
S31508002BECFB610CE0084BD3F8903003F00203022B80
S31508002BFC07D14FF40043FB6103E000BF3DE300BF80
S31508002C0C3BE300BF39E300BF00100240006CDC0256
S31508002C1C889100080024F400AF4BD3F8883003F0F1
S31508002C2C0C033B613B690C2B39D801A252F823F0F3
S31508002C3C712C0008AB2C0008AB2C0008AB2C000838
S31508002C4C792C0008AB2C0008AB2C0008AB2C000820
S31508002C5C812C0008AB2C0008AB2C0008AB2C000808
S31508002C6C952C0008FFF7EAF8F8611DE0FFF750F815
S31508002C7CF86119E0984B1B6803F48063B3F5806F11
S31508002C8C0FD1964BFB610CE0934BD3F8903003F0C5
S31508002C9C0203022B07D14FF40043FB6103E000BF8C
S31508002CACEBE200BFE9E200BFE7E28B4BD3F88830D2
S31508002CBC03F030033B613B69102B0DD0102B02D867
S31508002CCC002B05D024E0202B0AD0302B12D01FE085
S31508002CDCFFF7B4F8F8611BE0FFF71AF8F86117E08C
S31508002CEC7D4B1B6803F48063B3F5806F0DD17B4B6A
S31508002CFCFB610AE0784BD3F8903003F00203022B01
S31508002D0C05D14FF40043FB6101E000BFB5E200BFFB
S31508002D1CB3E2714BD3F8883003F0C0033B613B69CF
S31508002D2C402B0DD0402B02D8002B05D024E0802B4D
S31508002D3C0AD0C02B12D01FE0FFF780F8F8611BE011
S31508002D4CFEF7E6FFF86117E0634B1B6803F4806334
S31508002D5CB3F5806F0DD1614BFB610AE05E4BD3F87E
S31508002D6C903003F00203022B05D14FF40043FB61AC
S31508002D7C01E000BF81E200BF7FE2574BD3F88830F1
S31508002D8C03F440733B613B69B3F5807F10D0B3F510
S31508002D9C807F02D8002B07D026E0B3F5007F0BD036
S31508002DACB3F5407F12D01FE0FFF748F8F8611BE037
S31508002DBCFEF7AEFFF86117E0474B1B6803F4806318
S31508002DCCB3F5806F0DD1454BFB610AE0424BD3F846
S31508002DDC903003F00203022B05D14FF40043FB613C
S31508002DEC01E000BF49E200BF47E23B4BD3F888300D
S31508002DFC03F440633B613B69B3F5806F10D0B3F5C0
S31508002E0C806F02D8002B07D026E0B3F5006F0BD0E5
S31508002E1CB3F5406F12D01FE0FFF710F8F8611BE00E
S31508002E2CFEF776FFF86117E02B4B1B6803F48063FB
S31508002E3CB3F5806F0DD1294BFB610AE0264BD3F80D
S31508002E4C903003F00203022B05D14FF40043FB61CB
S31508002E5C01E000BF11E200BF0FE21F4BD3F8883028
S31508002E6C03F040533B613B69B3F1805F07D0B3F184
S31508002E7C405F00D02FE0FEF74BFFF8612BE0164BB6
S31508002E8C1B6803F00063B3F1006F23D1124B1B6967
S31508002E9C03F08073002B1DD00F4B1B691B0A03F024
S31508002EAC7F03BB60BB69BA6802FB03F20A4B1B695A
S31508002EBC1B0903F00F030133B2FBF3F3BB61064B9B
S31508002ECC1B695B0E03F0030301335B00BA69B2FBA3
S31508002EDCF3F3FB6100BFD0E1001002400024F400BC
S31508002EECAC4BD3F89C3003F004033B613B69002BD5
S31508002EFC03D1FEF7B9FFF861BFE1FEF709FFF861E8
S31508002F0CBBE1A44BD3F89C3003F018033B613B6937
S31508002F1C082B28D0102B09D0002B00D030E0B9692B
S31508002F2C4FF4006000F092FBF86129E0994B1B689E
S31508002F3C03F00203022B20D1964B1B6803F00803FF
S31508002F4C002B05D0934B1B681B0903F00F0305E0F8
S31508002F5C904BD3F894301B0A03F00F038E4A52F8A1
S31508002F6C2330FB6109E08B4B1B6803F48063B3F5D4
S31508002F7C806F04D1894BFB6101E000BF7DE100BF86
S31508002F8C7BE1844BD3F8883003F440533B613B69AF
S31508002F9CB3F5805F09D0B3F5005F0AD0002B00D0DB
S31508002FAC11E0FEF74BFFF8610DE0FEF7B1FEF86194
S31508002FBC09E0784B1B6803F48063B3F5806F01D185
S31508002FCC764BFB6100BF58E1724BD3F8883003F49B
S31508002FDC40433B613B69B3F5804F09D0B3F5004FCD
S31508002FEC0AD0002B00D011E0FEF728FFF8610DE09F
S31508002FFCFEF78EFEF86109E0664B1B6803F48063E6
S3150800300CB3F5806F01D1654BFB6100BF35E1614BB0
S3150800301CD3F8883003F440333B613B69B3F5803F02
S3150800302C09D0B3F5003F0AD0002B00D011E0FEF70B
S3150800303C05FFF8610DE0FEF76BFEF86109E0554BEC
S3150800304C1B6803F48063B3F5806F01D1534BFB61A6
S3150800305C00BF12E14F4BD3F89C3003F003033B61DE
S3150800306C3B69012B08D0012B02D3022B08D011E0A7
S3150800307CFEF7E4FEF8610DE0FEF74AFEF86109E09A
S3150800308C444B1B6803F48063B3F5806F01D1434B43
S3150800309CFB6100BFF1E03F4BD3F8883003F44023C3
S315080030AC3B613B69B3F5802F10D0B3F5802F02D85E
S315080030BC002B07D02FE0B3F5002F12D0B3F5402F15
S315080030CC19D028E0FEF7BAFEF86124E0314BD3F8A4
S315080030DC943003F00203022B18D14FF4FA43FB6128
S315080030EC14E02C4B1B6803F48063B3F5806F0FD187
S315080030FC2A4BFB610CE0274BD3F8903003F0020304
S3150800310C022B07D14FF40043FB6103E000BFB4E088
S3150800311C00BFB2E000BFB0E01E4BD3F8883003F412
S3150800312C40133B613B69B3F5801F10D0B3F5801F84
S3150800313C02D8002B07D036E0B3F5001F12D0B3F532
S3150800314C401F19D02FE0FEF779FEF8612BE0114BE2
S3150800315CD3F8943003F00203022B18D14FF4FA4338
S3150800316CFB6114E00B4B1B6803F48063B3F5806FAB
S3150800317C16D10A4BFB6113E0064BD3F8903003F0DB
S3150800318C0203022B0ED14FF40043FB610AE000BF89
S3150800319C73E000BF00100240889100080024F40078
S315080031AC00BF6AE000BF68E0364BD3F89C3003F4E6
S315080031BC40133B613B69B3F5801F09D0B3F5001F7B
S315080031CC23D0002B00D050E0FEF7A2FDF8614CE0AE
S315080031DC2C4B1B6803F00203022B43D1294B1B68AB
S315080031EC03F00803002B05D0264B1B681B0903F0BC
S315080031FC0F0305E0234BD3F894301B0A03F00F0397
S3150800320C214A52F82330FB612CE01E4B1B6803F055
S3150800321C0073B3F1007F27D11A4BDB6803F48013D4
S3150800322CB3F5801F20D1174BDB681B0A03F07F030D
S3150800323CBB60BB69BA6802FB03F2124BDB681B095D
S3150800324C03F00F030133B2FBF3F3BB610D4BDB68E1
S3150800325C5B0D03F0030301335B00BA69B2FBF3F3AE
S3150800326CFB6101E000BF08E000BF06E000BF04E018
S3150800327C00BF02E000BF00E000BFFB69184620371C
S3150800328CBD4680BD001002408891000880B584B008
S3150800329C00AF786039600023FB73704BDB6803F072
S315080032AC0303002B0ED06D4BDB6803F003027B681F
S315080032BC1B689A4203D17B681B68002B3FD10123FC
S315080032CCFB733CE07B681B68022B0CD0032B13D0DA
S315080032DC012B20D1614B1B6803F00203002B1DD177
S315080032EC0123FB731AE05D4B1B6803F48063002B08
S315080032FC16D10123FB7313E0584B1B6803F40033F8
S3150800330C002B0FD1554B1B6803F48023002B09D1D6
S3150800331C0123FB7306E00123FB7304E000BF02E004
S3150800332C00BF00E000BFFB7B002B08D14B494B4B81
S3150800333CDB6823F003027B681B681343CB60FB7BBB
S3150800334C002B40F08680454A444B1B6823F080636B
S3150800335C1360FCF75FFFB86009E0FCF75BFF0246F9
S3150800336CBB68D31A022B02D90323FB7305E03B4B2C
S3150800337C1B6803F00063002BEFD1FB7B002B68D195
S3150800338C3B68002B13D13548344B1A69344B134020
S3150800339C7A68926811027A68D268D20611437A68FA
S315080033AC5268013A12010A43134303612DE03B6844
S315080033BC012B15D12948294B1A692A4B13407A68CF
S315080033CC926811027A6812695208013A5205114339
S315080033DC7A685268013A12010A431343036114E0EE
S315080033EC1E481E4B1A69204B13407A6892681102C4
S315080033FC7A6852695208013A520611437A68526839
S3150800340C013A12010A4313430361144A134B1B680E
S3150800341C43F080631360FCF7FDFEB86009E0FCF727
S3150800342CF9FE0246BB68D31A022B02D90323FB7397
S3150800343C05E00A4B1B6803F00063002BEFD0FB7BFF
S3150800344C002B06D10549054B1A697B689B69134302
S3150800345C0B61FB7B18461037BD4680BD0010024039
S3150800346C0F80FF070F809FFF0F80FFF980B584B090
S3150800347C00AF786039600023FB73704BDB6803F090
S3150800348C0303002B0ED06D4BDB6803F003027B683D
S3150800349C1B689A4203D17B681B68002B3FD101231A
S315080034ACFB733CE07B681B68022B0CD0032B13D0F8
S315080034BC012B20D1614B1B6803F00203002B1DD195
S315080034CC0123FB731AE05D4B1B6803F48063002B26
S315080034DC16D10123FB7313E0584B1B6803F4003316
S315080034EC002B0FD1554B1B6803F48023002B09D1F5
S315080034FC0123FB7306E00123FB7304E000BF02E023
S3150800350C00BF00E000BFFB7B002B08D14B494B4B9F
S3150800351CDB6823F003027B681B681343CB60FB7BD9
S3150800352C002B40F08680454A444B1B6823F0805399
S3150800353C1360FCF76FFEB86009E0FCF76BFE0246F9
S3150800354CBB68D31A022B02D90323FB7305E03B4B4A
S3150800355C1B6803F00053002BEFD1FB7B002B68D1C3
S3150800356C3B68002B13D13548344B5A69344B1340FE
S3150800357C7A68926811027A68D268D20611437A6818
S3150800358C5268013A12010A43134343612DE03B6822
S3150800359C012B15D12948294B5A692A4B13407A68AD
S315080035AC926811027A6812695208013A5205114357
S315080035BC7A685268013A12010A431343436114E0CC
S315080035CC1E481E4B5A69204B13407A6892681102A2
S315080035DC7A6852695208013A520611437A68526857
S315080035EC013A12010A4313434361144A134B1B68ED
S315080035FC43F080531360FCF70DFEB86009E0FCF746
S3150800360C09FE0246BB68D31A022B02D90323FB73A5
S3150800361C05E00A4B1B6803F00053002BEFD0FB7B2D
S3150800362C002B06D10549054B5A697B689B691343E0
S3150800363C4B61FB7B18461037BD4680BD0010024017
S3150800364C0F80FF070F809FFF0F80FFF980B489B0AA
S3150800365C00AF786039600023FB610023BB6100234F
S3150800366C7B617B68B3F5006F0CD17F4BD3F89C302C
S3150800367C03F0E003BB61BB69602B14D14BF68033B6
S3150800368CFB6110E07B68B3F5805F0CD1764BD3F801
S3150800369C9C3003F4E063BB61BB69B3F5407F02D190
S315080036AC4BF68033FB61FB69002B40F0D6803B68F8
S315080036BC3B61BB69402B03D0BB69B3F5007F3BD19B
S315080036CC694B1B6803F00073B3F1007F40F0C480AC
S315080036DC654BDB6803F48033002B00F0BD80624B2E
S315080036ECDB681B0903F00F0301333A69B2FBF3F3EA
S315080036FC3B615D4BDB681B0A03F07F03FB605A4B8F
S3150800370CDB68DB0E03F01F037B617B69002B0AD198
S3150800371C554BDB6803F40033002B02D011237B6175
S3150800372C01E007237B613B69FA6802FB03F27B69BC
S3150800373CB2FBF3F3FB618FE0BB69002B3AD14A4B22
S3150800374C1B6803F00063B3F1006F40F08680464BAC
S3150800375C1B6903F48033002B7FD0434B1B691B0971
S3150800376C03F00F0301333A69B2FBF3F33B613E4BAB
S3150800377C1B691B0A03F07F03FB603B4B1B69DB0EC3
S3150800378C03F01F037B617B69002B0AD1364B1B693F
S3150800379C03F40033002B02D011237B6101E00723CD
S315080037AC7B613B69FA6802FB03F27B69B2FBF3F3B4
S315080037BCFB6152E0BB69802B03D0BB69B3F5806F04
S315080037CC09D1294B1B6803F48063B3F5806F44D188
S315080037DC264BFB6141E0BB69202B03D0BB69B3F5D3
S315080037EC807F3AD1204B1B6803F00053B3F1005F7E
S315080037FC33D11D4B5B6903F48033002B2DD01A4B48
S3150800380C5B691B0903F00F0301333A69B2FBF3F347
S3150800381C3B61154B5B691B0A03F07F03FB60124B7C
S3150800382C5B69DB0E03F01F037B617B69002B0AD1F6
S3150800383C0D4B5B6903F40033002B02D011237B611B
S3150800384C01E007237B613B69FA6802FB03F27B699B
S3150800385CB2FBF3F3FB6100E000BFFB6918462437A3
S3150800386CBD465DF8047B7047001002400024F40046
S3150800387C80B483B000AF0346FB71FB79092B01D9E1
S3150800388CFF2302E0FB793033DBB218460C37BD4612
S3150800389C5DF8047B704780B582B000AFFB1C012233
S315080038AC1946002002F05AFE7860FB78184608374D
S315080038BCBD4680BD80B586B000AF0346FB71384B5C
S315080038CC3B61FB79092B04D00A2B23D0082B61D03A
S315080038DC52E0344800F0BEF80023FB7510E0FB7D7F
S315080038EC1133DB003A691344FB60FB681B68184606
S315080038FC00F0B0F82B4800F0ADF8FB7D0133FB75F2
S3150800390C3B6993F88831FA7D9A42E8D3254800F04A
S3150800391CA1F840E03B6993F885305A1CD1B23A6954
S3150800392C82F885101A463B69134400225A71002303
S3150800393CFB7516E0FB7D1133DB003A691344FB601B
S3150800394C3B695A1DFB681B6819461046FCF750FC68
S3150800395C0346002B02D1FB685B689847FB7D013355
S3150800396CFB753B6993F88831FA7D9A42E2D33B6939
S3150800397C002283F885200EE03B6993F885305A1CA3
S3150800398CD1B23A6982F885101A463B691344FA791A
S3150800399C5A7100E000BF00BF1837BD4680BD00BF96
S315080039AC7C0004205081000880B586B000AF786092
S315080039BC3960104B7B617B6993F88530002B02D1FB
S315080039CC0D4800F047F8FFF766FF03463B730023E4
S315080039DC7B733B7B0D2B01D10A233B7307F10C033D
S315080039EC184600F037F803463B613B7B1846FFF751
S315080039FC61FFE0E77C0004205481000880B584B0A0
S31508003A0C02AF114B7B604FF4C6720021786804F044
S31508003A1C74FB00230193002300934FF48053032275
S31508003A2C0A490B4804F052F902467B681A607B680F
S31508003A3C00221A714FF4E131002002F099FC38602B
S31508003A4C00BF0837BD4680BD7C0004206081000895
S31508003A5CB539000880B584B000AF78607868FCF793
S31508003A6CD1FB0346FB73FB7B1A467968002002F0F0
S31508003A7CFDFCB860BB68DBB218461037BD4680BD86
S31508003A8C80B586B000AF0346FB7107F10C03042220
S31508003A9C0021184604F031FBFB79334AA2FB0323B9
S31508003AAC5B09FB75FA79FB7D6FF0630101FB03F388
S31508003ABC13442E4A82FB03129210DB17D31ABB75DA
S31508003ACCFB7D1A4692001A44D200D31A9B00DAB22E
S31508003ADCBB7D19464901C91A8900CB1A5B00DBB2B2
S31508003AEC1344DAB2FB7913447B75FB7D002B14D097
S31508003AFC04233B75FB7D1846FFF7BAFE03463B735A
S31508003B0CBB7D1846FFF7B4FE03467B737B7D1846D0
S31508003B1CFFF7AEFE0346BB7319E0BB7D002B0ED038
S31508003B2C03233B75BB7D1846FFF7A2FE03463B7382
S31508003B3C7B7D1846FFF79CFE03467B7307E0022342
S31508003B4C3B757B7D1846FFF793FE03463B7307F1DF
S31508003B5C0C031846FFF77EFF03463B613B69DBB255
S31508003B6C18461837BD4680BD1F85EB5167666666D5
S31508003B7C80B596B000AF03460A46FB711346BB7177
S31508003B8CBB79002B02D14FF0FF337CE000237B6519
S31508003B9CFB7987F84F3097F84F3003F00F027B6D9F
S31508003BAC9B0007F158010B4443F8382C97F84F3013
S31508003BBC1B0987F84F307B6D01337B6597F84F30BF
S31508003BCC002BE8D100233B653DE07A6D3B6DD31A9B
S31508003BDC013B9B0007F15802134453F8383C092B58
S31508003BEC13DD7A6D3B6DD31A013B9B0007F1580226
S31508003BFC134453F8383CDBB23733D9B207F1140205
S31508003C0C3B6D13440A461A7012E07A6D3B6DD31A53
S31508003C1C013B9B0007F15802134453F8383CDBB2BE
S31508003C2C3033D9B207F114023B6D13440A461A70A5
S31508003C3C3B6D013307F158021344002203F8442C58
S31508003C4C3B6D01333B657A6D3B6D9A42BDDC07F1E2
S31508003C5C08030A223021184604F04FFABA797B6D0C
S31508003C6CD31A07F10802D0187B6D01331A4607F1EF
S31508003C7C1403194604F036FA07F108031846FFF739
S31508003C8CE9FE0346BB6418465837BD4680BD00009E
S31508003C9C80B485B000AF78607B68002B02D14FF0FA
S31508003CACFF3328E0174BFB60FB6893F888311F2B12
S31508003CBC02D94FF0FF331EE0FB6893F888311A4699
S31508003CCC7B681968FB68113243F83210FB6893F865
S31508003CDC883118467B685A68F96800F11103DB00CD
S31508003CEC0B445A60FB6893F888310133DAB2FB68E7
S31508003CFC83F88821002318461437BD465DF8047BE3
S31508003D0C704700BF7C00042080B400AFFEE780B586
S31508003D1C96B000AF07F1140344220021184604F0AC
S31508003D2CECF93B4600221A605A609A60DA601A610E
S31508003D3C0020FDF7C1FA0346002B01D0FFF7E4FF7C
S31508003D4C18237B610123BB620123FB6200233B63BF
S31508003D5C60237B630223FB6301233B6401237B649F
S31508003D6C3C23BB640223FB6402233B6502237B656D
S31508003D7C07F114031846FDF753FB0346002B01D035
S31508003D8CFFF7C2FF0F233B6003237B600023BB6056
S31508003D9C0023FB6000233B613B4605211846FDF7D3
S31508003DAC91FE0346002B01D0FFF7AEFF00BF583734
S31508003DBCBD4680BD80B5C2B000AF07F1740394222E
S31508003DCC0021184604F099F9FFF7A1FF40237B67F9
S31508003DDC0023C7F8C83007F174031846FEF716F91E
S31508003DEC0346002B01D0FFF78FFF80237B67002348
S31508003DFCC7F8CC3007F174031846FEF707F90346E3
S31508003E0C002B01D0FFF780FF4FF400637B6700237C
S31508003E1CC7F8E0300123BB670223FB670C23C7F8FE
S31508003E2C80300223C7F884300223C7F8883002236F
S31508003E3CC7F88C304FF48033C7F8903007F1740309
S31508003E4C1846FEF7E3F80346002B01D0FFF75CFF94
S31508003E5C4FF080737B670023C7F8003107F17403B2
S31508003E6C1846FEF7D3F80346002B01D0FFF74CFF94
S31508003E7C984A984B1B6E43F480431366954B1B6EFE
S31508003E8C03F480433B673B6F924A924B9B6D43F41A
S31508003E9C003393658F4B9B6D03F40033FB66FB6E07
S31508003EAC8C4A8C4B9B6D43F480239365894B9B6D95
S31508003EBC03F48023BB66BB6E864A864B9B6D43F424
S31508003ECC00139365834B9B6D03F400137B667B6E23
S31508003EDC804A804B9B6D43F4800393657D4B9B6DA9
S31508003EEC03F480033B663B6E7A4A7A4B1B6E43F4AB
S31508003EFC00131366774B1B6E03F40013FB65FB6DFF
S31508003F0C744A744BDB6C43F48013D364714BDB6CCF
S31508003F1C03F48013BB65BB6D6E4A6E4B1B6D43F485
S31508003F2C807313656B4B1B6D03F480737B657B6D1C
S31508003F3C684A684B1B6D43F400731365654B1B6D20
S31508003F4C03F400733B653B6D624A624B9B6D43F011
S31508003F5C010393655F4B9B6D03F00103FB64FB6CDC
S31508003F6C5C4A5C4B9B6D43F002039365594B9B6D06
S31508003F7C03F00203BB64BB6C564A564B9B6D43F06D
S31508003F8C04039365534B9B6D03F004037B647B6CB2
S31508003F9C504A504B9B6D43F0080393654D4B9B6DF4
S31508003FAC03F008033B643B6C4A4A4A4B1B6E43F4CA
S31508003FBC80331366474B1B6E03F48033FB63FB6B32
S31508003FCC444A444B1B6E43F400331366414B1B6E39
S31508003FDC03F40033BB63BB6B3E4A3E4B1B6E43F488
S31508003FEC802313663B4B1B6E03F480237B637B6B2E
S31508003FFC384A384B9B6C43F001039364354B9B6CE6
S3150800400C03F001033B633B6B324A324B9B6C43F028
S3150800401C040393642F4B9B6C03F00403FB62FB6A4B
S3150800402C2C4A2C4B1B6E43F480531366294B1B6E80
S3150800403C03F48053BB62BB6A264A264B9B6D43F43A
S3150800404C80439365234B9B6D03F480437B627B6AA9
S3150800405C204A204B9B6D43F4004393651D4B9B6D87
S3150800406C03F400433B623B6A1A4A1A4B9B6D43F0B6
S3150800407C80539365174B9B6D03F08053FB61FB696B
S3150800408C144A144BDB6C43F00103D364114BDB6C01
S3150800409C03F00103BB61BB690E4A0E4BDB6C43F0A4
S315080040AC0203D3640B4BDB6C03F002037B617B6965
S315080040BC084A084BDB6C43F00403D364054BDB6CF2
S315080040CC03F004033B613B69024A024BDB6C43F089
S315080040DC080301E000100240D3641C4BDB6C03F0B0
S315080040EC0803FB60FB68194A184BDB6C43F010039A
S315080040FCD364164BDB6C03F0100207F108031A6045
S3150800410C07F108031B68114A104BDB6C43F02003BC
S3150800411CD3640E4BDB6C03F020023B1D1A603B1D6F
S3150800412C1B680A4A094BDB6C43F04003D364074B04
S3150800413CDB6C03F040023B461A603B461B68FDF7F6
S3150800414C5FF900BF07F58477BD4680BD00100240B5
S3150800415C80B584B002AF58484FF400739BB2002266
S3150800416C1946FCF727FB0123FB70F91C0023009367
S3150800417C00230122002001F047FF78607B68002BA2
S3150800418C40F08880962003F05FFE1323FB70F91C21
S3150800419C0023009300230122002001F035FF7860EC
S315080041AC7B68002B78D13623FB70F91C002300930F
S315080041BC00230122002001F027FF78607B68002B82
S315080041CC6CD13D484FF400739BB201221946FCF79B
S315080041DCF1FA4823FB70F91C0023009300230122F3
S315080041EC002001F011FF78607B68002B58D132480B
S315080041FC4FF400739BB200221946FCF7DBFA3A23FC
S3150800420CFB70F91C0023009300230122002001F007
S3150800421CFBFE78607B68002B44D127484FF400736B
S3150800422C9BB201221946FCF7C5FA5523FB70F91CFB
S3150800423C0023009300230122002001F0E5FE78609C
S3150800424C7B68002B30D11C484FF400739BB20022BC
S3150800425C1946FCF7AFFA1123FB70F91C00230093DF
S3150800426C00230122002001F0CFFE78607B68002B2A
S3150800427C1CD13C2003F0E8FD2923FB70F91C002314
S3150800428C009300230122002001F0BEFE78607B68B3
S3150800429C002B0CE000BF0AE000BF08E000BF06E0F8
S315080042AC00BF04E000BF02E000BF00E000BF7B686F
S315080042BC18460837BD4680BD0008004880B582B050
S315080042CC00AF074B7B6004220021786803F015FFCA
S315080042DC7B6801221A60002318460837BD4680BD44
S315080042EC0802042080B582B000AF194B3B603B68CE
S315080042FC1B68012B02D04FF0FF3325E0154900202F
S3150800430C01F0FCFD78607B68002B03D01248FFF7A0
S3150800431CA1FB18E04FF090404FF480739BB201223A
S3150800432C1946FCF747FA142003F08EFDFFF710FF29
S3150800433C78607B68002B03D00848FFF78BFB02E0FC
S3150800434C3B6802221A607B6818460837BD4680BD52
S3150800435C08020420C88600086881000878810008CD
S3150800436C80B588B002AF7860644B3B613B691B68CB
S3150800437C022B02D04FF0FF33BCE061484FF40073B8
S3150800438C9BB200221946FCF715FA2A233B7307F150
S3150800439C0C010023009300230122002001F034FEB7
S315080043AC78617B69002B40F0978055484FF4007371
S315080043BC9BB201221946FCF7FDF900233B73002337
S315080043CC7B7307F10C0100230093002302220020C3
S315080043DC01F01AFE78617B69002B7FD100233B73B1
S315080043ECEF237B7307F10C010023009300230222B1
S315080043FC002001F009FE78617B69002B70D14048DA
S3150800440C4FF400739BB200221946FCF7D3F92B2301
S3150800441C3B7307F10C0100230093002301220020B3
S3150800442C01F0F2FD78617B69002B5BD134484FF4BF
S3150800443C00739BB201221946FCF7BCF900233B73A7
S3150800444C00237B7307F10C0100230093002302223F
S3150800445C002001F0D9FD78617B69002B44D101233A
S3150800446C3B733F237B7307F10C0100230093002356
S3150800447C0222002001F0C8FD78617B69002B35D13A
S3150800448C1F484FF400739BB200221946FCF792F9A9
S3150800449C2C233B7307F10C01002300930023012204
S315080044AC002001F0B1FD78617B69002B20D11448FE
S315080044BC4FF400739BB201221946FCF77BF90023D3
S315080044CC009300234FF416327968002001F09CFD06
S315080044DC78617B69002B0CE000BF0AE000BF08E09E
S315080044EC00BF06E000BF04E000BF02E000BF00E02A
S315080044FC00BF7B6918461837BD4680BD08020420E4
S3150800450C0008004880B582B000AF78600348FFF712
S3150800451CA1FA00BF0837BD4680BD00BFB8810008A8
S3150800452C80B584B000AF7860064BFB600648FFF791
S3150800453C91FAFB68002283F8152200BF1037BD4696
S3150800454C80BD00BF0C020420D881000880B582B05B
S3150800455C00AF0D4B7B60102003F009FC38603B68FC
S3150800456C00221A603B6804330C220021184603F01B
S3150800457CC4FD7B681B7D3A681021184603F01FFCA6
S3150800458C00BF0837BD4680BD0C02042080B582B03A
S3150800459C00AF0D4B7B60102003F0E9FB38603B68DD
S315080045AC01221A603B6804330C220021184603F0DA
S315080045BCA4FD7B681B7D3A681021184603F0FFFBA7
S315080045CC00BF0837BD4680BD0C02042080B584B0F8
S315080045DC00AF78603960224BFB600023FB72082120
S315080045EC2048FCF7CFF80346FB72FB68D3F8183261
S315080045FCFA7AF96891F81C128A401A43FB68C3F8D0
S3150800460C1822FB6893F81C320133DAB2FB6883F87C
S3150800461C1C22FB6893F81C320F2B1CD9FB68002252
S3150800462C83F81C22FB68D3F818324FF6FF729342B4
S3150800463C06D1FB681B68022B08D0FFF787FF05E03D
S3150800464CFB681B68032B01D0FFF7A0FFFB68002251
S3150800465CC3F8182200E000BF1037BD4680BD00BF66
S3150800466C0C0204200018004880B584B000AF7860AE
S3150800467C0B46FB70FB781A467968012001F0F6FEAA
S3150800468CF860FB6818461037BD4680BD80B584B007
S3150800469C00AF78600B46FB70064BFB600222F9688C
S315080046AC012001F0E3FEB860BB6818461037BD461A
S315080046BC80BD00BFFC81000880B584B000AF78606F
S315080046CC0B46FB70064BFB600A22F968012001F0C9
S315080046DCCDFEB860BB6818461037BD4680BD00BF16
S315080046EC0082000880B584B000AF78600B46FB707A
S315080046FC0B4BBB600722B968012001F0B7FEF860C6
S3150800470CFB68B3F1FF3F06D0FB781A46796801209F
S3150800471C01F0ACFEF860FB6818461037BD4680BD44
S3150800472C0C82000880B586B000AF78600B46FB702B
S3150800473CFB78012B02D04FF0FF331FE07B681B7808
S3150800474C082B03D87B681B78002B02D14FF0FF335C
S3150800475C14E007F10C0307220A49184603F0C2FCB9
S3150800476C7B681B783033DBB2FB7407F10C03082229
S3150800477C1946012001F07AFE78617B6918461837CC
S3150800478CBD4680BD1482000880B584B000AF786041
S3150800479C0B46FB700E4BBB60FB78042B02D04FF01C
S315080047ACFF3311E00622B968012001F05FFEF860BC
S315080047BCFB68B3F1FF3F06D0FB781A4679680120EF
S315080047CC01F054FEF860FB6818461037BD4680BDEC
S315080047DC1C82000880B586B000AF78607B687B6168
S315080047EC0E4B3B617B691B781A460D4B53F82230EE
S315080047FC7A6950687A69127A11469847F860FB68A4
S3150800480C002B02D00748FFF725F93B69002283F8ED
S3150800481C152200BF1837BD4680BD00BF0C02042008
S3150800482C000004202482000880B586B000AF7860AA
S3150800483C3960124B7B6107F10F03012219460120DF
S3150800484C01F08CFE38617B691B68022B0FD17B69E2
S3150800485CD3F82032002BEED07B69D3F82032FA7BC2
S3150800486C10467A69D2F8242211469847E3E707F1ED
S3150800487C0F031846FFF7EEF8DDE700BF0C0204201D
S3150800488C80B58AB000AF78603960234B7B62002311
S3150800489CBB607B6A1B7D07F1200207F10C011846E9
S315080048AC03F0A5FA396A07F110031022184603F02B
S315080048BC19FC3B6A184603F071FA7B6A1A683B695D
S315080048CC16499200134451F83330002B0CD07B6AEE
S315080048DC1A683B6911499200134451F8333007F1B1
S315080048EC10020432104698477B6A1A683B690B49D2
S315080048FC92001344DB000B441B79042BC9D07B6A4A
S3150800490C1A683B69054992001344DB000B441B7972
S3150800491C1A467B6A1A60BCE70C020420D08600088B
S3150800492C80B584B002AF224B7B604FF40A7200212B
S3150800493C786803F0E2FB7B684FF4E1325A607B68D7
S3150800494C5B681946012001F013FD38603B68002BA3
S3150800495C02D04FF0FF3326E07B6801221A750A2134
S3150800496C144802F0A3F800230193002300934FF494
S3150800497C805308221049114803F0A8F902467B68AF
S3150800498C9A6000230193002300934FF48053082266
S3150800499C0B490C4803F09AF902467B68DA607B6887
S315080049AC01221A60002318460837BD4680BD00BF91
S315080049BC0C020420D54900088882000835480008EE
S315080049CC988200088D48000880B582B000AF0C4B61
S315080049DC7B60102003F0CBF938603B6803221A6021
S315080049EC3B6800229A607B681B7D3A681021184642
S315080049FC03F0E5F900BF18460837BD4680BD00BF71
S31508004A0C0C02042080B582B000AF074B7B600023F4
S31508004A1C00227968002000F0BBFF38603B68184616
S31508004A2C0837BD4680BD00BF70870008B0B58AB090
S31508004A3C00AF78600C4B07F1080403F5E0750FCD51
S31508004A4C0FC495E8070084E807007B683B6107F10B
S31508004A5C080100230022002000F09AFF78627B6A86
S31508004A6C18462837BD46B0BD7087000880B582B099
S31508004A7C00AF074B7B60002300227968002000F00A
S31508004A8C87FF38603B6818460837BD4680BD00BFAF
S31508004A9CA887000880B584B000AF7860064BFB6029
S31508004AAC01237A68F968002000F0A2FFB860BB6899
S31508004ABC18461037BD4680BDC487000880B584B03B
S31508004ACC00AF7860064BFB6002237A68F968002011
S31508004ADC00F08EFFB860BB6818461037BD4680BD1F
S31508004AECF489000880B584B000AF7860074BFB608A
S31508004AFC4FF480737A68F968002000F079FFB86083
S31508004B0CBB6818461037BD4680BD00BF808A0008B2
S31508004B1C80B58AB000AFF860B9607A600023FB757F
S31508004B2C6FF001033B627B687B627B6A012B01D1C8
S31508004B3C01237B62FB68013BBA6802FA03F3FB7735
S31508004B4C15E007F117031846FFF7A4FFB861BB6910
S31508004B5C002B09D1FB7D1A46FB681A40FB7F9A424B
S31508004B6C02D100233B6207E0012003F06DF97B6A52
S31508004B7C5A1E7A62002BE4D13B6A18462837BD4682
S31508004B8C80BD000080B582B000AF074B7B600C225D
S31508004B9C0021786803F0B1FA7B6801221A600023B9
S31508004BAC18460837BD4680BD3404042080B582B04B
S31508004BBC00AF0A4B7B600A49002000F031FD3860D3
S31508004BCC3B68002B01D03B6803E07B6802221A6025
S31508004BDC002318460837BD4680BD00BF34040420A0
S31508004BECD48A000880B487B000AFF860B960134661
S31508004BFCFB710E4B7B61BB68002B02D14FF0FF3368
S31508004C0C0DE07B691B68022B02D04FF0FF3306E0E0
S31508004C1C7B6903221A607B6902221A6000231846F4
S31508004C2C1C37BD465DF8047B704700BF340404206E
S31508004C3C80B58CB000AF7860304BBB62BB6A1B6822
S31508004C4C022B02D04FF0FF3353E07B68B3F5802F6D
S31508004C5C02D34FF0FF334CE0BB6A03221A60FFF70E
S31508004C6CD1FEF862FB6A002B03D02548FEF7F2FE4C
S31508004C7C3BE00A2201210220FFF74AFFF862FB6A91
S31508004C8C002B03D01F48FEF7E5FE2EE07868FFF7E9
S31508004C9CCDFEF862FB6A002B03D01B48FEF7DAFE42
S31508004CAC23E00A2200210120FFF732FFF862FB6A93
S31508004CBC002B03D01348FEF7CDFE16E0FFF7D6FE01
S31508004CCCF862FB6A002B03D01048FEF7C3FE0CE013
S31508004CDC0A2200210220FFF71BFFF862FB6A002B51
S31508004CEC03D00848FEF7B6FE00BFBB6A02221A605C
S31508004CFCFB6A18463037BD4680BD00BF3404042015
S31508004D0C2483000838830008548300086483000849
S31508004D1C80B48FB000AFF860B9601346FB710E4BC8
S31508004D2C7B63BB68002B02D14FF0FF330EE07B6B25
S31508004D3C1B68022B02D04FF0FF3307E07B6B032274
S31508004D4C1A6000BF7B6B02221A603B6B18463C3715
S31508004D5CBD465DF8047B70473404042080B584B0E6
S31508004D6C00AF78600B4BFB60FB681B68022B02D00C
S31508004D7C4FF0FF330AE0FB6803221A607868FFF7E6
S31508004D8C9DFEB860FB6802221A60BB68184610378D
S31508004D9CBD4680BD3404042080B584B000AF78606D
S31508004DAC0B4BFB60FB681B68022B02D04FF0FF33E2
S31508004DBC0AE0FB6803221A607868FFF793FEB8606E
S31508004DCCFB6802221A60BB6818461037BD4680BDC0
S31508004DDC3404042080B584B000AF3B1D02220021A8
S31508004DEC184603F08AF93B1D1846FFF7B7FF03462A
S31508004DFCBB60BB68002B02D00E48FEF72BFE0E4894
S31508004E0CFEF728FE0023FB600CE03A1DFB681344F2
S31508004E1C1B781846FEF734FE0848FEF71BFEFB689F
S31508004E2C0133FB60FB68012BEFD900BF1037BD4679
S31508004E3C80BD00BF7C8300089C830008A083000803
S31508004E4C80B5C4B000AF3B464FF4807200211846BB
S31508004E5C03F053F93B461846FFF79EFF0346C7F87F
S31508004E6C0431D7F80431002B02D02948FEF7F2FD9D
S31508004E7C2848FEF7EFFD2848FEF7ECFD2748FEF715
S31508004E8CE9FD0023C7F80C3139E00023C7F80831CF
S31508004E9C29E0D7F80C311A01D7F808311344C7F8AA
S31508004EAC0031D7F80831002B0CD11D48FEF7D2FD7E
S31508004EBCD7F80031DBB202211846FEF759FE19481D
S31508004ECCFEF7C8FD1848FEF7C5FD3A46D7F8003177
S31508004EDC13441B7802211846FEF74AFED7F8083108
S31508004EEC0133C7F80831D7F808310F2BD1D90F4839
S31508004EFCFEF7B0FDD7F80C310133C7F80C31D7F8EB
S31508004F0C0C310F2BC1D900BF07F58877BD4680BD7C
S31508004F1CA4830008C4830008FC83000834840008B2
S31508004F2C6C8400087084000874840008A083000848
S31508004F3C80B582B000AF0023FB710948FEF78AFDE5
S31508004F4CFFF760FD38603B68002B04D00548FEF778
S31508004F5C81FD00BF00BF00BF0837BD4680BD00BF3E
S31508004F6C788400082483000880B582B000AF09480D
S31508004F7CFEF770FDFFF77AFD78607B68002B04D08E
S31508004F8C0548FEF767FD00BF00BF00BF0837BD46E2
S31508004F9C80BD00BF888400086483000880B582B091
S31508004FAC00AF0023FB70FB1C1846FFF773FD7860F7
S31508004FBC7B68002B03D00948FEF74CFD0AE008482D
S31508004FCCFEF748FDFB7802211846FEF7D1FD054889
S31508004FDCFEF740FD00BF0837BD4680BD9884000823
S31508004FECAC840008A083000880B582B000AF00200E
S31508004FFCFFF71EFE78607B68002B04D00448FEF78A
S3150800500C29FD00BF00BF00BF0837BD4680BD00BFE5
S3150800501C5483000880B584B000AF042200212448CC
S3150800502C03F06BF8002222490020FFF771FE786026
S3150800503C7B68002B03D01F48FEF70CFD33E01E4897
S3150800504CFEF708FD1D48FEF705FD1D48FEF702FD97
S3150800505C0023FB6024E00023BB6018E0FB681A0100
S3150800506CBB6813443B60BB68002B02D11548FEF79E
S3150800507CF1FC1548FEF7EEFC0D4A3B6813441B7809
S3150800508C02211846FEF774FDBB680133BB60BB688A
S3150800509C0F2BE3D90D48FEF7DDFCFB680133FB60EB
S315080050ACFB680F2BD7D900BF1037BD4680BD00BF94
S315080050BC40040420B4840008C0840008FC8300085B
S315080050CC348400087084000874840008A0830008DF
S315080050DC80B582B000AF1E4B3B601E4B7B603B46D7
S315080050EC1846FEF7D5FD1C4B3B601C4B7B603B46BC
S315080050FC1846FEF7CDFD1A4B3B601A4B7B603B46B8
S3150800510C1846FEF7C5FD184B3B60184B7B603B46B3
S3150800511C1846FEF7BDFD164B3B60164B7B603B46AF
S3150800512C1846FEF7B5FD144B3B60144B7B603B46AB
S3150800513C1846FEF7ADFD124B3B60124B7B603B46A7
S3150800514C1846FEF7A5FD00BF0837BD4680BD00BF53
S3150800515CF8840008E14D0008108500084D4E00083B
S3150800516C248500083D4F00083C850008754F00084B
S3150800517C54850008A94F00086C850008F54F0008EF
S3150800518C7C8500082150000880B586B000AF034620
S3150800519CFB71254B7B61FA7913465B0013449B0024
S315080051AC224A13443B61FB799B000333FB60FB7972
S315080051BC9B000133BB607B691A68FB6822FA03F310
S315080051CC03F00103002B11D07B695A68FB79012186
S315080051DC01FA03F31A437B695A603B695B683A69BF
S315080051EC9268F8794FF0FF3198471AE07B691A688C
S315080051FCBB6822FA03F303F00103002B10D07B697A
S3150800520C5A68FB79012101FA03F31A437B695A6040
S3150800521C3B695B683A699268F8790021984700BF40
S3150800522C00BF1837BD4680BD00000240401404205C
S3150800523C80B500AF0020FFF7A7FF00BF80BD80B583
S3150800524C00AF0120FFF7A0FF00BF80BD80B500AFFF
S3150800525C0220FFF799FF00BF80BD80B500AF032081
S3150800526CFFF792FF00BF80BD80B500AF0420FFF7A3
S3150800527C8BFF00BF80BD80B500AF0520FFF784FF0C
S3150800528C00BF80BD80B500AF0620FFF77DFF00BFCD
S3150800529C80BD000080B582B000AF00237B6028E09B
S315080052AC7A6813465B0013449B00154A13443B600B
S315080052BC0C220021386802F020FF12497A6813463E
S315080052CC5B0013449B000B4408331B6818B20D494A
S315080052DC7A6813465B0013449B000B4404331B6823
S315080052EC194602F09CFD3B6801221A607B68013363
S315080052FC7B607B68062BD3D900BF0837BD4680BDBB
S3150800530C40140420E88A000880B582B000AF074B29
S3150800531C7B607B680433002B04D07B680433184607
S3150800532CFBF760FA00BF0837BD4680BD941404200D
S3150800533C80B582B000AF074B7B607B680433002BCB
S3150800534C04D07B6804331846FBF766FA00BF0837A7
S3150800535CBD4680BD9414042080B582B000AF074BBF
S3150800536C7B607B680433002B04D07B6804331846B7
S3150800537CFBF738FA00BF0837BD4680BD2815042050
S3150800538C80B582B000AF074B7B607B680433002B7B
S3150800539C04D07B6804331846FBF73EFA00BF08377F
S315080053ACBD4680BD2815042080B582B000AF002309
S315080053BC7B603DE07B68942202FB03F3204A13448E
S315080053CC3B6094220021386802F097FE1D497A68E2
S315080053DC1346DB009B1A9B000B440C331B6818B254
S315080053EC18497A681346DB009B1A9B000B44083352
S315080053FC1B68194602F013FD12497A681346DB003E
S3150800540C9B1A9B000B4418331B6818B20D497A6813
S3150800541C1346DB009B1A9B000B4414331B68194676
S3150800542C02F0FDFC3B6801221A607B6801337B6045
S3150800543C7B68012BBED900BF0837BD4680BD00BFAF
S3150800544C941404203C8B000880B483B000AF7860B9
S3150800545C00BF0C37BD465DF8047B704780B500AFBE
S3150800546C0020FFF7F1FF00BF80BD80B500AF01201B
S3150800547CFFF7EAFF00BF80BD80B487B000AF786045
S3150800548C01233B610023FB730123FB753B695B001E
S3150800549C3B613A697B689A4202D3FB7DFB7303E056
S315080054ACFB7D0133FB75F1E7FB7B18461C37BD46C4
S315080054BC5DF8047B7047000080B586B000AF0346E4
S315080054CC3960FB71FA79134913465B001344DB0008
S315080054DC0B441B683B61FA790E4913465B0013446F
S315080054ECDB000B4414331B681846FDF7B7F8F86055
S315080054FCFA683B68B2FBF3F37B617B69002B01D13D
