S01000002E5C53797374656D2E7372656305
S31508000000000003204D5300089D5300089D53000827
S315080000109D5300089D5300089D53000800000000EA
S31508000020000000000000000000000000BD4A0008B3
S315080000309D53000800000000BD4A0008BD4A00089C
S31508000040BD4A0008BD4A0008BD4A0008BD4A000866
S31508000050BD4A0008BD4A0008BD4A0008BD4A000856
S31508000060BD4A0008BD4A0008BD4A0008BD4A000846
S31508000070BD4A0008BD4A0008BD4A0008BD4A000836
S31508000080BD4A0008BD4A0008BD4A0008BD4A000826
S31508000090BD4A0008BD4A0008BD4A0008BD4A000816
S315080000A0BD4A0008BD4A0008BD4A0008BD4A000806
S315080000B0BD4A0008BD4A0008BD4A0008BD4A0008F6
S315080000C0BD4A0008BD4A0008BD4A0008BD4A0008E6
S315080000D0BD4A0008BD4A0008BD4A0008BD4A0008D6
S315080000E0BD4A0008BD4A0008BD4A0008BD4A0008C6
S315080000F0BD4A0008BD4A0008BD4A000800000000C5
S31508000100BD4A0008BD4A0008BD4A0008BD4A0008A5
S31508000110BD4A0008BD4A0008BD4A0008BD4A000895
S31508000120BD4A0008BD4A0008BD4A0008BD4A000885
S31508000130BD4A0008BD4A0008BD4A0008BD4A000875
S31508000140BD4A0008BD4A0008BD4A0008BD4A000865
S31508000150BD4A0008BD4A0008BD4A0008BD4A000855
S31508000160BD4A0008BD4A0008BD4A0008BD4A000845
S31508000170BD4A0008BD4A0008000000000000000053
S31508000180BD4A0008BD4A0008BD4A0008BD4A000825
S31508000190BD4A0008BD4A0008000000000000000033
S315080001A00000000000000000BD4A0008BD4A000823
S311080001B0BD4A0008BD4A0008BD4A000808
S315080001BC10B5054C237833B9044B13B10448AFF387
S315080001CC00800123237010BD4800042000000000A5
S315080001DC0855000808B5034B1BB103490348AFF390
S315080001EC008008BD000000004C00042008550008DB
S315080001FC10F8012B11F8013B012A28BF9A42F7D0B7
S3150800020CD01A7047034613F8012B002AFBD1181A8B
S3150800021C01387047014B1868704700BFDC1008207E
S3150800022C184B70B4DC68C4F30224C4F10706042E18
S3150800023C04F1040328BF0426062B17D9033C012511
S3150800024CA540013D2A400123B340013B1940A1407A
S3150800025C002841EA02010CDB00F1604000F5614020
S3150800026C0901C9B280F8001370BC70470022144605
S3150800027CE9E7054B00F00F0009010344C9B21976EA
S3150800028C70BC704700ED00E0FCEC00E000F01F01CC
S3150800029C01234009024A8B4042F82030704700BFC0
S315080002AC00E100E04309203300F01F000122034956
S315080002BC02FA00F041F82300704700BF00E100E0A5
S315080002CCF8B590F82530022B03D00423C36301201C
S315080002DCF8BD0368876C1968426C066CC56C446D6E
S315080002EC21F00E011960196821F0010119603B68AB
S315080002FC016D23F480733B6002F01C0201239340CA
S3150800030C7360696034B12368826DC16D23F48073A0
S3150800031C23605160836B0122002480F8252080F825
S3150800032C244013B198472046F8BD1846F8BD00BFBF
S3150800033C90F82500704700BF2DE9F04F0F6885B07F
S3150800034C002F00F0D4808B460025DFF804A2DFF8D6
S3150800035C049201972946D84684E00322AA40D24340
S3150800036CC66806EA020ED8F80860AE4046EA0E06DB
S3150800037C022BC66000F08B80AB40066832401343F4
S3150800038C14F4403F036067D0DAF8603043F0010399
S3150800039CCAF86030DAF8603021F0030606F18046B8
S315080003AC03F0010306F58036039301F00303039A61
S315080003BCD6F808E09B000F229A40B0F1904F2EEA2F
S315080003CC020200F097805B4FB84200F095805A4FB6
S315080003DCB84200F09680594FB84200F09780584FB3
S315080003ECB84200F09880574FB84200F09980564FA3
S315080003FCB84200F09A80554FB8420CBF4FF0070E22
S3150800040C4FF0080E0EFA03F31343B360D9F808300D
S3150800041C6FEA0B06E20254BF33404BEA0303C9F8F2
S3150800042C0830D9F80C20A30254BF32404BEA02021A
S3150800043CC9F80C20D9F80420A70354BF32404BEA5C
S3150800044C0202C9F80420D9F80030E20354BF33403D
S3150800045C4BEA0303C9F80030019B0131CB4005F187
S3150800046C020544D04FF0010E019B0EFA01FE13EA69
S3150800047C0E0BF1D0D8F8044004F003035A1E012AD7
S3150800048C1ED9032B7FF469AFAB40DA4375E74FEA05
S3150800049CD10C00EB8C0C01F0070EDCF820604FEA4F
S315080004AC8E0E0F2707FA0EF726EA07063746D8F8F0
S315080004BC106006FA0EF63E43AB40CCF820605CE7BB
S315080004CC03228668AA40D24306EA020CD8F80C60C6
S315080004DCAE4046EA0C068660D0F804C0C4F3001693
S315080004EC2CEA0E0E8E4046EA0E06466038E705B034
S315080004FCBDE8F08F002387E74FF0010E0EFA03F3E1
S3150800050C82E74FF0020E0EFA03F37DE74FF0030E67
S3150800051C0EFA03F378E74FF0040E0EFA03F373E7BB
S3150800052C4FF0050E0EFA03F36EE74FF0060E0EFAB1
S3150800053C03F369E70004004800080048000C00486B
S3150800054C001000480014004800180048001C004819
S3150800055C00100240000401400369194214BF01202F
S3150800056C002070470AB9816270478161704700BFE5
S3150800057C704700BF704700BF034600201A68116811
S3150800058C30B483F8420048040DD5116821F4804133
S3150800059C116093F8411029290FD093F841102A2994
S315080005AC1DD030BC70470904F3D5116821F40041FD
S315080005BC116093F841102929EFD12820212183F8BD
S315080005CC4100196393F84100DC6D116800F02800AE
S315080005DC282814BF6FF0F2006FF0420010E02820B4
S315080005EC222183F84100196393F841001C6E1168A7
S315080005FC00F02800282814BF6FF0F4006FF04400B0
S3150800060C014000251160184683F84050234630BC3B
S3150800061C184700BF0346194A70B4C262002220204C
S3150800062C1A635A6383F8410083F842204A0712D5A5
S3150800063C19685A6A496A11705A6A198D01325A62CE
S3150800064C49B15A8D013A92B25A855A6C013942F01F
S3150800065C040219855A641A6893F8411093F84110E4
S3150800066C11685C6E1026002521F0FE0111601846F3
S3150800067CD66183F84050234670BC18470000FFFF2C
S3150800068C90F84120602A05D00022026380F84020A9
S3150800069C036F18470022202180F8411080F840206B
S315080006AC0263436F184700BF806A836B0BB1002245
S315080006BC9A63C36B0BB100229A63FFF7E1BF00BFC5
S315080006CC70B504460022414894F8413084F842201B
S315080006DCE0626285626C283B1143022B61642CD85C
S315080006EC94F8412094F84130394802F02802282A17
S315080006FC03F028030CBF4622F622282B236808BFD2
S3150800070CD1431A6818BF6FF0F60128250A401A60FB
S3150800071C84F841506063A06B226B18B1112A1FD064
S3150800072C212A1DD0E06B18B1122A2ED0222A2CD0E1
S3150800073C2046BDE87040FFF7A3BF236894F8412014
S3150800074C94F841201A6822F0FE021A6094F84120A7
S3150800075C602A1CBF202284F8412000226263DAE753
S3150800076C1A68510403D51A6822F480421A60FFF7F6
S3150800077CDFFD0128DCD0A06B164B8363002384F8BD
S3150800078C4030FFF79DFDD8B970BD1A68120412D413
S3150800079CFFF7CEFD0128CBD0E06B0E4B836300230D
S315080007AC84F84030FFF78CFD0028EDD0E06BBDE8EF
S315080007BC7040836B18471A6822F400421A60E7E700
S315080007CCA06BBDE87040836B184700BF0000FFFFA5
S315080007DC450B0008B506000870B50368044618688A
S315080007EC94F8412002F0F7022025212ADD610D46F6
S315080007FC78D0222A6ED05968494E41F40041596086
S3150800080C5A6832405A609A69910744BF00229A6224
S3150800081C9A69D20703D49A6942F001029A6146048E
S3150800082C38D51A68A16B22F480421A6019B10A6885
S3150800083C526892B262856A070AD5626A5B6A137055
S3150800084C636A228D013325F004056362002A3AD1C6
S3150800085C638D9BB21BB1636C43F004036364002382
S3150800086C84F84230666C6363002E43D1E36A2D4DDF
S3150800087CAB4219D194F8413084F84060222B4FF0E2
S3150800088C200384F841303ED0E36D26632046BDE84C
S3150800089C704018470104CED51A68E16B22F4004261
S315080008AC1A600029C3D1C6E72046FFF765FE202348
S315080008BCE56284F8406084F841302046636E26630E
S315080008CCBDE870401847638D013B013A9BB22285FF
S315080008DC6385BDE794F84110196821F0FC0119608D
S315080008EC226388E794F84110196821F0FA01196017
S315080008FC226380E7616C2046FFF7E2FE94F84130EC
S3150800090C282B06D070BD236E26632046BDE87040A2
S3150800091C184729462046BDE87040FFF77BBE00BF46
S3150800092C00E800FE0000FFFF036830B52022DA61FC
S3150800093C90F84120212A83B04ED090F84120222AE3
S3150800094C5AD05A683D4D3E4C2A4000255A6045639C
S3150800095CCD06C46205D51022DA61426C42F0040257
S3150800096C426490F84120602A2FD09A69910744BFB7
S3150800097C00229A629A69D20703D49A6942F0010254
S3150800098C9A61436C90F84120602A19D0C3B990F843
S3150800099C4120212A40D090F84120222A0ED120222B
S315080009AC80F84120036390F8422080F84030402AB2
S315080009BC80F842300CBFC36E836D984703B030BDC8
S315080009CC416CFFF77DFE03B030BD4C07CDD55A6A96
S315080009DCD2B20192019AC8E790F841401A6804F01D
S315080009EC2804282C14BF6FF0F2046FF0420422403E
S315080009FC11241A600463A4E790F841401A6804F0BD
S31508000A0C2804282C14BF6FF0F4046FF04404224019
S31508000A1C12241A60046394E7202280F841200363A9
S31508000A2C90F8422080F84030402A80F842300CBFBB
S31508000A3C836E436D984703B030BD00BF00E800FED7
S31508000A4C0000FFFF002280F8422090F8411021296F
S31508000A5C70B403464FF0200418D0122180F8414098
S31508000A6C016390F841100468856D426301F0280112
S31508000A7C2829216814BF6FF0F4066FF0440631403C
S31508000A8C216083F840202B4670BC1847112180F84A
S31508000A9C4140016390F841100468426301F0280153
S31508000AAC2829456D216814BF6FF0F2066FF04206CF
S31508000ABCE5E700BFF0B50468C368A169A269A66832
S31508000ACCE768120C022BC1F3004102F0FE020DD1AD
S31508000ADCC6F3090682EAD61212F0060312D1826C04
S31508000AEC01328264826C022A1BD0F0BD2368866FA1
S31508000AFC23F0B8030027236080F840703346BDE81E
S31508000B0CF04018472368866F23F0B8034FF0000EA1
S31508000B1C236007F0FE0280F840E03346BDE8F0405B
S31508000B2C184708278364E761846F80F8403032469B
S31508000B3C2346BDE8F0401847F8B590F84050C76A08
S31508000B4C012D72D0164601238A060C46054680F8F6
S31508000B5C403001D5B3066AD4E20621D4620741D5E2
S31508000B6C73073FD56B8D9BB26BB12A686B6A526A59
S31508000B7C1A706B8D696A2A8D013B9BB20131013A59
S31508000B8C6B8569622A856B8D9BB22BB917F5803FED
S31508000B9C02D02846FFF7F0FC002085F84000F8BD87
S31508000BACF306DBD56B8D9BB2002B43D195F8413000
S31508000BBC282B52D095F84130292B2B684FF0100270
S31508000BCCDA61E9D117F5803FE6D09A69900744BFF8
S31508000BDC00229A629A69D107DBD49A6942F001021B
S31508000BEC9A61D6E720070BD5310709D595F8413018
S31508000BFC03F02803282B38D02B680822DA61CBE7B8
S31508000C0CA207C9D5B307C7D56B8D9BB20BB3696A57
S31508000C1C2B6811F8012B9A626B8D2A8D6962013B40
S31508000C2C9BB2013A6B852A85B6E70220F8BDFFF719
S31508000C3CD3FD91E72B681022DA616B6C43F0040341
S31508000C4C6B6437F08073A7D1696C2846FFF738FDBB
S31508000C5CA2E737F080739CD09EE7B7F1007FA9D145
S31508000C6C21462846FFF7D6FC96E72846FFF722FFCB
S31508000C7C92E700BF90F84030012B6CD0F0B50123F9
S31508000C8C80F84030CB0683B004460D4614D4690769
S31508000C9C28D5530726D52168636A496A1970638D66
S31508000CAC606A218D013B9BB20130013925F00405A0
S31508000CBC63856062218526E0D706E8D5036810218E
S31508000CCCD961416C41F00401416499698E0744BFAE
S31508000CDC002199629969C80715D4996941F00101EF
S31508000CEC996110E0AF0717D5960715D5606A236882
S31508000CFC10F8011B9962638D218D6062013B9BB2D2
S31508000D0C013963852185A90601D5930639D40020B6
S31508000D1C84F8400003B0F0BD28061ED55106F2D55E
S31508000D2C638D9BB2002B31D0238D002B2ED12168DD
S31508000D3C4868668DB6B2FF2EC0F3090037D94B68E2
S31508000D4C2A4E334043F0FF7343F480330343FF20AA
S31508000D5C20854B60D7E7022070476F06D3D5560619
S31508000D6CD1D5638D9BB2DBB9236859688801CAD47F
S31508000D7CE16A11F5803F0DD1596841F480415960FB
S31508000D8CC1E729462046FFF7CFFDC0E723685B6815
S31508000D9C9B0105D420460192FFF754FE019AB2E74F
S31508000DAC402120460192FFF78BFC019AABE7638D35
S31508000DBCE66A9BB216F5803F23850CD0E76A0B4E84
S31508000DCCDBB240EA034348683B4323F00043304018
S31508000DDC03434B6097E74E68044F3E4046F0007657
S31508000DECDBB2304340EA03434B608CE7009C00FCC3
S31508000DFC704700BF704700BF704700BF704700BF01
S31508000E0C704700BF704700BF002869D0F8B590F846
S31508000E1C4130044603F0FF02002B40D02368E068FB
S31508000E2C242284F841201968626821F0010122F015
S31508000E3C706219601A619A68012822F400429A6055
S31508000E4CA26849D042F4044202289A6004BF4FF4BF
S31508000E5C00625A6059682269D4F814E0A769E069F7
S31508000E6C266A41F0007141F400415960DD6842EA96
S31508000E7C0E0242EA0722304325F40045DD60DA60AB
S31508000E8C18601968002241F00101202519601046E6
S31508000E9C626484F84150226384F84220F8BDC36F1B
S31508000EAC124D13481349DFF86CE0134F84F84020B1
S31508000EBC124E6565A065124D1248E165124A134932
S31508000ECCC4F860E06766A666E56620676167A26790
S31508000EDC43B120469847A1E742F400429A60B9E725
S31508000EEC012070470A4BE367F3E700BFF13C0008A3
S31508000EFC393D0008010E0008090E00080D0E000801
S31508000F0C110E0008853D00087D05000881050008BE
S31508000F1CFD0D0008050E0008F0B490F84140202C91
S31508000F2C02D00220F0BC70470568AC6914F4004482
S31508000F3CF7D190F84060012EF3D0212680F8416055
S31508000F4C1027194E80F8427044644385C662438D57
S31508000F5C164C42629BB20122FF2B80F84020446358
S31508000F6C19D9FF2303854FF47F044FF080776A68FD
S31508000F7C0F4EC1F30903324043F4005313433B436A
S31508000F8C23436B602A68002342F0F20280F8403053
S31508000F9C18462A60C6E7428D92B2D3B202851C0463
S31508000FAC4FF00077E3E700BF0000FFFF810C000855
S31508000FBC009800FCF0B490F84140202C02D0022096
S31508000FCCF0BC70470568AC6914F40044F7D190F886
S31508000FDC4060012EF3D0222680F841601027194E66
S31508000FEC80F8427044644385C662438D164C42624F
S31508000FFC9BB20122FF2B80F84020446319D9FF23AA
S3150800100C03854FF47F044FF080776A680F4EC1F35F
S3150800101C0903324043F4105313433B4323436B6099
S3150800102C2A68002342F0F40280F8403018462A60F9
S3150800103CC6E7428D92B2D3B202851C044FF00077F4
S3150800104CE3E700BF0000FFFF810C0008009800FCD6
S3150800105C036810B4446B99691A681CB123465DF889
S3150800106C044B18475DF8044B704700BF0268936938
S3150800107C116810B4DC051AD50C0624D5416C41F060
S3150800108C010141644FF480745905D46129D5416C2A
S3150800109C4FF4806441F008019B054164D46118D46F
S315080010AC416C11F00B0F0AD15DF8044B70475C05C7
S315080010BC0BD50906EBD4416C11F00B0FF4D05DF887
S315080010CC044BFFF7FDBA5C05EAD49C05E8D50B067C
S315080010DCE6D5436C4FF4007143F002034364D161C7
S315080010ECDEE79B05F5D4DBE7406C704790F841309A
S315080010FCDBB2202B01D002207047024690F8400044
S3150800110C0128F8D010B41068242482F841400468E9
S3150800111C24F001040460046824F480540460046810
S3150800112C214301600168002441F001010160204659
S3150800113C82F8404082F841305DF8044B704700BF96
S3150800114C90F84130DBB2202B01D0022070470246C2
S3150800115C90F840000128F8D010B41068242482F8BE
S3150800116C4140046824F001040460046824F47064A3
S3150800117C44EA012101600168002441F00101016083
S3150800118C204682F8404082F841305DF8044B70479F
S3150800119C074B186800F4C060B0F5806F07D0D3F819
S315080011AC803013F4807F14BF4FF400700020704712
S315080011BC007000403B4A10B4136868B903F4C06366
S315080011CCB3F5806F14D0D2F880305DF8044B23F455
S315080011DC8073C2F880307047B0F5007F31D023F4A5
S315080011ECC06343F48063136000205DF8044B7047BA
S315080011FCD2F880102C4B2D4821F48071C2F880103F
S3150800120C116821F4C06141F4007111601C685169C0
S3150800121C322303FB04F3A0FB03039B0C480503F1E1
S3150800122C010306D500E023B15169490503F1FF33E3
S3150800123CF9D41C4B5B695C05D6D503205DF8044BC9
S3150800124C704703F4C063B3F5806F07D0D2F88030CB
S3150800125C43F48073C2F880300020C6E7D2F88010B9
S3150800126C114B124841F48071C2F88010116821F4B0
S3150800127CC06141F4007111601C685169322303FB8B
S3150800128C04F3A0FB03039B0C480503F10103D0D51B
S3150800129C01E0002BCDD05169490503F1FF33C8D5C0
S315080012ACF7E700BF007000404400042083DE1B43B0
S315080012BC024A536843F40073536070470070004049
S315080012CC30B51E4DAB6DDB0083B0044619D5FFF760
S315080012DC5FFFB0F5007F26D07F2C2BD8A4F17004C5
S315080012ECB4FA84F4640916490B6823F00F032343F4
S315080012FC0B60086800F00F00001B18BF012003B034
S3150800130C30BDAB6D43F08053AB65AB6D03F08053CA
S3150800131C0193019BFFF73CFFAB6DB0F5007F23F003
S3150800132C8053AB65D8D1802C06D9A02C8CBF02244F
S3150800133C0124D8E70224D6E70024D4E7001002409B
S3150800134C00200240284A9368D26813F00C0308D090
S3150800135C0C2B38D0042B34D0082B244818BF00206B
S3150800136C7047214A1168090754BFD2F894201268AD
S3150800137C1F4954BFC2F30322C2F3031251F82200C9
S3150800138C03B30C2B2DD1184BDB6803F00303022B8C
S3150800139C25D0164A032B08BF1046134BD968DA68B2
S315080013ACDB68C3F341630133C1F30311C2F30622AD
S315080013BC00FB02F201315800B2FBF1F3B3FBF0F07B
S315080013CC70470C48704702F00302012AC9D0064B35
S315080013DCDB6803F00303022B4FF00000D9D1054854
S315080013ECDBE70020704700BF0010024000127A00AD
S315080013FC705D00080024F400002800F06C822DE9CA
S3150800140CF041964A03689568D6680446D80682B0B1
S3150800141C05F00C0506F003062ED5002D00F02781E5
S3150800142C0C2D00F02181A3698C4F002B00F0A081B4
S3150800143C3B6843F001033B60FEF7ECFE804606E092
S3150800144CFEF7E8FEA0EB0800022800F2CB813B6809
S3150800145C9B07F5D53B6843F008033B603B68226A5B
S3150800146C23F0F00313433B607B68E26923F47F4364
S3150800147C43EA02237B602368D9071ED5082D00F0A2
S3150800148C8D810C2D00F087816268B2F5803F00F0E3
S3150800149CA381B2F5A02F00F00B827049086820F4DE
S315080014AC80300860086820F480200860002A00F064
S315080014BC16816A490A689703FCD59A0718D5042D2C
S315080014CC00F079810C2D00F07381E2686349002ADB
S315080014DC00F043810A6842F480720A600A6856056D
S315080014ECFCD54A68206922F0FE4242EA00624A604C
S315080014FC19070ED562695949002A00F0F880D1F807
S3150800150C942042F00102C1F89420D1F89420970750
S3150800151CFBD55A0730D5514B9A6DD00040F1FF8058
S3150800152C00204F4A1368D90506D4136843F4807310
S3150800153C13601368DB05FCD5A368012B00F05C81EE
S3150800154C052B00F06181454AD2F8901021F0010173
S3150800155CC2F89010D2F8901021F00401C2F890103D
S3150800156C002B00F0D2803D4AD2F890309F07FBD56D
S3150800157C002840F03B81236898060ED5636A374AE3
S3150800158C002B00F0D780D2F8983043F00103C2F84C
S3150800159C9830D2F898309907FBD5A36A002B44D01B
S315080015AC022B46D00C2D55D02C4B1A6822F0807283
S315080015BC1A60186810F00070FBD1D968294A0A40DD
S315080015CCDA6002B0BDE8F081266B03F0F000013E4C
S315080015DCB0EB061F34D1666B03F4FE40B0EB062F56
S315080015EC2ED1A66B03F07840B0EBC66F28D1E06B12
S315080015FC4008013803F4C006B6EB405F20D1206CD6
S3150800160C400803F0C0630138B3EB406F18D1136878
S3150800161C99010AD4136843F080731360D36843F0B6
S3150800162C8073D36013689B01FCD5002002B0BDE81B
S3150800163CF0810A4AE16AD36803F003008842C3D0F2
S3150800164C0C2D07D0054B1A68570103D41A68D60017
S3150800165C40F10081012002B0BDE8F0810010024083
S3150800166C00700040FCFFEEFE012E7FF4DCAE9B4BB7
S3150800167C1B6899076DD4994B206A1A68120756BFCE
S3150800168CD3F894301B681B0903F0F0038342C0F0AF
S3150800169CC980924B1A6842F008021A601A6822F03E
S315080016ACF00202431A605A68E16922F47F4242EA60
S315080016BC01225A60002D00F00881FFF743FE874B84
S315080016CC874F9A6887492368C2F30312BA5C02F0FB
S315080016DC1F02D0400860D9077FF5EFAECEE60A6840
S315080016EC90037FF5EAAE0A689003F8D4E5E6D1F8DC
S315080016FC942022F00102C1F89420D1F89420960780
S3150800170CFBD45A073FF507AF36E7D2F890309E0759
S3150800171C7FF52EAFD2F890309E07F6D428E79A6D4F
S3150800172C42F080529A659B6D03F080530193019B9E
S3150800173C0120F6E6D2F8983023F00103C2F8983067
S3150800174CD2F898309B07FBD4A36A002B7FF428AFFA
S3150800175C6BE7A369002B8ED17CE70A6822F48072AA
S3150800176C0A600A685005FCD419073FF5C3AED0E6E3
S3150800177C3B6823F001033B60FEF74CFD804605E011
S3150800178CFEF748FDA0EB080002282BD83B68980703
S3150800179CF6D4236870E6032E7FF476AE4F4A1268A9
S315080017AC92037FF58AAE6268002A7FF486AE51E70B
S315080017BC022E7FF48AAE494A1268570503D5E268A9
S315080017CC002A3FF447AF454920694A6822F0FE4291
S315080017DC42EA00624A608BE640490A6842F4803263
S315080017EC0A6066E6032002B0BDE8F0813B4A936DB9
S315080017FC23F080539365BEE6384AD2F8903043F00E
S3150800180C0103C2F89030AEE6344BD3F8902042F080
S3150800181C0402C3F89020D3F8902042F00102C3F8D2
S3150800182C9020A0E6FFF74CFD00287FF413AF2B4B56
S3150800183C1A6842F008021A601A68216A22F0F00245
S3150800184C0A431A605A68E16922F47F4242EA012285
S3150800185C5A6032E71A6822F080721A601A68950183
S3150800186CFCD4D868204AD4F834E0A76B266BE56B11
S3150800187C02400A43206C194942EA0E2242EAC76220
S3150800188C013E6C0842EA0612013C400842EA445200
S3150800189C013842EA4062DA601A6842F080721A60CD
S315080018ACDA6842F08072DA600B689801FCD5BCE6FF
S315080018BC02F18042A2F53C32116841F48021116094
S315080018CC116841F480311160F3E5FFF7F9FC002843
S315080018DC3FF4F3AEBEE60120704700BF001002408D
S315080018EC585D0008440004200C809D0178B1824A9A
S315080018FC136803F00F038B420CD2136823F00F0303
S3150800190C0B431360136803F00F03994202D00123AB
S3150800191C184670472DE9F0410C460168064611F049
S3150800192C020047D1CA0731D57268744B032A00F0F6
S3150800193C8880022A1B6800F08180002A40F0B48057
S3150800194C9F0733D5FFF7FEFC6D4B984205D96B4BB9
S3150800195C9A6812F0F00F00F0AB8096E806000027A4
S3150800196C01F00200654DAB6823F003031343AB602B
S3150800197C9200AB6803F00C039342FAD11FB1AB6823
S3150800198C23F0F003AB60002840F0B3805A4A136882
S3150800199C03F00F039C4227D2136823F00F0323434B
S315080019AC1360136803F00F039C421DD001231846DD
S315080019BCBDE8F081514DB268AB6803F0F0039A426A
S315080019CC36D8CB07B0D44D48836803F0F0039A4257
S315080019DCDCD2836823F0F0031A438260464A136804
S315080019EC03F00F039C42D7D3480706D5434AF06841
S315080019FC936823F4E06303439360090707D53F4ACA
S31508001A0C3169936823F4605343EAC1039360FFF783
S31508001A1C99FC3A4B3B4C9A683B49C2F30312002398
S31508001A2CA25C02F01F02D04008601846BDE8F0819F
S31508001A3CAB6823F0F0031343AB60C2E79B0381D476
S31508001A4CB4E71D68AF01B1D5DD6805F00305022DB5
S31508001A5C4DD0032D49D0012D38D00025274FDFF85E
S31508001A6CA0E0D7F80CC0D7F80C80FB68C3F3416329
S31508001A7CCCF3031CC8F3062801330CF1010C05FB47
S31508001A8C08F55B00B5FBFCF5B5FBF3F373451BD901
S31508001A9CBB6813F0F00F17D1BB6823F0F00343F0C3
S31508001AAC8003BB6080275DE75D057FF57FAF49E75F
S31508001ABC9A6822F0F00242F080029A6096E80600D4
S31508001ACC802701F002004DE700274BE71D682D071C
S31508001ADC54BFD3F894301B680C4D54BFC3F303237F
S31508001AECC3F3031355F82350B8E7094DB6E7094D68
S31508001AFCB4E7B26867E700BF002002400010024056
S31508001B0C00B4C404585D000844000420705D000845
S31508001B1C00127A000024F400054B064A9B68064915
S31508001B2CC3F302230868D35C03F01F03D84070473D
S31508001B3C00100240685D000844000420054B064A64
S31508001B4C9B680649C3F3C2230868D35C03F01F03DA
S31508001B5CD840704700100240685D00084400042015
S31508001B6CB0F5006F10B43AD0B0F5805F1CD0474B77
S31508001B7C186810F000602FD0186910F480302BD03C
S31508001B8C1A6918691C69C2F30312E40E02F1010200
S31508001B9CC0F30620B1FBF2F146D11B6913F4003FE2
S31508001BAC14BF112407243FE0384BD3F89C3003F4B8
S31508001BBCE063B3F5407F3ED0B3F5007F18D0002B19
S31508001BCCD5D0802B3CD0B3F5806F39D0202B3FD0A5
S31508001BDCB3F5807F3CD000205DF8044B70472B4B47
S31508001BECD3F89C3003F0E003602B24D0402BE6D1CD
S31508001BFC264B186810F00070EED0D86810F48030B8
S31508001C0CEAD0DA68D868DC68C2F30312E40E02F18B
S31508001C1C0102C0F30620B1FBF2F105D1DB6813F41F
S31508001C2C003F14BF1124072400FB01F0B0FBF4F0AD
S31508001C3C5DF8044B70474BF680305DF8044B7047E3
S31508001C4C124B13481B6813F4806F08BF0020C3E7B8
S31508001C5C0E4A106810F00050BED0506910F480304F
S31508001C6CBAD0536950695469C3F30313E40E03F1EC
S31508001C7C0103C0F30620B1FBF3F1D5D1536913F474
S31508001C8C003F14BF11240724CEE700BF0010024002
S31508001C9C0024F400444AF8B5D3689B0707D0D368E8
S31508001CAC026803F0030393420CD00120F8BD0368C5
S31508001CBC022B43D0032B4DD0012BF6D11268970774
S31508001CCCF3D53EE0002BF0D0374C236823F0806325
S31508001CDC23600F460646FEF79DFA054604E0FEF716
S31508001CEC99FA401B022833D823681A01F7D4002F17
S31508001CFC37D1F368B56820692C497268DB0643EA64
S31508001D0C052301400B43013A43EA02132361264C8F
S31508001D1C236843F080632360FEF77CFA054604E0EB
S31508001D2CFEF778FA401B022812D823681B01F7D550
S31508001D3CB2692369134323610020F8BD126856055E
S31508001D4CB3D5194CE26822F003021343E360BBE7F0
S31508001D5C0320F8BD1468A503F3D412685403A4D55C
S31508001D6CEFE7012F25690FD0114BB06871687269BE
S31508001D7C2B4043EA00230139520843EA0113013A7E
S31508001D8C43EA42632361C2E70A4BB0687168326959
S31508001D9C2B4043EA00230139520843EA0113013A5E
S31508001DAC43EA42532361B2E7001002400F80FF0753
S31508001DBC0F80FFF90F809FFF314AF8B5D3689F074C
S31508001DCC07D0D368026803F0030393420CD00120B2
S31508001DDCF8BD0368022B40D0032B4AD0012BF6D151
S31508001DEC12689607F3D53BE0002BF0D0244C2368F9
S31508001DFC23F0805323600646FEF70CFA054604E0EA
S31508001E0CFEF708FA401B022831D823689A00F7D443
S31508001E1CF3686769B0681B497268194DDB0643EAB3
S31508001E2C002339400B43013A43EA021363612368E2
S31508001E3C43F080532360FEF7EDF9044604E0FEF701
S31508001E4CE9F9001B022812D82B689B00F7D5B26952
S31508001E5C6B6913436B610020F8BD12685505B6D53E
S31508001E6C0749CA6822F003021343CB60BEE7032076
S31508001E7CF8BD11688C03F3D412685103A7D5EFE7A4
S31508001E8C001002400F80FF072DE9F043036813F496
S31508001E9C006683B0044613D0C16E402900F0D88181
S31508001EAC00F20382002900F0E281202940F0018229
S31508001EBC2030FFF781FF0646002E00F003822368C8
S31508001ECCDF0440F12E81216FB1F5007F00F0DE8131
S31508001EDC00F21E81002900F0CF81B1F5807F40F019
S31508001EEC1F8104F12000FFF767FF23680746002FC0
S31508001EFC40F0CA81C449206FD1F89C2022F4E062D4
S31508001F0C02439D03C1F89C2000F10F81D80708D520
S31508001F1CBD49E06BD1F8882022F003020243C1F8D0
S31508001F2C8820990708D5B849206CD1F8882022F062
S31508001F3C0C020243C1F888205A0708D5B249606CCE
S31508001F4CD1F8882022F030020243C1F888201F07F6
S31508001F5C08D5AD49A06CD1F8882022F0C0020243FE
S31508001F6CC1F88820DD0608D5A749E06CD1F8882089
S31508001F7C22F440720243C1F88820980608D5A24973
S31508001F8C206DD1F8882022F440620243C1F88820DB
S31508001F9C990508D59C49606ED1F8882022F4402210
S31508001FAC0243C1F888205A0508D59749A06ED1F87E
S31508001FBC882022F440120243C1F888205F0608D50F
S31508001FCC9149606DD1F8882022F440520243C1F839
S31508001FDC88201D0608D58C49A06DD1F8882022F4D6
S31508001FEC40420243C1F88820D80508D58649E06DD9
S31508001FFCD1F8882022F440320243C1F88820D9024D
S3150800200C08D58149206ED1F89C2022F003020243A0
S3150800201CC1F89C209A0410D57B48616FD0F88820AB
S3150800202C22F040620A43B1F1006FC0F8882000F034
S3150800203C0A81B1F1806F00F048811F031AD5A06F91
S3150800204CB0F5804F00F0EE806F49D1F89C2022F451
S3150800205C8042C1F89C20D1F8882022F040620243C5
S3150800206CB0F1006FC1F8882000F02781B0F1806FBD
S3150800207C00F03B815D0310D56348E16FD0F88820EA
S3150800208C22F040620A43B1F1006FC0F8882000F0D4
S3150800209CD580B1F1806F00F0208158040DD55A48CF
S315080020ACD4F88010D0F8882022F040520A43B1F1B7
S315080020BC805FC0F8882000F0F080D90309D5524912
S315080020CCD4F88400D1F89C2022F004020243C1F80B
S315080020DC9C209A0209D54C49D4F88800D1F89C2042
S315080020EC22F018020243C1F89C20DB010CD5464AA3
S315080020FCD4F88C10D2F89C3023F440130B43B1F56A
S3150800210C001FC2F89C3076D0304603B0BDE8F08389
S3150800211CB1F5407F00F0CF80B1F5806F00F0CB8031
S3150800212C012637469D037FF5F1AE374B9A6DD000E5
S3150800213C55D54FF00008354D2B6843F480732B604A
S3150800214CFEF768F8814605E0FEF764F8A0EB09008F
S3150800215C02285DD82B68D905F6D5002F40F0D78014
S3150800216C294AD4F89010D2F8903013F4407329D039
S3150800217C8B4200F0C480D2F89030D2F8900040F42C
S3150800218C8030C2F89000D2F8900023F4407320F403
S3150800219C8030C2F89000C2F89030DA0712D5FEF7F4
S315080021AC39F8194D814641F2883705E0FEF732F8C1
S315080021BCA0EB0900B8422BD8D5F890309B07F5D57B
S315080021CCD4F89010104AD2F8903023F440730B438D
S315080021DCC2F89030B8F1000F1ED1236896E69A6DB6
S315080021EC42F080529A659B6D03F080530193019BD4
S315080021FC4FF001089FE7D368304643F48013D36049
S3150800220C03B0BDE8F08300BF001002400070004028
S3150800221C0326B8F1000FE0D03E4A936D23F08053A5
S3150800222C9365DAE73B4AD2F89C1041F48041C2F830
S3150800223C9C10D16841F48031D1601BE7C26842F426
S3150800224C8012C26029E7C26842F48012C260F4E6C2
S3150800225C3048C26842F48032C2602E48D0F89C20BE
S3150800226C22F0E0021143C0F89C10002628E6043040
S3150800227CFFF710FD06461FE6201DFFF70BFD074668
S3150800228C2368002F3FF436AE3E464BE72149CA6811
S3150800229C42F48032CA60374629E60221201DFFF730
S315080022ACF9FC50B30646236807E76029D5D0802980
S315080022BCD3D0012604E6374619E6CA6842F48012DA
S315080022CCCA60D7E6E16E2368C7E70121201DFFF730
S315080022DCE1FCB0B106462368AFE60121201DFFF7E5
S315080022ECD9FC80B106462368D7E60121201DFFF7E5
S315080022FCD1FC50B106462368BCE62368DDE60B46DE
S3150800230C4BE7236899E62368C7E62368B2E63E4698
S3150800231C60E700BF00100240B0F5003FBF4A52D03C
S3150800232CD36803F00303022B00F0BB80032B5AD0AF
S3150800233C012B00F0A2800021B0F5806F00F0B88068
S3150800234C1CD8102800F0008254D9802800F0B481DB
S3150800235C00F2E480202800F02A81402841D1AF4BB6
S3150800236CD3F8883003F44053B3F5805F7CD0B3F5CB
S3150800237C005F00F08281A3BBFFF7CEBBB0F5803FB0
S3150800238C00F0F68130B456D9B0F5801F00F0A28162
S3150800239C40F2DE80B0F5001F00F0AD80B0F1807F12
S315080023AC0ED19E4AD2F89C3003F44013B3F5801F25
S315080023BC00F0E581B3F5001F00F03382002B52D0F4
S315080023CC002030BC7047D2F8903003F44073B3F554
S315080023DC007F00F08780B3F5407F47D0B3F5807F48
S315080023EC77D00020704713688D4913F4003F08BF57
S315080023FC0021A1E7022800F0818140F24B810428D4
S3150800240C00F0FC800828ECD1844BD3F8883003F014
S3150800241CC003402B28D0AED9802B00F02E81C02BC0
S3150800242CDFD17E4BD3F8903013F0020F0CBF00208F
S3150800243C4FF400407047B0F5805F6CD040F22581B0
S3150800244CB0F5005F00F0F480B0F5804FB8D1734A50
S3150800245CD2F8883003F04053B3F1805F00F0B681B0
S3150800246CB3F1405FACD130BCFEF76CBF13686D4856
S3150800247C13F4003F08BF00207047116811F00201E1
S3150800248C3FF45AAF136819074CBF1368D2F8943047
S3150800249C654A4CBFC3F30313C3F3032352F8231043
S315080024AC4AE71368614913F4806F08BF002143E7B4
S315080024BC5A4AD2F8883003F44013B3F5801F11D06A
S315080024CC7FF659AFB3F5001F00F09180B3F5401FA6
S315080024DC87D1D2F8903013F0020F0CBF00204FF4BE
S315080024EC00407047D2F8943013F0020F0CBF00204E
S315080024FC4FF4FA407047494AD2F89C3003F0180357
S3150800250C082B00F0F480102B00F03981002B7FF497
S3150800251C57AF4FF4006030BCFFF722BBB0F5807F95
S3150800252C58D0B0F5007F7FF45CAF3C4AD2F88830BF
S3150800253C03F44023B3F5802FD4D07FF61CAFB3F544
S3150800254C002F00F09A80B3F5402F3FF46AAF48E7A6
S3150800255CB0F5802F6CD0B0F5002F7FF431AF2F4B30
S3150800256CD3F89C20520440F11A811B689B017FF515
S3150800257C27AF2A4AD06810F4803016D0D368D468AE
S3150800258CD568C3F30623C4F30314ED0E01FB03F05D
S3150800259C04F10103B0FBF3F005D1D36813F4003F43
S315080025AC14BF11250725B0FBF5F030BC70471B4B43
S315080025BCD3F8883003F44063B3F5806F3FF454AF17
S315080025CC7FF6D9AEB3F5006F57D0B3F5406F3FF42D
S315080025DC28AF06E7114AD2F8883003F44033B3F52E
S315080025EC803F3FF441AFB3F5003F7FF4C4AE1368A8
S315080025FC0E4813F4806F08BF00207047074BD3F8BA
S3150800260C883003F03003102B3FF42EAF7FF6B3AEB1
S3150800261C202B32D0302B3FF404AFE2E600100240F8
S3150800262C00127A0090D00300705D00080024F400B4
S3150800263CAD4AD2F8880000F04060B0F1806F00F027
S3150800264C0E8140F2E080B0F1006F00F01881B0F115
S3150800265C406F7FF4B5AE106810F00200A5D0136871
S3150800266C1D074BBF1368D2F89430C3F30313C3F397
S3150800267C03239E4A52F8230097E79B4B9C481B68FA
S3150800268C13F4806F08BF00207047B0F5006F3FF455
S3150800269C42AF95E601287FF4A4AE934AD2F8883067
S315080026AC03F00303022BA2D0032B3FF412AF012B2A
S315080026BC3FF4DAAEFFF742BA8B4AD2F8883003F405
S315080026CC4043B3F5804F3FF4CFAEB3F5004F7FF4DC
S315080026DC52AE8CE7844AD2F89C3003F00303012BE4
S315080026EC3FF4C1AEC0F09A80022B7FF469AE136832
S315080026FC7F4813F4806F08BF002056E77A4BD3F84F
S3150800270C883003F00C030C2B3FF66BAE01A252F883
S3150800271C23F000BF85230008EF230008EF230008E9
S3150800272CEF23000875240008EF230008EF230008A0
S3150800273CEF23000887260008EF230008EF2300087C
S3150800274CEF2300082F240008674AD2F8883003F4D0
S3150800275C4073B3F5807F3FF487AE7FF60CAEB3F5C6
S3150800276C007F3FF444AFB3F5407F3FF4B2AE38E692
S3150800277C5D4BD3F89C3058073FF576AE9AE713684D
S3150800278C99077FF51DAE584B1A6812074BBF1B6885
S3150800279CD3F89430C3F30313C3F3032369E7D3F8CD
S315080027AC880000F04060B0F1806F00F0908076D918
S315080027BCB0F1006F7FD0B0F1406F7FF401AE4A4A9A
S315080027CC136813F002037FF44AAFF9E513681C018A
S315080027DC7FF5F6AD444A106910F080703FF4E5AE0B
S315080027EC106914691369C3F34163C0F30620C4F373
S315080027FC0312013301FB00F001325B00B0FBF2F06F
S3150800280CB0FBF3F0D1E600287FF4DAADD2F89820C5
S3150800281C384B12F0020F18BF1846C6E630BCFFF745
S3150800282C7BB9314A106810F000703FF4BEAED06820
S3150800283C10F480103FF4B9AED468D068D368C3F3EB
S3150800284C4153C0F30312C4F30624013301FB04F00D
S3150800285C01325B00B0FBF2F0B0FBF3F0A5E61068B2
S3150800286C10F000603FF4A1AE106910F480103FF42C
S3150800287C9CAE106914691369C3F34153B5E7106824
S3150800288C10F000703FF491AED06810F480103FF44D
S3150800289C8CAED068D468D368C3F34153A5E7002837
S315080028AC7FF48EAD104A134BD2F8982012F0020F13
S315080028BC18BF184679E60C4A136813F000733FF4F0
S315080028CC7FADD36813F480133FF47AADE1E7064A7B
S315080028DC136813F000633FF473AD136913F4801394
S315080028EC3FF46EADC5E700BF00100240705D0008EE
S315080028FC0024F400006CDC0230B50E4D83B00021C8
S3150800290C0C464FF48672284602F0DFFD01940094BB
S3150800291C4FF4805303220849084802F059FC4FF437
S3150800292CE131286020462C7103B0BDE8304001F037
S3150800293C89BD00BF640004202055000865290008DD
S3150800294C10B50446FDF75EFC2146C2B2002001F024
S3150800295CF9FDC0B210BD00BF2DE9F0433E4DDFF8BE
S3150800296C008195F885303D4E83B06F1D00242BB33E
S3150800297C01220DF10301002001F03CFE9DF8033005
S3150800298C8DF804300D2B08BF0A2301A808BF8DF853
S3150800299C04308DF80540FFF7D3FF9DF80420092A6B
S315080029AC3DD00A2A11D0082A0CD095F885104B1C54
S315080029BC2944DBB285F885304A71D7E74046FFF7DC
S315080029CCBFFFD5E795F88530D1E795F8853095F8AA
S315080029DC0821E9180024013385F885304C7132B981
S315080029EC19E0013495F80831E4B2A34213D904F17D
S315080029FC1109384655F83910FDF7FAFB0028F0D1BD
S31508002A0C05EBC9090134D9F80430984795F808310B
S31508002A1CE4B2A342EBD8002385F88530A6E7304606
S31508002A2CFFF78EFF95F80831002473B104F11103F2
S31508002A3C013455F83300FFF783FF3046FFF780FF64
S31508002A4C95F80831E4B2A342F0D83046FFF778FF80
S31508002A5C95F885308AE700BF64000420D056000834
S31508002A6C285500082B49A1FB003110B549092A4CF9
S31508002A7C6FF0630202FB010284FB0234D317C3EB2B
S31508002A8CA403DBB201EB8104C1EBC404C3EB431210
S31508002A9CC3EB820282B000EB840000EB42000022FA
S31508002AACC0B20192A9B1092B9ABF3033DBB2FF230E
S31508002ABC09289ABF3030C0B2FF2030318DF8060095
S31508002ACC01A88DF804108DF80530FFF739FF02B010
S31508002ADC10BD93B1092B9ABF3033DBB2FF230928FB
S31508002AEC9ABF3030C0B2FF208DF8050001A88DF8CA
S31508002AFC0430FFF725FF02B010BD09289ABF303005
S31508002B0CC0B2FF208DF8040001A8FFF719FF02B028
S31508002B1C10BD00BF1F85EB5167666666A0B10C4AEF
S31508002B2C92F808310F2B0FD830B403F1110102EBD0
S31508002B3CC10401330568406882F80831606042F8C0
S31508002B4C3150002030BC70474FF0FF30704700BF43
S31508002B5C6400042030B5144C144D85B06A4601A99E
S31508002B6C207A02F097FB009A1068516802AB03C3EF
S31508002B7C104602F075FB22680099530008689918EC
S31508002B8C014455F8311029B103988847009B2268EF
S31508002B9C186853001344034405EBC3031B79032B32
S31508002BAC18BF2360DAE700BF7001042074550008CB
S31508002BBC08B500F0E3FE0248BDE80840FFF7C0BEC2
S31508002BCC445600081449B1F81222B1F810329A4248
S31508002BDC88BF1E339B1A9BB2B1F80E2203EB8303F4
S31508002BEC03EB830302EB83139BB24BF67F329342C0
S31508002BFC07D900230948A1F80E32A1F81432FFF7B9
S31508002C0C9FBE074AA1F80E32A2FB03235B0A0348B0
S31508002C1CA1F81432FFF794BE70ED0620D4550008BF
S31508002C2C1F85EB51F8B504461548FFF789FEDFF802
S31508002C3C60C0ACFB043C5FEA5C1C18D0114E4FF428
S31508002C4CC85E0EFB0C6E06F5C8570F4D0FCD06F178
S31508002C5C0C040FC40FCD0FC40FCD0FC495E80F008D
S31508002C6C4036BE4284E80F00EFD1B645EBD14FF49F
S31508002C7CC85101FB0CF10548BDE8F84000F06ABEE6
S31508002C8C3856000870010420345500087C010420CD
S31508002C9C1F85EB51F8B5060C83B29E4205461CD32C
S31508002CAC84B2371B0F48FFF74BFEE8B2FFF7DAFE84
S31508002CBC0D48FFF745FEF0B2FFF7D4FE0B48FFF7B9
S31508002CCC3FFE0B484FF4C85101FB04000C3001FBC6
S31508002CDC07F1BDE8F84000F03DBEC3F11E071C46DF
S31508002CEC3744DFE71856000828560008D05600085F
S31508002CFC7001042038B5114D114A002105F10C005C
S31508002D0C02F0E3FB05F53B3300240820A3F80C423C
S31508002D1CA3F80E42A3F81042A3F81242A3F81442E1
S31508002D2C83F8164202F08AFA024602234460082106
S31508002D3C287A1360BDE8384002F09EBA7001042068
S31508002D4C00EE02002DE9F04172B601F53B364BF662
S31508002D5C7F34B6F80C32B6F80E52B6F814E25A1C92
S31508002D6C92B2A24288BF002262B6AA425CD0DFF8B1
S31508002D7CC8C0ACFB0374640AC4EBC407C4EB0717DE
S31508002D8C07EBC70703EB87134FF4C86707FB04F772
S31508002D9C17FA83F301EB8303ACFB05756D0AD86050
S31508002DACAC4238BF04F11E0396F81672A6F80C222C
S31508002DBC34BF5B1B631B9BB288460FB9132B1DD8FC
S31508002DCC092B03D9B6F81032734501D0BDE8F0814A
S31508002DDC012FFBD1A6F81042A6F81252082002F0D1
S31508002DEC2DFA024645EA044400234460082198F863
S31508002DFC08001360BDE8F04102F03EBA0123A6F8BC
S31508002E0C1042A6F8125286F81632082002F016FA64
S31508002E1C45EA0444076044600246082198F808000D
S31508002E2CBDE8F04102F028BA0248BDE8F041FFF7C8
S31508002E3C87BD00BF505600081F85EB5110B5124CC4
S31508002E4C124A82B02046002102F03FFB022322469A
S31508002E5C0F491048237201F0FBFD23460E4A102138
S31508002E6C4FF47A5000F0A0FC0023019300930A2239
S31508002E7C4FF4005309490A4802F0AAF90123606085
S31508002E8C236002B010BD00BF7001042018EE0200CA
S31508002E9C012D0008512D0008D12B0008E05500081B
S31508002EAC612B000870B50A4D2E68012E0CD104460C
S31508002EBC082002F0C3F90821066044600246287A05
S31508002ECCBDE8704002F0D8B94FF0FF3070BD00BFB6
S31508002EDC7001042040F6B830FFF7E4BF4FF47A705F
S31508002EECFFF7E0BF00B5094A094B83B068468DE881
S31508002EFC0C00FFF713FE074A074B68468DE80C00D3
S31508002F0CFFF70CFE03B05DF804FB00BFF055000894
S31508002F1CE92E000804560008E12E000870B5CEB05C
S31508002F2C9422002129A802F0D0FA18A844220021DC
S31508002F3C02F0CBFA002318461493139315931693A1
S31508002F4C1793FEF737F900B1FEE70346012502246D
S31508002F5C182160221F9318A83C23259318911D95B8
S31508002F6C1E9523952495209222942694279428948A
S31508002F7CFEF742FA034600B1FEE7032213A80F2612
S31508002F8C052115931693179313961492FEF7AEFC18
S31508002F9C034600B1FEE7402229A83E932992FEF784
S31508002FAC73FF034600B1FEE7802229A83F932992B6
S31508002FBCFEF76AFF034600B1FEE74FF400660C21E4
S31508002FCC4FF4803229A844932A952B942D942E9449
S31508002FDC2F9429962C913092FEF756FF00B1FEE7F6
S31508002FEC604B1A6E42F480421A661A6E02F48042DC
S31508002FFC0092009A9A6D42F400329A659A6D02F420
S3150800300C00320192019A9A6D42F480229A659A6D61
S3150800301C02F480220292029A9A6D42F400129A6580
S3150800302C9A6D02F400120392039A9A6D42F4800286
S3150800303C9A659A6D02F480020492049A1A6E42F406
S3150800304C00121A661A6E02F400120592059A9A6D07
S3150800305C42F001029A659A6D02F001020692069AEE
S3150800306C9A6D42F002029A659A6D02F00202079274
S3150800307C079A9A6D42F004029A659A6D02F0040258
S3150800308C0892089A9A6D42F008029A659A6D02F0AF
S3150800309C08020992099A1A6E42F480321A661A6E56
S315080030AC02F480320A920A9A1A6E42F400321A66AE
S315080030BC1A6E02F400320B920B9A1A6E42F48022A4
S315080030CC1A661A6E02F480220C920C9A9A6C42F0CA
S315080030DC01029A649A6C02F001020D920D9A9A6C8E
S315080030EC42F004029A649A6C02F004020E920E9A4A
S315080030FC9A6D42F080529A659A6D02F080520F9240
S3150800310C0F9ADA6C42F00102DA64DA6C02F0010208
S3150800311C1092109ADA6C42F00202DA64DA6C02F057
S3150800312C02021192119ADA6C42F00402DA64DA6C31
S3150800313C02F004021292129ADA6C42F04002DA6435
S3150800314CDA6C02F040021392139ADA6C42F010020F
S3150800315CDA64DB6C03F010031893189BFEF7A8F8D7
S3150800316C4EB070BD00100240F0B589B000231A4E5F
S3150800317C1A4D1B4F039301AA02A9307D02F08AF857
S3150800318C72B695F84030019C45F82340013303F09C
S3150800319C0F0385F8403062B620686168A268E36858
S315080031AC0DF1100EAEE80F00204602F059F8336800
S315080031BC049A9B00991805A857F8311019B1884735
S315080031CC3368049A9B00134407EBC3031B79042B3F
S315080031DC18BF3360CFE700BF88EF0620B0F1062092
S315080031EC1C58000808B50278074B017A53F82230A8
S315080031FC4068984710B10548FFF7A2FB044B00221C
S3150800320C83F8152208BD00BFBC58000844570008AF
S3150800321C88EF062008B50448FFF792FB034B0022FB
S3150800322C83F8152208BD00BF5457000888EF0620FE
S3150800323C0148FFF785BB00BF24570008012919D19F
S3150800324C0278531E072B15D830B50B460B4903C904
S3150800325C83B002F130040090ADF804100D0C18463A
S3150800326C082269468DF807408DF8065001F06AF970
S3150800327C03B030BD4FF0FF30704700BFF45700085D
S3150800328C0A220249012001F05DB900BF1058000856
S3150800329C02220249012001F055B900BFFC5700086B
S315080032AC0A460146012001F04DB900BF38B5082180
S315080032BC1D4C1E48FDF750F994F81C32D4F8182208
S315080032CC98400133DBB210430F2BC4F818021CD9F3
S315080032DC4FF6FF730025984284F81C52236817D0C2
S315080032EC032B0ED0102001F0A9FF0346012143F849
S315080032FC041B024645605D609D60207D102101F02F
S3150800330CBBFF0023C4F8183238BD84F81C3238BD0C
S3150800331C022BF6D0102001F091FF0346024643F823
S3150800332C045B4560E7E700BF88EF062000180048F5
S3150800333C08B5102001F082FF054B02460021032038
S3150800334C10609160187D1221BDE8084001F094BF09
S3150800335C88EF062010B50D4C82B0012210460DF1EF
S3150800336C070101F047F92368022B0DF1070009D173
S3150800337CD4F82032002BF0D0D4F824129DF807008C
S3150800338C9847EAE7FFF7DCFAE7E700BF88EF06207D
S3150800339C042913D138B5062205460C4601200949DD
S315080033AC01F0D0F8013006D0224629460120BDE8A6
S315080033BC384001F0C7B84FF0FF3038BD4FF0FF303A
S315080033CC704700BF0858000838B5012001F086F888
S315080033DC38BB1B4D1B48FFF7B3FA6B68B3F5165F82
S315080033EC0CBF4FF4E1314FF416510120696001F01E
S315080033FC29F8044680B91448FFF7A2FA6A681349F3
S3150800340C20464FF4165301E051F830309A420DD04D
S3150800341C01300928F8D138BD0D48BDE83840FFF70A
S3150800342C8FBA0C48BDE83840FFF78ABA074BC0B2CA
S3150800343C03EBC000BDE838404068FFF781BA00BF0F
S3150800344C88EF0620C4560008EC5600086856000893
S3150800345CD4560008B056000870B505461020164616
S3150800346C0C4601F0EBFE02230246036072B656B117
S3150800347C701EC0B201300B4B204414F8011B03F824
S3150800348C011F8442F9D1084B83F8156262B616738C
S3150800349C03F1150115719160187D1021BDE8704076
S315080034AC01F0EABE9CEF062088EF062000B50A4B11
S315080034BC83B01A6804208DF8070012B193F81532F8
S315080034CC13B103B05DF804FB01220DF10701FFF7F8
S315080034DCC3FF03B05DF804FB88EF062000B50B4B61
S315080034EC83B01A6808218DF8071012B193F81532B3
S315080034FC13B103B05DF804FB01220DF1070104209A
S3150800350CFFF7AAFF03B05DF804FB00BF88EF06209F
S3150800351C084B1A6812B193F8153203B1704700B507
S3150800352C83B001220DF107010220FFF795FF03B0C6
S3150800353C5DF804FB88EF0620084B1A6812B193F85D
S3150800354C153203B1704700B5012283B010460DF150
S3150800355C0701FFF781FF03B05DF804FB88EF06202F
S3150800356C38B5072204460D460120064900F0EAFF45
S3150800357C431C06D02A4621460120BDE8384000F0F7
S3150800358CE1BF38BD0058000870B5194D82B000214E
S3150800359C4FF40A72284601F098FF4FF4E1331946A6
S315080035AC01206B6000F04EFFF0B9044601260A2193
S315080035BC10482E7501F076F94FF4805308220E49FF
S315080035CC019400940D4801F003FE0194A860009440
S315080035DC4FF4805308220A490A4801F0F9FD2E6077
S315080035ECE860204602B070BD4FF0FF34F9E700BF23
S315080035FC88EF06203D33000804570008613300089D
S3150800360C1457000875310008064AD2F820322BB92F
S3150800361CC2F82002C2F82412184670474FF0FF3041
S3150800362C704700BF88EF062079B1094B10B41C68A7
S3150800363C14B193F8153223B14FF0FF305DF8044BF3
S3150800364C70475DF8044BFFF707BF4FF0FF30704724
S3150800365C88EF0620042202490320FFF7E5BF00BFC6
S3150800366CFC56000800B5174A174B83B068468DE818
S3150800367C0C00FFF753FA154A154B68468DE80C00F3
S3150800368CFFF74CFA134A144B68468DE80C00FFF703
S3150800369C45FA124A124B68468DE80C00FFF73EFABB
S315080036AC104A114B68468DE80C00FFF737FA0F4A9B
S315080036BC0F4B68468DE80C00FFF730FA03B05DF83F
S315080036CC04FB00BF785700084535000890570008DA
S315080036DC1D350008A057000861360008AC570008CD
S315080036ECE9340008C4570008B9340008DC57000848
S315080036FCD5330008044A0123137011B9034B19700A
S3150800370C7047024A1370704705F20620F4F106203A
S3150800371C044A0123137011B9034B19707047024AF6
S3150800372C1370704704F20620F4F1062028B94B688A
S3150800373C02220A700BB18868184770472DE9F843BE
S3150800374C0025114CDFF8489080460F462E463B461E
S3150800375C42464621012000F0DBFB2378002BFCD0E7
S3150800376C267099F800300135EDB203F0FF003BB135
S3150800377C052DECD10548FFF7E3F84FF0FF3001E0D3
S3150800378C052DF7D0BDE8F88305F206203059000858
S3150800379CF4F10620034B002201211A605A609A6044
S315080037AC19707047F8F106202DE9F04FDFF874B15F
S315080037BC9BF80040012C8BB040F0A4801F4616469F
S315080037CC88468146CDF800B02046524B524A53499A
S315080037DC00F034FB0446002840F09480504BDFF888
S315080037EC68E10FCB08250DF1180C45458CE80F0040
S315080037FCE0B204F1010409D0062C00F083805EF8CF
S3150800380C045F4545E0B204F10104F5D18DF81B00BF
S3150800381C6146444B444ACDF82090002000F00CFD3C
S3150800382C039000286ED101224FF400513F48CBF883
S3150800383C0460CBF80870FCF795FE3D48DFF80C8160
S3150800384CDFF80C913B4C01F00FF84023FF2B08F1E5
S3150800385C280A4FF0300545D002214046FFF76EFF87
S3150800386CD8F80400344FFFF76BF84846FFF768F8AA
S3150800387C3248FFF765F82846FFF7F4F84846FFF78D
S3150800388C5FF801214046FFF759FF00252E46012314
S3150800389C18460DF11702462100F066FB2378002B1B
S315080038ACFCD026703B780135EDB22BB1052DEED147
S315080038BC2348FFF745F801E0052DF9D02148FFF715
S315080038CC3FF89DF81700FFF7CDF84846FFF738F88C
S315080038DCD04510D098F8083098F80950FF2B08F105
S315080038EC0808B9D147F2305000FB05F0013000F05A
S315080038FCBBFFD045EED1039802238BF800300BB0F2
S3150800390CBDE8F08F4FF0FF33039303980BB0BDE877
S3150800391CF08F00BF1D37000801370008145900083E
S3150800392CA8590008F8F1062039370008000800489D
S3150800393CC1C62D0004F20620F4F106201859000819
S3150800394C3059000824590008FC5800087859000812
S3150800395CD056000810B5084C2378022B08D10A4615
S3150800396C0146002000F08CFC10B90323237010BD0F
S3150800397C4FF0FF3010BD00BFF8F1062008B5074B15
S3150800398C1B78032B07D1002000F0AEFC003018BFC3
S3150800399C0120404208BD4FF0FF3008BDF8F1062063
S315080039AC70B4174C83002168DD1CE94011F0010145
S315080039BC15D12568013325FA03F3DB0701D470BC4E
S315080039CC704766680F4D0123834000EB4002334372
S315080039DC05EB820263605368926870BC1847656889
S315080039EC08490123834000EB40022B4301EB82027A
S315080039FC6360536892684FF0FF3170BC184700BF7C
S31508003A0C0000024008F206200020FFF7C9BF00BFDD
S31508003A1C0120FFF7C5BF00BF0220FFF7C1BF00BFDB
S31508003A2C0320FFF7BDBF00BF0420FFF7B9BF00BFD7
S31508003A3C0520FFF7B5BF00BF0620FFF7B1BF00BFD3
S31508003A4C2DE9F0410D4C0E4D0E4904F154081B207E
S31508003A5C0026012703E055F8080C55F80C1C2660BF
S31508003A6C6660A66000B201F023FC44F80C7B444562
S31508003A7C05F10C05EFD1BDE8F08100BF08F2062070
S31508003A8CE0590008153A000806282AD82DE9F0410D
S31508003A9C00EB4004A400144E3559012D06EB04071F
S31508003AAC1BD1032919D8DFF84CE07A6005460F4874
S31508003ABC1EF904800E4A50F82110BB60404642F8A5
S31508003ACC251000220521FCF7ABFB4046FCF7DEFB74
S31508003ADC022333510020BDE8F0814FF0FF30BDE8DA
S31508003AECF0814FF0FF30704708F20620245A000880
S31508003AFC00080240D0590008062800F2A480F8B540
S31508003B0C46003318514F57F82330022B40F081806A
S31508003B1C044608680D4601F065FC00284BD0A868D9
S31508003B2C01F060FC002877D0A3001A19920002F164
S31508003B3C804202F5003229685161A9681161296928
S31508003B4CD16044F2100191602A794AB11A1992008F
S31508003B5C02F1804202F50032916841F080019160D1
S31508003B6C2A7B4AB11A19920002F1804202F50032F8
S31508003B7C916841F04001916023449B00697B03F1F5
S31508003B8C804303F500338A020902986801F44071F0
S31508003B9C02F440620A4302439A609A6842F00A02A7
S31508003BAC9A609A68344442F0010203219A60002014
S31508003BBC47F82410F8BD286801F01CFC48B3A8681F
S31508003BCC01F010FC00B3A3001A19920002F180420E
S31508003BDC02F5003229681161A96851612969D16019
S31508003BEC297919B1916841F0400191602A7B002A24
S31508003BFCC2D01A19920002F1804202F5003291687D
S31508003C0C41F080019160B7E7A86801F0F3FB002842
S31508003C1CD9D14FF0FF30F8BDA86801F0EBFB0028AE
S31508003C2CF7D0A3001A19920002F1804202F500326D
S31508003C3C29685161A96811612969D160916841F0B7
S31508003C4C1001916080E74FF0FF30704708F20620AC
S31508003C5C062828D8420070B41518144C54F8255068
S31508003C6C032D1DD1124D83002968DE1CF140C907AE
S31508003C7C10D403449B0003F1804303F5003302443C
S31508003C8C9968022521F00101996044F82250002018
S31508003C9C70BC70476E680121814031436960E8E762
S31508003CAC4FF0FF30F4E74FF0FF30704708F206206C
S31508003CBC000002400148FDF7D9B900BFF4F206200E
S31508003CCC0148FDF7D3B900BF60F206200148FDF79D
S31508003CDCBFB900BFF4F206200148FDF7B9B900BF19
S31508003CEC60F2062003680E4A934213D002F58062EE
S31508003CFC934200D0FEE70B4B012010B4D3F8884052
S31508003D0C02221A604CB1D3F89020002123465DF8A4
S31508003D1C044B18470020044BEFE75DF8044B70473B
S31508003D2C00540040F0F206205CF2062003680F4AA5
S31508003D3C934217D002F58062934200D0FEE70C49F5
S31508003D4C012010B5D1F88C40022382B00B603CB12F
S31508003D5CCB8D8A6AD1F8901000919BB20021A047AE
S31508003D6C02B010BD00200349EBE700BF0054004029
S31508003D7CF0F206205CF206200368164A934225D018
S31508003D8C02F58062934200D0FEE7134901200B68C6
S31508003D9C042B11D010B5D1F88C40022382B00B60DD
S31508003DAC44B1CB8D8A6AD1F8901000919BB24FF032
S31508003DBCFF31A04702B010BDD1F8883002220A6044
S31508003DCC3BB1D1F890204FF0FF311847002003493A
S31508003DDCDDE7704700540040F0F206205CF206203E
S31508003DEC70B5114C942632460021204601F06DFB25
S31508003DFC0E492F2001F05CFA0D49302001F058FAD3
S31508003E0C204601253246002140F8945B01F05DFB03
S31508003E1C0849312001F04CFA0749322001F048FADA
S31508003E2CC4F8945070BD00BF5CF20620E53C00084F
S31508003E3CCD3C0008D93C0008C13C000801282ED806
S31508003E4C2DE9F84F942606FB00F62E4F9146BA59E3
S31508003E5C012A07EB06042BD191F800E0BEF1010FFD
S31508003E6C26D8C0EBC000284922619846830027480B
S31508003E7CCD5850F82E20656006F1040A01EB030BA9
S31508003E8CBA4400235046A260E3606361A361E36110
S31508003E9C23626362FCF7B8FF014618B1FEE74FF0E0
S31508003EACFF3070475046FDF721F9014620B1FEE771
S31508003EBC4FF0FF30BDE8F88F5046FDF741F98246C2
S31508003ECC00B1FEE79BF904500A9BC4F890305246A1
S31508003EDCC4F888902846C4F88C800521FCF7A0F90C
S31508003EEC2846FCF7D3F99BF9104052462046052183
S31508003EFCFCF796F92046FCF7C9F902235046BB5144
S31508003F0CBDE8F88F5CF206203C5A0008345A0008C3
S31508003F1C012820D8FAB1F8B5942404FB00F0114C0A
S31508003F2C2558022D1AD1174604221D4683182250ED
S31508003F3C4E00ADB21C4404E02046FDF7D5F8042823
S31508003F4C08D12B463A4631462046FCF7E5FF0028B1
S31508003F5CF2D1F8BDFEE74FF0FF3070474FF0FF3057
S31508003F6CF8BD00BF5CF20620012820D8FAB1F8B5D6
S31508003F7C942404FB00F0114C2558022D1AD11D4629
S31508003F8C1746031D032222504E00ADB21C4404E012
S31508003F9C2046FDF7A9F8042808D12B463A4631469F
S31508003FAC2046FDF707F80028F2D1F8BDFEE74FF0DA
S31508003FBCFF3070474FF0FF30F8BD00BF5CF20620AB
S31508003FCCF8B514460E4A23780E4E03EB83070546BE
S31508003FDC52F8272016F83300536823F400330E469C
S31508003FEC5360FFF735FE4EB904F58032936913B169
S31508003FFCD1692846984702236370F8BDFEE700BFCF
S3150800400C745A0008C45A00082DE9F8430B78012B9A
S3150800401C00F29F804B78022B00F29B808B78012B49
S3150800402C00F29780CB78052B00F293804B68022B15
S3150800403C00F28F804C4B00EB80020C4605464FF481
S3150800404C006053F82260FEF767F9237B002B60D0DB
S3150800405C6168464B94F803C053F821304449A2686A
S3150800406C51F82C7012025B08B0FBF2F20132120501
S3150800407C9F4202F0F8726CD8202F94F802E002D016
S3150800408CBEF1010F69D021783A4F3B484FEAC52853
S3150800409C002950D008EB050100EB41114FF001093E
S315080040AC42F4805281F80490BEF1000F4ED142F4CE
S315080040BC807294F801E03149314C51F83E9054F82D
S315080040CC2C4001EBCE0E4544DEF8041049EA0101FA
S315080040DC03F1FF3E41F480315B0000EB451041EAE9
S315080040EC0E21013B0B434FF0040E42EA4414022501
S315080040FC80F806E0002274600521B5604A20F3605A
S3150800410C3761FCF78DF84A20FCF7C0F80020BDE8AB
S3150800411CF8836268154B94F803C053F8223094F868
S3150800412C02E0144F5B084FF40022217812484FEA3C
S3150800413CC5280029AED108EB050900EB491922F46C
S3150800414C805289F80410BEF1000FB0D022F48072A8
S3150800415CAFE74FF0FF30BDE8F883C7F1200747F407
S3150800416C403747F4C077E0E7745A0008885A0008C5
S3150800417C945A00088001030084F30620CC5A0008E0
S3150800418CAC5A00081E4AD36943F00103D36153693C
S3150800419C190722D593691B071FD570B5194CA57934
S315080041AC6DB348F20C0148F208036658E3589E4270
S315080041BC17D01146002201E0B3420FD004EB83005E
S315080041CC0132D2B28068086201339542C3F30C03FC
S315080041DCF2D148F20802A35070BD704748F20802A3
S315080041ECA350074A084953698D6923F0080353619C
S315080041FC15B1C9690020A8470223637070BD70BD4C
S3150800420C0054014084F3062084F3072010B5074CAC
S3150800421C074A0021204601F058F906495A2001F0B0
S3150800422C47F8002201232270637010BD84F3062020
S3150800423C2000010091410008D0B970B5A9B10E4C07
S3150800424C6578012D11D11D461646FFF7DDFE014690
S3150800425C58B92346094AFFF717FC30B904F58033D9
S3150800426C02229E61DD61627070BD4FF0FF3070BD39
S3150800427C4FF0FF30704700BF84F30620CD3F00088F
S3150800428C40BB39B370B5154D6E78022E86B01DD16C
S3150800429C0B469208059201930122114B029001A933
S315080042AC04908DF808208DF811600393FFF724FC11
S315080042BC60B90C4B5A6842F400325A605A680321AA
S315080042CC42F480325A60697006B070BD4FF0FF3008
S315080042DC06B070BD4FF0FF30704700BF84F3062060
S315080042EC2054014000540140B8B938B50C4D6A78D1
S315080042FC032A0FD10B4B5A6822F400325A605A68BB
S3150800430C22F480325A600446FFF7A2FC02232046A8
S3150800431C6B7038BD4FF0FF3038BD4FF0FF3070472B
S3150800432C84F3062000540140F8B500EB40022E4BEE
S3150800433C53F83240E369E369990605461DD52B4BBC
S3150800434C676A40F62C0202FB0033B3F81614B3F86E
S3150800435C14644A1CC2F30902B2420ED019445868B6
S3150800436C0F7592B2A3F8162438B19968921B8A4233
S3150800437C03D300229A6000F0B5FFA3681A0226D56B
S3150800438CE3691B0623D5194E40F62C0202FB05627F
S3150800439CB2F81A18B2F81838994219D0D718D06842
S315080043AC97F81874A7620133C3F30903A2F81838EF
S315080043BC68B140F62C02994202FB05652ABFC1F585
S315080043CC80615B1A5B182A699BB2934205D2F8BDC9
S315080043DCA36823F40003A360F8BD00232B61BDE892
S315080043ECF84000F07FBF00BFE45A0008A4F307208A
S315080043FC0020FFF799BF00BF0120FFF795BF00BF4C
S3150800440C70B50D4C40F62C0632460021204601F0BC
S3150800441C5CF801250949352000F04AFF324600218F
S3150800442CA019257001F051F80549362000F040FF17
S3150800443C84F82C5870BD00BFA4F30720FD43000870
S3150800444C05440008012842D82DE9F04140F62C060F
S3150800445C06FB00F61F4FBB5D012B34D11E4B00EB40
S3150800446C4000C00003EB00081C58D8F814000D4691
S3150800447CFDF752FFB0FBF5F0E060236898F904509D
S3150800448CD8F8101043F0005343F00C03236023684C
S3150800449C43F001032360A368A360A36843F0204399
S315080044ACA360A368A360A36843F08053A36028465F
S315080044BC0022FBF7B5FE2846FBF7E8FE0223BB55A0
S315080044CC0020BDE8F0814FF0FF30BDE8F0814FF0D9
S315080044DCFF307047A4F30720E45A0008012829D8AE
S315080044EC70B540F62C0404FB00F4144E335D022B15
S315080044FC1DD100EB4000C3001148C2589168002535
S3150800450C21F080519160D560116821F0005121F09D
S3150800451C0C0111601168034401F0010193F90400C0
S3150800452C1160FBF7BFFE01232846335570BD4FF0CB
S3150800453CFF3070BD4FF0FF30704700BFA4F3072063
S3150800454CE45A000801284AD82DE9F0410C460029FE
S3150800455C48D040F62C0303FB00F3244F1546FA5CAF
S3150800456C022A06463B443DD1B3F81828B3F81A3844
S3150800457C9A4298BF02F58062D21A92B2AA4221D305
S3150800458C72B695B140F62C0101FB06716219B1F8A9
S3150800459C1A3814F8015BC8180133C3F3090394429B
S315080045AC80F81854A1F81A38F3D162B6104B06EBFA
S315080045BC4606002053F83620936843F400039360AC
S315080045CCBDE8F08140F62C0808FB0078C8F81050B6
S315080045DC00F01EFEC8F80C0000F010FED0E74FF0F5
S315080045ECFF3070474FF0FF30BDE8F081A4F3072089
S315080045FCE45A000801283FD82DE9F8430D4600294E
S3150800460C3DD040F62C0808FB00F8DFF87C9019F82A
S3150800461C0830022B0446C84431D1B8F81664B8F8E9
S3150800462C1404361A964217461CD30023C8F80830C9
S3150800463C72B69FB140F62C0303FB0494EA19B4F83E
S3150800464C143423441B7D05F8013BB4F814340133A8
S3150800465CC3F309039542A4F81434F2D162B6304672
S3150800466CBDE8F883931BC8F8083000F0D1FDC8F8EC
S3150800467C040000F0C3FDDBE74FF0FF3070474FF046
S3150800468CFF30BDE8F88300BFA4F3072008B5FFF791
S3150800469CB7FEFFF7A5FBFFF7B9FDFFF7D1F9FEF754
S315080046AC73FFFFF777F800F0C7F900F015F9FEF776
S315080046BC23F9FEF7C3FBFEF7D5FFFEF713FC0F2015
S315080046CC00F0B0FDFEE700BF10B582B00024FEF77F
S315080046DC25FC00F013FE0194009422464FF48053F7
S315080046EC0349044800F04AFB204602B010BD00BF3F
S315080046FC145B00089946000808B54FF44D72002162
S3150800470C054800F0E2FE4FF4A47200210348BDE808
S3150800471C084000F0DABE00BF4405082078080820D7
S3150800472C2DE9F041264CD4F8EC3103F00F039D002B
S3150800473CEE1804EB860684F83033D76BC6F8F87196
S3150800474C926BC6F8FC210B280746A6F8F401884696
S3150800475C2FD00E282DD00D2286F8F6211D44194B84
S3150800476C04EB85055B68C5F8003200F0BBFC064611
S3150800477C00F0B2FCD4F8EC2154F827304FF47A71D7
S3150800478C01FB0600013201330B2FC5F8F001C4F802
S3150800479CEC2144F8273003D00E2F01D0BDE8F08168
S315080047AC08F16E0854F82830013344F82830BDE86F
S315080047BCF081EA1804EB820282F8F681CEE700BF94
S315080047CC4405082000ED00E070B50E4D0E4A2B6826
S315080047DC526803F00F0303EB830405EB840485F896
S315080047EC44316261A06000F07DFC064600F074FC62
S315080047FC2B684FF47A72013302FB06002B6060605B
S3150800480C70BD00BF7808082000ED00E0F8B5144C20
S3150800481C144A2368526803F00F0303EB830504EB71
S3150800482C85050F466A61A86084F8443100F05AFC85
S3150800483C064600F051FC226894F84431D7F83CE05F
S3150800484CB96B013203EB830304EB830322604FF449
S3150800485C7A7202FB06006860C3F80CE01961F8BDB1
S3150800486CFC03082000ED00E0A0F1010000BF0028C1
S3150800487CFAD1704738B50A4D052000F027FD2C688B
S3150800488C2CB9F9E7053BE3602468002CF4D0E368FF
S3150800489C052BF7D863689847A368E360F4E700BF6D
S315080048ACC809082088B138B5044610200D4600F012
S315080048BCC5FC084B44605A6885600021C5600160D8
S315080048CC32B110605860002038BD4FF0FF30704789
S315080048DC1860F7E7C809082030B583B0084C0949B1
S315080048EC09480025019500954FF480530922256047
S315080048FC656000F06DFC01236060236003B030BD79
S3150800490CC00908201C5B0008814800080B789A1E11
S3150800491C022A4BD8042B70B50C461FD0404DEB6BB6
S3150800492C5A1CE918042A0874EA6346D0082A3ED0A9
S3150800493C0C2A56D0102A62D0133B0E2B05D845F2FA
S3150800494C151121FA03F3DB0734D4242A52D0282A6A
S3150800495C5ED02C2A2ED10423237070BD8B6CB1F833
S3150800496C4410B3FBF1F201FB1232D2B2E56CD6005D
S3150800497CB0400139013328438A42A364E06428D045
S3150800498C226C9342E9D3A3680BB1E06898472C22B2
S3150800499C002104F1100000F098FD02220023227079
S315080049ACE3632364A4F84430A36470BD70476B6951
S315080049BC243B2B640323237070BD1A4905F11000A0
S315080049CC00F074FD0028F5D000220223EA63237058
S315080049DC70BD626812B1E1689047A36C0022E2646C
S315080049ECCEE70422104905F1180000F05FFD0028F7
S315080049FCE0D0E9E76B8EDB10A5F84430DAE7042241
S31508004A0C0A4905F11C0000F051FD0028D2D0DBE75D
S31508004A1C04220749074800F049FD0028CAD0D3E705
S31508004A2CD0090820285B0008305B0008385B0008B2
S31508004A3C405B0008040A082010B5044C5022204696
S31508004A4C002100F042FD0123237010BDD009082077
S31508004A5CF8B5094C07460E46084821461546FEF792
S31508004A6CD3FD28B9022323706760A660E560F8BDFC
S31508004A7C4FF0FF30F8BD00BFD009082019490008CF
S31508004A8C854600980199029A039B049C059D069EEF
S31508004A9C079FDDF82080DDF82490DDF828A0DDF8E6
S31508004AAC2CB0DDF830C00DB000BD8546BDE8F08FE2
S31508004ABC2DE9F04FEFF30580EFF3088100F0E2F9EA
S31508004ACCBDE8F08F0E4B1B68BBB19A6AD1070FD4A1
S31508004ADC30B4DD690B49E8000C18646854B12360DE
S31508004AEC014442F001024B6000209A6230BC7047C8
S31508004AFC0120704741F83530F2E74FF0FF30704728
S31508004B0C200A0820580C08202C4A13680133B3F5E0
S31508004B1C7A7F2DE9F043136004D1536800210133E1
S31508004B2C82E80A00DFF89CE0DEF8004044B3002770
S31508004B3CDEF804502248BC463E46A04623469A68F0
S31508004B4C02BBD3F81C904FEAC9028118496801B315
S31508004B5C0B60996AD3F80490024441F001019C4217
S31508004B6C53609962C8F8049016D09D4219D05E60BD
S31508004B7CD8F80430002BE2D1BCF1000F18D1D7B904
S31508004B8CBDE8F083013A9A6098465B68002BD6D14B
S31508004B9CF2E740F83930DCE764682CB14FF0010CC9
S31508004BACE5E745460127E2E70127BC462546DEE749
S31508004BBCCEF80040E3E7CEF80450E1E7E00B082016
S31508004BCC580C0820D410082003464068026810B414
S31508004BDC5A609AB11A684468D26B00210160516810
S31508004BECD46009B184680C6092680AB1C168116016
S31508004BFC00221A605DF8044B00F0C8BA9A60E9E71F
S31508004C0C2DE9F04FDFF8588183B047460024FD6A3A
S31508004C1C443745B101340F2CF9D14FF0FF352846EE
S31508004C2C03B0BDE8F08F4FEA041A99460AEB040361
S31508004C3C4FEA830B08EB0B070E46019200904422B1
S31508004C4C2946384600F041FC0BF10C00314640442D
S31508004C5C00F043FC3D4BBD621E68019BFB61009B4B
S31508004C6CFB620C9B3B630D9B7B6330464A4629468D
S31508004C7C48F80B5000F029FC354A34491368C7F834
S31508004C8C24904E440E603E6293BB46F80C3C46F8A4
S31508004C9C103C46F8143C46F8183C46F81C3C46F8BA
S31508004CAC203C46F8243C46F8283C46F82C3C46F86A
S31508004CBC303C46F8343C46F8383C2648264946F8F3
S31508004CCC3C7C012346F8040C46F8081C13603C3E51
S31508004CDC3D46544408EB8408C8F84060FFF7F2FEDA
S31508004CEC1E4B1F60FFF7EEFE284603B0BDE8F08F9B
S31508004CFC184B46F8043C184A46F8105C4FF080717D
S31508004D0C6FF0060346F8145C46F8185C46F81C5C0B
S31508004D1C46F8205C46F82C5C46F8305C46F8345C61
S31508004D2C46F8385C46F83C5C46F8405C46F8445C09
S31508004D3C46F8485C46F8247C46F8081C46F80C2CC1
S31508004D4C46F8283C3D46483EC3E700BF0000042011
S31508004D5CDC0B0820714D0008754D0008200A082048
S31508004D6CD80C082000F046BA08B5416BC36A006B2C
S31508004D7C9847BDE8084000F03DBA00BF2DE9F04F52
S31508004D8C85B000242E4E03932E4DDDF838B0DDF891
S31508004D9C3CA088469146074600F0AAF9214680228F
S31508004DAC2948346000F091FB21464FF47F7227485E
S31508004DBC00F08BFB21464FF4DC72284600F085FB8D
S31508004DCC21467022224800F080FB2249224A0C60B8
S31508004DDC4C6014605460FFF78FFC204AEA62FFF7B8
S31508004DEC71FE1F4AEA63FFF76DFE224604216FF037
S31508004DFC0400FBF715FA039BCDF800B04A46CDF82C
S31508004E0C04A041463846FFF7FBFE164B164A1B68AC
S31508004E1C3060A2FB03239B09013BB3F1807F08D2C8
S31508004E2C124A134953605025072381F8235094607E
S31508004E3C1360006C05B0BDE8F04FFFF721BE00BF4C
S31508004E4C200A0820240A0820580C0820D80C082008
S31508004E5CE80B0820E00B0820D41008207D50000829
S31508004E6C154B000844000420D34D621010E000E0F6
S31508004E7C00ED00E008B5024800F0DAFAFEE700BFDC
S31508004E8C505B000838B5134C23680A46196493F826
S31508004E9C38100546FFF744FC20680C30FFF794FCE5
S31508004EAC0D4B53F8253003B198470C4A002352F89A
S31508004EBC330020B90133102BF9D1FFF7DBFF016C56
S31508004ECC20600C30FFF7A2FC2368186CBDE838404C
S31508004EDCFFF7EBBD200A0820240A0820580C0820E6
S31508004EEC2DE9F0470C4682B00C2832D8DFE800F0E2
S31508004EFC414A5A5F626C727D85078DA13400DFF8D2
S31508004F0C60810D784E68D1F80890544FFFF7DAFD9A
S31508004F1C1020D8F800A000F013F92D017B190028F1
S31508004F2C00F09980002202609A68C0F804A0866096
S31508004F3CC0F80C90002A00F08A80106098607A59A4
S31508004F4C32B11846C8F80020FFF73EFEFFF7BAFD47
S31508004F5CE66002B0BDE8F087414B424A1B685168CF
S31508004F6C20689860002974D04B60002153606160FA
S31508004F7CEFE7666925690FC98DE86000FFF740FE03
S31508004F8CA061E6E7364C20680C3000F051FA36483A
S31508004F9C00F04EFA20684422002102B0BDE8F04722
S31508004FAC00F093BAFFF78EFD00232360D1E70023A8
S31508004FBC0B60CEE70D68FFF785FD294B1D60FFF7E3
S31508004FCC81FD00236360C4E7FFF77CFD244B1B6857
S31508004FDC2360BEE7224B0A681B68002ADD69A8BF56
S31508004FECDA61FFF76FFD6560B3E70D68FFF76AFDD9
S31508004FFC284600F0A5F86060ABE7086800F0C6F82C
S3150800500CFFF760FD00236360A3E70B78134A1B01C7
S3150800501CD018D158F9B9124D41682E68D65099B1A5
S3150800502CFFF7D2FDFFF74EFD2B68DB6BDB68E36001
S3150800503C8FE70E4BB1F90020496843F82210FFF7A9
S3150800504C41FD0023A36084E74FF0FF33EFE7586078
S3150800505C74E7136089E7FFF70DFF00BFE80B08201C
S3150800506C200A0820D4100820485B0008240A0820C7
S3150800507C0E4B1B689A6A93F83800D96B12F0010F1D
S3150800508C0ED070B4DE691C68094D45F836404CB133
S3150800509C002422F001021C609A6270BCFFF720BF44
S315080050ACFFF71EBF05EBC6056C60F1E7200A082062
S315080050BC580C0820034B1B6883F83800D96300DFAB
S315080050CC00BF7047200A0820024B00221A60FFF71F
S315080050DC07BF00BF200A0820014B1868704700BF9D
S315080050ECE00B0820014B5868704700BFE00B0820FE
S315080050FCF0B5114CDFF844E004F13C0C002654F8EA
S3150800510C042CDEF80030002A10DD1846254600214E
S3150800511C2B605E601E6014E9840001311044B942AC
S3150800512C5A601D46CEF800001344F1DB0C34A44536
S3150800513CE5D10020F0BD00BF1000042004000420B7
S3150800514C10B5114C2368083B83420ED22146012226
S3150800515CCB68083B834201F10C0107D20132052AC0
S3150800516CF6D1FFF787FE002010BD002202EB4202A3
S3150800517C04EB82029368002BF3D018461B689360E5
S3150800518C002340F8083B10BD0800042030B40F4D2E
S3150800519C50F8044C2B689C420CD02A460123D16843
S315080051ACA14202F10C0206D00133052BF7D130BC13
S315080051BCFFF760BE002303EB430305EB830330BC08
S315080051CC9A6840F8082D9860704700BF08000420BC
S315080051DC30B589B0019002910C9D0D9C039201A9E2
S315080051EC0020049305950694FFF764FF079809B009
S315080051FC30BD00BF00210120FFF75CBF00B589B0A8
S3150800520C01A90320FFF756FF019809B05DF804FBC6
S3150800521C00B589B001A90520FFF74CFF019809B024
S3150800522C5DF804FB00B589B008A941F81C0D0620E9
S3150800523CFFF740FF029809B05DF804FB00B502467B
S3150800524C89B0EFF311834FF0AA3301A90720019215
S3150800525C0293FFF72FFF029809B05DF804FB00BF15
S3150800526C00B589B008A941F81C0D0820FFF722FFE4
S3150800527C029809B05DF804FB00B589B08DF80400F6
S3150800528C0291092001A90392FFF714FF049809B0AB
S3150800529C5DF804FB00B589B08DF8040002910A206C
S315080052AC01A90392FFF706FF049809B05DF804FB01
S315080052BC00B589B0ADF8040002910B2001A9FFF7DF
S315080052CCF9FE039809B05DF804FB00BF00B589B078
S315080052DC08A941F81C0D0C20FFF7ECFE029809B042
S315080052EC5DF804FB00B589B008A941F81C0D04202B
S315080052FCFFF7EAFE029809B05DF804FB70B50F4C8F
S3150800530C00224FF0904504F5FC765AB921462846FA
S3150800531C1C34FBF711F8A6420FD0227D54F8045C16
S3150800532C002AF3D0A1B22846FBF71CF921462846D9
S3150800533C1C34FBF701F8A642EFD170BD645B00087C
S3150800534CDFF834D0002103E00C4B5B584350043192
S3150800535C0B480C4B42189A42F6D30B4A02E0002330
S3150800536C42F8043B094B9A42F9D300F013F800F0C3
S3150800537C79F8FFF7A9F9FEE700000320A85D0008F5
S3150800538C000004204800042048000420E4100820EB
S3150800539CFEE700001149124BD1F8882042F470023E
S315080053AC10B4C1F888201A68002042F001021A606D
S315080053BC98601A6822F0A85222F410224FF48054EE
S315080053CC1A60DC601A684FF0006422F480221A60B6
S315080053DC98618C605DF8044B704700BF00ED00E0E7
S315080053EC0010024000F16040B0F5202F2CBF0020C1
S315080053FC0120704700F14043B3F5184F13D300F161
S3150800540C3F4303F57F02B2F5C84F0CD303F57E0371
S3150800541CB3F5884F07D3054B00F1384098428CBF3B
S3150800542C0020012070470120704700BFFF0B0608BB
S3150800543C38B50546FAF7E6FE294602460446012023
S3150800544C00F054F8012205460549104600F04EF8BE
S3150800545C01342844001B18BF4FF0FF3038BD00BF7D
S3150800546CD056000870B50D4E0D4CA41BA410002583
S3150800547CA54209D10B4E0C4C00F040F8A41BA41005
S3150800548C0025A54205D170BD56F82530984701353B
S3150800549CEEE756F8253098470135F2E7A05D000887
S315080054ACA05D0008A05D0008A45D000810B50139D0
S315080054BC0244904201D1002010BD10F8013B11F8AE
S315080054CC014FA342F5D0181B10BD02440346934264
S315080054DC00D1704703F8011BF9E7034611F8012BB5
S315080054EC03F8012B002AF9D170470000024B582209
S315080054FC1A604FF0FF307047E0100820F8B500BF6F
