S00E000053797374656D2E7372656391
S3150800000000000320C55500081556000815560008B7
S315080000101556000815560008155600080000000079
S31508000020000000000000000000000000014D00086C
S315080000301556000800000000014D0008014D000893
S31508000040014D0008014D0008014D0008014D00084A
S31508000050014D0008014D0008014D0008014D00083A
S31508000060014D0008014D0008014D0008014D00082A
S31508000070014D0008014D0008014D0008014D00081A
S31508000080014D0008014D0008014D0008014D00080A
S31508000090014D0008014D0008014D0008014D0008FA
S315080000A0014D0008014D0008014D0008014D0008EA
S315080000B0014D0008014D0008014D0008014D0008DA
S315080000C0014D0008014D0008014D0008014D0008CA
S315080000D0014D0008014D0008014D0008014D0008BA
S315080000E0014D0008014D0008014D0008014D0008AA
S315080000F0014D0008014D0008014D000800000000F0
S31508000100014D0008014D0008014D0008014D000889
S31508000110014D0008014D0008014D0008014D000879
S31508000120014D0008014D0008014D0008014D000869
S31508000130014D0008014D0008014D0008014D000859
S31508000140014D0008014D0008014D0008014D000849
S31508000150014D0008014D0008014D0008014D000839
S31508000160014D0008014D0008014D0008014D000829
S31508000170014D0008014D00080000000000000000C5
S31508000180014D0008014D0008014D0008014D000809
S31508000190014D0008014D00080000000000000000A5
S315080001A00000000000000000014D0008014D000895
S311080001B0014D0008014D0008014D000833
S315080001BC10B5054C237833B9044B13B10448AFF387
S315080001CC00800123237010BD4800042000000000A5
S315080001DC7857000808B5034B1BB103490348AFF31E
S315080001EC008008BD000000004C0004207857000869
S315080001FC10F8012B11F8013B012A28BF9A42F7D0B7
S3150800020CD01A7047034613F8012B002AFBD1181A8B
S3150800021C01387047014B1868704700BF4CA307207C
S3150800022C184B70B4DC68C4F30224C4F10706042E18
S3150800023C04F1040328BF0426062B17D9033C012511
S3150800024CA540013D2A400123B340013B1940A1407A
S3150800025C002841EA02010CDB00F1604000F5614020
S3150800026C0901C9B280F8001370BC70470022144605
S3150800027CE9E7054B00F00F0009010344C9B21976EA
S3150800028C70BC704700ED00E0FCEC00E000F01F01CC
S3150800029C01234009024A8B4042F82030704700BFC0
S315080002AC00E100E0F8B590F82530022B03D00423C2
S315080002BCC3630120F8BD0368876C1968426C066C29
S315080002CCC56C446D21F00E011960196821F0010105
S315080002DC19603B68016D23F480733B6002F01C02C5
S315080002EC012393407360696034B12368826DC16DD4
S315080002FC23F4807323605160836B0122002480F8F9
S3150800030C252080F8244013B198472046F8BD184696
S3150800031CF8BD00BF90F82500704700BF2DE9F04FD7
S3150800032C0F6885B0002F00F0D4808B460025DFF8C7
S3150800033C04A2DFF8049201972946D84684E00322E2
S3150800034CAA40D243C66806EA020ED8F80860AE4040
S3150800035C46EA0E06022BC66000F08B80AB40066898
S3150800036C3240134314F4403F036067D0DAF8603028
S3150800037C43F00103CAF86030DAF8603021F003065E
S3150800038C06F1804603F0010306F58036039301F067
S3150800039C0303039AD6F808E09B000F229A40B0F1A3
S315080003AC904F2EEA020200F097805B4FB84200F09D
S315080003BC95805A4FB84200F09680594FB84200F0D3
S315080003CC9780584FB84200F09880574FB84200F0C3
S315080003DC9980564FB84200F09A80554FB8420CBFD8
S315080003EC4FF0070E4FF0080E0EFA03F31343B360E3
S315080003FCD9F808306FEA0B06E20254BF33404BEAD1
S3150800040C0303C9F80830D9F80C20A30254BF3240AC
S3150800041C4BEA0202C9F80C20D9F80420A70354BFEA
S3150800042C32404BEA0202C9F80420D9F80030E2033C
S3150800043C54BF33404BEA0303C9F80030019B013122
S3150800044CCB4005F1020544D04FF0010E019B0EFA84
S3150800045C01FE13EA0E0BF1D0D8F8044004F003039E
S3150800046C5A1E012A1ED9032B7FF469AFAB40DA4317
S3150800047C75E74FEAD10C00EB8C0C01F0070EDCF893
S3150800048C20604FEA8E0E0F2707FA0EF726EA0706A4
S3150800049C3746D8F8106006FA0EF63E43AB40CCF851
S315080004AC20605CE703228668AA40D24306EA020C5F
S315080004BCD8F80C60AE4046EA0C068660D0F804C044
S315080004CCC4F300162CEA0E0E8E4046EA0E0646605B
S315080004DC38E705B0BDE8F08F002387E74FF0010E2B
S315080004EC0EFA03F382E74FF0020E0EFA03F37DE7DA
S315080004FC4FF0030E0EFA03F378E74FF0040E0EFADC
S3150800050C03F373E74FF0050E0EFA03F36EE74FF09D
S3150800051C060E0EFA03F369E70004004800080048C3
S3150800052C000C004800100048001400480018004849
S3150800053C001C0048001002400004014003691942DF
S3150800054C14BF0120002070470AB981627047816187
S3150800055C704700BF034600201A68116830B483F848
S3150800056C420048040DD5116821F48041116093F8B6
S3150800057C411029290FD093F841102A291DD030BCD7
S3150800058C70470904F3D5116821F40041116093F8FA
S3150800059C41102929EFD12820212183F8410019631C
S315080005AC93F84100DC6D116800F02800282814BF68
S315080005BC6FF0F2006FF0420010E02820222183F839
S315080005CC4100196393F841001C6E116800F028006D
S315080005DC282814BF6FF0F4006FF044000140002582
S315080005EC1160184683F84050234630BC184700BFA4
S315080005FC0346194A70B4C262002220201A635A6351
S3150800060C83F8410083F842204A0712D519685A6ABA
S3150800061C496A11705A6A198D01325A6249B15A8D52
S3150800062C013A92B25A855A6C013942F0040219857C
S3150800063C5A641A6893F8411093F8411011685C6E65
S3150800064C1026002521F0FE0111601846D66183F8A4
S3150800065C4050234670BC18470000FFFF90F8412015
S3150800066C602A05D00022026380F84020036F1847E1
S3150800067C0022202180F8411080F840200263436F45
S3150800068C184700BF806A836B0BB100229A63C36B51
S3150800069C0BB100229A63FFF7E1BF00BF70B50446A1
S315080006AC0022414894F8413084F84220E062628581
S315080006BC626C283B1143022B61642CD894F84120B8
S315080006CC94F84130394802F02802282A03F0280306
S315080006DC0CBF4622F622282B236808BFD1431A687A
S315080006EC18BF6FF0F60128250A401A6084F84150A5
S315080006FC6063A06B226B18B1112A1FD0212A1DD05A
S3150800070CE06B18B1122A2ED0222A2CD02046BDE82E
S3150800071C7040FFF7A3BF236894F8412094F8412052
S3150800072C1A6822F0FE021A6094F84120602A1CBF4F
S3150800073C202284F8412000226263DAE71A68510401
S3150800074C03D51A6822F480421A60FFF7E3FD0128E4
S3150800075CDCD0A06B164B8363002384F84030FFF77C
S3150800076CA1FDD8B970BD1A68120412D4FFF7D2FDD0
S3150800077C0128CBD0E06B0E4B8363002384F8403002
S3150800078CFFF790FD0028EDD0E06BBDE87040836B59
S3150800079C18471A6822F400421A60E7E7A06BBDE80E
S315080007AC7040836B184700BF0000FFFF95090008CF
S315080007BC9106000870B503680446186894F8412039
S315080007CC02F0F7022025212ADD610D4678D0222A6F
S315080007DC6ED05968494E41F4004159605A68324006
S315080007EC5A609A69910744BF00229A629A69D2079D
S315080007FC03D49A6942F001029A61460438D51A68FC
S3150800080CA16B22F480421A6019B10A68526892B236
S3150800081C62856A070AD5626A5B6A1370636A228DF7
S3150800082C013325F004056362002A3AD1638D9BB225
S3150800083C1BB1636C43F004036364002384F84230F1
S3150800084C666C6363002E43D1E36A2D4DAB4219D116
S3150800085C94F8413084F84060222B4FF0200384F83A
S3150800086C41303ED0E36D26632046BDE870401847FC
S3150800087C0104CED51A68E16B22F400421A600029ED
S3150800088CC3D1C6E72046FFF765FE2023E56284F848
S3150800089C406084F841302046636E2663BDE870409C
S315080008AC1847638D013B013A9BB222856385BDE7E8
S315080008BC94F84110196821F0FC011960226388E745
S315080008CC94F84110196821F0FA011960226380E73F
S315080008DC616C2046FFF7E2FE94F84130282B06D0CF
S315080008EC70BD236E26632046BDE87040184729461E
S315080008FC2046BDE87040FFF77BBE00BF00E800FE4F
S3150800090C0000FFFFF0B50468C368A169A269A66870
S3150800091CE768120C022BC1F3004102F0FE020DD15E
S3150800092CC6F3090682EAD61212F0060312D1826CB5
S3150800093C01328264826C022A1BD0F0BD2368866F52
S3150800094C23F0B8030027236080F840703346BDE8CF
S3150800095CF04018472368866F23F0B8034FF0000E53
S3150800096C236007F0FE0280F840E03346BDE8F0400D
S3150800097C184708278364E761846F80F8403032464D
S3150800098C2346BDE8F0401847F8B590F84050C76ABA
S3150800099C012D72D0164601238A060C46054680F8A8
S315080009AC403001D5B3066AD4E20621D4620741D594
S315080009BC73073FD56B8D9BB26BB12A686B6A526A0B
S315080009CC1A706B8D696A2A8D013B9BB20131013A0B
S315080009DC6B8569622A856B8D9BB22BB917F5803F9F
S315080009EC02D02846FFF7B6FD002085F84000F8BD72
S315080009FCF306DBD56B8D9BB2002B43D195F84130B2
S31508000A0C282B52D095F84130292B2B684FF0100221
S31508000A1CDA61E9D117F5803FE6D09A69900744BFA9
S31508000A2C00229A629A69D107DBD49A6942F00102CC
S31508000A3C9A61D6E720070BD5310709D595F84130C9
S31508000A4C03F02803282B38D02B680822DA61CBE769
S31508000A5CA207C9D5B307C7D56B8D9BB20BB3696A09
S31508000A6C2B6811F8012B9A626B8D2A8D6962013BF2
S31508000A7C9BB2013A6B852A85B6E70220F8BDFFF7CB
S31508000A8C99FE91E72B681022DA616B6C43F004032C
S31508000A9C6B6437F08073A7D1696C2846FFF7FEFDA7
S31508000AACA2E737F080739CD09EE7B7F1007FA9D1F7
S31508000ABC21462846FFF79CFD96E72846FFF722FFB6
S31508000ACC92E700BF036810B4446B99691A681CB1A5
S31508000ADC23465DF8044B18475DF8044B704700BF76
S31508000AEC02689369116810B4DC051AD50C0624D56E
S31508000AFC416C41F0010141644FF480745905D4618D
S31508000B0C29D5416C4FF4806441F008019B0541647A
S31508000B1CD46118D4416C11F00B0F0AD15DF8044B53
S31508000B2C70475C050BD50906EBD4416C11F00B0F1D
S31508000B3CF4D05DF8044BFFF7B1BD5C05EAD49C050F
S31508000B4CE8D50B06E6D5436C4FF4007143F0020367
S31508000B5C4364D161DEE79B05F5D4DBE7074B1868E0
S31508000B6C00F4C060B0F5806F07D0D3F8803013F46A
S31508000B7C807F14BF4FF4007000207047007000404F
S31508000B8C3B4A10B4136868B903F4C063B3F5806FB5
S31508000B9C14D0D2F880305DF8044B23F48073C2F875
S31508000BAC80307047B0F5007F31D023F4C06343F42E
S31508000BBC8063136000205DF8044B7047D2F88010F0
S31508000BCC2C4B2D4821F48071C2F88010116821F441
S31508000BDCC06141F4007111601C685169322303FB32
S31508000BEC04F3A0FB03039B0C480503F1010306D58C
S31508000BFC00E023B15169490503F1FF33F9D41C4BC5
S31508000C0C5B695C05D6D503205DF8044B704703F485
S31508000C1CC063B3F5806F07D0D2F8803043F4807385
S31508000C2CC2F880300020C6E7D2F88010114B124863
S31508000C3C41F48071C2F88010116821F4C06141F446
S31508000C4C007111601C685169322303FB04F3A0FB85
S31508000C5C03039B0C480503F10103D0D501E0002BD7
S31508000C6CCDD05169490503F1FF33C8D5F7E700BF65
S31508000C7C007000404400042083DE1B43024A53687C
S31508000C8C43F40073536070470070004030B51E4D36
S31508000C9CAB6DDB0083B0044619D5FFF75FFFB0F5E3
S31508000CAC007F26D07F2C2BD8A4F17004B4FA84F4D8
S31508000CBC640916490B6823F00F0323430B60086875
S31508000CCC00F00F00001B18BF012003B030BDAB6D40
S31508000CDC43F08053AB65AB6D03F080530193019BD6
S31508000CECFFF73CFFAB6DB0F5007F23F08053AB6587
S31508000CFCD8D1802C06D9A02C8CBF02240124D8E785
S31508000D0C0224D6E70024D4E7001002400020024053
S31508000D1C284A9368D26813F00C0308D00C2B38D0E9
S31508000D2C042B34D0082B244818BF00207047214ABE
S31508000D3C1168090754BFD2F8942012681F4954BF8A
S31508000D4CC2F30322C2F3031251F8220003B30C2B8D
S31508000D5C2DD1184BDB6803F00303022B25D0164A5A
S31508000D6C032B08BF1046134BD968DA68DB68C3F344
S31508000D7C41630133C1F30311C2F3062200FB02F2ED
S31508000D8C01315800B2FBF1F3B3FBF0F070470C4895
S31508000D9C704702F00302012AC9D0064BDB6803F040
S31508000DAC0303022B4FF00000D9D10548DBE70020DE
S31508000DBC704700BF0010024000127A00D065000888
S31508000DCC0024F400002800F06C822DE9F041964AC4
S31508000DDC03689568D6680446D80682B005F00C05F3
S31508000DEC06F003062ED5002D00F027810C2D00F0F9
S31508000DFC2181A3698C4F002B00F0A0813B6843F03E
S31508000E0C01033B60FFF706FA804606E0FFF702FA95
S31508000E1CA0EB0800022800F2CB813B689B07F5D5AE
S31508000E2C3B6843F008033B603B68226A23F0F003F7
S31508000E3C13433B607B68E26923F47F4343EA02234E
S31508000E4C7B602368D9071ED5082D00F08D810C2DE3
S31508000E5C00F087816268B2F5803F00F0A381B2F595
S31508000E6CA02F00F00B827049086820F480300860C7
S31508000E7C086820F480200860002A00F016816A4968
S31508000E8C0A689703FCD59A0718D5042D00F07981C2
S31508000E9C0C2D00F07381E2686349002A00F0438147
S31508000EAC0A6842F480720A600A685605FCD54A68D4
S31508000EBC206922F0FE4242EA00624A6019070ED502
S31508000ECC62695949002A00F0F880D1F8942042F05A
S31508000EDC0102C1F89420D1F894209707FBD55A073C
S31508000EEC30D5514B9A6DD00040F1FF8000204F4A07
S31508000EFC1368D90506D4136843F480731360136812
S31508000F0CDB05FCD5A368012B00F05C81052B00F0F2
S31508000F1C6181454AD2F8901021F00101C2F890106F
S31508000F2CD2F8901021F00401C2F89010002B00F0B2
S31508000F3CD2803D4AD2F890309F07FBD5002840F066
S31508000F4C3B81236898060ED5636A374A002B00F056
S31508000F5CD780D2F8983043F00103C2F89830D2F80B
S31508000F6C98309907FBD5A36A002B44D0022B46D0A0
S31508000F7C0C2D55D02C4B1A6822F080721A60186802
S31508000F8C10F00070FBD1D968294A0A40DA6002B021
S31508000F9CBDE8F081266B03F0F000013EB0EB061FAE
S31508000FAC34D1666B03F4FE40B0EB062F2ED1A66B3C
S31508000FBC03F07840B0EBC66F28D1E06B40080138D7
S31508000FCC03F4C006B6EB405F20D1206C400803F052
S31508000FDCC0630138B3EB406F18D1136899010AD472
S31508000FEC136843F080731360D36843F08073D3603F
S31508000FFC13689B01FCD5002002B0BDE8F0810A4AB3
S3150800100CE16AD36803F003008842C3D00C2D07D0DD
S3150800101C054B1A68570103D41A68D60040F10081AB
S3150800102C012002B0BDE8F0810010024000700040BB
S3150800103CFCFFEEFE012E7FF4DCAE9B4B1B6899077A
S3150800104C6DD4994B206A1A68120756BFD3F8943098
S3150800105C1B681B0903F0F0038342C0F0C980924B4E
S3150800106C1A6842F008021A601A6822F0F002024363
S3150800107C1A605A68E16922F47F4242EA01225A60F0
S3150800108C002D00F00881FFF743FE874B874F9A68BF
S3150800109C87492368C2F30312BA5C02F01F02D040D8
S315080010AC0860D9077FF5EFAECEE60A6890037FF5A0
S315080010BCEAAE0A689003F8D4E5E6D1F8942022F053
S315080010CC0102C1F89420D1F894209607FBD45A074C
S315080010DC3FF507AF36E7D2F890309E077FF52EAF6F
S315080010ECD2F890309E07F6D428E79A6D42F08052D3
S315080010FC9A659B6D03F080530193019B0120F6E6DC
S3150800110CD2F8983023F00103C2F89830D2F8983008
S3150800111C9B07FBD4A36A002B7FF428AF6BE7A36964
S3150800112C002B8ED17CE70A6822F480720A600A6862
S3150800113C5005FCD419073FF5C3AED0E63B6823F03F
S3150800114C01033B60FFF766F8804605E0FFF762F897
S3150800115CA0EB080002282BD83B689807F6D423681E
S3150800116C70E6032E7FF476AE4F4A126892037FF52B
S3150800117C8AAE6268002A7FF486AE51E7022E7FF4A7
S3150800118C8AAE494A1268570503D5E268002A3FF425
S3150800119C47AF454920694A6822F0FE4242EA006296
S315080011AC4A608BE640490A6842F480320A6066E671
S315080011BC032002B0BDE8F0813B4A936D23F08053BF
S315080011CC9365BEE6384AD2F8903043F00103C2F86C
S315080011DC9030AEE6344BD3F8902042F00402C3F8B4
S315080011EC9020D3F8902042F00102C3F89020A0E694
S315080011FCFFF74CFD00287FF413AF2B4B1A6842F00F
S3150800120C08021A601A68216A22F0F0020A431A6068
S3150800121C5A68E16922F47F4242EA01225A6032E7AF
S3150800122C1A6822F080721A601A689501FCD4D8687C
S3150800123C204AD4F834E0A76B266BE56B02400A43C8
S3150800124C206C194942EA0E2242EAC762013E6C0832
S3150800125C42EA0612013C400842EA4452013842EA84
S3150800126C4062DA601A6842F080721A60DA6842F0F4
S3150800127C8072DA600B689801FCD5BCE602F18042F4
S3150800128CA2F53C32116841F480211160116841F4D1
S3150800129C80311160F3E5FFF7F9FC00283FF4F3AE53
S315080012ACBEE60120704700BF00100240B865000872
S315080012BC440004200C809D0178B1824A136803F01F
S315080012CC0F038B420CD2136823F00F030B431360E6
S315080012DC136803F00F03994202D00123184670478E
S315080012EC2DE9F0410C460168064611F0020047D17B
S315080012FCCA0731D57268744B032A00F08880022A13
S3150800130C1B6800F08180002A40F0B4809F0733D513
S3150800131CFFF7FEFC6D4B984205D96B4B9A6812F099
S3150800132CF00F00F0AB8096E80600002701F00200EB
S3150800133C654DAB6823F003031343AB609200AB68AF
S3150800134C03F00C039342FAD11FB1AB6823F0F003F8
S3150800135CAB60002840F0B3805A4A136803F00F03B9
S3150800136C9C4227D2136823F00F0323431360136898
S3150800137C03F00F039C421DD001231846BDE8F081EB
S3150800138C514DB268AB6803F0F0039A4236D8CB07D6
S3150800139CB0D44D48836803F0F0039A42DCD28368D4
S315080013AC23F0F0031A438260464A136803F00F03CE
S315080013BC9C42D7D3480706D5434AF068936823F46A
S315080013CCE06303439360090707D53F4A316993687D
S315080013DC23F4605343EAC1039360FFF799FC3A4B35
S315080013EC3B4C9A683B49C2F303120023A25C02F0F9
S315080013FC1F02D04008601846BDE8F081AB6823F0A0
S3150800140CF0031343AB60C2E79B0381D4B4E71D68B2
S3150800141CAF01B1D5DD6805F00305022D4DD0032DBE
S3150800142C49D0012D38D00025274FDFF8A0E0D7F892
S3150800143C0CC0D7F80C80FB68C3F34163CCF3031CD0
S3150800144CC8F3062801330CF1010C05FB08F55B0003
S3150800145CB5FBFCF5B5FBF3F373451BD9BB6813F069
S3150800146CF00F17D1BB6823F0F00343F08003BB6081
S3150800147C80275DE75D057FF57FAF49E79A6822F01F
S3150800148CF00242F080029A6096E80600802701F086
S3150800149C02004DE700274BE71D682D0754BFD3F80C
S315080014AC94301B680C4D54BFC3F30323C3F30313C7
S315080014BC55F82350B8E7094DB6E7094DB4E7B268B5
S315080014CC67E700BF002002400010024000B4C404C5
S315080014DCB865000844000420D065000800127A009C
S315080014EC0024F400054B064A9B680649C3F30223FD
S315080014FC0868D35C03F01F03D840704700100240FD
S3150800150CC865000844000420054B064A9B68064932
S3150800151CC3F3C2230868D35C03F01F03D840704793
S3150800152C00100240C865000844000420B0F5006F9E
S3150800153C10B43AD0B0F5805F1CD0474B186810F041
S3150800154C00602FD0186910F480302BD01A691869EE
S3150800155C1C69C2F30312E40E02F10102C0F3062061
S3150800156CB1FBF2F146D11B6913F4003F14BF1124E9
S3150800157C07243FE0384BD3F89C3003F4E063B3F50B
S3150800158C407F3ED0B3F5007F18D0002BD5D0802BEA
S3150800159C3CD0B3F5806F39D0202B3FD0B3F5807F84
S315080015AC3CD000205DF8044B70472B4BD3F89C308D
S315080015BC03F0E003602B24D0402BE6D1264B1868A9
S315080015CC10F00070EED0D86810F48030EAD0DA68E3
S315080015DCD868DC68C2F30312E40E02F10102C0F308
S315080015EC0620B1FBF2F105D1DB6813F4003F14BFFA
S315080015FC1124072400FB01F0B0FBF4F05DF8044B52
S3150800160C70474BF680305DF8044B7047124B134805
S3150800161C1B6813F4806F08BF0020C3E70E4A1068D6
S3150800162C10F00050BED0506910F48030BAD053690F
S3150800163C50695469C3F30313E40E03F10103C0F3B1
S3150800164C0620B1FBF3F1D5D1536913F4003F14BF4F
S3150800165C11240724CEE700BF001002400024F40032
S3150800166C444AF8B5D3689B0707D0D368026803F0D9
S3150800167C030393420CD00120F8BD0368022B43D018
S3150800168C032B4DD0012BF6D112689707F3D53EE004
S3150800169C002BF0D0374C236823F0806323600F4669
S315080016AC0646FEF7B7FD054604E0FEF7B3FD401BFC
S315080016BC022833D823681A01F7D4002F37D1F368D8
S315080016CCB56820692C497268DB0643EA0523014094
S315080016DC0B43013A43EA02132361264C236843F071
S315080016EC80632360FEF796FD054604E0FEF792FD3F
S315080016FC401B022812D823681B01F7D5B269236947
S3150800170C134323610020F8BD12685605B3D5194C4E
S3150800171CE26822F003021343E360BBE70320F8BD3B
S3150800172C1468A503F3D412685403A4D5EFE7012F64
S3150800173C25690FD0114BB068716872692B4043EA62
S3150800174C00230139520843EA0113013A43EA42637A
S3150800175C2361C2E70A4BB068716832692B4043EAC9
S3150800176C00230139520843EA0113013A43EA42536A
S3150800177C2361B2E7001002400F80FF070F80FFF9C4
S3150800178C0F809FFF314AF8B5D3689F0707D0D368F7
S3150800179C026803F0030393420CD00120F8BD0368DA
S315080017AC022B40D0032B4AD0012BF6D11268960790
S315080017BCF3D53BE0002BF0D0244C236823F0805360
S315080017CC23600646FEF726FD054604E0FEF722FDD5
S315080017DC401B022831D823689A00F7D4F368676946
S315080017ECB0681B497268194DDB0643EA0023394079
S315080017FC0B43013A43EA02136361236843F08053AF
S3150800180C2360FEF707FD044604E0FEF703FD001B04
S3150800181C022812D82B689B00F7D5B2696B6913435B
S3150800182C6B610020F8BD12685505B6D50749CA681C
S3150800183C22F003021343CB60BEE70320F8BD116800
S3150800184C8C03F3D412685103A7D5EFE700100240B6
S3150800185C0F80FF072DE9F043036813F4006683B085
S3150800186C044613D0C16E402900F0D88100F20382D9
S3150800187C002900F0E281202940F001822030FFF790
S3150800188C81FF0646002E00F003822368DF0440F130
S3150800189C2E81216FB1F5007F00F0DE8100F21E81EA
S315080018AC002900F0CF81B1F5807F40F01F8104F14B
S315080018BC2000FFF767FF23680746002F40F0CA8110
S315080018CCC449206FD1F89C2022F4E06202439D03A0
S315080018DCC1F89C2000F10F81D80708D5BD49E06BEB
S315080018ECD1F8882022F003020243C1F88820990710
S315080018FC08D5B849206CD1F8882022F00C0202438E
S3150800190CC1F888205A0708D5B249606CD1F88820E6
S3150800191C22F030020243C1F888201F0708D5AD49CA
S3150800192CA06CD1F8882022F0C0020243C1F88820A6
S3150800193CDD0608D5A749E06CD1F8882022F4407258
S3150800194C0243C1F88820980608D5A249206DD1F81B
S3150800195C882022F440620243C1F88820990508D5EC
S3150800196C9C49606ED1F8882022F440220243C1F8C3
S3150800197C88205A0508D59749A06ED1F8882022F4F4
S3150800198C40120243C1F888205F0608D59149606D5C
S3150800199CD1F8882022F440520243C1F888201D064B
S315080019AC08D58C49A06DD1F8882022F44042024310
S315080019BCC1F88820D80508D58649E06DD1F8882065
S315080019CC22F440320243C1F88820D90208D581494D
S315080019DC206ED1F89C2022F003020243C1F89C2009
S315080019EC9A0410D57B48616FD0F8882022F04062A3
S315080019FC0A43B1F1006FC0F8882000F00A81B1F1F2
S31508001A0C806F00F048811F031AD5A06FB0F5804F80
S31508001A1C00F0EE806F49D1F89C2022F48042C1F880
S31508001A2C9C20D1F8882022F040620243B0F1006F66
S31508001A3CC1F8882000F02781B0F1806F00F03B8157
S31508001A4C5D0310D56348E16FD0F8882022F0406218
S31508001A5C0A43B1F1006FC0F8882000F0D580B1F1C7
S31508001A6C806F00F0208158040DD55A48D4F88010A0
S31508001A7CD0F8882022F040520A43B1F1805FC0F8B2
S31508001A8C882000F0F080D90309D55249D4F884008F
S31508001A9CD1F89C2022F004020243C1F89C209A0239
S31508001AAC09D54C49D4F88800D1F89C2022F01802A4
S31508001ABC0243C1F89C20DB010CD5464AD4F88C109D
S31508001ACCD2F89C3023F440130B43B1F5001FC2F82F
S31508001ADC9C3076D0304603B0BDE8F083B1F5407F34
S31508001AEC00F0CF80B1F5806F00F0CB800126374629
S31508001AFC9D037FF5F1AE374B9A6DD00055D54FF057
S31508001B0C0008354D2B6843F480732B60FEF782FB77
S31508001B1C814605E0FEF77EFBA0EB090002285DD89E
S31508001B2C2B68D905F6D5002F40F0D780294AD4F86A
S31508001B3C9010D2F8903013F4407329D08B4200F0F1
S31508001B4CC480D2F89030D2F8900040F48030C2F8B5
S31508001B5C9000D2F8900023F4407320F48030C2F839
S31508001B6C9000C2F89030DA0712D5FEF753FB194DE0
S31508001B7C814641F2883705E0FEF74CFBA0EB0900DD
S31508001B8CB8422BD8D5F890309B07F5D5D4F89010D9
S31508001B9C104AD2F8903023F440730B43C2F89030B5
S31508001BACB8F1000F1ED1236896E69A6D42F0805262
S31508001BBC9A659B6D03F080530193019B4FF00108C6
S31508001BCC9FE7D368304643F48013D36003B0BDE86F
S31508001BDCF08300BF00100240007000400326B8F1E5
S31508001BEC000FE0D03E4A936D23F080539365DAE7F5
S31508001BFC3B4AD2F89C1041F48041C2F89C10D1683B
S31508001C0C41F48031D1601BE7C26842F48012C2608D
S31508001C1C29E7C26842F48012C260F4E63048C2680A
S31508001C2C42F48032C2602E48D0F89C2022F0E002A2
S31508001C3C1143C0F89C10002628E60430FFF710FD67
S31508001C4C06461FE6201DFFF70BFD07462368002FE7
S31508001C5C3FF436AE3E464BE72149CA6842F4803219
S31508001C6CCA60374629E60221201DFFF7F9FC50B356
S31508001C7C0646236807E76029D5D08029D3D00126E4
S31508001C8C04E6374619E6CA6842F48012CA60D7E6F3
S31508001C9CE16E2368C7E70121201DFFF7E1FCB0B10F
S31508001CAC06462368AFE60121201DFFF7D9FC80B153
S31508001CBC06462368D7E60121201DFFF7D1FC50B153
S31508001CCC06462368BCE62368DDE60B464BE7236825
S31508001CDC99E62368C7E62368B2E63E4660E700BF86
S31508001CEC00100240B0F5003FBF4A52D0D36803F04B
S31508001CFC0303022B00F0BB80032B5AD0012B00F0F8
S31508001D0CA2800021B0F5806F00F0B8801CD810288E
S31508001D1C00F0008254D9802800F0B48100F2E480E7
S31508001D2C202800F02A81402841D1AF4BD3F88830BF
S31508001D3C03F44053B3F5805F7CD0B3F5005F00F035
S31508001D4C8281A3BBFFF7CEBBB0F5803F00F0F681CE
S31508001D5C30B456D9B0F5801F00F0A28140F2DE806F
S31508001D6CB0F5001F00F0AD80B0F1807F0ED19E4A11
S31508001D7CD2F89C3003F44013B3F5801F00F0E581CC
S31508001D8CB3F5001F00F03382002B52D0002030BC74
S31508001D9C7047D2F8903003F44073B3F5007F00F027
S31508001DAC8780B3F5407F47D0B3F5807F77D0002086
S31508001DBC704713688D4913F4003F08BF0021A1E74B
S31508001DCC022800F0818140F24B81042800F0FC8047
S31508001DDC0828ECD1844BD3F8883003F0C003402B89
S31508001DEC28D0AED9802B00F02E81C02BDFD17E4BAC
S31508001DFCD3F8903013F0020F0CBF00204FF40040BC
S31508001E0C7047B0F5805F6CD040F22581B0F5005F65
S31508001E1C00F0F480B0F5804FB8D1734AD2F8883008
S31508001E2C03F04053B3F1805F00F0B681B3F1405F25
S31508001E3CACD130BCFEF76CBF13686D4813F4003F89
S31508001E4C08BF00207047116811F002013FF45AAF21
S31508001E5C136819074CBF1368D2F89430654A4CBFFF
S31508001E6CC3F30313C3F3032352F823104AE7136887
S31508001E7C614913F4806F08BF002143E75A4AD2F828
S31508001E8C883003F44013B3F5801F11D07FF659AF91
S31508001E9CB3F5001F00F09180B3F5401F87D1D2F837
S31508001EAC903013F0020F0CBF00204FF4004070471F
S31508001EBCD2F8943013F0020F0CBF00204FF4FA40FE
S31508001ECC7047494AD2F89C3003F01803082B00F0E7
S31508001EDCF480102B00F03981002B7FF457AF4FF4A8
S31508001EEC006030BCFFF722BBB0F5807F58D0B0F548
S31508001EFC007F7FF45CAF3C4AD2F8883003F4402369
S31508001F0CB3F5802FD4D07FF61CAFB3F5002F00F0B5
S31508001F1C9A80B3F5402F3FF46AAF48E7B0F5802FA7
S31508001F2C6CD0B0F5002F7FF431AF2F4BD3F89C2033
S31508001F3C520440F11A811B689B017FF527AF2A4A88
S31508001F4CD06810F4803016D0D368D468D568C3F33B
S31508001F5C0623C4F30314ED0E01FB03F004F101038D
S31508001F6CB0FBF3F005D1D36813F4003F14BF112569
S31508001F7C0725B0FBF5F030BC70471B4BD3F88830FF
S31508001F8C03F44063B3F5806F3FF454AF7FF6D9AED4
S31508001F9CB3F5006F57D0B3F5406F3FF428AF06E79B
S31508001FAC114AD2F8883003F44033B3F5803F3FF436
S31508001FBC41AFB3F5003F7FF4C4AE13680E4813F473
S31508001FCC806F08BF00207047074BD3F8883003F0A2
S31508001FDC3003102B3FF42EAF7FF6B3AE202B32D046
S31508001FEC302B3FF404AFE2E60010024000127A00F0
S31508001FFC90D00300D06500080024F400AD4AD2F84E
S3150800200C880000F04060B0F1806F00F00E8140F25D
S3150800201CE080B0F1006F00F01881B0F1406F7FF4EA
S3150800202CB5AE106810F00200A5D013681D074BBF9B
S3150800203C1368D2F89430C3F30313C3F303239E4AED
S3150800204C52F8230097E79B4B9C481B6813F4806F48
S3150800205C08BF00207047B0F5006F3FF442AF95E615
S3150800206C01287FF4A4AE934AD2F8883003F0030310
S3150800207C022BA2D0032B3FF412AF012B3FF4DAAE9E
S3150800208CFFF742BA8B4AD2F8883003F44043B3F5CB
S3150800209C804F3FF4CFAEB3F5004F7FF452AE8CE7CA
S315080020AC844AD2F89C3003F00303012B3FF4C1AEEB
S315080020BCC0F09A80022B7FF469AE13687F4813F43C
S315080020CC806F08BF002056E77A4BD3F8883003F0A8
S315080020DC0C030C2B3FF66BAE01A252F823F000BF93
S315080020EC511D0008BB1D0008BB1D0008BB1D0008C0
S315080020FC411E0008BB1D0008BB1D0008BB1D0008BF
S3150800210C53200008BB1D0008BB1D0008BB1D00089A
S3150800211CFB1D0008674AD2F8883003F44073B3F500
S3150800212C807F3FF487AE7FF60CAEB3F5007F3FF4A5
S3150800213C44AFB3F5407F3FF4B2AE38E65D4BD3F807
S3150800214C9C3058073FF576AE9AE7136899077FF5E2
S3150800215C1DAE584B1A6812074BBF1B68D3F8943040
S3150800216CC3F30313C3F3032369E7D3F8880000F01A
S3150800217C4060B0F1806F00F0908076D9B0F1006FB6
S3150800218C7FD0B0F1406F7FF401AE4A4A136813F062
S3150800219C02037FF44AAFF9E513681C017FF5F6AD27
S315080021AC444A106910F080703FF4E5AE1069146962
S315080021BC1369C3F34163C0F30620C4F30312013356
S315080021CC01FB00F001325B00B0FBF2F0B0FBF3F060
S315080021DCD1E600287FF4DAADD2F89820384B12F005
S315080021EC020F18BF1846C6E630BCFFF77BB9314A52
S315080021FC106810F000703FF4BEAED06810F4801072
S3150800220C3FF4B9AED468D068D368C3F34153C0F36E
S3150800221C0312C4F30624013301FB04F001325B00FC
S3150800222CB0FBF2F0B0FBF3F0A5E6106810F0006016
S3150800223C3FF4A1AE106910F480103FF49CAE1069FF
S3150800224C14691369C3F34153B5E7106810F00070AD
S3150800225C3FF491AED06810F480103FF48CAED06881
S3150800226CD468D368C3F34153A5E700287FF48EAD31
S3150800227C104A134BD2F8982012F0020F18BF1846C2
S3150800228C79E60C4A136813F000733FF47FADD368F4
S3150800229C13F480133FF47AADE1E7064A136813F09A
S315080022AC00633FF473AD136913F480133FF46EADFA
S315080022BCC5E700BF00100240D06500080024F400F2
S315080022CC006CDC0230B50E4D83B000210C464FF481
S315080022DCC672284603F031FA019400944FF48053E1
S315080022EC03220849084803F095F84FF4E1312860B1
S315080022FC20462C7103B0BDE8304002F023B800BF6D
S3150800230C64000420905700083123000810B50446D1
S3150800231CFDF778FF2146C2B2002002F05FF8C0B282
S3150800232C10BD00BF2DE9F0433E4DDFF8008195F84E
S3150800233C85303D4E83B06F1D00242BB301220DF161
S3150800234C0301002002F0A2F89DF803308DF8043042
S3150800235C0D2B08BF0A2301A808BF8DF804308DF889
S3150800236C0540FFF7D3FF9DF80420092A3DD00A2A19
S3150800237C11D0082A0CD095F885104B1C2944DBB2D1
S3150800238C85F885304A71D7E74046FFF7BFFFD5E792
S3150800239C95F88530D1E795F8853095F88821E918B0
S315080023AC0024013385F885304C7132B919E00134B3
S315080023BC95F88831E4B2A34213D904F111093846C9
S315080023CC55F83910FDF714FF0028F0D105EBC909AB
S315080023DC0134D9F80430984795F88831E4B2A34209
S315080023ECEBD8002385F88530A6E73046FFF78EFF35
S315080023FC95F88831002473B104F11103013455F8AA
S3150800240C3300FFF783FF3046FFF780FF95F88831D6
S3150800241CE4B2A342F0D83046FFF778FF95F885303A
S3150800242C8AE700BF64000420505D0008985700082E
S3150800243C2B49A1FB003110B549092A4C6FF06302F0
S3150800244C02FB010284FB0234D317C3EBA403DBB2F1
S3150800245C01EB8104C1EBC404C3EB4312C3EB820248
S3150800246C82B000EB840000EB42000022C0B201925D
S3150800247CA9B1092B9ABF3033DBB2FF2309289ABFBF
S3150800248C3030C0B2FF2030318DF8060001A88DF827
S3150800249C04108DF80530FFF739FF02B010BD93B163
S315080024AC092B9ABF3033DBB2FF2309289ABF303089
S315080024BCC0B2FF208DF8050001A88DF80430FFF78F
S315080024CC25FF02B010BD09289ABF3030C0B2FF20D4
S315080024DC8DF8040001A8FFF719FF02B010BD00BF64
S315080024EC1F85EB5167666666F0B583B00023194EF7
S315080024FC00931D46ADF804301F4642F210720423B1
S3150800250CB0FBF2F4A1B2F1B10FB95F1CFFB2C9B2BC
S3150800251C09291DD83031C9B20DF1080EAE4402FB9B
S3150800252C14040135A0B20EF8081CEDB2013B5BB2DF
S3150800253CA6FB0212591C4FEAD202E1D16846FFF7F4
S3150800254CE5FE03B0F0BD0FB9002BEFD10021E1E792
S3150800255CFF21E1E7CDCCCCCC11B94FF0FF30704759
S3150800256CF0B591B006AB002200E0324600F00F043D
S3150800257C000943F8044B02F10106F6D106AB03EB4E
S3150800258C82046D460DF1140E54F80439092B03F127
S3150800259C3707D6BF30332F702B70744505F8010FEB
S315080025ACF2D1881B03AB0232694618444FF030331C
S315080025BC04930393ADF8143003F0B4F803A8FFF7AB
S315080025CCA5FE11B0F0BD00BFA0B10C4A92F8883137
S315080025DC1F2B0FD830B403F1110102EBC1040133E0
S315080025EC0568406882F88831606042F831500020EE
S315080025FC30BC70474FF0FF30704700BF64000420B2
S3150800260C024B00221A735A73704700BFF059062002
S3150800261C08B5054B4FF416321846FF2103F08DF812
S3150800262CBDE8084002F008BBF80104202DE9F04F7C
S3150800263C2DED028B5B4B8FB05B7B02900391002BCD
S3150800264C40F0A5805749019001234B730B8904462A
S3150800265C544A039852890299821A07EE902ACB1A81
S3150800266CB8EEE77A07EE903AF8EEE77AC7EE278ADD
S3150800267C07EE901AB8EE677A07EE900AF8EE677AC4
S3150800268CE8EEC77AFDEEE77ACDED007ABDF90030B3
S3150800269C08EE103A019B9C426AD2B8EEC88ADFF85B
S315080026AC1891DFF818A104F1FF3E0DF1340807EE76
S315080026BC904AF8EE677AB0EE487AA8EEA77A0EF149
S315080026CC01060EF1020C384FFDEEC77ACDED007AF5
S315080026DCBDF80050C5F5A0710131C5F59F720132E0
S315080026ECC1EB01110901C2EB0212C5F5A07012016A
S315080026FC01EB0E0301EB060BC0EB00106144000165
S3150800270C07910EEB02010B9186449119624484449D
S3150800271C3044CDF818B005930C910D92CDF820E005
S3150800272CCDF828C009900DF1140B06E00022D84507
S3150800273C2AF8132016D05BF8043F4B4503F1040323
S3150800274CF4D93846FFF7E2FD2046FFF7CDFE1748C9
S3150800275CFFF7DCFD2846FFF7C7FE1548FFF7D6FD41
S3150800276CD845E8D10134019BA4B2A342B6469ED102
S3150800277C104802F061FA0B4BBDF808201A81BDF817
S3150800278C0C205A810FB0BDEC028BBDE8F08F054BBF
S3150800279C029C1B899C42224629BF029A01930192EC
S315080027AC1C4655E7F0590620A4570008B4570008EC
S315080027BC505D0008F8010420FF2B0100F0010420ED
S315080027CC30B585B000F060FA00221046234902F0B5
S315080027DC51FA10B12248FFF799FD00222149012030
S315080027EC02F048FA10B11E48FFF790FD00221E4968
S315080027FC022002F03FFA10B11948FFF787FD0022B4
S3150800280C1A49032002F036FA10B11548FFF77EFD77
S3150800281C1748184CA0F108054FF41632FF2102F0A0
S3150800282C8CFF05F1080000F019FB6A4601A9287807
S3150800283C02F052FE009A1068516802AB03C31046A8
S3150800284C02F030FE029B54F82330002BEDD0BDF875
S3150800285C0E10BDF80C009847E7E700BF21290008C1
S3150800286CCC570008ED280008B92800088528000868
S3150800287CF8010420BC57000838B50A480D4614461A
S3150800288CFFF744FD082002F0FBFD074B858003216A
S3150800289CC4800160024608211878BDE8384002F069
S315080028AC0DBE00BF04580008F001042038B50A48CC
S315080028BC0D461446FFF72AFD082002F0E1FD074BEA
S315080028CC85800221C4800160024608211878BDE87B
S315080028DC384002F0F3BD00BFF8570008F001042099
S315080028EC38B50A480D461446FFF710FD082002F0C5
S315080028FCC7FD074B85800121C4800160024608216B
S3150800290C1878BDE8384002F0D9BD00BF2458000835
S3150800291CF001042038B50A480D461446FFF7F6FCB4
S3150800292C082002F0ADFD074B85800021C4800160AC
S3150800293C024608211878BDE8384002F0BFBD00BF32
S3150800294C14580008F001042010B50B4C0B4A82B041
S3150800295C2046002102F0F1FE002301930093032286
S3150800296C4FF480530649074802F054FD0D23606066
S3150800297C237002B010BD00BFF001042010580200ED
S3150800298CE8570008CD27000870B5D6B09422002168
S3150800299C31A802F0D2FE20A84422002102F0CDFE76
S315080029AC002318461C931B931D931E931F93FEF727
S315080029BCE7F800B1FEE70346012502241821602238
S315080029CC279320A83C232D932091259526952B9566
S315080029DC2C9528922A942E942F943094FEF7F2F97B
S315080029EC034600B1FEE703221BA80F2605211D93FB
S315080029FC1E931F931B961C92FEF75EFC034600B1B2
S31508002A0CFEE7402231A846933192FEF723FF034690
S31508002A1C00B1FEE7802231A847933192FEF71AFFE0
S31508002A2C034600B1FEE70C214FF480324FF40066E2
S31508002A3C31A84C9332953394359436943794319611
S31508002A4C34913892FEF706FF034600B1FEE74FF0C5
S31508002A5C807231A854933192FEF7FCFE00B1FEE762
S31508002A6C844B1A6E42F480421A661A6E02F480423D
S31508002A7C0092009A9A6D42F400329A659A6D02F4A5
S31508002A8C00320192019A9A6D42F480229A659A6DE7
S31508002A9C02F480220292029A9A6D42F400129A6506
S31508002AAC9A6D02F400120392039A9A6D42F480020C
S31508002ABC9A659A6D02F480020492049A1A6E42F48C
S31508002ACC00121A661A6E02F400120592059ADA6C4E
S31508002ADC42F48012DA64DA6C02F480120692069AD0
S31508002AEC1A6D42F480721A651A6D02F48072079296
S31508002AFC079A1A6D42F400721A651A6D02F400727E
S31508002B0C0892089A9A6D42F001029A659A6D02F03B
S31508002B1C01020992099A9A6D42F002029A659A6D17
S31508002B2C02F002020A920A9A9A6D42F004029A6517
S31508002B3C9A6D02F004020B920B9A9A6D42F00802F7
S31508002B4C9A659A6D02F008020C920C9A1A6E42F467
S31508002B5C80321A661A6E02F480320D920D9A1A6E2B
S31508002B6C42F400321A661A6E02F400320E920E9A6B
S31508002B7C1A6E42F480221A661A6E02F480220F929A
S31508002B8C0F9A9A6C42F001029A649A6C02F001024E
S31508002B9C1092109A9A6C42F004029A649A6C02F09B
S31508002BAC04021192119A1A6E42F480521A661A6E1F
S31508002BBC02F480521292129A9A6D42F480429A65E5
S31508002BCC9A6D02F480421392139A9A6D42F400425B
S31508002BDC9A659A6D02F400421492149A9A6D42F010
S31508002BEC80529A659A6D02F080521592159ADA6C93
S31508002BFC42F00102DA64DA6C02F001021692169AB5
S31508002C0CDA6C42F00202DA64DA6C02F0020217920B
S31508002C1C179ADA6C42F00402DA64DA6C02F00402EF
S31508002C2C1892189ADA6C42F00802DA64DA6C02F036
S31508002C3C08021992199ADA6C42F01002DA64DA6C04
S31508002C4C02F010021A921A9ADA6C42F02002DA642E
S31508002C5CDA6C02F020021B921B9ADA6C42F04002E4
S31508002C6CDA64DB6C03F040032093209BFEF706F82E
S31508002C7C56B070BD00100240024B01221A605A6011
S31508002C8C00207047005A0620F0B56D4D2B68012BB5
S31508002C9C83B039D16E68012E36D16A49002001F00D
S31508002CAC6FF9044650BB6849304601F069F9044689
S31508002CBC002840F0BF8032464FF480714FF09040A8
S31508002CCCFDF742FCBFF34F8F142002F021FC22467D
S31508002CDC4FF400715D48FDF737FCBFF34F8F02AF19
S31508002CEC224607F8016D20463346394601F0DEF9CF
S31508002CFC044670B15648FFF709FB02E05548FFF742
S31508002D0C05FB204603B0F0BD4FF0FF34204603B058
S31508002D1CF0BD962002F0FCFB4FF0130E224620461F
S31508002D2C334639468DF807E001F0C0F90446002809
S31508002D3CE0D136240246334639468DF8074001F071
S31508002D4CB5F904460028D5D132464FF400713F48F0
S31508002D5CFDF7FAFBBFF34F8F4FF0480E224620467D
S31508002D6C334639468DF807E001F0A0F904460028E9
S31508002D7CC0D102464FF400713448FDF7E5FBBFF3AA
S31508002D8C4F8F4FF03A0E22462046334639468DF879
S31508002D9C07E001F08BF904460028ABD132464FF414
S31508002DAC00712A48FDF7D0FBBFF34F8F4FF0550E35
S31508002DBC22462046334639468DF807E001F076F967
S31508002DCC0446002896D100224FF400711F48FDF7DF
S31508002DDCBBFBBFF34F8F0022112439461046012343
S31508002DEC8DF8074001F062F90446002882D13C2090
S31508002DFC02F08EFB292622462046012339468DF8F9
S31508002E0C076001F053F9044600287FF473AF0123D9
S31508002E1C02468024394618468DF8074001F046F9D3
S31508002E2C044600287FF466AF022320462B606B60AD
S31508002E3C03B0F0BD0848FFF769FA204603B0F0BDA9
S31508002E4C005A0620305800087C580008000800482C
S31508002E5C64580008385800084C5800082DE9F04307
S31508002E6C564DD5F80080B8F1020F83B040F09F801C
S31508002E7C0323074600224FF4007151482B60FDF7D7
S31508002E8C63FBBFF34F8F02AE2A2306F8043D0022DC
S31508002E9C31461046012301F009F9044628B10223EC
S31508002EAC20462B6003B0BDE8F08301224FF4007175
S31508002EBC4348FDF749FBBFF34F8F2246204643464E
S31508002ECC31468DF804408DF8054001F0EFF8A1461F
S31508002EDC04460028E3D14FF0EF0E0246434631462E
S31508002EEC8DF804008DF805E001F0E0F8044600289A
S31508002EFCD5D102464FF400713148FDF725FBBFF3D7
S31508002F0C4F8F4FF02B0E22462046314601238DF863
S31508002F1C04E001F0CBF804460028C0D101224FF496
S31508002F2C00712748FDF710FBBFF34F8F224620464A
S31508002F3C434631468DF804408DF8059001F0B6F8F5
S31508002F4C04460028ABD143463F2402464FF00108FD
S31508002F5C31468DF805408DF8048001F0A7F8044633
S31508002F6C00289CD102464FF400711548FDF7ECFA7F
S31508002F7CBFF34F8F4FF02C0E224620463146434660
S31508002F8C8DF804E001F092F80446002887D14246F1
S31508002F9C4FF400710A48FDF7D7FABFF34F8F4FF479
S31508002FAC16322046394601F0C3F8044677E74FF047
S31508002FBCFF34204603B0BDE8F08300BF005A062054
S31508002FCC0008004870B582B0002852D0002950D0AD
S31508002FDC294B5B68022B47D10446D12000268DF875
S31508002FEC00000D4601AA6946032301208DF80160ED
S31508002FFC8DF8026001F05AF8064678B10123802450
S3150800300C6946184600228DF8004001F04FF8044630
S3150800301C012002F07DFA204602B070BD9DF805200D
S3150800302C9DF8063043EA0223DB102380012002F0C8
S3150800303C6FFA912401AA0323694601208DF80160D1
S3150800304C8DF802608DF8004001F030F80028D5D1D3
S3150800305C9DF805209DF8063043EA0223DB102B80E9
S3150800306C012002F055FAC9E76FF00304204602B0B6
S3150800307C70BD4FF0FF34CEE7005A062008B54FF462
S3150800308C00410348FDF75AFAB0FA80F0400908BD2A
S3150800309C000C004800231A461846014900F0CEBD1C
S315080030AC8458000870B5094D06460FCD88B001AC9A
S315080030BC0FC495E80700002384E807001A4618464B
S315080030CC01A9039600F0BAFD08B070BD445A000871
S315080030DC00231A461846014900F0B0BDBC58000832
S315080030EC024601230149002000F0C6BDD858000845
S315080030FC024602230149002000F0BEBD085B000809
S3150800310C02464FF480730249002000F0B5BD00BF9B
S3150800311C945B000808B50648FFF7F8F8FFF7BAFFFE
S3150800312C00B908BD0348BDE80840FFF7EFB800BF73
S3150800313C445D0008545D0008024B034800221A60DF
S3150800314CFFF7E4B8085A0620F45C000808B50648E8
S3150800315CFFF7DCF8FFF7BCFF00B908BD0348BDE86C
S3150800316C0840FFF7D3B800BF1C5D00082C5D0008AB
S3150800317C00B583B002A8002300F8013DFFF7B0FFA5
S3150800318C68B90A48FFF7C2F802219DF80700FFF74D
S3150800319CE3F90748FFF7BAF803B05DF804FB0548EE
S315080031ACFFF7B4F803B05DF804FB00BF145D000824
S315080031BC505D0008005D00082DE9F04F2B4CC1B09E
S315080031CC68464FF48072002102F0B7FA2568022D82
S315080031DCE9462ED02648FFF799F82648264EDFF8FA
S315080031ECACB0FFF793F82548FFF790F82448FFF79B
S315080031FC8DF80DF580784F463C464FF0010A0025B0
S3150800320C03E001350AF1010A01343046D5B1FFF75E
S3150800321C7DF802212078FFF79FF9BAF1100FF0D14B
S3150800322C10371848FFF772F84745E5D141B0BDE8A5
S3150800323CF08F032368462360FFF762FF256000289A
S3150800324CCBD0C7E75846FFF761F8A7EB0900022170
S3150800325CC0B2FFF781F90C48FFF758F83046FFF76C
S3150800326C55F802212078FFF777F9CAE7086A06208D
S3150800327C205C0008405C0008F05C0008785C0008DC
S3150800328CB05C0008505D0008EC5C0008E85C0008BF
S3150800329C30B5134C256883B00023022DADF80430E5
S315080032AC15D01048FFF732F80F48FFF72FF89DF89E
S315080032BC0400FFF7BDF80D48FFF728F89DF8050040
S315080032CCFFF7B6F80948FFF721F803B030BD03231A
S315080032DC01A82360FFF70CFF25600028E4D0E0E77F
S315080032EC086A0620FC5B00081C5C0008505D000898
S315080032FCF0B583B002AD461E002301FA06F605F8B2
S3150800330C013D0746F6B20A242846FFF7E9FE20B91E
S3150800331C9DF807303B40B34206D0012002F0F8F87E
S3150800332C013CF1D16FF0010003B0F0BD034B002056
S3150800333C01221A6058609860704700BF086A062018
S3150800334C08B50449002000F0DBFB10B9024B022239
S3150800335C1A6008BDE85B0008086A0620F8B5204E16
S3150800336C3768022F38D1B0F5802F35D2032305469E
S3150800337C3360FFF78FFE044630B11A48FEF7C6FFD6
S3150800338C022333602046F8BD01213846FFF7B0FF0B
S3150800339C0446C8B92846FFF785FE0446C0B9014657
S315080033AC0120FFF7A5FF044670B9FFF791FE044606
S315080033BC18B10D48FEF7AAFFE2E701463846FFF7B3
S315080033CC97FF04460028DBD00848FEF79FFFD7E78F
S315080033DC0748FEF79BFFD3E74FF0FF342046F8BDAE
S315080033EC086A0620545D00082C5D0008685D000814
S315080033FC845D000808B50020FFF7B0FF00B908BDCA
S3150800340C0248BDE80840FEF781BF00BF845D00088E
S3150800341C4FF0FF30704700BF00B51A4A1A4B83B0FD
S3150800342C68468DE80C00FFF7CFF8184A184B684623
S3150800343C8DE80C00FFF7C8F8164A174B68468DE856
S3150800344C0C00FFF7C1F8154A154B68468DE80C00B9
S3150800345CFFF7BAF8134A144B68468DE80C00FFF7C9
S3150800346CB3F8124A124B68468DE80C00FFF7ACF815
S3150800347C104A114B68468DE80C00FFF7A5F803B007
S3150800348C5DF804FB945D00089D320008AC5D0008ED
S3150800349CC5310008C05D000821310008D85D000858
S315080034AC59310008F05D00087D310008085E0008F7
S315080034BC01340008185E0008453100082DE9F84368
S315080034CC0E4C0F4D0F4F04F1FC091B264FF001084B
S315080034DC03E055F8086C55F80C7C2422002120468C
S315080034EC02F02BF9394630B202F004F844F8248B72
S315080034FC4C4505F10C05ECD1BDE8F883146A062099
S3150800350C385E00086138000806282AD8F8B500EB9A
S3150800351CC005AD00144E7459012C06EB050E1DD1D1
S3150800352C09291BD80446CEF804201048104FCEF8AB
S3150800353C083004EB440257F8211010F922700D4A92
S3150800354C384642F8241000220521FCF769FE384655
S3150800355CFCF79CFE022373510020F8BD4FF0FF3098
S3150800356CF8BD4FF0FF307047146A0620285E000835
S3150800357C7C5E000800080240062800F2DC802DE973
S3150800358CF843C7003B18DFF8B48158F82340022CDF
S3150800359C40F0BF80064608680D4602F05FF8002822
S315080035AC67D1286802F062F8002800F0B280A86893
S315080035BC02F054F8002800F0B5804FF0030EB40062
S315080035CCA3199B0003F1804303F500332A681A619B
S315080035DCAA685A612B69B3F5803F60D2BB1908EB10
S315080035EC83030022DA602A69A3199B0003F180433E
S315080035FC03F50033DA60BEF1000F6DD144F2100208
S3150800360C9A602B794BB1A3199B0003F1804303F500
S3150800361C00339A6842F080029A602B7B4BB1A3194F
S3150800362C9B0003F1804303F500339A6842F040028D
S3150800363C9A60A3199B00697B03F1804303F5003359
S3150800364C8A020902986801F4407102F440620A433E
S3150800365C02439A609A6842F00A029A609A683E4453
S3150800366C42F0010203219A60002048F82610BDE8B2
S3150800367CF883A86801F0F2FF002844D04FF0000E3A
S3150800368CB400A3199B0003F1804303F500332A68A1
S3150800369C5A61AA681A612B69B3F5803F9ED307EB6A
S315080036AC060C4FEA8C0C08EB0C09A3F57F43FF3B81
S315080036BCC9F80C302868AA68EB6869680CF1100C14
S315080036CCC444ACE80F004FF6FF732869CCF8000029
S315080036DC1A46C9F8203087E7BEF1020F1DD02A79A1
S315080036EC1AB19A6842F040029A602B7B002BA0D044
S315080036FCA3199B0003F1804303F500339A6842F043
S3150800370C80029A6095E7A86801F0B0FFA6460028E3
S3150800371CB6D14FF0FF30BDE8F8839A6842F0100234
S3150800372C9A606EE7A86801F0A1FF4FF0010E002819
S3150800373C7FF445AFEDE74FF0FF307047146A06206B
S3150800374C062828D8C200F0B41118144C54F82110C5
S3150800375C03291DD1124D83002968DE1CF140C907C7
S3150800376C10D403449B0003F1804303F50033024451
S3150800377C9968022521F00101996044F8225000202D
S3150800378CF0BC70476F680121B14039436960E8E7BE
S3150800379C4FF0FF30F4E74FF0FF307047146A0620FD
S315080037AC000002402949F0B583000A68DD1CEA408E
S315080037BCD60787B0044623D40A685E1CF240D207A3
S315080037CC01D407B0F0BD01224F6802FA03F50233A3
S315080037DC02FA03F33D4302FA06F62B4333434B60D6
S315080037EC1B4DFFF7ADFF04EBC40305EB8305EE6831
S315080037FCDEB9314620466B68AA68984707B0F0BD13
S3150800380C4A68012303FA05F515434D60FFF798FF3F
S3150800381C0F4B04EBC40203EB820320469A685C68E0
S3150800382C4FF0FF31A04707B0F0BD05F110070FCFD9
S3150800383CD5F820E001AD0FC507467744204601A907
S3150800384C05960197FFF798FE07B0F0BD00000240F9
S3150800385C146A06200020FFF7A5BF00BF0120FFF75A
S3150800386CA1BF00BF0220FFF79DBF00BF0320FFF7D3
S3150800387C99BF00BF0420FFF795BF00BF0520FFF7CF
S3150800388C91BF00BF0620FFF78DBF00BF0148FDF7AB
S3150800389C27B900BFA86B06200148FDF721B900BF60
S315080038AC146B06200148FDF70DB900BFA86B06205E
S315080038BC0148FDF707B900BF146B062070B5114C0B
S315080038CC942632460021204601F037FF0E492F2058
S315080038DC01F010FE0D49302001F00CFE20460125A2
S315080038EC3246002140F8945B01F027FF0849312045
S315080038FC01F000FE0749322001F0FCFDC4F8945093
S3150800390C70BD00BF106B0620BD380008A53800082E
S3150800391CB138000899380008704700BF2DE9F04106
S3150800392C00EB4005644C069E54F83540256825F096
S3150800393C405525602768150705F040553D43012A73
S3150800394C256002D90020BDE8F0810025C4F808518D
S3150800395CC4F80051D4F808510F693D43C4F808510E
S3150800396C002E6FD13546D1F818C0BCF1000F0ED019
S3150800397C4F7D91F816E0C4F820C13F054FEA0E4E6C
S3150800398C07F440170EF4E02E47EA0E073D4391F86C
S3150800399C0DE0BEF1000F67D0BEF1050F77D00F7B97
S315080039AC91F8048091F805C04FEA0E2E3F034FEAB2
S315080039BC08180EF4E06E07F4405708F030080CF0BF
S315080039CC070C47EA0E0748EA0C0E47EA0E073D4372
S315080039DC0F688968C4F80051C4F81071A164002EE8
S315080039ECB0D0364901EB0010013EC660836040F248
S315080039FCE93301E0013B33D0216A4907FAD542BBCA
S31508003A0C8368591C81601B7884F85030C368591E2A
S31508003A1CC160002BEBD140F2E93301E0013B1FD02A
S31508003A2C226A9207FAD5236A43F002032362236AB1
S31508003A3CDB0787D5236A43F0010323626FF0020084
S31508003A4CBDE8F0810D7D771E2D0605F0E06527642F
S31508003A5C89E7836894F850105D1C85601970D5E762
S31508003A6C6FF00100BDE8F0810F7991F805E0D1F807
S31508003A7C00C0390101F030010EF0070739430D4338
S31508003A8CC4F80051C4F810C1002EAAD15AE70F7910
S31508003A9C91F805E0D1F800C0390101F030010EF0BB
S31508003AAC070739430D43C4F80051C4F810C1002E5A
S31508003ABC3FF448AF95E700BFA45E0008386C0620B3
S31508003ACC704700BF70B50B4C0B49002501265720D3
S31508003ADC25606560A560E56001F00CFD0749256168
S31508003AEC5C206561A561E561666001F003FD6661B0
S31508003AFC70BD00BF386C0620CD3A00082539000881
S31508003B0C012800F28C808B79052B00F288804A7983
S31508003B1C032A00F284802DE9F04F454D0601AA19B7
S31508003B2C85B0D2F80490B9F1010F7BD14FEA400861
S31508003B3CD1F808C03F4F08EB00021B06BCF1020F78
S31508003B4C57F8324003F0E0626FD94B464FF0020E3D
S31508003B5C4FEA4E0E0133F445DBB2F9D8013B1B0490
S31508003B6C03F4F81391F80FE013430EF00102134314
S31508003B7CA3600B7B1BB1236843F04003236008EB5F
S31508003B8C000307EBC30383465869D1F800A00191DB
S31508003B9CFEF7A8F80199B0FBFAF0002837D1C4F85B
S31508003BAC0C904B7B2BB1D4F8003143F00043C4F88E
S31508003BBC00310B7C23BB204A029204AB03EB8B032C
S31508003BCC0432039253F8082C1368D84443F0013393
S31508003BDC136007EBC807236897F90480396943F023
S31508003BEC0103236040460022FCF71AFB3544404685
S31508003BFCFCF74CFB02236B60002005B0BDE8F08F88
S31508003C0CD4F8003143F00053C4F80031D3E75FFA17
S31508003C1C80F9C4F80C904B7B002BCAD0C3E74FF045
S31508003C2CFF3070474FF0FF30E7E700239AE700BFF5
S31508003C3C386C0620A45E0008041C0650012816D809
S31508003C4C70B50C4C04EB001482B06668022E0AD1CF
S31508003C5C1D4600950325134665600022FFF75EFE98
S31508003C6C666002B070BD4FF0FF3002B070BD4FF009
S31508003C7CFF307047386C0620012816D870B50C4CE6
S31508003C8C04EB001482B06668022E0AD11D46009514
S31508003C9C0325134665600122FFF740FE666002B0F5
S31508003CAC70BD4FF0FF3002B070BD4FF0FF3070475B
S31508003CBC386C06201E4AD36943F00103D361536955
S31508003CCC190722D593691B071FD570B5194CA57909
S31508003CDC6DB348F20C0148F208036658E3589E4245
S31508003CEC17D01146002201E0B3420FD004EB830033
S31508003CFC0132D2B28068086201339542C3F30C03D1
S31508003D0CF2D148F20802A35070BD704748F2080277
S31508003D1CA350074A084953698D6923F00803536170
S31508003D2C15B1C9690020A8470223637070BD70BD20
S31508003D3C00540140586C0620586C072010B5074CE7
S31508003D4C074A0021204601F0F8FC06495A2001F0E2
S31508003D5CD1FB002201232270637010BD586C06201B
S31508003D6C20000100C13C00082DE9F041C7003E1AAD
S31508003D7C3B4BB60005469C59A36813F4B07F53D148
S31508003D8CDFF8E08063681E060FD5A36898070CD584
S31508003D9C7B1B08EB8303DA68002A58D09968481C01
S31508003DAC986009782173013ADA6063685B0614D562
S31508003DBCA368DA0711D57B1B08EB83035A69C2B1D2
S31508003DCC217B1869C9B218B1421C1A6101705A696B
S31508003DDC7B1B08EB8303013A5A617B1B08EB8303B5
S31508003DECDB6823B97B1B08EB83035B6943B1BDE82E
S31508003DFCF0816268D96822F0C00262600029F6D1A7
S31508003E0C636823F0E0036360042001F099FB7D1BD3
S31508003E1C08EB8508002303600246042198F818006D
S31508003E2CBDE8F04101F098BB6368DFF8388023F0F1
S31508003E3CC0036360042001F083FB46446FF0030360
S31508003E4C036002460421307E01F086FB9AE763681C
S31508003E5C23F08003636063685906A9D4C2E700BFE0
S31508003E6CD45E0008786C07200020FFF77DBF00BFE2
S31508003E7C0120FFF779BF00BF0220FFF775BF00BF0F
S31508003E8C38B504200D46144601F05AFB042105608A
S31508003E9C0246207EBDE8384001F05EBB1F4BC0EBE6
S31508003EACC00070B553F82050AB6813F4C05F18BF48
S31508003EBC09242BD0012001F02BFBAB6813F4C05F4F
S31508003ECC05D014F1FF34F5D26FF0010070BDAB6864
S31508003EDC19060CD5661E24B9F6E7731E002EF3D008
S31508003EEC1E46012001F014FBAB681A06F5D42B68A4
S31508003EFC23F040032B60A868C0F3412060B12B7BEC
S31508003F0CA868C0F341200028F9D170BDAB681B0620
S31508003F1C48BF0926E5D4EAE770BD00BFD45E0008A1
S31508003F2C2DE9F8431349144C144F002635464FF027
S31508003F3C080833204FF00109256065602670A560D6
S31508003F4CE56025616561A56100B2013601F0D2FA1A
S31508003F5C032E84F81880C4F8049007F11C0704F1A2
S31508003F6C1C0404D0F868B96897F81880E4E7BDE82B
S31508003F7CF88300BF753E0008786C0720D45E0008ED
S31508003F8C02287FD82DE9F84FC7003B1A434E9B00F1
S31508003F9CF218D2F804B0BBF1010F5CD1404DD1F840
S31508003FAC009055F803A02B44044658698846FDF73B
S31508003FBC99FE5946002201FA02F3B0FBF3F3994530
S31508003FCC5FFA82FE02F1010257D8082AF3D13C2384
S31508003FDC98F80620CAF80030012A47D098F8043019
S31508003FEC012B3CD098F80530012B2DD098F80730CA
S31508003FFC2C4904EB440292001B02885C03F47063A0
S3150800400C43F4805343F004030728CAF804300A44DF
S3150800401C07D03B1B5168244A06EB8303FFF774FA57
S3150800402CC8B93C1BA4002544002295F90450052167
S3150800403C2846FCF7F5F834442846FCF727F90223FA
S3150800404C63600020BDE8F88FDAF8003043F001030E
S3150800405CCAF80030CAE74FF0FF30BDE8F88FDAF837
S3150800406C003043F00203CAF80030BBE7DAF8003038
S3150800407C43F08003CAF80030B0E7BEF1000F04D154
S3150800408C0423A5E74FF0FF3070470EF1FF33DB0032
S3150800409C03F0380343F004039AE700BF786C072053
S315080040ACD45E0008285F00088D3E0008002938D029
S315080040BC022836D8F0B5C0EBC0051B4CAD002C4415
S315080040CC83B06668022E28D107461848A160415964
S315080040DCE3600868226140F0400203206361606077
S315080040EC0A604B68207E43F0E00301AA4B606946E0
S315080040FC01F0F2F9019801F0D5F90023A360E36009
S3150800410C236163613846FFF7C9FE012001F000FA06
S3150800411C019B6660186803B0F0BD4FF0FF3003B022
S3150800412CF0BD4FF0FF307047786C0720D45E00085E
S3150800413C00295ED002285CD82DE9F043C0EBC003F9
S3150800414C2D4C9B001C4489B0D4F80480B8F1020F9E
S3150800415C4CD12A4E2A4DF658079200EB4003039190
S3150800416C15F8232006F10C0303214FF001090593DA
S3150800417C072A4FF0000361608DF810908DF81830FF
S3150800418C8DF819302BD0054603A91046FFF7F4F91C
S3150800419C074620BB7368207E43F0020373603368BE
S315080041AC43F04003336002AA01A901F095F902987D
S315080041BC01F078F92846A760E76027616761FFF781
S315080041CC6DFE736823F002037360484601F0A0F98C
S315080041DC029BC4F80480186809B0BDE8F0834FF058
S315080041ECFF30C4F8048009B0BDE8F0834FF0FF3007
S315080041FCF2E74FF0FF307047786C0720D45E000862
S3150800420C285F0008F8B500EB40022E4B53F83240F5
S3150800421CE369E369990605461DD52B4B676A40F693
S3150800422C2C0202FB0033B3F81614B3F814644A1CB8
S3150800423CC2F30902B2420ED0194458680F7592B2ED
S3150800424CA3F8162438B19968921B8A4203D3002224
S3150800425C9A6001F069F9A3681A0226D5E3691B0668
S3150800426C23D5194E40F62C0202FB0562B2F81A1831
S3150800427CB2F81838994219D0D718D06897F8187424
S3150800428CA7620133C3F30903A2F8183868B140F6DC
S3150800429C2C02994202FB05652ABFC1F580615B1A9F
S315080042AC5B182A699BB2934205D2F8BDA36823F41E
S315080042BC0003A360F8BD00232B61BDE8F84001F0AC
S315080042CC33B900BF4C5F0008CC6C07200020FFF701
S315080042DC99BF00BF0120FFF795BF00BF0220FFF76B
S315080042EC91BF00BFF8B5134C40F62C063246002198
S315080042FC204601F022FA01250F49352001F0FAF87B
S3150800430C32460021A019257001F017FA41F2580718
S3150800431C0A49362001F0EEF832460021E01984F8F5
S3150800432C2C5801F00AFA0649372001F0E3F8E5554E
S3150800433CF8BD00BFCC6C0720D9420008E142000842
S3150800434CE9420008022842D82DE9F04140F62C062D
S3150800435C06FB00F61F4FBB5D012B34D11E4B00EB41
S3150800436C4000C00003EB00081C58D8F814000D4692
S3150800437CFDF7B8FCB0FBF5F0E060236898F904503B
S3150800438CD8F8101043F0005343F00C03236023684D
S3150800439C43F001032360A368A360A36843F020439A
S315080043ACA360A368A360A36843F08053A360284660
S315080043BC0022FBF735FF2846FBF768FF0223BB559F
S315080043CC0020BDE8F0814FF0FF30BDE8F0814FF0DA
S315080043DCFF307047CC6C07204C5F000802284ED87B
S315080043EC2DE9F0410C46002945D040F62C0303FB79
S315080043FC00F3244F1546FA5C022A06463B443AD18A
S3150800440CB3F81828B3F81A389A4298BF02F580629E
S3150800441CD21A92B2AA4221D372B695B140F62C01A1
S3150800442C01FB06716219B1F81A3814F8015BC81841
S3150800443C0133C3F30903944280F81854A1F81A38C7
S3150800444CF3D162B6104B06EB4606002053F836201D
S3150800445C936843F400039360BDE8F08140F62C089A
S3150800446C08FB0078C8F8105000F0F4FFC8F80C00E8
S3150800447C00F0E6FFD0E74FF0FF30BDE8F0814FF0D3
S3150800448CFF307047CC6C07204C5F0008022842D8D6
S3150800449C2DE9F8430D46D1B340F62C0808FB00F875
S315080044ACDFF8789019F80830022B0446C8442ED148
S315080044BCB8F81664B8F81404361A964217461CD37C
S315080044CC0023C8F8083072B69FB140F62C0303FBDC
S315080044DC0494EA19B4F8143423441B7D05F8013BFB
S315080044ECB4F814340133C3F309039542A4F814340D
S315080044FCF2D162B63046BDE8F883931BC8F808308B
S3150800450C00F0A8FFC8F8040000F09AFFDBE74FF0AC
S3150800451CFF30BDE8F8834FF0FF307047CC6C0720AE
S3150800452C08B5FFF7DFFEFFF7C9F9FFF707FCFEF73B
S3150800453CC5FFFFF7C7FAFFF7F3FCFEF79DFB00F084
S3150800454CB5FB00F015F900F0ADF900F037FBFDF7F7
S3150800455CB9FEFEF7F9F9FEF75FFF00F0C7F9002080
S3150800456C00F0B0F90F2000F07FFFFEE710B582B01F
S3150800457C0024FEF709FA00F0FDFF01940094224688
S3150800458C4FF480530349044800F01AFD204602B044
S3150800459C10BD00BF945F00082D45000808B54FF400
S315080045AC4D720021054801F0C8F84FF4A472002199
S315080045BC0348BDE8084001F0C0B800BF988607203C
S315080045CCCC8907202DE9F041264CD4F8EC3103F0C0
S315080045DC0F039D00EE1804EB860684F83033D76B70
S315080045ECC6F8F871926BC6F8FC210B280746A6F894
S315080045FCF40188462FD00E282DD00D2286F8F621E8
S3150800460C1D44194B04EB85055B68C5F8003200F0B0
S3150800461C8BFE064600F082FED4F8EC2154F82730BF
S3150800462C4FF47A7101FB0600013201330B2FC5F8E2
S3150800463CF001C4F8EC2144F8273003D00E2F01D032
S3150800464CBDE8F08108F16E0854F82830013344F8B7
S3150800465C2830BDE8F081EA1804EB820282F8F6816C
S3150800466CCEE700BF9886072000ED00E070B50E4D2A
S3150800467C0E4A2B68526803F00F0303EB830405EB11
S3150800468C840485F844316261A06000F04DFE06464C
S3150800469C00F044FE2B684FF47A72013302FB0600D5
S315080046AC2B60606070BD00BFCC89072000ED00E070
S315080046BCF8B5144C144A2368526803F00F0303EB3D
S315080046CC830504EB85050F466A61A86084F84431B6
S315080046DC00F02AFE064600F021FE226894F84431C2
S315080046ECD7F83CE0B96B013203EB830304EB830385
S315080046FC22604FF47A7202FB06006860C3F80CE07D
S3150800470C1961F8BD5085072000ED00E038B50A4D53
S3150800471C052000F0FDFE2C682CB9F9E7053BE36093
S3150800472C2468002CF4D0E368052BF7D863689847FF
S3150800473CA368E360F4E700BF1C8B072088B138B583
S3150800474C044610200D4600F09BFE084B44605A6840
S3150800475C85600021C560016032B110605860002088
S3150800476C38BD4FF0FF3070471860F7E71C8B0720F1
S3150800477C30B583B0084C09490948002501950095C0
S3150800478C4FF4805309222560656000F043FE01232F
S3150800479C6060236003B030BD148B07209C5F000853
S315080047AC1947000838B572B6094C2568022D05D08C
S315080047BC62B60848BDE83840FDF7A8BD0323236058
S315080047CC62B60020FEF7CAFD25600028F1D138BD77
S315080047DC249B0720A85F00082DE9F0474FF4805268
S315080047EC0021274800F0A9FF72B6264C2568022D31
S315080047FC05D062B62448BDE8F047FDF787BD03230C
S3150800480C236062B6002210461D49FEF701FE25609C
S3150800481C0028EFD11D481A4F1D4EDFF880A0DFF88F
S3150800482C8090FDF773FD1B48FDF770FD1A4807F5D8
S3150800483C8078FDF76BFD3D46012401E00134013516
S3150800484C012C304610D0FDF761FD02212878FDF7C2
S3150800485C83FEB4F5807FF1D110374846FDF756FD37
S3150800486C4745E8D1BDE8F0875046FDF74FFD304681
S3150800487CFDF74CFD02212878FDF76EFEDEE700BF3A
S3150800488C248B0720249B0720A85F0008C05F00081C
S3150800489CF05C0008785C0008B05C0008EC5C00086A
S315080048AC505D000810B5064C00232360FEF73EFD4C
S315080048BC10B90123236010BD4FF0FF3010BD00BFA7
S315080048CC249B072068B910B5074C2368012B05D122
S315080048DCFEF736FD10B90223236010BD4FF0FF30EA
S315080048EC10BD4FF0FF307047249B072000B5094ACE
S315080048FC094B83B068468DE80C00FDF765FE074A40
S3150800490C074B68468DE80C00FDF75EFE03B05DF8B4
S3150800491C04FB00BFF85F0008B147000808600008F0
S3150800492CE547000870B5114C114D84B06A4601A9CB
S3150800493C207A00F0D1FD009A1068516802AB03C3C7
S3150800494C104600F0AFFD2368029E5B009A1955F8D5
S3150800495C32201AB10398904723685B00334405EB61
S3150800496CC3031B79022B18BF2360DFE7289B07209C
S3150800497C1860000810B5FEF771FA0446042000F01A
S3150800498C7FFD044B046002460421587ABDE81040AA
S3150800499C00F094BD289B072008B5082000F070FD90
S315080049AC05490023036043600246BDE80840087ABF
S315080049BC082100F083BD00BF289B07202DE9F04392
S315080049CC7B4C85B0FEF75AFBE37AA27A9840013302
S315080049DCDBB21043C0B2022BE372A07210D90023CB
S315080049EC0728E372E3680ED0012B00F0BC80022B7B
S315080049FC00F0A58000232361E36023840023A372BF
S31508004A0C05B0BDE8F08383B90123E360254604F1BC
S31508004A1C600795F824202AB9AE6A114610460EB1DD
S31508004A2CEB6AB0470C35AF42F3D123695A1C082BF5
S31508004A3C2261E3D902230DF10E0103A8E360FEF708
S31508004A4CC1FA002840F0A780238CBDF80C50BDF89D
S31508004A5C0E0003F10C0201339BB204EB4201012B4D
S31508004A6C238424F812508880C8D9228B658BA38B93
S31508004A7CE08BB4F884102A44C2F34E0203448A42EB
S31508004A8CC3F34E03C0F08E80B4F8860082428CBF06
S31508004A9C421A521A92B207EE902AB8EE677AB4F80E
S31508004AAC88209342C0F08180B4F88A108B428CBF60
S31508004ABC8B1A9B1A9BB207EE903AF8EE677AB4F803
S31508004ACC8C3005EE103AB4F88E3005EE903AB8EE06
S31508004ADC455AF8EE655A87EE056AB4F8903087EEB3
S31508004AECA57A06EE903AB4F89230314C07EE903A25
S31508004AFCF8EE666AF8EE677A66EE266A67EE277A45
S31508004B0CBCEEE67AFCEEE77A8DED007ACDED017A0D
S31508004B1C254604F16006BDF80090BDF8048002E055
S31508004B2C0C35AE423BD095F824000128F8D1AF6A73
S31508004B3C42464946002FF3D0EB6AB847F0E72546BC
S31508004B4C04F1600603E00C35B5423FF453AF95F813
S31508004B5C24000228F7D1AF6A00221146002FF2D0A2
S31508004B6CEB6AB847EFE72369092B3FF643AF2546AF
S31508004B7C04F1600603E00C35AE423FF43BAF95F802
S31508004B8C24000328F7D1AF6A00221146002FF2D071
S31508004B9CEB6AB847EFE70748FDF7B8FB2EE70023A3
S31508004BAC23842BE79FED047A79E7DFED037A86E712
S31508004BBC289B07205C60000800000000F0B51A4C22
S31508004BCC83B094222046002100F0B7FD0B231E214A
S31508004BDC16482372FFF7B2FD0023019300930922AE
S31508004BEC4FF480531249134800F014FCF027C821DF
S31508004BFC40F63C7240F674634FF4A076012560606B
S31508004C0CA4F89070A4F892602560A4F88410A4F80F
S31508004C1C8810A4F88620A4F88A20A4F88C30A4F866
S31508004C2C8E3003B0F0BD00BF289B0720A5490008AD
S31508004C3C486000083149000830B5054683B008209D
S31508004C4C00F01EFC0A4C456001230360024608214D
S31508004C5C207A00F033FC01AA6946607A00F03CFC25
S31508004C6C0198046800F01EFC204603B030BD00BF56
S31508004C7C289B072070B40C4E00233446A56A0C34C6
S31508004C8C3DB10133082BF9D16FF00305284670BCEA
S31508004C9C704703EB430306EB830383F824009962FE
S31508004CAC2846DA6270BC7047289B072010B5044C5E
S31508004CBC64222046002100F040FD0123237010BD1C
S31508004CCCBC9B0720854600980199029A039B049C75
S31508004CDC059D069E079FDDF82080DDF82490DDF8FB
S31508004CEC28A0DDF82CB0DDF830C00DB000BD854627
S31508004CFCBDE8F08F2DE9F04FEFF30580EFF308814F
S31508004D0C00F0E2F9BDE8F08F0E4B1B68BBB19A6A4E
S31508004D1CD1070FD430B4DD690B49E8000C18646868
S31508004D2C54B12360014442F001024B6000209A62A0
S31508004D3C30BC70470120704741F83530F2E74FF028
S31508004D4CFF307047209C0720C89E07202C4A136802
S31508004D5C0133B3F57A7F2DE9F043136004D1536818
S31508004D6C0021013382E80A00DFF89CE0DEF80040F7
S31508004D7C44B30027DEF804502248BC463E46A046FB
S31508004D8C23469A6802BBD3F81C904FEAC9028118CD
S31508004D9C496801B30B60996AD3F80490024441F050
S31508004DAC01019C4253609962C8F8049016D09D4242
S31508004DBC19D05E60D8F80430002BE2D1BCF1000F94
S31508004DCC18D1D7B9BDE8F083013A9A6098465B6862
S31508004DDC002BD6D1F2E740F83930DCE764682CB101
S31508004DEC4FF0010CE5E745460127E2E70127BC46EB
S31508004DFC2546DEE7CEF80040E3E7CEF80450E1E7B7
S31508004E0CE09D0720C89E072044A307200346406858
S31508004E1C026810B45A609AB11A684468D26B0021B9
S31508004E2C01605168D46009B184680C6092680AB153
S31508004E3CC168116000221A605DF8044B00F0C8BA0C
S31508004E4C9A60E9E72DE9F04FDFF8588183B04746B9
S31508004E5C0024FD6A443745B101340F2CF9D14FF0C3
S31508004E6CFF35284603B0BDE8F08F4FEA041A994679
S31508004E7C0AEB04034FEA830B08EB0B070E46019269
S31508004E8C009044222946384600F057FC0BF10C00DA
S31508004E9C3146404400F059FC3D4BBD621E68019BEF
S31508004EACFB61009BFB620C9B3B630D9B7B63304653
S31508004EBC4A46294648F80B5000F03FFC354A344917
S31508004ECC1368C7F824904E440E603E6293BB46F8AE
S31508004EDC0C3C46F8103C46F8143C46F8183C46F888
S31508004EEC1C3C46F8203C46F8243C46F8283C46F838
S31508004EFC2C3C46F8303C46F8343C46F8383C2648B8
S31508004F0C264946F83C7C012346F8040C46F8081C4E
S31508004F1C13603C3E3D46544408EB8408C8F8406090
S31508004F2CFFF7F2FE1E4B1F60FFF7EEFE284603B096
S31508004F3CBDE8F08F184B46F8043C184A46F8105C46
S31508004F4C4FF080716FF0060346F8145C46F8185C4F
S31508004F5C46F81C5C46F8205C46F82C5C46F8305C37
S31508004F6C46F8345C46F8385C46F83C5C46F8405CD7
S31508004F7C46F8445C46F8485C46F8247C46F8081C17
S31508004F8C46F80C2C46F8283C3D46483EC3E700BF7D
S31508004F9C00000420DC9D0720B54F0008B94F000817
S31508004FAC209C0720489F072000F046BA08B5416B9D
S31508004FBCC36A006B9847BDE8084000F03DBA00BFCD
S31508004FCC2DE9F04F85B000242E4E03932E4DDDF8B7
S31508004FDC38B0DDF83CA088469146074600F0AAF999
S31508004FEC214680222948346000F0A7FB21464FF45D
S31508004FFC7F72274800F0A1FB21464FF4DC72284645
S3150800500C00F09BFB2146E022224800F096FB224941
S3150800501C224A0C604C6014605460FFF7BFFA204AB1
S3150800502CEA62FFF771FE1F4AEA63FFF76DFE224636
S3150800503C04216FF00400FBF7F3F8039BCDF800B0DE
S3150800504C4A46CDF804A041463846FFF7FBFE164BF8
S3150800505C164A1B683060A2FB03239B09013BB3F17C
S3150800506C807F08D2124A134953605025072381F8CA
S3150800507C235094601360006C05B0BDE8F04FFFF741
S3150800508C21BE00BF209C0720249C0720C89E072011
S3150800509C489F0720E89D0720E09D072044A307208A
S315080050ACC1520008594D000844000420D34D621023
S315080050BC10E000E000ED00E008B5024800F0F4FA54
S315080050CCFEE700BF8460000838B5134C23680A460F
S315080050DC196493F838100546FFF774FA20680C30F3
S315080050ECFFF7C4FA0D4B53F8253003B198470C4A11
S315080050FC002352F8330020B90133102BF9D1FFF7EE
S3150800510CDBFF016C20600C30FFF7D2FA2368186CB1
S3150800511CBDE83840FFF7EBBD209C0720249C0720F0
S3150800512CC89E07202DE9F0470C4682B00C2832D8C9
S3150800513CDFE800F0414A5A5F626C727D85078DA1E3
S3150800514C3400DFF860810D784E68D1F80890544F1A
S3150800515CFFF7DAFD1020D8F800A000F013F92D019E
S3150800516C7B19002800F09980002202609A68C0F822
S3150800517C04A08660C0F80C90002A00F08A801060A3
S3150800518C98607A5932B11846C8F80020FFF73EFEE7
S3150800519CFFF7BAFDE66002B0BDE8F087414B424A1C
S315080051AC1B68516820689860002974D04B600021F0
S315080051BC53606160EFE7666925690FC98DE8600081
S315080051CCFFF740FEA061E6E7364C20680C3000F08D
S315080051DC6BFA364800F068FA20684422002102B0BF
S315080051ECBDE8F04700F0A9BAFFF78EFD002323604F
S315080051FCD1E700230B60CEE70D68FFF785FD294B39
S3150800520C1D60FFF781FD00236360C4E7FFF77CFD93
S3150800521C244B1B682360BEE7224B0A681B68002ACE
S3150800522CDD69A8BFDA61FFF76FFD6560B3E70D6846
S3150800523CFFF76AFD284600F0A5F86060ABE708683A
S3150800524C00F0C6F8FFF760FD00236360A3E70B7850
S3150800525C134A1B01D018D158F9B9124D41682E685A
S3150800526CD65099B1FFF7D2FDFFF74EFD2B68DB6BD5
S3150800527CDB68E3608FE70E4BB1F90020496843F809
S3150800528C2210FFF741FD0023A36084E74FF0FF339C
S3150800529CEFE7586074E7136089E7FFF70DFF00BF67
S315080052ACE89D0720209C072044A307207C60000863
S315080052BC249C07200E4B1B689A6A93F83800D96B06
S315080052CC12F0010F0ED070B4DE691C68094D45F852
S315080052DC36404CB1002422F001021C609A6270BC64
S315080052ECFFF720BFFFF71EBF05EBC6056C60F1E79D
S315080052FC209C0720C89E0720034B1B6883F83800A0
S3150800530CD96300DF00BF7047209C0720024B0022A0
S3150800531C1A60FFF707BF00BF209C0720014B1868CF
S3150800532C704700BFE09D0720014B5868704700BFC7
S3150800533CE09D0720F0B5114CDFF844E004F13C0C75
S3150800534C002654F8042CDEF80030002A10DD184626
S3150800535C254600212B605E601E6014E9840001312D
S3150800536C1044B9425A601D46CEF800001344F1DBCE
S3150800537C0C34A445E5D10020F0BD00BF1000042074
S3150800538C0400042010B5114C2368083B83420ED246
S3150800539C21460122CB68083B834201F10C0107D256
S315080053AC0132052AF6D1FFF787FE002010BD002230
S315080053BC02EB420204EB82029368002BF3D01846E8
S315080053CC1B689360002340F8083B10BD08000420B6
S315080053DC30B40F4D50F8044C2B689C420CD02A461E
S315080053EC0123D168A14202F10C0206D00133052B28
S315080053FCF7D130BCFFF760BE002303EB430305EB84
S3150800540C830330BC9A6840F8082D9860704700BF33
S3150800541C0800042030B589B0019002910C9D0D9CB2
S3150800542C039201A90020049305950694FFF764FFDF
S3150800543C079809B030BD00BF00210120FFF75CBFFB
S3150800544C00B589B001A90320FFF756FF019809B0EA
S3150800545C5DF804FB00B589B001A90520FFF74CFFE0
S3150800546C019809B05DF804FB00B589B008A941F8A4
S3150800547C1C0D0620FFF740FF029809B05DF804FBE7
S3150800548C00B5024689B0EFF311834FF0AA3301A990
S3150800549C072001920293FFF72FFF029809B05DF8D7
S315080054AC04FB00BF00B589B008A941F81C0D0820FB
S315080054BCFFF722FF029809B05DF804FB00B589B026
S315080054CC8DF804000291092001A90392FFF714FF35
S315080054DC049809B05DF804FB00B589B08DF8040092
S315080054EC02910A2001A90392FFF706FF049809B056
S315080054FC5DF804FB00B589B0ADF8040002910B20E9
