S01000002E5C53797374656D2E7372656305
S3150800000000000320654A0008B54A0008B54A0008FA
S31508000010B54A0008B54A0008B54A000800000000BD
S31508000020000000000000000000000000513B00082E
S31508000030B54A000800000000513B0008513B000883
S31508000040513B0008513B0008513B0008513B000852
S31508000050513B0008513B0008513B0008513B000842
S31508000060513B0008513B0008513B0008513B000832
S31508000070513B0008513B0008513B0008513B000822
S31508000080513B0008513B0008513B0008513B000812
S31508000090513B0008513B0008513B0008513B000802
S315080000A0513B0008513B0008513B0008513B0008F2
S315080000B0513B0008513B0008513B0008513B0008E2
S315080000C0513B0008513B0008513B0008513B0008D2
S315080000D0513B0008513B0008513B0008513B0008C2
S315080000E0513B0008513B0008513B0008513B0008B2
S315080000F0513B0008513B0008513B00080000000036
S31508000100513B0008513B0008513B0008513B000891
S31508000110513B0008513B0008513B0008513B000881
S31508000120513B0008513B0008513B0008513B000871
S31508000130513B0008513B0008513B0008513B000861
S31508000140513B0008513B0008513B0008513B000851
S31508000150513B0008513B0008513B0008513B000841
S31508000160513B0008513B0008513B0008513B000831
S31508000170513B0008513B0008000000000000000049
S31508000180513B0008513B0008513B0008513B000811
S31508000190513B0008513B0008000000000000000029
S315080001A00000000000000000513B0008513B000819
S311080001B0513B0008513B0008513B000879
S315080001BC10B5054C237833B9044B13B10448AFF387
S315080001CC00800123237010BD4800002000000000A9
S315080001DCF44B000808B5034B1BB103490348AFF3AE
S315080001EC008008BD000000004C000020F44B0008FD
S315080001FC034613F8012B002AFBD1181A013870474D
S3150800020C80B400AF034B1B681846BD465DF8047BEB
S3150800021C704700BF3007002080B400AF044BDB6882
S3150800022C1B0A03F007031846BD465DF8047B7047A6
S3150800023C00ED00E080B483B000AF0346FB710949BA
S3150800024C97F907305B09FA7902F01F02012000FAC8
S3150800025C02F241F8232000BF0C37BD465DF8047B3B
S3150800026C704700BF00E100E080B483B000AF0346DE
S3150800027C3960FB7197F90730002B0BDA0D49FB79BE
S3150800028C03F00F03043B3A68D2B21201D2B20B4404
S3150800029C1A7609E0084997F907303A68D2B212017A
S315080002ACD2B20B4483F8002300BF0C37BD465DF869
S315080002BC047B704700ED00E000E100E080B489B0F3
S315080002CC00AFF860B9607A60FB6803F00703FB615E
S315080002DCFB69C3F10703042B28BF0423BB61FB6925
S315080002EC0433062B02D9FB69033B00E000237B6130
S315080002FC0122BB6902FA03F35A1EBB681A407B69D2
S3150800030C9A4001217B6901FA03F3591E7B680B405D
S3150800031C134318462437BD465DF8047B704780B5F1
S3150800032C86B000AF0346B9607A60FB7300237B6125
S3150800033CFFF772FF78617A68B9687869FFF7BEFFCC
S3150800034C024697F90F3011461846FFF78DFF00BF86
S3150800035C1837BD4680BD80B582B000AF0346FB7129
S3150800036C97F907301846FFF765FF00BF0837BD46F3
S3150800037C80BD80B584B000AF78600023FB737B68C2
S3150800038C93F82530DBB2022B05D07B680422DA639E
S3150800039C0123FB7347E07B681B687A68126812684E
S315080003AC22F00E021A607B681B687A68126812685B
S315080003BC22F001021A607B689B6C7A68926C126850
S315080003CC22F480721A607B681B6C7A68526C02F095
S315080003DC1C02012101FA02F25A607B68DB6C7A680E
S315080003EC126D5A607B685B6D002B0CD07B685B6D5D
S315080003FC7A68526D126822F480721A607B689B6D5B
S3150800040C7A68D26D5A607B68012283F825207B684E
S3150800041C002283F824207B689B6B002B03D07B6817
S3150800042C9B6B78689847FB7B18461037BD4680BD92
S3150800043C80B483B000AF78607B6893F82530DBB264
S3150800044C18460C37BD465DF8047B704780B487B0F8
S3150800045C00AF7860396000237B6166E13B681A68F7
S3150800046C01217B6901FA03F31340FB60FB68002B3F
S3150800047C00F058813B685B6803F00303012B05D039
S3150800048C3B685B6803F00303022B30D17B689B68DF
S3150800049C3B617B695B00032202FA03F3DB433A698F
S315080004AC13403B613B68DA687B695B0002FA03F32D
S315080004BC3A6913433B617B683A699A607B685B6867
S315080004CC3B6101227B6902FA03F3DB433A69134069
S315080004DC3B613B685B681B0903F001027B6902FA06
S315080004EC03F33A6913433B617B683A695A603B6884
S315080004FC5B6803F00303032B17D07B68DB683B614F
S3150800050C7B695B00032202FA03F3DB433A69134067
S3150800051C3B613B689A687B695B0002FA03F33A69AC
S3150800052C13433B617B683A69DA603B685B6803F0A6
S3150800053C0303022B23D17B69DA087B68083253F84C
S3150800054C22303B617B6903F007039B000F2202FAFA
S3150800055C03F3DB433A6913403B613B681A697B69D1
S3150800056C03F007039B0002FA03F33A6913433B6152
S3150800057C7B69DA087B680832396943F822107B688C
S3150800058C1B683B617B695B00032202FA03F3DB43BE
S3150800059C3A6913403B613B685B6803F003027B696D
S315080005AC5B0002FA03F33A6913433B617B683A69C9
S315080005BC1A603B685B6803F44033002B00F0B2808A
S315080005CC614A614B1B6E43F0010313665E4B1B6E4F
S315080005DC03F00103BB60BB685C4A7B699B0802336A
S315080005EC52F823303B617B6903F003039B000F220F
S315080005FC02FA03F3DB433A6913403B617B68B3F1B8
S3150800060C904F2BD07B68524A934225D07B68514A2F
S3150800061C93421FD07B68504A934219D07B684F4A45
S3150800062C934213D07B684E4A93420DD07B684D4A51
S3150800063C934207D07B684C4A934201D107230EE0BC
S3150800064C08230CE006230AE0052308E0042306E049
S3150800065C032304E0022302E0012300E000237A6965
S3150800066C02F00302920093403A6913433B613749FF
S3150800067C7B699B0802333A6941F823203B4B9B68FC
S3150800068C3B61FB68DB433A6913403B613B685B683B
S3150800069C03F48013002B03D03A69FB6813433B61C0
S315080006AC324A3B699360314BDB683B61FB68DB4341
S315080006BC3A6913403B613B685B6803F40013002BF3
S315080006CC03D03A69FB6813433B61284A3B69D360FC
S315080006DC264B5B683B61FB68DB433A6913403B611D
S315080006EC3B685B6803F40033002B03D03A69FB685C
S315080006FC13433B611D4A3B6953601C4B1B683B61AA
S3150800070CFB68DB433A6913403B613B685B6803F45F
S3150800071C8033002B03D03A69FB6813433B61134AB9
S3150800072C3B6913607B6901337B613B681A687B699B
S3150800073C22FA03F3002B7FF491AE00BF1C37BD469B
S3150800074C5DF8047B704700BF0010024000000140B2
S3150800075C0004004800080048000C00480010004837
S3150800076C0014004800180048001C0048000401400A
S3150800077C80B485B000AF78600B467B807B681A69BD
S3150800078C7B881340002B02D00123FB7301E0002366
S3150800079CFB73FB7B18461437BD465DF8047B704724
S315080007AC80B582B000AF78607B68002B01D101233D
S315080007BC80E07B6893F84130DBB2002B06D17B686E
S315080007CC002283F84020786800F078F87B682422A9
S315080007DC83F841207B681B687A681268126822F0D5
S315080007EC01021A607B681B687A68526822F070628C
S315080007FC1A617B681B687A681268926822F4004250
S3150800080C9A607B68DB68012B07D17B681B687A6862
S3150800081C926842F400429A6006E07B681B687A6824
S3150800082C926842F404429A607B68DB68022B04D116
S3150800083C7B681B684FF400625A607B681A687B6891
S3150800084C1B685B6843F0007343F4004353607B6892
S3150800085C1B687A681268D26822F40042DA607B68F0
S3150800086C1B687A6811697A68526911437A689269C1
S3150800087C12020A43DA607B681B687A68D1697A685F
S3150800088C126A0A431A607B681B687A6812681268CF
S3150800089C42F001021A607B6800225A647B682022A7
S315080008AC83F841207B6800221A637B68002283F850
S315080008BC4220002318460837BD4680BD80B483B055
S315080008CC00AF786000BF0C37BD465DF8047B7047F7
S315080008DC80B588B002AFF8607A601A460B467B8101
S315080008EC13463B81304AFB681360FB6893F841302A
S315080008FCDBB2202B53D1FB681B689B6903F40043BE
S3150800090CB3F5004F01D102234AE0FB6893F8403057
S3150800091C012B01D1022343E0FB68012283F8402016
S3150800092CFB68212283F84120FB68102283F84220B9
S3150800093CFB6800225A64FB687A685A62FB683A8933
S3150800094C5A85FB68194ADA62FB68194A5A63FB68C6
S3150800095C5B8D9BB2FF2B06D9FB68FF221A854FF0DD
S3150800096C80737B6107E0FB685B8D9AB2FB681A851E
S3150800097C4FF000737B61FB681B8DDAB279890D4BDE
S3150800098C00937B69F86801F071F9FB68002283F81B
S3150800099C40200121F86801F099F9002300E00223B0
S315080009AC18461837BD4680BD640000200000FFFFBE
S315080009BCD90B00080020008080B584B000AF7860A1
S315080009CC7B681B689B69FB607B681B681B68BB6044
S315080009DC7B685B6B002B05D07B685B6BBA68F96828
S315080009EC7868984700BF1037BD4680BD80B586B07D
S315080009FC00AF78607B681B689B697B617B681B68AA
S31508000A0C1B683B617B6903F48073002B0FD03B6931
S31508000A1C03F08003002B0AD07B685B6C43F0010261
S31508000A2C7B685A647B681B684FF48072DA617B6951
S31508000A3C03F48063002B0FD03B6903F08003002B73
S31508000A4C0AD07B685B6C43F008027B685A647B6847
S31508000A5C1B684FF48062DA617B6903F40073002B20
S31508000A6C0FD03B6903F08003002B0AD07B685B6CC4
S31508000A7C43F002027B685A647B681B684FF4007269
S31508000A8CDA617B685B6CFB60FB6803F00B03002B7D
S31508000A9C03D0F968786800F0AFFF00BF1837BD4679
S31508000AAC80BD000080B500AF054B1B68002B04D039
S31508000ABC034B1B681846FFF77FFF00BF80BD00BFBE
S31508000ACC6400002080B500AF054B1B68002B04D0D2
S31508000ADC034B1B681846FFF789FF00BF80BD00BF94
S31508000AEC6400002080B483B000AF786000BF0C3778
S31508000AFCBD465DF8047B704780B483B000AF786060
S31508000B0C00BF0C37BD465DF8047B704780B483B0D4
S31508000B1C00AF786000BF0C37BD465DF8047B7047A4
S31508000B2C80B483B000AF786000BF0C37BD465DF863
S31508000B3C047B704780B483B000AF78600B46FB70BB
S31508000B4C13463B8000BF0C37BD465DF8047B7047E7
S31508000B5C80B483B000AF786000BF0C37BD465DF833
S31508000B6C047B704780B483B000AF786000BF0C3745
S31508000B7CBD465DF8047B704780B483B000AF7860DF
S31508000B8C00BF0C37BD465DF8047B704780B483B054
S31508000B9C00AF786000BF0C37BD465DF8047B704724
S31508000BAC80B483B000AF786000BF0C37BD465DF8E3
S31508000BBC047B704780B483B000AF78607B685B6C4D
S31508000BCC18460C37BD465DF8047B704780B588B06F
S31508000BDC02AFF860B9607A60BB687B61FB6893F812
S31508000BEC4030012B01D1022309E1FB68012283F86D
S31508000BFC40207B6903F01003002B12D07B6803F0AE
S31508000C0C1003002B0DD0FB681B681022DA61FB68F9
S31508000C1C5B6C43F00402FB685A64F86800F0E3FF67
S31508000C2CDAE07B6903F00403002B22D07B6803F01F
S31508000C3C0403002B1DD07B6923F004037B61FB683E
S31508000C4C5B6AFA681268526AD2B21A70FB685B6AF7
S31508000C5C5A1CFB685A62FB681B8D013B9AB2FB68EF
S31508000C6C1A85FB685B8D9BB2013B9AB2FB685A8569
S31508000C7CB2E07B6903F00203002B1DD07B6803F0FE
S31508000C8C0203002B18D0FB681B68FA68526A1278A4
S31508000C9C9A62FB685B6A5A1CFB685A62FB681B8D76
S31508000CAC013B9AB2FB681A85FB685B8D9BB2013BCC
S31508000CBC9AB2FB685A858FE07B6903F08003002B98
S31508000CCC5DD07B6803F04003002B58D0FB685B8D26
S31508000CDC9BB2002B41D0FB681B8D002B3DD1FB68CA
S31508000CEC1B685B689BB2C3F309037B82FB685B8D4D
S31508000CFC9BB2FF2B0ED9FB68FF221A85FB681B8D4E
S31508000D0CDAB2798A002300934FF08073F86800F002
S31508000D1CADFF33E0FB685B8D9AB2FB681A85FB68FE
S31508000D2CDB6A13F5803F0CD0FB681B8DDAB2FB68C7
S31508000D3CD86A798A002300930346F86800F096FF70
S31508000D4C1CE0FB681B8DDAB2798A002300934FF0FE
S31508000D5C0073F86800F08AFF10E0FB681B685B6894
S31508000D6C03F00073B3F1007F03D0F86800F088FB3A
S31508000D7C32E04021F86800F03FFE2DE02CE07B695C
S31508000D8C03F04003002B27D07B6803F04003002BAD
S31508000D9C22D0FB685B8D9BB2002B19D1FB681B68B4
S31508000DAC5B6803F00073B3F1007F15D0FB68DB6A50
S31508000DBC13F5803F08D1FB681B68FA6812685268FD
S31508000DCC42F480425A6007E0F86800F059FB03E0E9
S31508000DDC4021F86800F010FE7B6903F02003002B15
S31508000DEC08D07B6803F02003002B03D07969F868D8
S31508000DFC00F0E0FBFB68002283F84020002318462D
S31508000E0C1837BD4680BD80B586B000AFF860B960AE
S31508000E1C7A60FB68DB6A7B61BB683B61FB6893F8AD
S31508000E2C4030012B01D10223E1E0FB68012283F853
S31508000E3C40203B6903F02003002B08D07B6803F0A5
S31508000E4C2003002B03D03969F86800F07BFC3B695A
S31508000E5C03F01003002B4BD07B6803F01003002B18
S31508000E6C46D0FB685B8D9BB2002B28D1FB6893F8A8
S31508000E7C4130DBB2282B08D17B69B3F1007F04D152
S31508000E8C3969F86800F064FD31E0FB6893F8413085
S31508000E9CDBB2292B0ED17B6913F5803F0AD0FB6890
S31508000EAC1B681022DA61F86800F09DFEF86800F0FD
S31508000EBC24FB1CE0FB681B681022DA618FE0FB68D8
S31508000ECC1B681022DA61FB685B6C43F00402FB6852
S31508000EDC5A647B69002B03D07B69B3F1807F7ED182
S31508000EECFB685B6C1946F86800F086FD77E076E0DF
S31508000EFC3B6903F00403002B2FD07B6803F0040333
S31508000F0C002B2AD0FB685B8D9BB2002B18D0FB6894
S31508000F1C5B6AFA681268526AD2B21A70FB685B6A24
S31508000F2C5A1CFB685A62FB681B8D013B9AB2FB681C
S31508000F3C1A85FB685B8D9BB2013B9AB2FB685A8596
S31508000F4CFB685B8D9BB2002B4BD17B6913F5803FFD
S31508000F5C47D0F86800F0D1FA43E03B6903F0080380
S31508000F6C002B09D07B6803F00803002B04D03969E1
S31508000F7CF86800F001FA35E03B6903F00203002B30
S31508000F8C30D07B6803F00203002B2BD0FB685B8DFB
S31508000F9C9BB2002B18D0FB681B68FA68526A127849
S31508000FAC9A62FB685B6A5A1CFB685A62FB685B8D23
S31508000FBC9BB2013B9AB2FB685A85FB681B8D013BB9
S31508000FCC9AB2FB681A850DE07B69B3F1807F02D073
S31508000FDC7B69002B06D1F86800F08FFA02E000BF97
S31508000FEC00E000BFFB68002283F840200023184667
S31508000FFC1837BD4680BD80B588B002AFF860B960B9
S3150800100C7A60FB6893F84030012B01D10223D9E0B2
S3150800101CFB68012283F84020BB6803F01003002B01
S3150800102C16D07B6803F01003002B11D0FB681B68E5
S3150800103C1022DA61FB685B6C43F00402FB685A64A5
S3150800104C2021F86800F042FEF86800F0CCFDB4E008
S3150800105CBB6803F08003002B71D07B6803F0400358
S3150800106C002B6CD0FB681B68FA681268126822F0B1
S3150800107C40021A60FB685B8D9BB2002B4ED0FB6856
S3150800108C1B685B689BB2C3F309037B82FB685B8DA9
S3150800109C9BB2FF2B06D9FB68FF221A854FF080738B
S315080010AC7B6110E0FB685B8D9AB2FB681A85FB685E
S315080010BCDB6A13F5803F03D0FB68DB6A7B6102E0D1
S315080010CC4FF000737B61FB681B8DDAB2798A0023BB
S315080010DC00937B69F86800F0C9FDFB685B8D9AB2D2
S315080010ECFB681B8DD31A9AB2FB685A85FB6893F872
S315080010FC4130DBB2222B08D1FB681B68FA681268F0
S3150800110C126842F400421A6057E0FB681B68FA68DA
S3150800111C1268126842F480421A604EE0FB681B683B
S3150800112C5B6803F00073B3F1007F03D0F86800F036
S3150800113CA7F942E04021F86800F05EFC3DE0BB6888
S3150800114C03F04003002B28D07B6803F04003002BE8
S3150800115C23D0FB685B8D9BB2002B19D1FB681B68EF
S3150800116C5B6803F00073B3F1007F25D0FB68DB6A7C
S3150800117C13F5803F08D1FB681B68FA681268526839
S3150800118C42F480425A6017E0F86800F079F913E0E7
S3150800119C4021F86800F030FC0EE0BB6803F0200331
S315080011AC002B0AD07B6803F02003002B05D0B96806
S315080011BCF86800F0FFF900E000BFFB68002283F82E
S315080011CC4020002318461837BD4680BD80B588B028
S315080011DC00AFF860B9607A60FB68DB6ABB61002314
S315080011ECFB61FB6893F84030012B01D10223BFE069
S315080011FCFB68012283F84020BB6803F02003002B10
S3150800120C08D07B6803F02003002B03D0B968F86874
S3150800121C00F098FABB6803F01003002B00F09580D9
S3150800122C7B6803F01003002B00F08F807B6803F4B7
S3150800123C8043002B04D17B6803F40043002B7DD03C
S3150800124CFB68DB6B002B0CD07B6803F40043002B8C
S3150800125C07D0FB68DB6B1B685B68002B01D101238D
S3150800126CFB61FB689B6B002B0CD07B6803F48043FB
S3150800127C002B07D0FB689B6B1B685B68002B01D1A6
S3150800128C0123FB61FB69012B28D1FB6893F84130DC
S3150800129CDBB2282B08D1BB69B3F1007F04D1B9683E
S315080012ACF86800F055FB48E0FB6893F84130DBB270
S315080012BC292B0ED1BB6913F5803F0AD0FB681B6836
S315080012CC1022DA61F86800F08EFCF86800F015F95F
S315080012DC33E0FB681B681022DA6134E0FB681B6894
S315080012EC1022DA61FB685B6C43F00402FB685A64F3
S315080012FCFB6893F84130FB75BB69002B03D0BB69BF
S3150800130CB3F1807F1FD1FB7D212B02D0FB7D292BCE
S3150800131C03D1FB6821221A6308E0FB7D222B02D03D
S3150800132CFB7D2A2B02D1FB6822221A63FB685B6CB5
S3150800133C1946F86800F060FB05E004E0FB681B68DA
S3150800134C1022DA610FE000BF0DE0BB6803F008035A
S3150800135C002B08D07B6803F00803002B03D0B96870
S3150800136CF86800F009F8FB68002283F8402000238F
S3150800137C18462037BD4680BD80B584B000AF78606E
S3150800138C39607B6893F84130DBB203F02803282BCD
S3150800139C6AD17B681B689B691B0CDBB203F00103E3
S315080013ACFB737B681B689B691B0C9BB203F0FE03E3
S315080013BCBB817B681B689B689BB2C3F309037B8163
S315080013CC7B681B68DB689BB203F0FE033B817B687A
S315080013DCDB68022B38D17B89DB099AB2BB8953406F
S315080013EC9BB203F00603002B1CD17B89BB817B685F
S315080013FC9B6C5A1C7B689A647B689B6C022B3BD152
S3150800140C7B6800229A647B681B680822DA617B6811
S3150800141C002283F84020BA89FB7B19467868FFF7C7
S3150800142C89FB29E03B89BB814FF40041786800F0C1
S3150800143CB7FC7B68002283F84020BA89FB7B1946E7
S3150800144C7868FFF777FB17E04FF40041786800F0EF
S3150800145CA7FC7B68002283F84020BA89FB7B1946D7
S3150800146C7868FFF767FB07E07B681B680822DA6178
S3150800147C7B68002283F8402000BF1037BD4680BD2C
S3150800148C80B582B000AF78607B68002283F8422072
S3150800149C7B6893F84130DBB2212B15D17B6820226F
S315080014AC83F841207B6811221A637B6800225A63F1
S315080014BC0121786800F074FC7B68002283F84020D0
S315080014CC7868FFF70FFB14E07B68202283F841202D
S315080014DC7B6812221A637B6800225A630221786899
S315080014EC00F05EFC7B68002283F840207868FFF7E2
S315080014FC03FB00BF0837BD4680BD80B584B000AF7E
S3150800150C78607B681B681B68FB607B68002283F825
S3150800151C4220FB6803F48043002B08D07B681B68C9
S3150800152C7A681268126822F480421A600CE0FB682A
S3150800153C03F40043002B07D07B681B687A68126893
S3150800154C126822F400421A607B6893F84130DBB2C9
S3150800155C292B12D17B68282283F841207B6821220B
S3150800156C1A630121786800F01BFC7B68002283F85B
S3150800157C40207868FFF7CAFA17E07B6893F8413081
S3150800158CDBB22A2B11D17B68282283F841207B6891
S3150800159C22221A630221786800F002FC7B6800227A
S315080015AC83F840207868FFF7BBFA00BF1037BD46B2
S315080015BC80BD000080B586B000AF786039603B68A6
S315080015CC7B617B681B682022DA617B6893F8413063
S315080015DCDBB2212B07D10121786800F0E1FB7B688F
S315080015EC11221A630CE07B6893F84130DBB2222B8C
S315080015FC06D10221786800F0D3FB7B6812221A63A5
S3150800160C7B681A687B681B6859684C4B0B4053609F
S3150800161C7B6800225A637B68494ADA627B6903F065
S3150800162C1003002B09D07B681B681022DA617B68D3
S3150800163C5B6C43F004027B685A647B6893F8413010
S3150800164CDBB2602B0AD17B6903F00403002B05D0AF
S3150800165C7B681B685B6ADBB2FB60FB68786800F02A
S3150800166CC2FA7B685B6C3B617B6893F84130DBB2F2
S3150800167C602B02D03B69002B06D07B685B6C194645
S3150800168C786800F0B9F954E07B6893F84130DBB21E
S3150800169C212B24D17B68202283F841207B680022E9
S315080016AC1A637B6893F84230DBB2402B0BD17B680C
S315080016BC002283F842207B68002283F84020786851
S315080016CCFFF750FA35E07B68002283F842207B68E6
S315080016DC002283F840207868FFF704FA29E07B6833
S315080016EC93F84130DBB2222B23D17B68202283F876
S315080016FC41207B6800221A637B6893F84230DBB280
S3150800170C402B0BD17B68002283F842207B68002291
S3150800171C83F840207868FFF72FFA0AE07B680022E6
S3150800172C83F842207B68002283F840207868FFF70C
S3150800173CE3F900BF1837BD4680BD00BF00E800FEC0
S3150800174C0000FFFF80B586B000AF786039607B6813
S3150800175C1B681B683B613B687B617B6893F841306F
S3150800176CFB737B681B682022DA61FB7B212B02D07A
S3150800177CFB7B292B08D148F20101786800F010FB95
S3150800178C7B6821221A630DE0FB7B222B02D0FB7BA4
S3150800179C2A2B07D148F20201786800F001FB7B6816
S315080017AC22221A637B681B687A681268526842F4AC
S315080017BC00425A607B681A687B681B685968624BDA
S315080017CC0B405360786800F00EFA3B6903F48043CB
S315080017DC002B13D07B681B687A681268126822F48F
S315080017EC80421A607B689B6B002B1FD07B689B6BB7
S315080017FC1B685B689AB27B685A8517E03B6903F4E9
S3150800180C0043002B12D07B681B687A681268126832
S3150800181C22F400421A607B68DB6B002B06D07B68CF
S3150800182CDB6B1B685B689AB27B685A857B6903F02D
S3150800183C0403002B20D07B6923F004037B617B68AF
S3150800184C5B6A7A681268526AD2B21A707B685B6AEB
S3150800185C5A1C7B685A627B681B8D002B0CD07B68E4
S3150800186C1B8D013B9AB27B681A857B685B8D9BB294
S3150800187C013B9AB27B685A857B685B8D9BB2002BC1
S3150800188C05D07B685B6C43F004027B685A647B6802
S3150800189C002283F842207B6800225A637B685B6CC3
S315080018AC002B10D07B685B6C1946786800F0A4F89E
S315080018BC7B6893F84130DBB2282B41D1796978687B
S315080018CC00F046F83CE07B68DB6A13F5803F14D0E1
S315080018DC7868FFF712FE7B681C4ADA627B6820225E
S315080018EC83F841207B6800221A637B68002283F800
S315080018FC40207868FFF72CF922E07B6893F8413092
S3150800190CDBB2222B0ED17B68202283F841207B6820
S3150800191C00221A637B68002283F840207868FFF758
S3150800192CFFF80DE07B68202283F841207B680022B3
S3150800193C1A637B68002283F840207868FFF7E6F87C
S3150800194C00BF1837BD4680BD00E800FE0000FFFF4B
S3150800195C80B582B000AF786039607B68254ADA6258
S3150800196C7B6800221A637B68202283F841207B68F7
S3150800197C002283F842207B6800225A633B6803F0F6
S3150800198C0403002B22D07B685B6A7A681268526A59
S3150800199CD2B21A707B685B6A5A1C7B685A627B687F
S315080019AC1B8D002B12D07B681B8D013B9AB27B6872
S315080019BC1A857B685B8D9BB2013B9AB27B685A850C
S315080019CC7B685B6C43F004027B685A6448F203013B
S315080019DC786800F0E5F97B681B681022DA617B6889
S315080019EC002283F840207868FFF7B2F800BF083762
S315080019FCBD4680BD0000FFFF80B584B000AF78609F
S31508001A0C39607B6893F84130FB737B68002283F856
S31508001A1C42207B685D4ADA627B6800225A857B68BD
S31508001A2C5A6C3B681A437B685A64FB7B282B05D097
S31508001A3CFB7B292B02D0FB7B2A2B0BD10321786845
S31508001A4C00F0AEF97B68282283F841207B68504A5F
S31508001A5C5A6311E048F20301786800F0A1F97B6833
S31508001A6C93F84130DBB2602B03D07B68202283F8D5
S31508001A7C41207B6800225A637B681B6BBB607B68C2
S31508001A8C9B6B002B39D0BB68112B02D0BB68212B62
S31508001A9C33D17B681B681B6803F48043B3F5804F0E
S31508001AAC07D17B681B687A681268126822F4804230
S31508001ABC1A607B689B6B1846FEF7BAFC0346012B2B
S31508001ACC17D07B689B6B334A9A637B68002283F832
S31508001ADC40207B689B6B1846FEF74BFC0346002B95
S31508001AEC4DD07B689B6B9B6B7A68926B10469847BC
S31508001AFC45E0786800F050F841E07B68DB6B002B1A
S31508001B0C39D0BB68122B02D0BB68222B33D17B6829
S31508001B1C1B681B6803F40043B3F5004F07D17B68B9
S31508001B2C1B687A681268126822F400421A607B688D
S31508001B3CDB6B1846FEF77CFC0346012B17D07B683B
S31508001B4CDB6B144A9A637B68002283F840207B6817
S31508001B5CDB6B1846FEF70DFC0346002B11D07B6891
S31508001B6CDB6B9B6B7A68D26B1046984709E07868F2
S31508001B7C00F012F805E0786800F00EF802E000BFF5
S31508001B8C00E000BF00BF1037BD4680BD0000FFFF58
S31508001B9C130E00083B1C000880B582B000AF7860B5
S31508001BAC7B6893F84130DBB2602B0ED17B68202220
S31508001BBC83F841207B6800221A637B68002283F82D
S31508001BCC40207868FEF7ECFF09E07B6800221A6370
S31508001BDC7B68002283F840207868FEF7D7FF00BFA1
S31508001BEC0837BD4680BD80B483B000AF78607B688B
S31508001BFC1B689B6903F00203022B03D17B681B68E5
S31508001C0C00229A627B681B689B6903F00103012B0F
S31508001C1C07D07B681B687A681268926942F00102E1
S31508001C2C9A6100BF0C37BD465DF8047B704780B5DA
S31508001C3C84B000AF78607B689B6AFB60FB689B6B23
S31508001C4C002B03D0FB689B6B00229A63FB68DB6B4B
S31508001C5C002B03D0FB68DB6B00229A63F868FFF74E
S31508001C6C9BFF00BF1037BD4680BD000080B487B00F
S31508001C7C00AFF8607B600B467B8113467B727B89D1
S31508001C8CC3F309027B7A1B0403F47F031A437B68AC
S31508001C9C1A433B6A134323F000437B61FB681A68BB
S31508001CACFB681B6859683B6A5B0D03F48060064B3E
S31508001CBC0343DB4319407B690B43536000BF1C3756
S31508001CCCBD465DF8047B7047FF63FF0380B485B09F
S31508001CDC00AF78600B467B800023FB607B685B6BF0
S31508001CEC2D4A934204D07B685B6B2C4A93421DD1D8
S31508001CFCB7F90230002B03DAFB6843F0B803FB6034
S31508001D0C7B88102B03D1FB6843F09003FB607B8820
S31508001D1C202B03D1FB6843F06003FB607B88402BC8
S31508001D2C2CD1FB6843F04003FB6027E0B7F902307F
S31508001D3C002B03DAFB6843F0B803FB607B8803F0DF
S31508001D4C0103002B03D0FB6843F0F203FB607B888E
S31508001D5C03F00203002B03D0FB6843F0F403FB608B
S31508001D6C7B88102B03D1FB6843F09003FB607B88C0
S31508001D7C202B03D1FB6843F02003FB607B681B68B0
S31508001D8C7A6812681168FA680A431A6000BF143731
S31508001D9CBD465DF8047B704703100008D91100088E
S31508001DAC80B485B000AF78600B467B800023FB605F
S31508001DBC7B8803F00103002B0FD0FB6843F042032A
S31508001DCCFB607B6893F84130DBB203F02803282BC1
S31508001DDC03D0FB6843F0B003FB607B8803F0020377
S31508001DEC002B0FD0FB6843F04403FB607B6893F829
S31508001DFC4130DBB203F02803282B03D0FB6843F0F1
S31508001E0CB003FB60B7F90230002B03DAFB6843F02A
S31508001E1CB803FB607B88102B03D1FB6843F0900357
S31508001E2CFB607B88202B03D1FB6843F02003FB6007
S31508001E3C7B88402B03D1FB6843F04003FB607B682F
S31508001E4C1B687A6812681168FA68D2430A401A60E5
S31508001E5C00BF1437BD465DF8047B704780B483B069
S31508001E6C00AF786039607B6893F84130DBB2202B81
S31508001E7C38D17B6893F84030012B01D1022332E02C
S31508001E8C7B68012283F840207B68242283F8412052
S31508001E9C7B681B687A681268126822F001021A605D
S31508001EAC7B681B687A681268126822F480521A607A
S31508001EBC7B681B687A68126811683A680A431A6064
S31508001ECC7B681B687A681268126842F001021A600D
S31508001EDC7B68202283F841207B68002283F8402007
S31508001EEC002300E0022318460C37BD465DF8047B38
S31508001EFC704780B485B000AF786039607B6893F81A
S31508001F0C4130DBB2202B39D17B6893F84030012B5A
S31508001F1C01D1022333E07B68012283F840207B68D9
S31508001F2C242283F841207B681B687A681268126839
S31508001F3C22F001021A607B681B681B68FB60FB6851
S31508001F4C23F47063FB603B681B02FA681343FB605F
S31508001F5C7B681B68FA681A607B681B687A68126863
S31508001F6C126842F001021A607B68202283F841202D
S31508001F7C7B68002283F84020002300E002231846E1
S31508001F8C1437BD465DF8047B7047000080B400AF7B
S31508001F9C054A054B5B6843F40073536000BFBD46A6
S31508001FAC5DF8047B704700BF0070004080B586B0B2
S31508001FBC00AF78600023FB740023BB747B681B6836
S31508001FCC03F40063002B3DD07B68DB6E402B0BD0F3
S31508001FDC402B04D8002B0ED0202B15D01DE0602BDF
S31508001FEC1ED0802B1CD018E0864A864BDB6843F43F
S31508001FFC8033D36015E07B6804330021184600F063
S3150800200CFDFA0346FB740CE07B6820330021184666
S3150800201C00F0E4FB0346FB7403E00123FB7400E0C9
S3150800202C00BFFB7C002B0BD17649764BD3F89C3042
S3150800203C23F0E0027B68DB6E1343C1F89C3001E0A9
S3150800204CFB7CBB747B681B6803F48053002B42D063
S3150800205C7B681B6FB3F5007F0FD0B3F5007F05D8EF
S3150800206C002B11D0B3F5807F17D01FE0B3F5407F56
S3150800207C1FD0B3F5806F1CD018E0624A614BDB6841
S3150800208C43F48033D36015E07B680433002118468B
S3150800209C00F0B4FA0346FB740CE07B68203300218D
S315080020AC184600F09BFB0346FB7403E00123FB7404
S315080020BC00E000BFFB7C002B0BD15249514BD3F8E7
S315080020CC9C3023F4E0627B681B6F1343C1F89C3089
S315080020DC01E0FB7CBB747B681B6803F40033002BA4
S315080020EC00F09F8000237B74464B9B6D03F0805356
S315080020FC002B01D1012300E00023002B0DD0414A0F
S3150800210C404B9B6D43F0805393653E4B9B6D03F0A0
S3150800211C8053BB60BB6801237B743B4A3A4B1B68F4
S3150800212C43F480731360FEF76BF8F86009E0FEF76A
S3150800213C67F80246FB68D31A022B02D90323FB74F1
S3150800214C05E0314B1B6803F48073002BEFD0FB7C46
S3150800215C002B5BD12B4BD3F8903003F440737B6187
S3150800216C7B69002B1FD07B68D3F890207B699A4239
S3150800217C19D0244BD3F8903023F440737B61214A51
S3150800218C204BD3F8903043F48033C2F890301D4A74
S3150800219C1C4BD3F8903023F48033C2F89030194A8C
S315080021AC7B69C2F890307B6903F00103002B16D0CB
S315080021BCFEF726F8F8600BE0FEF722F80246FB68F5
S315080021CCD31A41F28832934202D90323FB7406E0F0
S315080021DC0C4BD3F8903003F00203002BECD0FB7CAD
S315080021EC002B0CD10749074BD3F8903023F44072D7
S315080021FC7B68D3F890301343C1F8903008E0FB7C29
S3150800220CBB7405E00010024000700040FB7CBB74F8
S3150800221C7B7C012B05D1A04A9F4B9B6D23F08053E9
S3150800222C93657B681B6803F00103002B0AD09A4957
S3150800223C994BD3F8883023F003027B68DB6B134386
S3150800224CC1F888307B681B6803F00203002B0AD0A0
S3150800225C9149914BD3F8883023F00C027B681B6CA0
S3150800226C1343C1F888307B681B6803F00403002B02
S3150800227C0AD08949884BD3F8883023F030027B681A
S3150800228C5B6C1343C1F888307B681B6803F0080342
S3150800229C002B0AD08049804BD3F8883023F0C00233
S315080022AC7B689B6C1343C1F888307B681B6803F00A
S315080022BC1003002B0AD07849774BD3F8883023F4CF
S315080022CC40727B68DB6C1343C1F888307B681B68EB
S315080022DC03F02003002B0AD06F496F4BD3F88830D4
S315080022EC23F440627B681B6D1343C1F888307B6806
S315080022FC1B6803F40073002B0AD06749664BD3F8A6
S3150800230C883023F440227B685B6E1343C1F888300F
S3150800231C7B681B6803F48063002B0AD05E495E4B0E
S3150800232CD3F8883023F440127B689B6E1343C1F8AC
S3150800233C88307B681B6803F04003002B0AD056498B
S3150800234C554BD3F8883023F440527B685B6D1343A6
S3150800235CC1F888307B681B6803F08003002B0AD011
S3150800236C4D494D4BD3F8883023F440427B689B6D1E
S3150800237C1343C1F888307B681B6803F48073002B01
S3150800238C0AD04549444BD3F8883023F440327B684D
S3150800239CDB6D1343C1F888307B681B6803F4801324
S315080023AC002B0AD03C493C4BD3F89C3023F0030253
S315080023BC7B681B6E1343C1F89C307B681B6803F45F
S315080023CC0053002B28D03449334BD3F8883023F0EC
S315080023DC40627B685B6F1343C1F888307B685B6F20
S315080023ECB3F1006F06D12C4A2B4BDB6843F48013F0
S315080023FCD36011E07B685B6FB3F1806F0CD17B689F
S3150800240C04330121184600F0F9F80346FB74FB7CEB
S3150800241C002B01D0FB7CBB747B681B6803F4002380
S3150800242C002B4DD07B689B6FB3F5804F08D11A4AA9
S3150800243C194BD3F89C3043F48043C2F89C3012E015
S3150800244C154A154BD3F89C3023F48043C2F89C30BC
S3150800245C1149114BD3F8883023F040627B689B6F87
S3150800246C1343C1F888307B689B6FB3F1006F06D1B4
S3150800247C094A094BDB6843F48013D36020E07B6878
S3150800248C9B6FB3F5804F09D1034A034BDB6843F4C2
S3150800249C8033D36014E000BF001002407B689B6F4A
S315080024ACB3F1806F0CD17B6804330121184600F018
S315080024BCA5F80346FB74FB7C002B01D0FB7CBB7494
S315080024CC7B681B6803F48023002B28D04A494A4BA7
S315080024DCD3F8883023F040627B68DB6F1343C1F86E
S315080024EC88307B68DB6FB3F1006F06D1424A424BEA
S315080024FCDB6843F48013D36011E07B68DB6FB3F1C0
S3150800250C806F0CD17B6804330121184600F076F8ED
S3150800251C0346FB74FB7C002B01D0FB7CBB747B68ED
S3150800252C1B6803F48043002B1ED03349324BD3F877
S3150800253C883023F040527B68D3F880301343C1F8B7
S3150800254C88307B68D3F88030B3F1805F0CD17B6818
S3150800255C04330221184600F051F80346FB74FB7C41
S3150800256C002B01D0FB7CBB747B681B6803F480339F
S3150800257C002B0BD02049204BD3F89C3023F00402B7
S3150800258C7B68D3F884301343C1F89C307B681B688E
S3150800259C03F40013002B0BD01749174BD3F89C30B8
S315080025AC23F018027B68D3F888301343C1F89C30A3
S315080025BC7B681B6803F08073002B17D00E490E4BF3
S315080025CCD3F89C3023F440127B68D3F88C30134331
S315080025DCC1F89C307B68D3F88C30B3F5001F05D155
S315080025EC054A054BDB6843F48013D360BB7C18465D
S315080025FC1837BD4680BD00BF0010024080B584B0B8
S3150800260C00AF786039600023FB73704BDB6803F00E
S3150800261C0303002B0ED06D4BDB6803F003027B68BB
S3150800262C1B689A4203D17B681B68002B3FD1012398
S3150800263CFB733CE07B681B68022B0CD0032B13D076
S3150800264C012B20D1614B1B6803F00203002B1DD113
S3150800265C0123FB731AE05D4B1B6803F48063002BA4
S3150800266C16D10123FB7313E0584B1B6803F4003394
S3150800267C002B0FD1554B1B6803F48023002B09D173
S3150800268C0123FB7306E00123FB7304E000BF02E0A1
S3150800269C00BF00E000BFFB7B002B08D14B494B4B1E
S315080026ACDB6823F003027B681B681343CB60FB7B58
S315080026BC002B40F08680454A444B1B6823F0806308
S315080026CC1360FDF79DFDB86009E0FDF799FD02461C
S315080026DCBB68D31A022B02D90323FB7305E03B4BC9
S315080026EC1B6803F00063002BEFD1FB7B002B68D132
S315080026FC3B68002B13D13548344B1A69344B1340BD
S3150800270C7A68926811027A68D268D20611437A6896
S3150800271C5268013A12010A43134303612DE03B68E0
S3150800272C012B15D12948294B1A692A4B13407A686B
S3150800273C926811027A6812695208013A52051143D5
S3150800274C7A685268013A12010A431343036114E08A
S3150800275C1E481E4B1A69204B13407A689268110260
S3150800276C7A6852695208013A520611437A685268D5
S3150800277C013A12010A4313430361144A134B1B68AB
S3150800278C43F080631360FDF73BFDB86009E0FDF785
S3150800279C37FD0246BB68D31A022B02D90323FB73F7
S315080027AC05E00A4B1B6803F00063002BEFD0FB7B9C
S315080027BC002B06D10549054B1A697B689B6913439F
S315080027CC0B61FB7B18461037BD4680BD00100240D6
S315080027DC0F80FF070F809FFF0F80FFF980B584B02D
S315080027EC00AF786039600023FB73704BDB6803F02D
S315080027FC0303002B0ED06D4BDB6803F003027B68DA
S3150800280C1B689A4203D17B681B68002B3FD10123B6
S3150800281CFB733CE07B681B68022B0CD0032B13D094
S3150800282C012B20D1614B1B6803F00203002B1DD131
S3150800283C0123FB731AE05D4B1B6803F48063002BC2
S3150800284C16D10123FB7313E0584B1B6803F40033B2
S3150800285C002B0FD1554B1B6803F48023002B09D191
S3150800286C0123FB7306E00123FB7304E000BF02E0BF
S3150800287C00BF00E000BFFB7B002B08D14B494B4B3C
S3150800288CDB6823F003027B681B681343CB60FB7B76
S3150800289C002B40F08680454A444B1B6823F0805336
S315080028AC1360FDF7ADFCB86009E0FDF7A9FC02461C
S315080028BCBB68D31A022B02D90323FB7305E03B4BE7
S315080028CC1B6803F00053002BEFD1FB7B002B68D160
S315080028DC3B68002B13D13548344B5A69344B13409B
S315080028EC7A68926811027A68D268D20611437A68B5
S315080028FC5268013A12010A43134343612DE03B68BF
S3150800290C012B15D12948294B5A692A4B13407A6849
S3150800291C926811027A6812695208013A52051143F3
S3150800292C7A685268013A12010A431343436114E068
S3150800293C1E481E4B5A69204B13407A68926811023E
S3150800294C7A6852695208013A520611437A685268F3
S3150800295C013A12010A4313434361144A134B1B6889
S3150800296C43F080531360FDF74BFCB86009E0FDF7A4
S3150800297C47FC0246BB68D31A022B02D90323FB7306
S3150800298C05E00A4B1B6803F00053002BEFD0FB7BCA
S3150800299C002B06D10549054B5A697B689B6913437D
S315080029AC4B61FB7B18461037BD4680BD00100240B4
S315080029BC0F80FF070F809FFF0F80FFF980B582B04D
S315080029CC00AF0B4B7B60082001F0E2FF38603B68D8
S315080029DC00221A603B6800225A607B681B7A3A68A8
S315080029EC0821184601F0F6FF00BF0837BD4680BD22
S315080029FC3407002080B582B000AF786000F0F8FA92
S31508002A0C00BF0837BD4680BD80B584B000AF78607E
S31508002A1C0C4BFB60FB689B790A2B08D9FB680322D5
S31508002A2C5A71094800F072F900F0FEFA05E0FB68E5
S31508002A3C9B790133DAB2FB689A7100BF1037BD4631
S31508002A4C80BD00BF70000020BD2D000880B582B087
S31508002A5C00AF0346FB71FB791946002000F0C4F958
S31508002A6C00BF0837BD4680BD80B582B000AF0346AF
S31508002A7CFB71FB791946012000F0B6F900BF08373F
S31508002A8CBD4680BD80B582B000AF0346FB71FB79AD
S31508002A9C1946022000F0A8F900BF0837BD4680BDCC
S31508002AAC80B582B000AF0346FB71FB79194603204B
S31508002ABC00F09AF900BF0837BD4680BD80B584B0D2
S31508002ACC00AF78607B681B889BB2BB813B7B032B72
S31508002ADC2ED801A252F823F0F52A0008072B000875
S31508002AEC192B00082B2B00087B7B002B02D100F03E
S31508002AFCD3FA1EE000F0B4FA1BE07B7B002B02D164
S31508002B0C00F002FB15E000F0E3FA12E07B7B002BE9
S31508002B1C02D100F031FB0CE000F012FB09E07B7BE4
S31508002B2C002B02D100F060FB03E000F041FB00E053
S31508002B3C00BF00BF1037BD4680BD00BF80B584B04E
S31508002B4C00AF78600023FB7307E0FB7B0F4A52F853
S31508002B5C23309847FB7B0133FB73FB7B012BF4D9A2
S31508002B6C0B4800F0C1FC0B4800F0DAFC0A4800F0F0
S31508002B7CF3FC0A4800F00CFD6421094800F094F8AF
S31508002B8CB86000BF1037BD4680BD00BFC84C0008F2
S31508002B9C592A0008752A0008912A0008AD2A000847
S31508002BACBD2D000880B588B000AF78603960264B1B
S31508002BBCFB6108220021F86901F0FEFF01F0CAFE4C
S31508002BCC0246FB691A60FB6906221A71FB69002228
S31508002BDC5A71FB691B7907F10C0207F110011846AB
S31508002BEC01F010FFFB695B791846FB681A681749F0
S31508002BFC03465B000344134451F83330BB61FB694D
S31508002C0C5B791846FB681A68104903465B0003444F
S31508002C1C1344DB000B441B79FB75FB69FA7D5A716F
S31508002C2CFB68184601F0C5FEBB69002B04D0FB688F
S31508002C3C5A68BB6910469847FB7D042BC9D0FB69BB
S31508002C4CFA7D5A71C5E700BF70000020D04C000809
S31508002C5C80B584B000AF786039600A2001F0EAFECE
S31508002C6C104B1B68FB600F4B1B68BB6016E0FB68C0
S31508002C7CDB680A2B07D8FB685B689847FB689A6879
S31508002C8CFB68DA6005E0FB68DB68A3F10A02FB68FF
S31508002C9CDA60FB68BB60FB681B68FB60FB68002B93
S31508002CACE5D1DAE76800002080B584B000AF78601B
S31508002CBC39607B68002B02D14FF0FF3320E01020DF
S31508002CCC01F066FEB860BB687A685A60BB683A68F9
S31508002CDC9A60BB683A68DA60BB6800221A600A4BCD
S31508002CEC1B68FB6003E0084B1B681B68FB60FB68F2
S31508002CFC002BF8D1BB68FB60034ABB681360002342
S31508002D0C18461037BD4680BD6800002080B485B0D3
S31508002D1C00AF78607B68002B02D14FF0FF3322E0BE
S31508002D2C144BBB60134BFB600AE0BB681B685A6804
S31508002D3C7B689A4209D0BB68FB600E4B1B68BB606C
S31508002D4CBB681B68002BF0D100E000BFBB681B6892
S31508002D5C002B02D14FF0FF3305E0BB681B681A68DD
S31508002D6CFB681A60002318461437BD465DF8047BC9
S31508002D7C704700BF6800002080B582B000AF0B4BCF
S31508002D8C7B60082001F004FE38603B6800221A605C
S31508002D9C3B6800225A607B681B793A6808211846FA
S31508002DAC01F018FE00BF0837BD4680BD7000002034
S31508002DBC80B582B000AF0B4B7B60082001F0E8FDB4
S31508002DCC38603B6801221A603B6800225A607B68AF
S31508002DDC1B793A680821184601F0FCFD00BF083734
S31508002DECBD4680BD7000002080B586B000AF034696
S31508002DFC0A46FB711346BB710D4B7B61FB793B7322
S31508002E0CBB797B73082001F0C3FD38613B6902224C
S31508002E1C1A603B6907F10C025A607B691B793A699F
S31508002E2C0821184601F0D6FD00BF1837BD4680BDEF
S31508002E3C7000002080B582B000AF054B7B6000F0B7
S31508002E4CF7FC7B6800229A7100BF0837BD4680BD27
S31508002E5C8407002080B500AF00F084FD064A0021E7
S31508002E6C012000F003FD054A0121022000F0FEFCBA
S31508002E7C00F094FD00BF80BD0C4C0008284C0008DF
S31508002E8C80B582B000AF0D4B7B6000F06BFD0C4A31
S31508002E9C0021012000F0EAFC0A4A0121012000F079
S31508002EACE5FC7B689B79084A1946002000F0DEFC95
S31508002EBC00F074FD00BF0837BD4680BD84070020AE
S31508002ECC444C0008504C0008604C000880B582B091
S31508002EDC00AF0E4B7B607B689B7903F00103002BDC
S31508002EEC0CBF01230023DBB21A467B689A7100F0EB
S31508002EFC39FD7B689B79064A1946002000F0B6FC1A
S31508002F0C00F04CFD00BF0837BD4680BD8407002085
S31508002F1C604C000880B588B000AF78603960244BE7
S31508002F2CBB610023FB77FB7FFB7508220021B86980
S31508002F3C01F042FE01F00EFD0246BB691A60BB6940
S31508002F4C08221A71BB691B7907F10C0207F10801F3
S31508002F5C184601F057FDFA7FFB68196815481346A1
S31508002F6C5B0013449B0013440B4450F833303B610D
S31508002F7CFA7FFB6819680F4813465B0013449B00DD
S31508002F8C13440B44DB0003441B79FB75FB6818469A
S31508002F9C01F00FFDBB69FA7D5A713B69002B01D014
S31508002FAC3B699847FB7D042BCCD0FB7DFB77C9E7A7
S31508002FBC84070020484D000880B582B000AF0B4B43
S31508002FCC7B60082001F0E4FC38603B6800221A603C
S31508002FDC3B6800225A607B681B793A6808211846B8
S31508002FEC01F0F8FC00BF0837BD4680BD84070020F9
S31508002FFC80B582B000AF0B4B7B60082001F0C8FC93
S3150800300C38603B6801221A603B6800225A607B686C
S3150800301C1B793A680821184601F0DCFC00BF083712
S3150800302CBD4680BD8407002080B582B000AF0B4B2F
S3150800303C7B60082001F0ACFC38603B6802221A6001
S3150800304C3B6800225A607B681B793A680821184647
S3150800305C01F0C0FC00BF0837BD4680BD84070020C0
S3150800306C80B582B000AF0B4B7B60082001F090FC5A
S3150800307C38603B6803221A603B6800225A607B68FA
S3150800308C1B793A680821184601F0A4FC00BF0837DA
S3150800309CBD4680BD8407002080B582B000AF0B4BBF
S315080030AC7B60082001F074FC38603B6804221A60C7
S315080030BC3B6800225A607B681B793A6808211846D7
S315080030CC01F088FC00BF0837BD4680BD8407002088
S315080030DC80B582B000AF0B4B7B60082001F058FC22
S315080030EC38603B6805221A603B6800225A607B6888
S315080030FC1B793A680821184601F06CFC00BF0837A2
S3150800310CBD4680BD8407002080B582B000AF0B4B4E
S3150800311C7B60082001F03CFC38603B6806221A608C
S3150800312C3B6800225A607B681B793A680821184666
S3150800313C01F050FC00BF0837BD4680BD840700204F
S3150800314C80B582B000AF0B4B7B60082001F020FCE9
S3150800315C38603B6807221A603B6800225A607B6815
S3150800316C1B793A680821184601F034FC00BF083769
S3150800317CBD4680BD8407002080B582B000AF0B4BDE
S3150800318C7B60082001F004FC38603B6808221A6052
S3150800319C3B6800225A607B681B793A6808211846F6
S315080031AC01F018FC00BF0837BD4680BD8407002017
S315080031BC80B582B000AF0B4B7B60082001F0E8FBB2
S315080031CC38603B6809221A603B6800225A607B68A3
S315080031DC1B793A680821184601F0FCFB00BF083732
S315080031ECBD4680BD8407002080B582B000AF0B4B6E
S315080031FC7B60082001F0CCFB38603B680A221A6019
S3150800320C3B6800225A607B681B793A680821184685
S3150800321C01F0E0FB00BF0837BD4680BD84070020DF
S3150800322C80B588B000AF324BBB613B1D00221A60DB
S3150800323C5A609A60DA601A6104220021B86901F0B2
S3150800324CBBFC0023FB770CE0FA7FB96913465B00DD
S3150800325C13449B000B44043301221A70FB7F013381
S3150800326CFB77FB7F032BEFD901F074FB0246BB6996
S3150800327C1A60FEF78BFE1F4A1E4BDB6C43F01003DD
S3150800328CD3641C4BDB6C03F010033B603B680F23C9
S3150800329C7B604FF44413BB600123FB603B1D19464E
S315080032AC1548FDF7D3F8002200210620FDF737F85C
S315080032BC0620FDF750F8002200210720FDF72FF80D
S315080032CC0720FDF748F8002200210820FDF727F80B
S315080032DC0820FDF740F8002200210920FDF71FF809
S315080032EC0920FDF738F800BF2037BD4680BD00BF62
S315080032FC78000020001002400010004880B584B009
S3150800330C00AF2C4BBB600023FB734CE0FA7B1346D7
S3150800331C5B0013449B00BA68134404337B607B68D8
S3150800332C1B78002B1BD17B685B685A1C7B685A6020
S3150800333C7B685B68642202FB03F33B603B6840F6E0
S3150800334CC41293422CD97B6803221A707B689B683B
S3150800335C002B25D07B689B68C420984720E07B68A7
S3150800336C1B78012B1CD17B685B68002B18D07B68FB
S3150800337C5B68642202FB03F33B607B6800225A609D
S3150800338C3B6840F2DB5293420AD87B6802221A70D9
S3150800339C7B689B68002B03D07B689B68DC2098476E
S315080033ACFB7B0133FB73FB7B032BAFD900BF1037B9
S315080033BCBD4680BD7800002080B584B000AF0E4BAA
S315080033CCFB60FB680433BB600C4B01225A6101217C
S315080033DC0B48FDF7CDF90346FB71FB79002B03D19E
S315080033ECBB6800221A7002E0BB6801221A7000BF83
S315080033FC1037BD4680BD00BF780000200004014090
S3150800340C0010004880B584B000AF0E4BFB60FB681B
S3150800341C1033BB600C4B02225A6102210B48FDF794
S3150800342CA7F90346FB71FB79002B03D1BB68002275
S3150800343C1A7002E0BB6801221A7000BF1037BD462D
S3150800344C80BD00BF78000020000401400010004831
S3150800345C80B584B000AF0E4BFB60FB681C33BB60B9
S3150800346C0C4B04225A6104210B48FDF781F90346DB
S3150800347CFB71FB79002B03D1BB6800221A7002E0A2
S3150800348CBB6801221A7000BF1037BD4680BD00BF4D
S3150800349C78000020000401400010004880B584B074
S315080034AC00AF0E4BFB60FB682833BB600C4B082245
S315080034BC5A6108210B48FDF75BF90346FB71FB794A
S315080034CC002B03D1BB6800221A7002E0BB680122EC
S315080034DC1A7000BF1037BD4680BD00BF78000020AB
S315080034EC000401400010004880B485B000AF786035
S315080034FC0A4BFB60FB680433BB607B68002B02D16C
S3150800350C4FF0FF3303E0BB687A689A6000231846CD
S3150800351C1437BD465DF8047B704700BF7800002061
S3150800352C80B485B000AF78600A4BFB60FB6810333B
S3150800353CBB607B68002B02D14FF0FF3303E0BB68FE
S3150800354C7A689A60002318461437BD465DF8047BE2
S3150800355C704700BF7800002080B485B000AF786053
S3150800356C0A4BFB60FB681C33BB607B68002B02D1E3
S3150800357C4FF0FF3303E0BB687A689A60002318465D
S3150800358C1437BD465DF8047B704700BF78000020F1
S3150800359C80B485B000AF78600A4BFB60FB682833B3
S315080035ACBB607B68002B02D14FF0FF3303E0BB688E
S315080035BC7A689A60002318461437BD465DF8047B72
S315080035CC704700BF7800002080B582B000AF7860E5
S315080035DC3960FFF725FE642001F02CFAFFF78EFE02
S315080035ECF9E780B400AFFEE780B5AEB000AF07F1DF
S315080035FCA40300221A605A609A60DA601A6107F10D
S3150800360C100394220021184601F0D6FA40233B6198
S3150800361C00237B6607F110031846FEF7C7FC034622
S3150800362C002B01D0FFF7DDFF1F4A1F4B9B6D43F0A4
S3150800363C805393651C4B9B6D03F08053FB60FB68B2
S3150800364C194A194BDB6C43F04003D364164BDB6CFD
S3150800365C03F04003BB60BB68FEF798FC4FF4C0430D
S3150800366CC7F8A4301223C7F8A8300023C7F8AC3023
S3150800367C0323C7F8B0300423C7F8B43007F1A40302
S3150800368C19460A48FCF7E2FE074A074B9B6D43F4BA
S3150800369C00139365044B9B6D03F400137B607B68E6
S315080036AC00BFB837BD4680BD001002400018004860
S315080036BC80B582B000AF284B7B607B68274A5A607E
S315080036CC7B6804229A607B680022DA607B68012298
S315080036DC1A617B6800225A617B6800229A617B68B2
S315080036EC0022DA617B6800221A627B6800225A6221
S315080036FC7B6804331846FDF753F80346002B01D0B4
S3150800370CFFF76FFF7B68043300211846FEF7A6FB0C
S3150800371C0346002B01D0FFF764FF7B6804330021B6
S3150800372C1846FEF7E6FB0346002B01D0FFF759FFB8
S3150800373C002200211F20FCF7F2FD1F20FCF70BFED0
S3150800374C002200212020FCF7EAFD2020FCF703FECE
S3150800375C00BF0837BD4680BDAC00002000540040B1
S3150800376C80B588B000AFF860B9601346FB711D4B85
S3150800377CBB61FB68002B02D0012B03D005E00023AC
S3150800378C3B7502E040233B7500BF0023FB7720E026
S3150800379CFB7FBA6813441B787B7509E0BB69043355
S315080037AC1846FDF707FA0346042B01D0FFF719FF55
S315080037BCBB69181D07F1140202237C21FDF788F852
S315080037CC0346002BEAD1052001F034F9FB7F0133BF
S315080037DCFB77FA7FFB799A42DAD300BF2037BD46CE
S315080037EC80BD00BFAC00002080B485B000AF034696
S315080037FCFB800023FB810FE0FB890C4A32F823304F
S3150800380CFA889A4205D1FB89084A9B0013449B788F
S3150800381C06E0FB890133FB81FB89782BECD9FF2366
S3150800382C18461437BD465DF8047B70475C4F000894
S3150800383C80B582B000AF0B4B7B607822002109481B
S3150800384C01F0BAF9FFF7D0FEFFF732FF0A22064954
S3150800385C0020FFF785FF7B6801221A7000BF083726
S3150800386CBD4680BDAC000020504F000890B587B00F
S3150800387C00AF03463A60FB710B46BB71384B3B6194
S3150800388C0023FB753B68002B02D14FF0FF3362E037
S3150800389C3B691B78002B02D14FF0FF335BE0FB79B9
S315080038AC102B02D8BB79022B02D94FF0FF3352E00A
S315080038BCFC793868FCF79CFC0346DA0F13445B105A
S315080038CC2344102B42D94FF0FF3344E03B681B8846
S315080038DCFB81FB891B021BB223F0FF031AB2FB897F
S315080038EC1B0A9BB21BB213431BB2FB81FB891846FE
S315080038FCFFF77AFF0346BB81BB89FF2B04D100F087
S3150800390C31F84FF0FF3326E0BB791A01FB791A44DC
S3150800391CFB7D13443A69134493F85830202B02D094
S3150800392C4FF0FF3317E0BB791A01FB791A44FB7D7C
S3150800393C1344BA89D1B23A6913440A4683F8582013
S3150800394C3B6802333B60FB7D0133FB753B681B8888
S3150800395C002BBBD1002318461C37BD4690BD00BFB3
S3150800396CAC00002080B582B000AF0B4B7B60012306
S3150800397CFB707B681B78002B02D14FF0FF3307E0F6
S3150800398C7B68583320222021184601F015F90023AC
S3150800399C18460837BD4680BDAC00002080B582B0FD
S315080039AC00AF164B7B607B681B78002B02D14FF05F
S315080039BCFF331FE08023FB70FB1C012219460020F5
S315080039CCFFF7CEFE7B685833102219460120FFF705
S315080039DCC7FEC023FB70FB1C012219460020FFF70B
S315080039ECBFFE7B6858331033102219460120FFF7A7
S315080039FCB7FE002318460837BD4680BDAC0000202C
S31508003A0C80B584B000AF78607A6813465B001344BF
S31508003A1CDB00054A1344FB60FB685B6878689847CB
S31508003A2C00BF1037BD4680BD2401002080B500AF0D
S31508003A3C0020FFF7E5FF00BF80BD80B500AF012071
S31508003A4CFFF7DEFF00BF80BD80B500AF0220FFF791
S31508003A5CD7FF00BF80BD000080B584B002AF786088
S31508003A6C396000230193002300934FF480530322FB
S31508003A7C1549164800F048FF0023019300230093CC
S31508003A8C4FF4805303221249124800F03DFF0023DD
S31508003A9C0193002300934FF4805303220E490F48D9
S31508003AAC00F032FF00230193002300934FF4805358
S31508003ABC03220B490B4800F027FF0F2000F057FF95
S31508003ACCFFF75AF9FEE700BF644C0008212F0008DF
S31508003ADC744C0008D5350008844C0008B12B000836
S31508003AEC904C00085D2C000880B582B002AF00230C
S31508003AFC0193002300934FF4807300220349044872
S31508003B0C00F0F0FC00231846BD4680BD9C4C00080E
S31508003B1C653A0008854600980199029A039B049C0D
S31508003B2C059D069E079FDDF82080DDF82490DDF8BC
S31508003B3C28A0DDF82CB0DDF830C00DB000BD8546E8
S31508003B4CBDE8F08F2DE9F04FEFF30580EFF3088110
S31508003B5C00F0A2FCBDE8F08F80B483B000AF03463A
S31508003B6C3960FB7197F90730002B0BDA0D49FB7995
S31508003B7C03F00F03043B3A68D2B21201D2B20B44DB
S31508003B8C1A7609E0084997F907303A68D2B2120151
S31508003B9CD2B20B4483F8002300BF0C37BD465DF840
S31508003BAC047B704700ED00E000E100E080B582B0D0
S31508003BBC00AF78607B68013BB3F1807F01D30123AA
S31508003BCC0FE00A4A7B68013B536000214FF0FF3037
S31508003BDCFFF7C2FF054B00229A60044B07221A60B6
S31508003BEC002318460837BD4680BD00BF10E000E02C
S31508003BFC80B400AF1D4B1B68002B02D14FF0FF336E
S31508003C0C2EE01A4B1B685B6A03F00103002B01D1EB
S31508003C1C012325E0154B1B68DB69144A12681268E8
S31508003C2C134941F83320114B1B68DB69104A52F8CB
S31508003C3C3330002B07D10D4B1B68DB690C4ADB00B4
S31508003C4C134400225A60094B1B68084A1268526AC8
S31508003C5C22F001025A62054B1B6800221A600023E7
S31508003C6C1846BD465DF8047B704700BFDC01002092
S31508003C7C5401002080B400AF214B1B68002B02D1E5
S31508003C8C4FF0FF3336E01E4B1B685B6A03F00103EB
S31508003C9C002B01D001232DE0194B1B68DB69194A4F
S31508003CACDB0013445B68002B0AD0154B1B68DB69D9
S31508003CBC144ADB0013445B68114A12681A6007E061
S31508003CCC0F4B1B68DB690E4A12680E4941F8332004
S31508003CDC0B4B1B68DB690A4A12680A49DB000B4462
S31508003CEC5A60074B1B68064A1268526A42F0010270
S31508003CFC5A6200231846BD465DF8047B704700BF20
S31508003D0CDC0100205401002080B500AF00F01AFE3B
S31508003D1C00BF80BD80B582B000AF78607B689B6AB7
S31508003D2C7A68D06A7A68126B11469847FFF7ECFFE7
S31508003D3C00BF0837BD4680BD80B588B000AFF860B7
S31508003D4CB9607A603B600023FB610BE0FB699B0161
S31508003D5C924A1344BB61BB699B6A002B06D0FB696C
S31508003D6C0133FB61FB690E2BF0DD00E000BFFB693C
S31508003D7C0F2B02D14FF0FF330CE140220021B8691A
S31508003D8C00F01AFFBB690C33B968184600F01CFF23
S31508003D9CBB6900221A60BB697A68DA61BB690022C2
S31508003DAC5A62BB69FA689A62BB69BA6ADA62BB6913
S31508003DBCFA6A1A637A4B1B683A680021184600F0AF
S31508003DCCFBFE774B1A683B681344754A1360744BB1
S31508003DDC1A68BB691A62BB691B6A7B61714B1B68E3
S31508003DEC002B5DD17B69043B7B616F4A7B691A604A
S31508003DFC7B69043B7B616D4A7B691A607B69043B72
S31508003E0C7B617B6900221A607B69043B7B617B6959
S31508003E1C00221A607B69043B7B617B6900221A606D
S31508003E2C7B69043B7B617B6900221A607B69043BD6
S31508003E3C7B617B6900221A607B69043B7B617B6929
S31508003E4C00221A607B69043B7B617B6900221A603D
S31508003E5C7B69043B7B617B6900221A607B69043BA6
S31508003E6C7B617B6900221A607B69043B7B617B69F9
S31508003E7C00221A607B69043B7B617B6900221A600D
S31508003E8C7B69043B7B617B6900221A607B69043B76
S31508003E9C7B61BA697B691A60424B01221A606DE034
S31508003EAC7B69043B7B61404A7B691A607B69043BEE
S31508003EBC7B617B694FF080721A607B69043B7B617E
S31508003ECC3A4A7B691A607B69043B7B617B690022F1
S31508003EDC1A607B69043B7B617B6900221A607B69EB
S31508003EEC043B7B617B6900221A607B69043B7B611E
S31508003EFC7B6900221A607B69043B7B617B69002223
S31508003F0C1A607B69043B7B61BA697B691A607B69B9
S31508003F1C043B7B617B696FF006021A607B69043B84
S31508003F2C7B617B6900221A607B69043B7B617B6938
S31508003F3C00221A607B69043B7B617B6900221A604C
S31508003F4C7B69043B7B617B6900221A607B69043BB5
S31508003F5C7B617B6900221A607B69043B7B617B6908
S31508003F6C00221A607B69043B7B617B6900221A601C
S31508003F7C7B69043B7B617B6900221A607A69BB69A1
S31508003F8CDA63FFF777FE0A4ABB691360FFF772FE1E
S31508003F9C074B1B6818462037BD4680BDE00100203C
S31508003FAC000000202C070020153D0008213D0008C4
S31508003FBCDC01002080B500AF094B1B680C33184692
S31508003FCC00F0AAFD074800F0A7FD054B1B68402228
S31508003FDC0021184600F0F0FD0023184680BD00BFEE
S31508003FECDC010020A44C000880B500AFFFF742FEA8
S31508003FFC0023184680BD80B400AF00231846BD4682
S3150800400C5DF8047B7047000080B582B000AF78601D
S3150800401CFFF730FE7B68044A1360FFF72BFE00237C
S3150800402C18460837BD4680BDDC01002080B500AFB8
S3150800403CFFF720FE014B1B68184680BDDC010020EB
S3150800404C80B584B000AF7860084B1B68DB69FB60F1
S3150800405C7B68002B03DB054B1B687A68DA61FFF774
S3150800406C09FEFB6818461037BD4680BDDC010020EA
S3150800407C80B582B000AF7860FFF7FCFD786800F079
S3150800408CD9FB034618460837BD4680BD80B582B0B5
S3150800409C00AF7860786800F009FCFFF7EBFD0023A9
S315080040AC18460837BD4680BD80B586B000AFF860A7
S315080040BCB9607A603B60102000F0BCFB78617B69C4
S315080040CC002B01D100F09CFA7B6900221A607B69EF
S315080040DCBA685A607B697A689A607B693A68DA606A
S315080040ECFB689B68002B04D0FB689B687A691A608E
S315080040FC02E0FB687A695A60FB687A699A6000BFC5
S3150800410C1837BD4680BD80B584B000AF78607B6833
S3150800411C5B68FB60FB681A687B685A607B685B683F
S3150800412C002B02D17B6800229A60FB6800221A6079
S3150800413C7B681B689B6BBB60FB685B681A46BB6835
S3150800414CDA60BB685B68002B04D0BB685B68FA68EE
S3150800415C92681A60BB689B68002B04D0BB689B6886
S3150800416CFA68D2681A607B6800221A60F86800F050
S3150800417C9DFB00BF1037BD4680BD000080B586B0DC
S3150800418C00AF0346B9607A60FB73FB7B1B010F4AD1
S3150800419C13447B61FFF76EFD0D4B19687B68BA6893
S315080041AC7869FFF781FF7B691B68002B08D07B6950
S315080041BC1B68074A13607869FFF7A5FFFFF75AFDD6
S315080041CCBB6818461837BD4680BD00BF940600204C
S315080041DCDC01002080B586B000AF0346B9607A6072
S315080041ECFB73FB7B1B01104A13447B617B691B68C1
S315080041FC002B01D000F004FA0C4B1A687B691A6084
S3150800420C7B695B68002B02D14FF0FF3308E07869B5
S3150800421CFFF779FFFFF72EFD044B1B689B6BDB68DA
S3150800422C18461837BD4680BD94060020DC010020D0
S3150800423C80B582B000AF03463960FB80B7F906300B
S3150800424C05493A6841F82320FFF714FD0023184660
S3150800425C0837BD4680BD00BFA005002080B483B0DA
S3150800426C00AF78600E4B1B687A689A600D4B5B68DA
S3150800427C002B05D00B4B5B68094A12685A6003E0A1
S3150800428C074B1B68074A1360054B1B68054A5360A6
S3150800429C002318460C37BD465DF8047B704700BFF3
S315080042ACDC010020D4010020B0B584B002AF03466F
S315080042BC3960FB71FB790C2B00F29C8001A252F839
S315080042CC23F000BF054300083143000837430008B4
S315080042DC434300084F430008614300086D43000838
S315080042EC7F43000891430008A3430008BD43000818
S315080042FCD7430008EF4300083B6818683B685968C1
S3150800430C3B689C683B68DD683B681B693A68526980
S3150800431C019200932B462246FFF70EFD02463B6898
S3150800432C9A6168E0FFF746FE65E0FFF75DFE024618
S3150800433C3B681A605FE0FFF75EFE02463B681A6050
S3150800434C59E03B681B681846FFF75EFE02463B6859
S3150800435C5A6050E0FFF76AFE02463B681A604AE06C
S3150800436C3B681B681846FFF76BFE02463B685A60AB
S3150800437C41E03B681B681846FFF77AFE02463B6825
S3150800438C5A6038E03B681B681846FFF77FFE024602
S3150800439C3B685A602FE03B6818783B6859683B685D
S315080043AC9B681A46FFF7EAFE02463B68DA6022E08B
S315080043BC3B6818783B6859683B689B681A46FFF750
S315080043CC09FF02463B68DA6015E03B68B3F9002042
S315080043DC3B685B6819461046FFF72AFF02463B689E
S315080043EC9A603B681B681846FFF738FF02463B681D
S315080043FC5A6000E000BF00BF0837BD46B0BD00BF1D
S3150800440C80B582B000AF03463960FB71FFF7F0FB4D
S3150800441CFB7939681846FFF747FF00BF0837BD46D2
S3150800442C80BD000080B582B000AF00237B6008E039
S3150800443C0E4A7B6852F83330002B06D17B68013361
S3150800444C7B607B680F2BF3DD00E000BF7B68102BCD
S3150800445C01D100F0D5F8054A7B6852F83330044A86
S3150800446C136000BF0837BD4680BD00BF540100204D
S3150800447CDC01002080B500AF064B1B6893F834208E
S3150800448C044B1B689B6B19461046FFF7B9FF00BF18
S3150800449C80BD00BFDC01002080B582B000AF0346AA
S315080044AC3960FB800D4B1B683A68DA63B7F906303E
S315080044BC0B4A52F82330002B05D0B7F90630084AB8
S315080044CC52F823309847FFF7ADFF044B1B68D86B9F
S315080044DCFFF735FB00BF0837BD4680BDDC01002061
S315080044ECA005002080B586B002AFF860B9607A6086
S315080044FC3B6000F081F9314B00221A6080220021C2
S3150800450C2F4800F059FB4FF4707200212D4800F02B
S3150800451C53FBF42200212C4800F04EFB902200217C
S3150800452C2A4800F049FB08220021294800F044FBE0
S3150800453C28490B20FFF77CFE27490F20FFF778FE4A
S3150800454C26493520FFF774FE25493620FFF770FEFD
S3150800455C24493720FFF76CFE23492F20FFF768FE06
S3150800456C22493020FFF764FE21491620FFF760FE2A
S3150800457C20491720FFF75CFE1F491820FFF758FE45
S3150800458C1E491920FFF754FEFB690193BB6900937A
S3150800459C3B687A68B968F868FFF7CEFB03461A4693
S315080045AC064B1A6000F04EF8044B1B68D86BFFF7E5
S315080045BCB1FA00BF1037BD4680BD00BFDC01002034
S315080045CC54010020E0010020A005002094060020DC
S315080045DC240700208144000875460008393A00086B
S315080045EC473A0008553A0008B10A0008D10A0008EB
S315080045FCC5330008113400085D340008A9340008D6
S3150800460C80B500AF014800F087FAFEE7B44C000805
S3150800461C80B483B000AF03463960FB71084B1B6846
S3150800462CFA7983F83420064B1B683A689A6300DFDC
S3150800463C00BF00BF0C37BD465DF8047B704700BF52
S3150800464CDC01002080B500AF054B1B68054AA2FBB0
S3150800465C03239B091846FFF7A9FA00BF80BD00BFC4
S3150800466C44000020D34D621080B500AF0A4B1B687E
S3150800467C0133094A1360084B1B68B3F57A7F07D1D7
S3150800468C054B5B680133044A5360034B00221A60DE
S3150800469C00F004F800BF80BD2407002080B483B066
S315080046AC00AF364B1B687B60344B1B683B605CE089
S315080046BC7B689B68002B4ED17B68DB69304ADB0034
S315080046CC13445B68002B08D07B68DB692C4ADB003B
S315080046DC13445B687A681A6005E07B68DB692849CD
S315080046EC7A6841F83320274B1B68DB69244ADB00C0
S315080046FC13447A685A607B685B6A43F001027B68EC
S3150800470C5A627B685A683B685A601C4B1A687B6805
S3150800471C9A420FD17B685B68002B06D1174B002297
S3150800472C1A60164B00225A600CE07B685B68134AC9
S3150800473C136007E0114B5A687B689A4202D10F4AFC
S3150800474C3B6853607B683B607B685B687B603B6857
S3150800475C00225A6009E07B689B685A1E7B689A603F
S3150800476C7B683B607B685B687B607B68002B9FD1B2
S3150800477C00BF0C37BD465DF8047B7047D40100209A
S3150800478C54010020DC01002080B586B000AF7860AB
S3150800479C184B1B683B617B680833FB6000237B6105
S315080047AC1DE0FB683A691A6008220021386900F096
S315080047BC03FA7B681A683B695A603B69FB607B683D
S315080047CC1B681A463B6913443B610A4B1B687A689B
S315080047DC12681344074A13607B6901337B617B6853
S315080047EC5A687B699A42DCDC002318461837BD46A2
S315080047FC80BD00BF4000002080B582B000AF00230A
S3150800480C7B600CE07A6813465B0013449B00084AED
S3150800481C13441846FFF7B8FF7B6801337B607B6847
S3150800482C042BEFD9002318460837BD4680BD00BFB8
S3150800483C0400002080B586B000AF786000237B6149
S3150800484C27E07A6913465B0013449B00164A134407
S3150800485C3B613B691B68A3F108027B689A4215D336
S3150800486C3B699B68002B03D1FFF7CAFE002316E0B1
S3150800487C3B699B68FB603B699B681A683B699A6055
S3150800488CFB6800221A60FB68083308E07B69013371
S3150800489C7B617B69042BD4D9FFF7B2FE002318463B
S315080048AC1837BD4680BD00BF0400002080B586B011
S315080048BC00AF78607B68083B3B6100237B6118E09E
S315080048CC7A6913465B0013449B000E4A1344FB603B
S315080048DC3B695A68FB681B689A4207D1FB689A6859
S315080048EC3B691A60FB683A699A6007E07B69013391
S315080048FC7B617B69042BE3D9FFF782FE1837BD462B
S3150800490C80BD00BF0400002080B58CB000AFF860F5
S3150800491CB9607A603B60FB687B61BB68BB617B688E
S3150800492CFB613B683B62BB6B7B62FB6BBB6207F153
S3150800493C140319460020FFF76BFEFB6A184630373E
S3150800494CBD4680BD80B500AF00210120FFF760FE93
S3150800495C00BF80BD80B588B000AF3B1D1946052049
S3150800496CFFF756FE7B6818462037BD4680BD80B5D6
S3150800497C8AB000AF78607B68FB6007F10C031946B8
S3150800498C0620FFF745FE3B6918462837BD4680BD0D
S3150800499C80B58AB000AF78607B68FB6007F10C03C2
S315080049AC19460720FFF734FE3B6918462837BD46DB
S315080049BC80BD80B58AB000AF78607B68FB6007F174
S315080049CC0C0319460820FFF723FE3B6918462837BF
S315080049DCBD4680BD80B58CB000AF0346B9607A6021
S315080049ECFB73FB7B3B75BB68BB617B68FB6107F1A3
S315080049FC140319460920FFF70BFE3B6A1846303795
S31508004A0CBD4680BD80B58CB000AF0346B9607A60F0
S31508004A1CFB73FB7B3B75BB68BB617B68FB6107F172
S31508004A2C140319460A20FFF7F3FD3B6A184630377C
S31508004A3CBD4680BD80B58AB000AF78607B68FB60E8
S31508004A4C07F10C0319460C20FFF7E2FD3B691846E3
S31508004A5C2837BD4680BD0000DFF834D0002103E0BE
S31508004A6C0C4B5B58435004310B480C4B42189A427A
S31508004A7CF6D30B4A02E0002342F8043B094B9A4250
S31508004A8CF9D300F013F800F073F8FFF72DF8FEE7EA
S31508004A9C00000320485100080000002048000020B0
S31508004AAC4800002090070020FEE7000080B400AF05
S31508004ABC174A174BD3F8883043F47003C2F888307A
S31508004ACC144A144B1B6843F001031360114B002264
S31508004ADC9A60104A0F4B1B6823F0A85323F4102333
S31508004AEC13600C4B4FF48052DA600A4A094B1B6868
S31508004AFC23F480231360074B00229A61044B4FF072
S31508004B0C00629A6000BFBD465DF8047B704700BF23
S31508004B1C00ED00E00010024080B586B000AF78606A
S31508004B2C7868FBF765FB03463B610023FB603A6933
S31508004B3C7968012000F050F8F86001220B49012031
S31508004B4C00F04AF80246FB681344FB603B695A1CA2
S31508004B5CFB689A4202D100237B6102E04FF0FF33D7
S31508004B6C7B617B6918461837BD4680BDC44C000866
S31508004B7C70B50D4E0D4CA41BA4100025A54209D1E9
S31508004B8C0B4E0C4C00F030F8A41BA4100025A542C3
S31508004B9C05D170BD56F8253098470135EEE756F81D
S31508004BAC253098470135F2E7405100084051000876
S31508004BBC405100084451000802440346934200D170
S31508004BCC704703F8011BF9E7034611F8012B03F8A4
S31508004BDC012B002AF9D17047024B58221A604FF064
S31508004BECFF3070478C070020F8B500BFF8BC08BC2E
S31508004BFC9E467047F8B500BFF8BC08BC9E46704781
S31508004C0C83498393834A814A834E83548343835AC5
S31508004C1C8343835683588365838000008275826438
S31508004C2C827182728268826E826D82508144824F52
S31508004C3C8144824F0000000083548343835A834384
S31508004C4C00000000835E814A83458393838D815BD4
S31508004C5C83680000818400004C43445F6170705F78
S31508004C6C6D61696E0000000042544E5F6465765FA4
S31508004C7C6D61696E0000000063746C5F6D61696E2E
S31508004C8C0000000063746C5F6379636D73670000E2
S31508004C9C69646C650000000020455849542E0A00CA
S31508004CAC20444F574E2E0A0073797374656D206530
S31508004CBC72726F72210A00000A000000C9290008E6
S31508004CCCC52F0008492B0008010000000000000051
S31508004CDC04000000000000000400000000000000B2
S31508004CEC04000000012A0008020000000000000071
S31508004CFC040000000000000004000000152A00084B
S31508004D0C0200000000000000040000000000000083
S31508004D1C040000000000000004000000C92A000876
S31508004D2C0300000000000000000000000000000066
S31508004D3C000000000000000000000000412E0008E2
S31508004D4C0100000000000000040000000000000044
S31508004D5C0400000000000000040000000000000031
S31508004D6C0400000000000000040000000000000021
S31508004D7C0400000000000000040000000000000011
S31508004D8C0400000000000000040000000000000001
S31508004D9C04000000000000000000000000000000F5
S31508004DAC000000000000000004000000612E00084E
S31508004DBC02000000000000000400000000000000D3
S31508004DCC04000000000000000400000000000000C1
S31508004DDC04000000000000000400000000000000B1
S31508004DEC04000000000000000400000000000000A1
S31508004DFC0400000000000000040000000000000091
S31508004E0C0000000000000000000000000000000088
S31508004E1C0400000000000000040000008D2E0008AD
S31508004E2C0300000000000000040000000000000061
S31508004E3C0400000000000000040000000000000050
S31508004E4C0400000000000000040000000000000040
S31508004E5C0400000000000000040000000000000030
S31508004E6C0400000000000000000000000000000024
S31508004E7C0000000000000000040000000000000014
S31508004E8C0400000000000000040000000000000000
S31508004E9C04000000D92E00080400000000000000E1
S31508004EAC04000000D92E00080400000000000000D1
S31508004EBC04000000000000000400000000000000D0
S31508004ECC04000000000000000400000000000000C0
S31508004EDC00000000000000000000000000000000B8
S31508004EEC00000000000000000000000000000000A8
S31508004EFC0000000000000000000000000000000098
S31508004F0C0000000000000000000000000000000087
S31508004F1C0000000000000000000000000000000077
S31508004F2C0000000000000000000000000000000067
S31508004F3C0000000000000000000000000000000057
S31508004F4C000000003839147A566C380C010600003B
S31508004F5C5082300051823100528232005382330023
S31508004F6C54823400558235005682360057823700F3
S31508004F7C58823800598239006082410061824200A9
S31508004F8C628243006382440064824500658246005F
S31508004F9C66824700678248006882490069824A002F
S31508004FAC6A824B006B824C006C824D006D824E00FF
S31508004FBC6E824F006F8250007082510071825200CF
S31508004FCC728253007382540074825500758256009F
S31508004FDC76825700778258007882590079825A006F
S31508004FEC818261008282620083826300848264000B
S31508004FFC85826500868266008782670088826800DB
S3150800500C898269008A826A008B826B008C826C00AA
S3150800501C8D826D008E826E008F826F00908270007A
S3150800502C918271009282720093827300948274004A
S3150800503C958275009682760097827700988278001A
S3150800504C998279009A827A004183B1004383B2002F
S3150800505C4583B3004783B4004983B5004B83B60038
S3150800506C4C83B7004E83B8005083B9005283BA00FC
S3150800507C5483BB005683BC005883BD005A83BE00BC
S3150800508C5C83BF005E83C0006083C1006383C2007B
S3150800509C6583C3006783C4006983C5006A83C60039
S315080050AC6B83C7006C83C8006D83C9006E83CA0006
S315080050BC7183CB007483CC007783CD007A83CE00C2
S315080050CC7D83CF007E83D0008083D1008183D2007C
S315080050DC8283D3008483D4008683D5008883D60044
S315080050EC8983D7008A83D8008B83D9008C83DA000E
S315080050FC8D83DB008F83DC009283A6009383DD000F
S3150800510C4083A7004283A8004383A9004683AA00CC
S3150800511C4883AB008383AC008583AD008783AE00E0
S3150800512C4A81DE004B81DF0044812E0083813C00DE
S3090800513C84813E001E
S30908005140E101000873
S30908005144BD01000893
S3150800514800000420100000002000000000000000F5
S315080051582000000040000000000000004000000099
S315080051684000000000000000800000001000000059
S315080051780000000000010000100000000000000008
S30D080051880000072000093D00A4
S70508004A6543
