S01000002E5C53797374656D2E7372656305
S3150800000000000320C5650008156600081566000887
S315080000101566000815660008156600080000000049
S315080000200000000000000000000000002D56000837
S3150800003015660008000000002D5600082D56000819
S315080000402D5600082D5600082D5600082D56000876
S315080000502D5600082D5600082D5600082D56000866
S315080000602D5600082D5600082D5600082D56000856
S315080000702D5600082D5600082D5600082D56000846
S315080000802D5600082D5600082D5600082D56000836
S315080000902D5600082D5600082D5600082D56000826
S315080000A02D5600082D5600082D5600082D56000816
S315080000B02D5600082D5600082D5600082D56000806
S315080000C02D5600082D5600082D5600082D560008F6
S315080000D02D5600082D5600082D5600082D560008E6
S315080000E02D5600082D5600082D5600082D560008D6
S315080000F02D5600082D5600082D5600080000000051
S315080001002D5600082D5600082D5600082D560008B5
S315080001102D5600082D5600082D5600082D560008A5
S315080001202D5600082D5600082D5600082D56000895
S315080001302D5600082D5600082D5600082D56000885
S315080001402D5600082D5600082D5600082D56000875
S315080001502D5600082D5600082D5600082D56000865
S315080001602D5600082D5600082D5600082D56000855
S315080001702D5600082D56000800000000000000005B
S315080001802D5600082D5600082D5600082D56000835
S315080001902D5600082D56000800000000000000003B
S315080001A000000000000000002D5600082D5600082B
S311080001B02D5600082D5600082D56000894
S315080001BC10B5054C237833B9044B13B10448AFF387
S315080001CC00800123237010BD60000420000000008D
S315080001DC6C67000808B5034B1BB103490348AFF31A
S315080001EC008008BD00000000640004206C6700084D
S315080001FC10F8012B11F8013B012A28BF9A42F7D0B7
S3150800020CD01A7047034613F8012B002AFBD1181A8B
S3150800021C0138704780B400AF034B1B681846BD46BF
S3150800022C5DF8047B704700BFDC0D082080B400AF76
S3150800023C044BDB681B0A03F007031846BD465DF83A
S3150800024C047B704700ED00E080B483B000AF034632
S3150800025CFB71094997F907305B09FA7902F01F0215
S3150800026C012000FA02F241F8232000BF0C37BD46E4
S3150800027C5DF8047B704700BF00E100E080B483B0F2
S3150800028C00AF03463960FB7197F90730002B0BDA80
S3150800029C0D49FB7903F00F03043B3A68D2B21201FD
S315080002ACD2B20B441A7609E0084997F907303A682E
S315080002BCD2B21201D2B20B4483F8002300BF0C371A
S315080002CCBD465DF8047B704700ED00E000E100E0F8
S315080002DC80B489B000AFF860B9607A60FB6803F047
S315080002EC0703FB61FB69C3F10703042B28BF04232F
S315080002FCBB61FB690433062B02D9FB69033B00E09F
S3150800030C00237B610122BB6902FA03F35A1EBB6800
S3150800031C1A407B699A4001217B6901FA03F3591E3D
S3150800032C7B680B40134318462437BD465DF8047B9F
S3150800033C704780B586B000AF0346B9607A60FB7328
S3150800034C00237B61FFF772FF78617A68B968786970
S3150800035CFFF7BEFF024697F90F3011461846FFF70E
S3150800036C8DFF00BF1837BD4680BD80B582B000AF83
S3150800037C0346FB7197F907301846FFF765FF00BF70
S3150800038C0837BD4680BD80B584B000AF78600023C1
S3150800039CFB737B6893F82530DBB2022B05D07B68A0
S315080003AC0422DA630123FB7347E07B681B687A68CF
S315080003BC1268126822F00E021A607B681B687A684B
S315080003CC1268126822F001021A607B689B6C7A68C4
S315080003DC926C126822F480721A607B681B6C7A68BD
S315080003EC526C02F01C02012101FA02F25A607B6877
S315080003FCDB6C7A68126D5A607B685B6D002B0CD0CF
S3150800040C7B685B6D7A68526D126822F480721A608A
S3150800041C7B689B6D7A68D26D5A607B68012283F87B
S3150800042C25207B68002283F824207B689B6B002B95
S3150800043C03D07B689B6B78689847FB7B184610370C
S3150800044CBD4680BD80B483B000AF78607B6893F8F6
S3150800045C2530DBB218460C37BD465DF8047B704771
S3150800046C80B487B000AF7860396000237B6166E1A1
S3150800047C3B681A6801217B6901FA03F31340FB6098
S3150800048CFB68002B00F058813B685B6803F003039C
S3150800049C012B05D03B685B6803F00303022B30D1B4
S315080004AC7B689B683B617B695B00032202FA03F35A
S315080004BCDB433A6913403B613B68DA687B695B004E
S315080004CC02FA03F33A6913433B617B683A699A600B
S315080004DC7B685B683B6101227B6902FA03F3DB43A9
S315080004EC3A6913403B613B685B681B0903F00102E0
S315080004FC7B6902FA03F33A6913433B617B683A69F1
S3150800050C5A603B685B6803F00303032B17D07B68C0
S3150800051CDB683B617B695B00032202FA03F3DB436E
S3150800052C3A6913403B613B689A687B695B0002FA3F
S3150800053C03F33A6913433B617B683A69DA603B68B3
S3150800054C5B6803F00303022B23D17B69DA087B680B
S3150800055C083253F822303B617B6903F007039B0092
S3150800056C0F2202FA03F3DB433A6913403B613B68FB
S3150800057C1A697B6903F007039B0002FA03F33A69CD
S3150800058C13433B617B69DA087B680832396943F89F
S3150800059C22107B681B683B617B695B00032202FAAD
S315080005AC03F3DB433A6913403B613B685B6803F032
S315080005BC03027B695B0002FA03F33A6913433B6156
S315080005CC7B683A691A603B685B6803F44033002B16
S315080005DC00F0B280614A614B1B6E43F0010313664F
S315080005EC5E4B1B6E03F00103BB60BB685C4A7B6900
S315080005FC9B08023352F823303B617B6903F00303F3
S3150800060C9B000F2202FA03F3DB433A6913403B6162
S3150800061C7B68B3F1904F2BD07B68524A934225D016
S3150800062C7B68514A93421FD07B68504A934219D033
S3150800063C7B684F4A934213D07B684E4A93420DD03F
S3150800064C7B684D4A934207D07B684C4A934201D14A
S3150800065C07230EE008230CE006230AE0052308E02E
S3150800066C042306E0032304E0022302E0012300E04E
S3150800067C00237A6902F00302920093403A69134305
S3150800068C3B6137497B699B0802333A6941F8232059
S3150800069C3B4B9B683B61FB68DB433A6913403B6108
S315080006AC3B685B6803F48013002B03D03A69FB683C
S315080006BC13433B61324A3B699360314BDB683B61C0
S315080006CCFB68DB433A6913403B613B685B6803F4A0
S315080006DC0013002B03D03A69FB6813433B61284A85
S315080006EC3B69D360264B5B683B61FB68DB433A6925
S315080006FC13403B613B685B6803F40033002B03D063
S3150800070C3A69FB6813433B611D4A3B6953601C4BB2
S3150800071C1B683B61FB68DB433A6913403B613B68EA
S3150800072C5B6803F48033002B03D03A69FB681343E8
S3150800073C3B61134A3B6913607B6901337B613B68F8
S3150800074C1A687B6922FA03F3002B7FF491AE00BF7B
S3150800075C1C37BD465DF8047B704700BF001002408D
S3150800076C000001400004004800080048000C00483E
S3150800077C001000480014004800180048001C0048E7
S3150800078C0004014080B483B000AF78600B467B80D0
S3150800079C13467B707B78002B03D07A887B689A612A
S315080007AC02E07A887B689A6200BF0C37BD465DF812
S315080007BC047B704780B582B000AF78607B68002BED
S315080007CC01D1012380E07B6893F84130DBB2002B22
S315080007DC06D17B68002283F84020786800F078F808
S315080007EC7B68242283F841207B681B687A68126828
S315080007FC126822F001021A607B681B687A685268D4
S3150800080C22F070621A617B681B687A6812689268B3
S3150800081C22F400429A607B68DB68012B07D17B685F
S3150800082C1B687A68926842F400429A6006E07B6814
S3150800083C1B687A68926842F404429A607B68DB68A3
S3150800084C022B04D17B681B684FF400625A607B68E4
S3150800085C1A687B681B685B6843F0007343F40043B3
S3150800086C53607B681B687A681268D26822F4004267
S3150800087CDA607B681B687A6811697A685269114371
S3150800088C7A68926912020A43DA607B681B687A688E
S3150800089CD1697A68126A0A431A607B681B687A6897
S315080008AC1268126842F001021A607B6800225A64C8
S315080008BC7B68202283F841207B6800221A637B68B8
S315080008CC002283F84220002318460837BD4680BD0F
S315080008DC80B483B000AF786000BF0C37BD465DF8B6
S315080008EC047B704780B588B002AFF8607A601A4608
S315080008FC0B467B8113463B81FB6893F84130DBB290
S3150800090C202B53D1FB681B689B6903F40043B3F592
S3150800091C004F01D102234AE0FB6893F84030012BC3
S3150800092C01D1022343E0FB68012283F84020FB68CF
S3150800093C212283F84120FB68102283F84220FB68A9
S3150800094C00225A64FB687A685A62FB683A895A85A7
S3150800095CFB68194ADA62FB68184A5A63FB685B8DAE
S3150800096C9BB2FF2B06D9FB68FF221A854FF08073C2
S3150800097C7B6107E0FB685B8D9AB2FB681A854FF0C2
S3150800098C00737B61FB681B8DDAB279890C4B00937B
S3150800099C7B69F86801F04EF9FB68002283F8402061
S315080009AC0121F86801F076F9002300E002231846C5
S315080009BC1837BD4680BD00BF0000FFFFA30B00081B
S315080009CC0020008080B584B000AF78607B681B6817
S315080009DC9B69FB607B681B681B68BB607B685B6BF1
S315080009EC002B05D07B685B6BBA68F9687868984702
S315080009FC00BF1037BD4680BD80B586B000AF7860A5
S31508000A0C7B681B689B697B617B681B681B683B6101
S31508000A1C7B6903F48073002B0FD03B6903F08003CA
S31508000A2C002B0AD07B685B6C43F001027B685A6426
S31508000A3C7B681B684FF48072DA617B6903F4806308
S31508000A4C002B0FD03B6903F08003002B0AD07B6880
S31508000A5C5B6C43F008027B685A647B681B684FF42E
S31508000A6C8062DA617B6903F40073002B0FD03B6953
S31508000A7C03F08003002B0AD07B685B6C43F0020200
S31508000A8C7B685A647B681B684FF40072DA617B6872
S31508000A9C5B6CFB60FB6803F00B03002B03D0F96857
S31508000AAC786800F08DFF00BF1837BD4680BD80B44E
S31508000ABC83B000AF786000BF0C37BD465DF8047B89
S31508000ACC704780B483B000AF786000BF0C37BD4662
S31508000ADC5DF8047B704780B483B000AF786000BFC4
S31508000AEC0C37BD465DF8047B704780B483B000AF05
S31508000AFC786000BF0C37BD465DF8047B704780B440
S31508000B0C83B000AF78600B46FB7013463B8000BF82
S31508000B1C0C37BD465DF8047B704780B483B000AFD4
S31508000B2C786000BF0C37BD465DF8047B704780B40F
S31508000B3C83B000AF786000BF0C37BD465DF8047B08
S31508000B4C704780B483B000AF786000BF0C37BD46E1
S31508000B5C5DF8047B704780B483B000AF786000BF43
S31508000B6C0C37BD465DF8047B704780B483B000AF84
S31508000B7C786000BF0C37BD465DF8047B704780B4BF
S31508000B8C83B000AF78607B685B6C18460C37BD4643
S31508000B9C5DF8047B704780B588B002AFF860B96021
S31508000BAC7A60BB687B61FB6893F84030012B01D1F6
S31508000BBC022309E1FB68012283F840207B6903F0D4
S31508000BCC1003002B12D07B6803F01003002B0DD0FA
S31508000BDCFB681B681022DA61FB685B6C43F0040245
S31508000BECFB685A64F86800F0E2FFDAE07B6903F008
S31508000BFC0403002B22D07B6803F00403002B1DD0C2
S31508000C0C7B6923F004037B61FB685B6AFA681268EC
S31508000C1C526AD2B21A70FB685B6A5A1CFB685A6233
S31508000C2CFB681B8D013B9AB2FB681A85FB685B8DCA
S31508000C3C9BB2013B9AB2FB685A85B2E07B6903F01A
S31508000C4C0203002B1DD07B6803F00203002B18D07F
S31508000C5CFB681B68FA68526A12789A62FB685B6AC8
S31508000C6C5A1CFB685A62FB681B8D013B9AB2FB68DF
S31508000C7C1A85FB685B8D9BB2013B9AB2FB685A8559
S31508000C8C8FE07B6903F08003002B5DD07B6803F053
S31508000C9C4003002B58D0FB685B8D9BB2002B41D0D0
S31508000CACFB681B8D002B3DD1FB681B685B689BB2F0
S31508000CBCC3F309037B82FB685B8D9BB2FF2B0ED9B2
S31508000CCCFB68FF221A85FB681B8DDAB2798A00232A
S31508000CDC00934FF08073F86800F0ACFF33E0FB68C4
S31508000CEC5B8D9AB2FB681A85FB68DB6A13F5803F45
S31508000CFC0CD0FB681B8DDAB2FB68D86A798A00239C
S31508000D0C00930346F86800F095FF1CE0FB681B8D02
S31508000D1CDAB2798A002300934FF00073F86800F072
S31508000D2C89FF10E0FB681B685B6803F00073B3F17E
S31508000D3C007F03D0F86800F088FB32E04021F868A1
S31508000D4C00F03EFE2DE02CE07B6903F04003002BFF
S31508000D5C27D07B6803F04003002B22D0FB685B8D01
S31508000D6C9BB2002B19D1FB681B685B6803F00073F8
S31508000D7CB3F1007F15D0FB68DB6A13F5803F08D109
S31508000D8CFB681B68FA681268526842F480425A601B
S31508000D9C07E0F86800F059FB03E04021F86800F01A
S31508000DAC0FFE7B6903F02003002B08D07B6803F049
S31508000DBC2003002B03D07969F86800F0DFFBFB6889
S31508000DCC002283F84020002318461837BD4680BDFC
S31508000DDC80B586B000AFF860B9607A60FB68DB6AEC
S31508000DEC7B61BB683B61FB6893F84030012B01D1F2
S31508000DFC0223E1E0FB68012283F840203B6903F0FB
S31508000E0C2003002B08D07B6803F02003002B03D0AB
S31508000E1C3969F86800F07AFC3B6903F01003002B7B
S31508000E2C4BD07B6803F01003002B46D0FB685B8D18
S31508000E3C9BB2002B28D1FB6893F84130DBB2282BE8
S31508000E4C08D17B69B3F1007F04D13969F86800F0E1
S31508000E5C63FD31E0FB6893F84130DBB2292B0ED1E8
S31508000E6C7B6913F5803F0AD0FB681B681022DA6190
S31508000E7CF86800F09CFEF86800F024FB1CE0FB68A0
S31508000E8C1B681022DA618FE0FB681B681022DA6196
S31508000E9CFB685B6C43F00402FB685A647B69002BA5
S31508000EAC03D07B69B3F1807F7ED1FB685B6C1946F6
S31508000EBCF86800F085FD77E076E03B6903F00403FB
S31508000ECC002B2FD07B6803F00403002B2AD0FB6879
S31508000EDC5B8D9BB2002B18D0FB685B6AFA681268AC
S31508000EEC526AD2B21A70FB685B6A5A1CFB685A6261
S31508000EFCFB681B8D013B9AB2FB681A85FB685B8DF8
S31508000F0C9BB2013B9AB2FB685A85FB685B8D9BB218
S31508000F1C002B4BD17B6913F5803F47D0F86800F05E
S31508000F2CD1FA43E03B6903F00803002B09D07B6830
S31508000F3C03F00803002B04D03969F86800F001FAAD
S31508000F4C35E03B6903F00203002B30D07B6803F0D5
S31508000F5C0203002B2BD0FB685B8D9BB2002B18D0A1
S31508000F6CFB681B68FA68526A12789A62FB685B6AB5
S31508000F7C5A1CFB685A62FB685B8D9BB2013B9AB2A2
S31508000F8CFB685A85FB681B8D013B9AB2FB681A8570
S31508000F9C0DE07B69B3F1807F02D07B69002B06D10B
S31508000FACF86800F08FFA02E000BF00E000BFFB68AB
S31508000FBC002283F84020002318461837BD4680BD0A
S31508000FCC80B588B002AFF860B9607A60FB6893F8B0
S31508000FDC4030012B01D10223D9E0FB68012283F8AA
S31508000FEC4020BB6803F01003002B16D07B6803F077
S31508000FFC1003002B11D0FB681B681022DA61FB6802
S3150800100C5B6C43F00402FB685A642021F86800F014
S3150800101C41FEF86800F0CBFDB4E0BB6803F0800332
S3150800102C002B71D07B6803F04003002B6CD0FB6857
S3150800103C1B68FA681268126822F040021A60FB688C
S3150800104C5B8D9BB2002B4ED0FB681B685B689BB212
S3150800105CC3F309037B82FB685B8D9BB2FF2B06D916
S3150800106CFB68FF221A854FF080737B6110E0FB68E2
S3150800107C5B8D9AB2FB681A85FB68DB6A13F5803FB1
S3150800108C03D0FB68DB6A7B6102E04FF000737B617F
S3150800109CFB681B8DDAB2798A002300937B69F868A2
S315080010AC00F0C8FDFB685B8D9AB2FB681B8DD31AE2
S315080010BC9AB2FB685A85FB6893F84130DBB2222B4F
S315080010CC08D1FB681B68FA681268126842F4004279
S315080010DC1A6057E0FB681B68FA681268126842F4D3
S315080010EC80421A604EE0FB681B685B6803F000736D
S315080010FCB3F1007F03D0F86800F0A7F942E040216D
S3150800110CF86800F05DFC3DE0BB6803F04003002B7B
S3150800111C28D07B6803F04003002B23D0FB685B8D3B
S3150800112C9BB2002B19D1FB681B685B6803F0007334
S3150800113CB3F1007F25D0FB68DB6A13F5803F08D135
S3150800114CFB681B68FA681268526842F480425A6057
S3150800115C17E0F86800F079F913E04021F86800F018
S3150800116C2FFC0EE0BB6803F02003002B0AD07B682B
S3150800117C03F02003002B05D0B968F86800F0FEF9D7
S3150800118C00E000BFFB68002283F8402000231846C5
S3150800119C1837BD4680BD80B588B000AFF860B96019
S315080011AC7A60FB68DB6ABB610023FB61FB6893F81A
S315080011BC4030012B01D10223BFE0FB68012283F8E2
S315080011CC4020BB6803F02003002B08D07B6803F093
S315080011DC2003002B03D0B968F86800F097FABB68AF
S315080011EC03F01003002B00F095807B6803F01003C6
S315080011FC002B00F08F807B6803F48043002B04D10E
S3150800120C7B6803F40043002B7DD0FB68DB6B002B5B
S3150800121C0CD07B6803F40043002B07D0FB68DB6B10
S3150800122C1B685B68002B01D10123FB61FB689B6B78
S3150800123C002B0CD07B6803F48043002B07D0FB688B
S3150800124C9B6B1B685B68002B01D10123FB61FB6957
S3150800125C012B28D1FB6893F84130DBB2282B08D137
S3150800126CBB69B3F1007F04D1B968F86800F054FB88
S3150800127C48E0FB6893F84130DBB2292B0ED1BB69E9
S3150800128C13F5803F0AD0FB681B681022DA61F868F0
S3150800129C00F08DFCF86800F015F933E0FB681B6864
S315080012AC1022DA6134E0FB681B681022DA61FB68ED
S315080012BC5B6C43F00402FB685A64FB6893F8413094
S315080012CCFB75BB69002B03D0BB69B3F1807F1FD1BB
S315080012DCFB7D212B02D0FB7D292B03D1FB68212218
S315080012EC1A6308E0FB7D222B02D0FB7D2A2B02D148
S315080012FCFB6822221A63FB685B6C1946F86800F0D7
S3150800130C5FFB05E004E0FB681B681022DA610FE05E
S3150800131C00BF0DE0BB6803F00803002B08D07B6800
S3150800132C03F00803002B03D0B968F86800F009F835
S3150800133CFB68002283F84020002318462037BD4658
S3150800134C80BD80B584B000AF786039607B6893F84F
S3150800135C4130DBB203F02803282B6AD17B681B6863
S3150800136C9B691B0CDBB203F00103FB737B681B68E0
S3150800137C9B691B0C9BB203F0FE03BB817B681B6845
S3150800138C9B689BB2C3F309037B817B681B68DB688C
S3150800139C9BB203F0FE033B817B68DB68022B38D1DA
S315080013AC7B89DB099AB2BB8953409BB203F00603CF
S315080013BC002B1CD17B89BB817B689B6C5A1C7B6878
S315080013CC9A647B689B6C022B3BD17B6800229A64DF
S315080013DC7B681B680822DA617B68002283F8402048
S315080013ECBA89FB7B19467868FFF789FB29E03B89A4
S315080013FCBB814FF40041786800F0B6FC7B6800228C
S3150800140C83F84020BA89FB7B19467868FFF777FB87
S3150800141C17E04FF40041786800F0A6FC7B680022C0
S3150800142C83F84020BA89FB7B19467868FFF767FB77
S3150800143C07E07B681B680822DA617B68002283F860
S3150800144C402000BF1037BD4680BD80B582B000AFC6
S3150800145C78607B68002283F842207B6893F84130D9
S3150800146CDBB2212B15D17B68202283F841207B68BF
S3150800147C11221A637B6800225A630121786800F0EE
S3150800148C73FC7B68002283F840207868FFF70FFB13
S3150800149C14E07B68202283F841207B6812221A63A9
S315080014AC7B6800225A630221786800F05DFC7B6831
S315080014BC002283F840207868FFF703FB00BF083743
S315080014CCBD4680BD80B584B000AF78607B681B686C
S315080014DC1B68FB607B68002283F84220FB6803F4D8
S315080014EC8043002B08D07B681B687A6812681268E0
S315080014FC22F480421A600CE0FB6803F40043002BCC
S3150800150C07D07B681B687A681268126822F4004256
S3150800151C1A607B6893F84130DBB2292B12D17B68B1
S3150800152C282283F841207B6821221A6301217868D6
S3150800153C00F01AFC7B68002283F840207868FFF7D5
S3150800154CCAFA17E07B6893F84130DBB22A2B11D123
S3150800155C7B68282283F841207B6822221A630221A1
S3150800156C786800F001FC7B68002283F840207868D4
S3150800157CFFF7BBFA00BF1037BD4680BD80B586B0F5
S3150800158C00AF786039603B687B617B681B682022FA
S3150800159CDA617B6893F84130DBB2212B07D1012144
S315080015AC786800F0E1FB7B6811221A630CE07B6813
S315080015BC93F84130DBB2222B06D10221786800F071
S315080015CCD3FB7B6812221A637B681A687B681B68D4
S315080015DC59684C4B0B4053607B6800225A637B68F6
S315080015EC494ADA627B6903F01003002B09D07B6841
S315080015FC1B681022DA617B685B6C43F004027B681B
S3150800160C5A647B6893F84130DBB2602B0AD17B694C
S3150800161C03F00403002B05D07B681B685B6ADBB2FE
S3150800162CFB60FB68786800F0C2FA7B685B6C3B6110
S3150800163C7B6893F84130DBB2602B02D03B69002BF8
S3150800164C06D07B685B6C1946786800F0B9F954E0EB
S3150800165C7B6893F84130DBB2212B24D17B6820229E
S3150800166C83F841207B6800221A637B6893F8423022
S3150800167CDBB2402B0BD17B68002283F842207B68B7
S3150800168C002283F840207868FFF751FA35E07B682A
S3150800169C002283F842207B68002283F84020786871
S315080016ACFFF705FA29E07B6893F84130DBB2222B69
S315080016BC23D17B68202283F841207B6800221A6399
S315080016CC7B6893F84230DBB2402B0BD17B68002247
S315080016DC83F842207B68002283F840207868FFF75D
S315080016EC30FA0AE07B68002283F842207B680022E5
S315080016FC83F840207868FFF7E4F900BF1837BD4631
S3150800170C80BD00BF00E800FE0000FFFF80B586B074
S3150800171C00AF786039607B681B681B683B613B6867
S3150800172C7B617B6893F84130FB737B681B682022CE
S3150800173CDA61FB7B212B02D0FB7B292B08D148F2E3
S3150800174C0101786800F010FB7B6821221A630DE012
S3150800175CFB7B222B02D0FB7B2A2B07D148F20201FA
S3150800176C786800F001FB7B6822221A637B681B6889
S3150800177C7A681268526842F400425A607B681A68A2
S3150800178C7B681B685968624B0B405360786800F09D
S3150800179C0EFA3B6903F48043002B13D07B681B6855
S315080017AC7A681268126822F480421A607B689B6B0E
S315080017BC002B1FD07B689B6B1B685B689AB27B6897
S315080017CC5A8517E03B6903F40043002B12D07B685B
S315080017DC1B687A681268126822F400421A607B68E1
S315080017ECDB6B002B06D07B68DB6B1B685B689AB2DD
S315080017FC7B685A857B6903F00403002B20D07B6930
S3150800180C23F004037B617B685B6A7A681268526A08
S3150800181CD2B21A707B685B6A5A1C7B685A627B6800
S3150800182C1B8D002B0CD07B681B8D013B9AB27B68F9
S3150800183C1A857B685B8D9BB2013B9AB27B685A858D
S3150800184C7B685B8D9BB2002B05D07B685B6C43F089
S3150800185C04027B685A647B68002283F842207B6802
S3150800186C00225A637B685B6C002B10D07B685B6C20
S3150800187C1946786800F0A4F87B6893F84130DBB217
S3150800188C282B41D17969786800F046F83CE07B68EA
S3150800189CDB6A13F5803F14D07868FFF713FE7B6874
S315080018AC1C4ADA627B68202283F841207B68002276
S315080018BC1A637B68002283F840207868FFF72DF9B5
S315080018CC22E07B6893F84130DBB2222B0ED17B6881
S315080018DC202283F841207B6800221A637B68002249
S315080018EC83F840207868FFF700F90DE07B68202222
S315080018FC83F841207B6800221A637B68002283F8F0
S3150800190C40207868FFF7E7F800BF1837BD4680BD5A
S3150800191C00E800FE0000FFFF80B582B000AF7860DB
S3150800192C39607B68254ADA627B6800221A637B6811
S3150800193C202283F841207B68002283F842207B68AA
S3150800194C00225A633B6803F00403002B22D07B6801
S3150800195C5B6A7A681268526AD2B21A707B685B6ADA
S3150800196C5A1C7B685A627B681B8D002B12D07B68CD
S3150800197C1B8D013B9AB27B681A857B685B8D9BB283
S3150800198C013B9AB27B685A857B685B6C43F0040210
S3150800199C7B685A6448F20301786800F0E5F97B68BD
S315080019AC1B681022DA617B68002283F8402078686D
S315080019BCFFF7B3F800BF0837BD4680BD0000FFFF30
S315080019CC80B584B000AF786039607B6893F8413095
S315080019DCFB737B68002283F842207B685D4ADA62D7
S315080019EC7B6800225A857B685A6C3B681A437B686D
S315080019FC5A64FB7B282B05D0FB7B292B02D0FB7B5F
S31508001A0C2A2B0BD10321786800F0AEF97B682822C3
S31508001A1C83F841207B68504A5A6311E048F2030167
S31508001A2C786800F0A1F97B6893F84130DBB2602B3B
S31508001A3C03D07B68202283F841207B6800225A63F6
S31508001A4C7B681B6BBB607B689B6B002B39D0BB68B8
S31508001A5C112B02D0BB68212B33D17B681B681B6802
S31508001A6C03F48043B3F5804F07D17B681B687A680B
S31508001A7C1268126822F480421A607B689B6B1846BF
S31508001A8CFEF7E0FC0346012B17D07B689B6B334AA9
S31508001A9C9A637B68002283F840207B689B6B184608
S31508001AACFEF771FC0346002B4DD07B689B6B9B6B3A
S31508001ABC7A68926B1046984745E0786800F050F8BB
S31508001ACC41E07B68DB6B002B39D0BB68122B02D04C
S31508001ADCBB68222B33D17B681B681B6803F4004355
S31508001AECB3F5004F07D17B681B687A6812681268D1
S31508001AFC22F400421A607B68DB6B1846FEF7A2FCE0
S31508001B0C0346012B17D07B68DB6B144A9A637B68F8
S31508001B1C002283F840207B68DB6B1846FEF733FC03
S31508001B2C0346002B11D07B68DB6B9B6B7A68D26BF8
S31508001B3C1046984709E0786800F012F805E07868CE
S31508001B4C00F00EF802E000BF00E000BF00BF10373F
S31508001B5CBD4680BD0000FFFFDD0D0008031C000814
S31508001B6C80B582B000AF78607B6893F84130DBB201
S31508001B7C602B0ED17B68202283F841207B680022DB
S31508001B8C1A637B68002283F840207868FEF7EDFF1D
S31508001B9C09E07B6800221A637B68002283F84020E0
S31508001BAC7868FEF7D8FF00BF0837BD4680BD80B4FD
S31508001BBC83B000AF78607B681B689B6903F00203EF
S31508001BCC022B03D17B681B6800229A627B681B6810
S31508001BDC9B6903F00103012B07D07B681B687A68A5
S31508001BEC1268926942F001029A6100BF0C37BD4631
S31508001BFC5DF8047B704780B584B000AF78607B686D
S31508001C0C9B6AFB60FB689B6B002B03D0FB689B6B8A
S31508001C1C00229A63FB68DB6B002B03D0FB68DB6B3B
S31508001C2C00229A63F868FFF79BFF00BF1037BD4682
S31508001C3C80BD000080B487B000AFF8607B600B46AF
S31508001C4C7B8113467B727B89C3F309027B7A1B045F
S31508001C5C03F47F031A437B681A433B6A134323F046
S31508001C6C00437B61FB681A68FB681B6859683B6A0A
S31508001C7C5B0D03F48060064B0343DB4319407B6919
S31508001C8C0B43536000BF1C37BD465DF8047B704799
S31508001C9CFF63FF0380B485B000AF78600B467B808A
S31508001CAC0023FB607B685B6B2D4A934204D07B68F0
S31508001CBC5B6B2C4A93421DD1B7F90230002B03DA21
S31508001CCCFB6843F0B803FB607B88102B03D1FB68D9
S31508001CDC43F09003FB607B88202B03D1FB6843F011
S31508001CEC6003FB607B88402B2CD1FB6843F04003D8
S31508001CFCFB6027E0B7F90230002B03DAFB6843F0E8
S31508001D0CB803FB607B8803F00103002B03D0FB6848
S31508001D1C43F0F203FB607B8803F00203002B03D02D
S31508001D2CFB6843F0F403FB607B88102B03D1FB683C
S31508001D3C43F09003FB607B88202B03D1FB6843F0B0
S31508001D4C2003FB607B681B687A6812681168FA685E
S31508001D5C0A431A6000BF1437BD465DF8047B70470A
S31508001D6CCD0F0008A311000880B485B000AF7860C9
S31508001D7C0B467B800023FB607B8803F00103002B5A
S31508001D8C0FD0FB6843F04203FB607B6893F8413045
S31508001D9CDBB203F02803282B03D0FB6843F0B0030F
S31508001DACFB607B8803F00203002B0FD0FB6843F023
S31508001DBC4403FB607B6893F84130DBB203F02803DD
S31508001DCC282B03D0FB6843F0B003FB60B7F902304D
S31508001DDC002B03DAFB6843F0B803FB607B88102BF7
S31508001DEC03D1FB6843F09003FB607B88202B03D15F
S31508001DFCFB6843F02003FB607B88402B03D1FB6810
S31508001E0C43F04003FB607B681B687A6812681168AC
S31508001E1CFA68D2430A401A6000BF1437BD465DF80B
S31508001E2C047B704780B483B000AF786039607B68F8
S31508001E3C93F84130DBB2202B38D17B6893F84030CD
S31508001E4C012B01D1022332E07B68012283F8402062
S31508001E5C7B68242283F841207B681B687A681268A1
S31508001E6C126822F001021A607B681B687A6812688D
S31508001E7C126822F480521A607B681B687A681268AA
S31508001E8C11683A680A431A607B681B687A68126894
S31508001E9C126842F001021A607B68202283F84120FE
S31508001EAC7B68002283F84020002300E002231846B2
S31508001EBC0C37BD465DF8047B704780B485B000AF1F
S31508001ECC786039607B6893F84130DBB2202B39D1C6
S31508001EDC7B6893F84030012B01D1022333E07B68F1
S31508001EEC012283F840207B68242283F841207B68F2
S31508001EFC1B687A681268126822F001021A607B68FD
S31508001F0C1B681B68FB60FB6823F47063FB603B680B
S31508001F1C1B02FA681343FB607B681B68FA681A6035
S31508001F2C7B681B687A681268126842F001021A60AC
S31508001F3C7B68202283F841207B68002283F84020A6
S31508001F4C002300E0022318461437BD465DF8047BCF
S31508001F5C7047000080B400AF054A054B5B6843F434
S31508001F6C0073536000BFBD465DF8047B704700BF25
S31508001F7C0070004080B489B000AF0023FB610023D9
S31508001F8CBB613D4B9B6803F00C033B613A4BDB682A
S31508001F9C03F00303FB603B69002B05D03B690C2B54
S31508001FAC21D1FB68012B1ED1334B1B6803F00803A8
S31508001FBC002B07D1304BD3F894301B0A03F00F03D0
S31508001FCCFB6105E02C4B1B681B0903F00F03FB6137
S31508001FDC2A4AFB6952F82330FB613B69002B0DD169
S31508001FECFB69BB610AE03B69042B02D1244BBB613C
S31508001FFC04E03B69082B01D1224BBB613B690C2BD6
S3150800200C33D11D4BDB6803F00303BB60BB68022BA3
S3150800201C02D0032B03D005E0194B7B6105E0194B65
S3150800202C7B6102E0FB697B6100BF134BDB681B0914
S3150800203C03F00F0301337B600F4BDB681B0A03F0BD
S3150800204C7F037A6902FB03F27B68B2FBF3F37B61CD
S3150800205C094BDB685B0E03F0030301335B003B6043
S3150800206C7A693B68B2FBF3F3BB61BB691846243744
S3150800207CBD465DF8047B704700100240146D0008DD
S3150800208C0024F40000127A0080B400AF034B1B68DE
S3150800209C1846BD465DF8047B704700BF5C000420FB
S315080020AC80B500AFFFF7F0FF0146064B9B681B0A8D
S315080020BC03F00703044AD35C03F01F0321FA03F366
S315080020CC184680BD001002400C6D000880B500AFA4
S315080020DCFFF7DAFF0146064B9B68DB0A03F007039A
S315080020EC044AD35C03F01F0321FA03F3184680BD98
S315080020FC001002400C6D000880B586B000AF786001
S3150800210C0023FB740023BB747B681B6803F4006311
S3150800211C002B3DD07B68DB6E402B0BD0402B04D8B4
S3150800212C002B0ED0202B15D01DE0602B1ED0802B3B
S3150800213C1CD018E0864A864BDB6843F48033D360A0
S3150800214C15E07B6804330021184601F015F903469F
S3150800215CFB740CE07B6820330021184601F0FCF96F
S3150800216C0346FB7403E00123FB7400E000BFFB7C11
S3150800217C002B0BD17649764BD3F89C3023F0E00232
S3150800218C7B68DB6E1343C1F89C3001E0FB7CBB74A7
S3150800219C7B681B6803F48053002B42D07B681B6F4B
S315080021ACB3F5007F0FD0B3F5007F05D8002B11D0FF
S315080021BCB3F5807F17D01FE0B3F5407F1FD0B3F57A
S315080021CC806F1CD018E0624A614BDB6843F480339D
S315080021DCD36015E07B6804330021184601F0CCF86F
S315080021EC0346FB740CE07B6820330021184601F08B
S315080021FCB3F90346FB7403E00123FB7400E000BF4C
S3150800220CFB7C002B0BD15249514BD3F89C3023F451
S3150800221CE0627B681B6F1343C1F89C3001E0FB7CC2
S3150800222CBB747B681B6803F40033002B00F09F809B
S3150800223C00237B74464B9B6D03F08053002B01D116
S3150800224C012300E00023002B0DD0414A404B9B6D27
S3150800225C43F0805393653E4B9B6D03F08053BB60F4
S3150800226CBB6801237B743B4A3A4B1B6843F4807367
S3150800227C1360FDF7CFFFF86009E0FDF7CBFF0246C8
S3150800228CFB68D31A022B02D90323FB7405E0314BE6
S3150800229C1B6803F48073002BEFD0FB7C002B5BD1FF
S315080022AC2B4BD3F8903003F440737B617B69002B7E
S315080022BC1FD07B68D3F890207B699A4219D0244B9F
S315080022CCD3F8903023F440737B61214A204BD3F822
S315080022DC903043F48033C2F890301D4A1C4BD3F827
S315080022EC903023F48033C2F89030194A7B69C2F8CF
S315080022FC90307B6903F00103002B16D0FDF78AFF9B
S3150800230CF8600BE0FDF786FF0246FB68D31A41F22C
S3150800231C8832934202D90323FB7406E00C4BD3F89C
S3150800232C903003F00203002BECD0FB7C002B0CD175
S3150800233C0749074BD3F8903023F440727B68D3F8DF
S3150800234C90301343C1F8903008E0FB7CBB7405E071
S3150800235C0010024000700040FB7CBB747B7C012B98
S3150800236C05D1A04A9F4B9B6D23F0805393657B68E0
S3150800237C1B6803F00103002B0AD09A49994BD3F832
S3150800238C883023F003027B68DB6B1343C1F8883073
S3150800239C7B681B6803F00203002B0AD09149914B0A
S315080023ACD3F8883023F00C027B681B6C1343C1F8F6
S315080023BC88307B681B6803F00403002B0AD0894914
S315080023CC884BD3F8883023F030027B685B6C134358
S315080023DCC1F888307B681B6803F00803002B0AD009
S315080023EC8049804BD3F8883023F0C0027B689B6CFD
S315080023FC1343C1F888307B681B6803F01003002B65
S3150800240C0AD07849774BD3F8883023F440727B6826
S3150800241CDB6C1343C1F888307B681B6803F0200318
S3150800242C002B0AD06F496F4BD3F8883023F44062DF
S3150800243C7B681B6D1343C1F888307B681B6803F4F3
S3150800244C0073002B0AD06749664BD3F8883023F4FF
S3150800245C40227B685B6E1343C1F888307B681B6827
S3150800246C03F48063002B0AD05E495E4BD3F88830A0
S3150800247C23F440127B689B6E1343C1F888307B6843
S3150800248C1B6803F04003002B0AD05649554BD3F86A
S3150800249C883023F440527B685B6D1343C1F888304F
S315080024AC7B681B6803F08003002B0AD04D494D4B03
S315080024BCD3F8883023F440427B689B6D1343C1F8EC
S315080024CC88307B681B6803F48073002B0AD0454957
S315080024DC444BD3F8883023F440327B68DB6D1343C6
S315080024ECC1F888307B681B6803F48013002B0AD06C
S315080024FC3C493C4BD3F89C3023F003027B681B6E9B
S3150800250C1343C1F89C307B681B6803F40053002BFB
S3150800251C28D03449334BD3F8883023F040627B6893
S3150800252C5B6F1343C1F888307B685B6FB3F1006F40
S3150800253C06D12C4A2B4BDB6843F48013D36011E08D
S3150800254C7B685B6FB3F1806F0CD17B680433012118
S3150800255C184600F011FF0346FB74FB7C002B01D0D8
S3150800256CFB7CBB747B681B6803F40023002B4DD0E3
S3150800257C7B689B6FB3F5804F08D11A4A194BD3F871
S3150800258C9C3043F48043C2F89C3012E0154A154B34
S3150800259CD3F89C3023F48043C2F89C301149114B74
S315080025ACD3F8883023F040627B689B6F1343C1F8DD
S315080025BC88307B689B6FB3F1006F06D1094A094BCB
S315080025CCDB6843F48013D36020E07B689B6FB3F51C
S315080025DC804F09D1034A034BDB6843F48033D3603D
S315080025EC14E000BF001002407B689B6FB3F1806F4C
S315080025FC0CD17B6804330121184600F0BDFE034656
S3150800260CFB74FB7C002B01D0FB7CBB747B681B68C2
S3150800261C03F48023002B28D04A494A4BD3F8883038
S3150800262C23F040627B68DB6F1343C1F888307B6804
S3150800263CDB6FB3F1006F06D1424A424BDB6843F4B9
S3150800264C8013D36011E07B68DB6FB3F1806F0CD11C
S3150800265C7B6804330121184600F08EFE0346FB7492
S3150800266CFB7C002B01D0FB7CBB747B681B6803F4DA
S3150800267C8043002B1ED03349324BD3F8883023F0D5
S3150800268C40527B68D3F880301343C1F888307B6896
S3150800269CD3F88030B3F1805F0CD17B680433022108
S315080026AC184600F069FE0346FB74FB7C002B01D030
S315080026BCFB7CBB747B681B6803F48033002B0BD044
S315080026CC2049204BD3F89C3023F004027B68D3F8BE
S315080026DC84301343C1F89C307B681B6803F40013E1
S315080026EC002B0BD01749174BD3F89C3023F0180244
S315080026FC7B68D3F888301343C1F89C307B681B6819
S3150800270C03F08073002B17D00E490E4BD3F89C3070
S3150800271C23F440127B68D3F88C301343C1F89C30F1
S3150800272C7B68D3F88C30B3F5001F05D1054A054BE9
S3150800273CDB6843F48013D360BB7C18461837BD4658
S3150800274C80BD00BF0010024080B588B000AF78602D
S3150800275C0023FB617B68B3F5003F37D1AF4BD3F849
S3150800276C903003F440733B613B69B3F5007F14D09A
S3150800277CB3F5407F1ED0B3F5807F01D000F0F3BDD2
S3150800278CA64BD3F8903003F00203022B40F0E485F5
S3150800279C4FF40043FB6100F0DFBDA04BD3F8943037
S315080027AC03F00203022B40F0D9854FF4FA43FB6180
S315080027BC00F0D4BD994B1B6803F40033B3F5003F06
S315080027CC40F0CE85964BFB6100F0CABD934BDB6897
S315080027DC03F00303FB60FB68022B23D0032B2ED0DC
S315080027EC012B39D18D4B1B6803F00203022B16D132
S315080027FC8A4B1B6803F00803002B05D0874B1B6814
S3150800280C1B0903F00F0305E0844BD3F894301B0A1D
S3150800281C03F00F03834A52F82330BB611FE00023F1
S3150800282CBB611CE07D4B1B6803F48063B3F5806FBA
S3150800283C02D17D4BBB6112E00023BB610FE0774BE5
S3150800284C1B6803F40033B3F5003F02D1774BBB6129
S3150800285C05E00023BB6102E00023BB6100BF7B6877
S3150800286CB3F5806F00F0CE84B3F5806F2DD8102B9E
S3150800287C00F0F982102B11D8022B00F04382022BA0
S3150800288C04D8012B00F0FD8100F06DBD042B00F07F
S3150800289C8282082B00F0B38200F065BD802B00F015
S315080028AC0984802B07D8202B00F01583402B00F0C9
S315080028BCDE8300F058BDB3F5807F00F01E84B3F5B7
S315080028CC007F00F05E8400F04EBDB3F5803F00F04B
S315080028DC7D83B3F5803F13D8B3F5805F32D0B3F55B
S315080028EC805F04D8B3F5006F24D000F03CBDB3F577
S315080028FC005F2FD0B3F5804F00F0258300F033BD71
S3150800290CB3F5801F00F01C84B3F5801F08D8B3F507
S3150800291C802F1FD0B3F5002F00F0CD8000F023BD1B
S3150800292CB3F5001F00F06383B3F1807F00F0B28427
S3150800293C00F019BDB9694FF4006000F0FDFEF861AE
S3150800294C00F011BDB9694FF4805000F0F5FEF8613E
S3150800295C00F009BD314BD3F8883003F040633B6176
S3150800296C3B69B3F1806F63D0B3F1806F03D8002B4A
S3150800297C00F08B809DE0B3F1006F21D0B3F1406F6E
S3150800298C00D096E0254B1B6803F00203022B40F09F
S3150800299C8680224B1B6803F00803002B05D01F4BBF
S315080029AC1B681B0903F00F0305E01C4BD3F8943086
S315080029BC1B0A03F00F031B4A52F82330FB616EE027
S315080029CC164B1B6803F00073B3F1007F6AD1134BE7
S315080029DCDB6803F48013B3F5801F63D10F4BDB68F8
S315080029EC1B0A03F07F03BB60BB69BA6802FB03F2E0
S315080029FC0A4BDB681B0903F00F030133B2FBF3F335
S31508002A0CBB61064BDB685B0D03F0030301335B000C
S31508002A1CBA69B2FBF3F3FB6144E000BF0010024055
S31508002A2C90D00300146D00080024F40000127A00FC
S31508002A3CB04B1B6803F00063B3F1006F35D1AD4B97
S31508002A4C1B6903F48013B3F5801F2ED1A94B1B69A0
S31508002A5C1B0A03F07F03BB60BB69BA6802FB03F26F
S31508002A6CA44B1B691B0903F00F030133B2FBF3F3E9
S31508002A7CBB61A04B1B695B0D03F0030301335B00C1
S31508002A8CBA69B2FBF3F3FB610FE09A4BD3F89830B3
S31508002A9C03F00203022B0BD1974BFB6108E000BF36
S31508002AAC00F061BC00BF00F05EBC00BF00F05BBC70
S31508002ABC00BF00F058BC8F4BD3F89C3003F480430E
S31508002ACCB3F5804F3DD18B4B1B6803F00073B3F104
S31508002ADC007F40F04784874BDB6803F48033B3F5FB
S31508002AEC803F40F03F84834BDB681B0A03F07F036F
S31508002AFCBB60BB69BA6802FB03F27E4BDB681B0939
S31508002B0C03F00F030133B2FBF3F3BB61794BDB68BC
S31508002B1CDB0E03F01F037B617B69002B0AD1754B17
S31508002B2CDB6803F40033002B02D011237B6101E030
S31508002B3C07237B61BA697B69B2FBF3F3FB6100F08F
S31508002B4C11BC6C4BD3F8883003F040633B613B698E
S31508002B5CB3F1806F56D0B3F1806F02D8002B7ED0BC
S31508002B6C8EE0B3F1006F20D0B3F1406F00D087E050
S31508002B7C604B1B6803F00203022B7AD15D4B1B6872
S31508002B8C03F00803002B05D05A4B1B681B0903F0EE
S31508002B9C0F0305E0574BD3F894301B0A03F00F03C9
S31508002BAC564A52F82330FB6163E0524B1B6803F01C
S31508002BBC0073B3F1007F5ED14E4BDB6803F48013D0
S31508002BCCB3F5801F57D14B4BDB681B0A03F07F0309
S31508002BDCBB60BB69BA6802FB03F2464BDB681B0990
S31508002BEC03F00F030133B2FBF3F3BB61414BDB6814
S31508002BFC5B0D03F0030301335B00BA69B2FBF3F315
S31508002C0CFB6138E03B4B1B6803F00063B3F1006FC4
S31508002C1C33D1384B1B6903F48013B3F5801F2CD1C1
S31508002C2C344B1B691B0A03F07F03BB60BB69BA688C
S31508002C3C02FB03F22F4B1B691B0903F00F0301332D
S31508002C4CB2FBF3F3BB612B4B1B695B0D03F0030360
S31508002C5C01335B00BA69B2FBF3F3FB610DE0254B5C
S31508002C6CD3F8983003F00203022B08D1224BFB61F0
S31508002C7C05E000BF76E300BF74E300BF72E300BF54
S31508002C8C70E31C4BD3F8883003F003033B613B69B4
S31508002C9C032B28D801A252F823F000BFB92C000840
S31508002CACC12C0008C92C0008DD2C0008FFF70EFA09
S31508002CBCF8611DE0FFF75EF9F86119E00D4B1B682A
S31508002CCC03F48063B3F5806F0FD10D4BFB610CE0F9
S31508002CDC084BD3F8903003F00203022B07D14FF4BC
S31508002CEC0043FB6103E000BF3DE300BF3BE300BFCD
S31508002CFC39E300BF00100240006CDC02146D0008BA
S31508002D0C0024F400AF4BD3F8883003F00C033B6176
S31508002D1C3B690C2B39D801A252F823F05D2D00081B
S31508002D2C972D0008972D0008972D0008652D00088B
S31508002D3C972D0008972D0008972D00086D2D000873
S31508002D4C972D0008972D0008972D0008812D00084F
S31508002D5CFFF7A6F9F8611DE0FFF70CF9F86119E021
S31508002D6C984B1B6803F48063B3F5806F0FD1964BB1
S31508002D7CFB610CE0934BD3F8903003F00203022B63
S31508002D8C07D14FF40043FB6103E000BFEBE200BF41
S31508002D9CE9E200BFE7E28B4BD3F8883003F0300347
S31508002DAC3B613B69102B0DD0102B02D8002B05D09C
S31508002DBC24E0202B0AD0302B12D01FE0FFF770F935
S31508002DCCF8611BE0FFF7D6F8F86117E07D4B1B6836
S31508002DDC03F48063B3F5806F0DD17B4BFB610AE07E
S31508002DEC784BD3F8903003F00203022B05D14FF43D
S31508002DFC0043FB6101E000BFB5E200BFB3E2714BD3
S31508002E0CD3F8883003F0C0033B613B69402B0DD0E7
S31508002E1C402B02D8002B05D024E0802B0AD0C02BDF
S31508002E2C12D01FE0FFF73CF9F8611BE0FFF7A2F898
S31508002E3CF86117E0634B1B6803F48063B3F5806F86
S31508002E4C0DD1614BFB610AE05E4BD3F8903003F071
S31508002E5C0203022B05D14FF40043FB6101E000BFCE
S31508002E6C81E200BF7FE2574BD3F8883003F44073F6
S31508002E7C3B613B69B3F5807F10D0B3F5807F02D8F0
S31508002E8C002B07D026E0B3F5007F0BD0B3F5407FB7
S31508002E9C12D01FE0FFF704F9F8611BE0FFF76AF898
S31508002EACF86117E0474B1B6803F48063B3F5806F32
S31508002EBC0DD1454BFB610AE0424BD3F8903003F039
S31508002ECC0203022B05D14FF40043FB6101E000BF5E
S31508002EDC49E200BF47E23B4BD3F8883003F4406322
S31508002EEC3B613B69B3F5806F10D0B3F5806F02D8A0
S31508002EFC002B07D026E0B3F5006F0BD0B3F5406F67
S31508002F0C12D01FE0FFF7CCF8F8611BE0FFF732F898
S31508002F1CF86117E02B4B1B6803F48063B3F5806FDD
S31508002F2C0DD1294BFB610AE0264BD3F8903003F000
S31508002F3C0203022B05D14FF40043FB6101E000BFED
S31508002F4C11E200BF0FE21F4BD3F8883003F0405351
S31508002F5C3B613B69B3F1805F07D0B3F1405F00D0AA
S31508002F6C2FE0FFF707F8F8612BE0164B1B6803F008
S31508002F7C0063B3F1006F23D1124B1B6903F0807306
S31508002F8C002B1DD00F4B1B691B0A03F07F03BB607C
S31508002F9CBB69BA6802FB03F20A4B1B691B0903F0EF
S31508002FAC0F030133B2FBF3F3BB61064B1B695B0ED4
S31508002FBC03F0030301335B00BA69B2FBF3F3FB615D
S31508002FCC00BFD0E1001002400024F400AC4BD3F84B
S31508002FDC9C3003F004033B613B69002B03D1FFF7DC
S31508002FEC75F8F861BFE1FEF7C5FFF861BBE1A44BC4
S31508002FFCD3F89C3003F018033B613B69082B28D0A7
S3150800300C102B09D0002B00D030E0B9694FF40060C2
S3150800301C00F092FBF86129E0994B1B6803F0020358
S3150800302C022B20D1964B1B6803F00803002B05D006
S3150800303C934B1B681B0903F00F0305E0904BD3F861
S3150800304C94301B0A03F00F038E4A52F82330FB61A7
S3150800305C09E08B4B1B6803F48063B3F5806F04D1CE
S3150800306C894BFB6101E000BF7DE100BF7BE1844B2E
S3150800307CD3F8883003F440533B613B69B3F5805F62
S3150800308C09D0B3F5005F0AD0002B00D011E0FFF78A
S3150800309C07F8F8610DE0FEF76DFFF86109E0784B6B
S315080030AC1B6803F48063B3F5806F01D1764BFB6123
S315080030BC00BF58E1724BD3F8883003F440433B61A8
S315080030CC3B69B3F5804F09D0B3F5004F0AD0002BF6
S315080030DC00D011E0FEF7E4FFF8610DE0FEF74AFFB9
S315080030ECF86109E0664B1B6803F48063B3F5806FDF
S315080030FC01D1654BFB6100BF35E1614BD3F88830D4
S3150800310C03F440333B613B69B3F5803F09D0B3F513
S3150800311C003F0AD0002B00D011E0FEF7C1FFF86182
S3150800312C0DE0FEF727FFF86109E0554B1B6803F421
S3150800313C8063B3F5806F01D1534BFB6100BF12E17D
S3150800314C4F4BD3F89C3003F003033B613B69012BCF
S3150800315C08D0012B02D3022B08D011E0FEF7A0FFF2
S3150800316CF8610DE0FEF706FFF86109E0444B1B68B1
S3150800317C03F48063B3F5806F01D1434BFB6100BF49
S3150800318CF1E03F4BD3F8883003F440233B613B69AD
S3150800319CB3F5802F10D0B3F5802F02D8002B07D0AB
S315080031AC2FE0B3F5002F12D0B3F5402F19D028E035
S315080031BCFEF776FFF86124E0314BD3F8943003F030
S315080031CC0203022B18D14FF4FA43FB6114E02C4B83
S315080031DC1B6803F48063B3F5806F0FD12A4BFB6130
S315080031EC0CE0274BD3F8903003F00203022B07D1DF
S315080031FC4FF40043FB6103E000BFB4E000BFB2E04C
S3150800320C00BFB0E01E4BD3F8883003F440133B6183
S3150800321C3B69B3F5801F10D0B3F5801F02D8002B7D
S3150800322C07D036E0B3F5001F12D0B3F5401F19D0FE
S3150800323C2FE0FEF735FFF8612BE0114BD3F89430ED
S3150800324C03F00203022B18D14FF4FA43FB6114E086
S3150800325C0B4B1B6803F48063B3F5806F16D10A4BCE
S3150800326CFB6113E0064BD3F8903003F00203022BF4
S3150800327C0ED14FF40043FB610AE000BF73E000BFB8
S3150800328C00100240146D00080024F40000BF6AE028
S3150800329C00BF68E0364BD3F89C3003F440133B610F
S315080032AC3B69B3F5801F09D0B3F5001F23D0002B5B
S315080032BC00D050E0FEF75EFEF8614CE02C4B1B6824
S315080032CC03F00203022B43D1294B1B6803F00803B6
S315080032DC002B05D0264B1B681B0903F00F0305E0D2
S315080032EC234BD3F894301B0A03F00F03214A52F8E8
S315080032FC2330FB612CE01E4B1B6803F00073B3F103
S3150800330C007F27D11A4BDB6803F48013B3F5801FB3
S3150800331C20D1174BDB681B0A03F07F03BB60BB6924
S3150800332CBA6802FB03F2124BDB681B0903F00F03A6
S3150800333C0133B2FBF3F3BB610D4BDB685B0D03F09A
S3150800334C030301335B00BA69B2FBF3F3FB6101E0DB
S3150800335C00BF08E000BF06E000BF04E000BF02E0C3
S3150800336C00BF00E000BFFB6918462037BD4680BD8C
S3150800337C00100240146D000880B584B000AF786068
S3150800338C39600023FB73704BDB6803F00303002BD7
S3150800339C0ED06D4BDB6803F003027B681B689A4200
S315080033AC03D17B681B68002B3FD10123FB733CE0E0
S315080033BC7B681B68022B0CD0032B13D0012B20D156
S315080033CC614B1B6803F00203002B1DD10123FB7311
S315080033DC1AE05D4B1B6803F48063002B16D101239E
S315080033ECFB7313E0584B1B6803F40033002B0FD107
S315080033FC554B1B6803F48023002B09D10123FB735F
S3150800340C06E00123FB7304E000BF02E000BF00E006
S3150800341C00BFFB7B002B08D14B494B4BDB6823F0D9
S3150800342C03027B681B681343CB60FB7B002B40F0C5
S3150800343C8680454A444B1B6823F080631360FCF76F
S3150800344CE9FEB86009E0FCF7E5FE0246BB68D31A4C
S3150800345C022B02D90323FB7305E03B4B1B6803F0D5
S3150800346C0063002BEFD1FB7B002B68D13B68002B4C
S3150800347C13D13548344B1A69344B13407A68926821
S3150800348C11027A68D268D20611437A685268013AF0
S3150800349C12010A43134303612DE03B68012B15D136
S315080034AC2948294B1A692A4B13407A6892681102E3
S315080034BC7A6812695208013A520511437A685268B9
S315080034CC013A12010A431343036114E01E481E4BCA
S315080034DC1A69204B13407A68926811027A68526905
S315080034EC5208013A520611437A685268013A120197
S315080034FC0A4313430361144A134B1B6843F0806356
S3150800350C1360FCF787FEB86009E0FCF783FE0246F9
S3150800351CBB68D31A022B02D90323FB7305E00A4BAB
S3150800352C1B6803F00063002BEFD0FB7B002B06D146
S3150800353C0549054B1A697B689B6913430B61FB7B31
S3150800354C18461037BD4680BD001002400F80FF0795
S3150800355C0F809FFF0F80FFF980B584B000AF7860AD
S3150800356C39600023FB73704BDB6803F00303002BF5
S3150800357C0ED06D4BDB6803F003027B681B689A421E
S3150800358C03D17B681B68002B3FD10123FB733CE0FE
S3150800359C7B681B68022B0CD0032B13D0012B20D174
S315080035AC614B1B6803F00203002B1DD10123FB732F
S315080035BC1AE05D4B1B6803F48063002B16D10123BC
S315080035CCFB7313E0584B1B6803F40033002B0FD125
S315080035DC554B1B6803F48023002B09D10123FB737D
S315080035EC06E00123FB7304E000BF02E000BF00E025
S315080035FC00BFFB7B002B08D14B494B4BDB6823F0F8
S3150800360C03027B681B681343CB60FB7B002B40F0E3
S3150800361C8680454A444B1B6823F080531360FCF79D
S3150800362CF9FDB86009E0FCF7F5FD0246BB68D31A4C
S3150800363C022B02D90323FB7305E03B4B1B6803F0F3
S3150800364C0053002BEFD1FB7B002B68D13B68002B7A
S3150800365C13D13548344B5A69344B13407A689268FF
S3150800366C11027A68D268D20611437A685268013A0E
S3150800367C12010A43134343612DE03B68012B15D114
S3150800368C2948294B5A692A4B13407A6892681102C1
S3150800369C7A6812695208013A520511437A685268D7
S315080036AC013A12010A431343436114E01E481E4BA8
S315080036BC5A69204B13407A68926811027A685269E3
S315080036CC5208013A520611437A685268013A1201B5
S315080036DC0A4313434361144A134B1B6843F0805344
S315080036EC1360FCF797FDB86009E0FCF793FD0246FA
S315080036FCBB68D31A022B02D90323FB7305E00A4BCA
S3150800370C1B6803F00053002BEFD0FB7B002B06D174
S3150800371C0549054B5A697B689B6913434B61FB7BCF
S3150800372C18461037BD4680BD001002400F80FF07B3
S3150800373C0F809FFF0F80FFF980B489B000AF7860C7
S3150800374C39600023FB610023BB6100237B617B6826
S3150800375CB3F5006F0CD17F4BD3F89C3003F0E00324
S3150800376CBB61BB69602B14D14BF68033FB6110E04F
S3150800377C7B68B3F5805F0CD1764BD3F89C3003F499
S3150800378CE063BB61BB69B3F5407F02D14BF680336E
S3150800379CFB61FB69002B40F0D6803B683B61BB693B
S315080037AC402B03D0BB69B3F5007F3BD1694B1B6833
S315080037BC03F00073B3F1007F40F0C480654BDB68FF
S315080037CC03F48033002B00F0BD80624BDB681B09C9
S315080037DC03F00F0301333A69B2FBF3F33B615D4B1C
S315080037ECDB681B0A03F07F03FB605A4BDB68DB0EB6
S315080037FC03F01F037B617B69002B0AD1554BDB68F1
S3150800380C03F40033002B02D011237B6101E007235C
S3150800381C7B613B69FA6802FB03F27B69B2FBF3F343
S3150800382CFB618FE0BB69002B3AD14A4B1B6803F04E
S3150800383C0063B3F1006F40F08680464B1B6903F4B6
S3150800384C8033002B7FD0434B1B691B0903F00F03F6
S3150800385C01333A69B2FBF3F33B613E4B1B691B0A16
S3150800386C03F07F03FB603B4B1B69DB0E03F01F0366
S3150800387C7B617B69002B0AD1364B1B6903F4003339
S3150800388C002B02D011237B6101E007237B613B6986
S3150800389CFA6802FB03F27B69B2FBF3F3FB6152E0B5
S315080038ACBB69802B03D0BB69B3F5806F09D1294B53
S315080038BC1B6803F48063B3F5806F44D1264BFB6118
S315080038CC41E0BB69202B03D0BB69B3F5807F3AD1A5
S315080038DC204B1B6803F00053B3F1005F33D11D4B2B
S315080038EC5B6903F48033002B2DD01A4B5B691B09DB
S315080038FC03F00F0301333A69B2FBF3F33B61154B43
S3150800390C5B691B0A03F07F03FB60124B5B69DB0EDA
S3150800391C03F01F037B617B69002B0AD10D4B5B6996
S3150800392C03F40033002B02D011237B6101E007233B
S3150800393C7B613B69FA6802FB03F27B69B2FBF3F322
S3150800394CFB6100E000BFFB6918462437BD465DF8ED
S3150800395C047B7047001002400024F40080B582B046
S3150800396C00AFFB1C01221946002001F08BFD786084
S3150800397CFB7818460837BD4680BD000080B586B072
S3150800398C00AF0346FB71284B3B61FB79092B44D0EE
S3150800399C0A2B02D0082B42D031E03B6993F88530CC
S315080039AC5A1CD1B23A6982F885101A463B691344F7
S315080039BC00225A710023FB7516E0FB7D1133DB00E0
S315080039CC3A691344FB603B695A1DFB681B68194628
S315080039DC1046FCF70DFC0346002B02D1FB685B680E
S315080039EC9847FB7D0133FB753B6993F80831FA7DE3
S315080039FC9A42E2D33B69002283F8852010E03B69A2
S31508003A0C93F885305A1CD1B23A6982F885101A4651
S31508003A1C3B691344FA795A7102E000BF00E000BF13
S31508003A2C00BF1837BD4680BD7C00042080B586B023
S31508003A3C00AF78603960104B7B617B6993F88530F1
S31508003A4C002B02D10D4800F047F8FFF787FF034615
S31508003A5C3B7300237B733B7B0D2B01D10A233B73F2
S31508003A6C07F10C03184600F037F803463B613B7B1D
S31508003A7C1846FFF783FFE0E77C00042084670008FC
S31508003A8C80B584B002AF114B7B604FF4867200216F
S31508003A9C786802F04CFE00230193002300934FF440
S31508003AAC805303220A490B4802F094FC02467B68B1
S31508003ABC1A607B6800221A714FF41651002001F027
S31508003ACCFFFB386000BF0837BD4680BD7C0004206C
S31508003ADC90670008393A000880B584B000AF786062
S31508003AEC7868FCF78FFB0346FB73FB7B1A467968F1
S31508003AFC002001F051FCB860BB68DBB218461037E1
S31508003B0CBD4680BD80B485B000AF78607B68002B5D
S31508003B1C02D14FF0FF3328E0174BFB60FB6893F894
S31508003B2C08310F2B02D94FF0FF331EE0FB6893F8D0
S31508003B3C08311A467B681968FB68113243F832104B
S31508003B4CFB6893F8083118467B685A68F96800F1DF
S31508003B5C1103DB000B445A60FB6893F808310133F8
S31508003B6CDAB2FB6883F80821002318461437BD46D9
S31508003B7C5DF8047B704700BF7C00042080B483B0DA
S31508003B8C00AF786000BF0C37BD465DF8047B704704
S31508003B9C80B483B000AF786000BF0C37BD465DF8C3
S31508003BAC047B704780B588B000AF78603960244BC9
S31508003BBCFB61FB691B7A07F1180207F10C01184621
S31508003BCC02F093FCB96907F110030822184602F0B3
S31508003BDCA3FDBB69184602F05FFCFB691A68BB6952
S31508003BEC1B6818495200134451F83330002B0DD07A
S31508003BFCFB691A68BB691B6812495200134451F8D1
S31508003C0C333007F11002043210469847FB691A68DC
S31508003C1CBB691B680B4952001344DB000B441B7928
S31508003C2C032BC6D0FB691A68BB691B680549520089
S31508003C3C1344DB000B441B791A46FB691A60B8E778
S31508003C4C88010420AC68000880B584B002AF124B1A
S31508003C5C7B60124A0021786802F069FD7B680222B3
S31508003C6C1A7210214FF47A5000F028FC38600023A1
S31508003C7C0193002300934FF480530A2208490948FC
S31508003C8C02F0A8FB02467B685A607B6801221A6020
S31508003C9C00BF0837BD4680BD880104200CE8030028
S31508003CAC98670008B13B000880B400AFFEE7000037
S31508003CBC80B5B8B000AF07F14C0394220021184622
S31508003CCC02F035FD4023FB640023C7F8A03007F14A
S31508003CDC4C031846FEF710FA0346002B01D0FFF7E3
S31508003CECE3FF8023FB640023C7F8A43007F14C03D9
S31508003CFC1846FEF701FA0346002B01D0FFF7D4FF4E
S31508003D0C4FF40063FB640023C7F8B83001233B6506
S31508003D1C02237B650C23BB650223FB6502233B66EA
S31508003D2C02237B664FF48033BB6607F14C031846B7
S31508003D3CFEF7E2F90346002B01D0FFF7B5FF754AEB
S31508003D4C744B1B6E43F480431366724B1B6E03F461
S31508003D5C8043BB64BB6C6F4A6E4B9B6D43F400335C
S31508003D6C93656C4B9B6D03F400337B647B6C694ADF
S31508003D7C684B9B6D43F480239365664B9B6D03F4EC
S31508003D8C80233B643B6C634A624B9B6D43F4001384
S31508003D9C9365604B9B6D03F40013FB63FB6B5D4AE9
S31508003DAC5C4B9B6D43F4800393655A4B9B6D03F4F4
S31508003DBC8003BB63BB6B574A564B1B6E43F400130D
S31508003DCC1366544B1B6E03F400137B637B6B514ACF
S31508003DDC504B9B6D43F0010393654E4B9B6D03F063
S31508003DEC01033B633B6B4B4A4A4B9B6D43F0020307
S31508003DFC9365484B9B6D03F00203FB62FB6A454ACD
S31508003E0C444B9B6D43F004039365424B9B6D03F047
S31508003E1C0403BB62BB6A3F4A3E4B9B6D43F00803E7
S31508003E2C93653C4B9B6D03F008037B627B6A394AAE
S31508003E3C384B1B6E43F480331366364B1B6E03F4F8
S31508003E4C80333B623B6A334A324B1B6E43F4003376
S31508003E5C1366304B1B6E03F40033FB61FB692D4A6A
S31508003E6C2C4B1B6E43F4802313662A4B1B6E03F4F0
S31508003E7C8023BB61BB69274A264B9B6D43F0805355
S31508003E8C9365244B9B6D03F080537B617B69214AB8
S31508003E9C204BDB6C43F00103D3641E4BDB6C03F045
S31508003EAC01033B613B691B4A1A4BDB6C43F002036B
S31508003EBCD364184BDB6C03F00203FB60FB68154AF2
S31508003ECC144BDB6C43F00403D364124BDB6C03F02A
S31508003EDC0403BB60BB680F4A0E4BDB6C43F0400314
S31508003EECD3640C4BDB6C03F040037B607B68094A9C
S31508003EFC084BDB6C43F01003D364064BDB6C03F006
S31508003F0C10033B603B68FEF725F800BFE037BD465B
S31508003F1C80BD00BF0010024080B582B000AF78604B
S31508003F2C0348FFF7D9FD00BF0837BD4680BD00BF63
S31508003F3CA867000880B584B000AF7860064BFB60B4
S31508003F4C0648FFF7C9FDFB68002283F8122400BF58
S31508003F5C1037BD4680BD00BF94E90720C867000826
S31508003F6C80B584B000AF78600B46FB70FB781A46B8
S31508003F7C7968012001F010FAF860FB6818461037CA
S31508003F8CBD4680BD80B584B000AF78600B46FB702B
S31508003F9C064BFB600222F968012001F0FDF9B860B6
S31508003FACBB6818461037BD4680BD00BFEC670008D5
S31508003FBC80B584B000AF78600B46FB70064BFB608F
S31508003FCC0A22F968012001F0E7F9B860BB681846BF
S31508003FDC1037BD4680BD00BFF067000880B584B0B9
S31508003FEC00AF78600B46FB700B4BBB600722B968B9
S31508003FFC012001F0D1F9F860FB68B3F1FF3F06D058
S3150800400CFB781A467968012001F0C6F9F860FB6856
S3150800401C18461037BD4680BDFC67000880B584B0CD
S3150800402C00AF78600B46FB70144BBB60FB78012B1A
S3150800403C02D04FF0FF331CE07B681B78082B03D8A3
S3150800404C7B681B78002B02D14FF0FF3311E0072257
S3150800405CB968012001F0A0F9F860FB68B3F1FF3FDD
S3150800406C06D0FB781A467968012001F095F9F860B4
S3150800407CFB6818461037BD4680BD00BF04680008AB
S3150800408C80B584B000AF78600B46FB700E4BBB60F6
S3150800409CFB78042B02D04FF0FF3311E00622B968E7
S315080040AC012001F079F9F860FB68B3F1FF3F06D0FF
S315080040BCFB781A467968012001F06EF9F860FB68FE
S315080040CC18461037BD4680BD0C68000880B586B00A
S315080040DC00AF78607B687B610E4B3B617B691B7814
S315080040EC1A460D4B53F822307A6950687A69127A57
S315080040FC11469847F860FB68002B02D00748FFF773
S3150800410CEBFC3B69002283F8122400BF1837BD4626
S3150800411C80BD00BF94E9072000000420146800083D
S3150800412C80B582B000AF0123FB71FA79BB1D194625
S3150800413C012000F029F900BF0837BD4680BD80B5BF
S3150800414C82B000AF0123FB71FA79BB1D1946022018
S3150800415C00F01AF900BF0837BD4680BD80B582B09D
S3150800416C00AF074B7B600423FB70FB781A46796813
S3150800417C032000F009F900BF0837BD4680BD00BF13
S3150800418C2468000880B487B000AF0346B9607A602B
S3150800419CFB73BB687B6100BF1C37BD465DF8047BAF
S315080041AC7047000080B586B000AF786039601D4B4B
S315080041BC7B6107F10F0301221946012001F062F910
S315080041CC38617B691B68022B25D17B6993F8113200
S315080041DC5A1CD1B27A6982F811121946FA7B7B6994
S315080041EC0B445A747B69D3F818347A6992F81122FD
S315080041FC9342DED87B69D3F81434002BD9D07B696B
S3150800420CD3F814347A6902F111007A6992F81122FA
S3150800421C11469847CDE707F10F031846FFF75CFCE4
S3150800422CC7E700BF94E9072080B58AB000AF78606D
S3150800423C3960284B7B627B6A1B7C07F1200207F1ED
S3150800424C0C01184602F051F9396A07F110031022CD
S3150800425C184602F061FA3B6A184602F01DF97B6AA9
S3150800426C1A683B6A19681C4813465B0013440B44CE
S3150800427C50F83330002B0FD07B6A1A683B6A1968E2
S3150800428C154813465B0013440B4450F8333007F1BA
S3150800429C10020432104698477B6A1A683B6A1968FA
S315080042AC0D4813465B0013440B44DB0003441B798F
S315080042BC042BC0D07B6A1A683B6A196806481346F1
S315080042CC5B0013440B44DB0003441B791A467B6AD8
S315080042DC1A60B0E794E90720F068000880B584B046
S315080042EC02AF224B7B604FF4E131012000F0E8FF6E
S315080042FC38603B68002B02D04FF0FF3331E040F2B8
S3150800430C1C420021786802F012FA7B6801221A74A2
S3150800431C00230193002300934FF480530822144979
S3150800432C144802F057F802467B685A60002301933A
S3150800433C002300934FF4805308220F490F4802F0CC
S3150800434C49F802467B689A607B680D4A0D4900203D
S3150800435C00F0E8FD002000F049FE7B6801221A6097
S3150800436C002318460837BD4680BD00BF94E90720D0
S3150800437C2C680008B14100083C6800083542000862
S3150800438C91410008EC68000880B586B000AF03467A
S3150800439C3960FB711346BB71274B3B613B68002B9D
S315080043AC02D14FF0FF3343E03B691B68002B02D167
S315080043BC4FF0FF333CE03B6993F81234002B02D0E4
S315080043CC4FF0FF3334E0102002F055F8F860FB6824
S315080043DC02221A6071B60023FB750CE0FA7D3B6865
S315080043EC591C396019783B6913440A4683F812221A
S315080043FCFB7D0133FB75FA7DBB799A42EED33B699B
S3150800440CBA7983F8122461B6FB68FA791A713B6992
S3150800441C03F21222FB689A603B6993F81224FB6834
S3150800442C1A733B691B7CFA681021184602F045F88A
S3150800443C18461837BD4680BD94E9072080B582B06A
S3150800444C00AF0E4B3B600E4B7B603B461846FFF7A6
S3150800445C59FB0C4B3B600C4B7B603B461846FFF7F5
S3150800446C51FB0A4B3B600A4B7B603B461846FFF7F1
S3150800447C49FB00BF0837BD4680BD00BF4C68000825
S3150800448C2D410008646800084B4100087468000850
S3150800449C6941000880B582B000AF074B7B600122EA
S315080044AC0021786802F043F97B6801221A7000BF74
S315080044BC0837BD4680BD00BFB0ED072080B588B073
S315080044CC00AF78600B46FB702D4BBB61012000F0EA
S315080044DCF9F878617B69002B02D04FF0FF334AE07C
S315080044EC284A07F1080307CA83E807000023FB7765
S315080044FC09E0FA78FB7F244951F823309A4206D012
S3150800450CFB7F0133FB77FB7F052BF2D900E000BF5D
S3150800451CFB7F052B02D94FF0FF332CE0FB7FFB7298
S3150800452C7B68FB6007F108031946002000F0B6FB10
S3150800453C78617B69002B02D04FF0FF331BE0002219
S3150800454C4FF400511148FCF71DF90023FB770BE0DB
S3150800455CFB7F5B000E4A1A4402234621012000F019
S3150800456C43F9FB7F0133FB77FB7F002BF0D0BB694C
S3150800457C02221A70002318462037BD4680BD00BF9C
S3150800458CB0ED072080690008686900080008004833
S3150800459C8C69000880B400AFFEE7000080B582B0D5
S315080045AC00AF064B7B607B68002B03D07B681846F4
S315080045BCFCF708FA00BF0837BD4680BDB4ED0720E6
S315080045CC80B582B000AF064B7B607B68002B03D0AE
S315080045DC7B681846FCF710FA00BF0837BD4680BD45
S315080045ECB4ED072080B582B000AF064B7B607B68C4
S315080045FC002B03D07B681846FCF7E4F900BF083794
S3150800460CBD4680BD08EE072080B582B000AF064BCC
S3150800461C7B607B68002B03D07B681846FCF7ECF9AB
S3150800462C00BF0837BD4680BD08EE072080B582B0AE
S3150800463C00AF00237B603AE07B68542202FB03F34D
S3150800464C1E4A13443B6054220021386802F06FF866
S3150800465C1B497A681346DB009B1A9B000B440C33E8
S3150800466C1B6818B216497A681346DB009B1A9B001E
S3150800467C0B4408331B68194601F04FFF10497A683A
S3150800468C1346DB009B1A9B000B4418331B6818B2A5
S3150800469C0B497A681346DB009B1A9B000B441433B0
S315080046AC1B68194601F039FF7B6801337B607B6810
S315080046BC012BC1D900BF0837BD4680BDB4ED072014
S315080046CC9069000880B584B000AF0346FB71FB798E
S315080046DC012B02D94FF0FF337EE0FB79542202FB03
S315080046EC03F33F4A1344FB60FA793E491346DB0051
S315080046FC9B1A9B000B441A68FB681A60FB68042219
S3150800470C5A60FB6800229A60FB680122DA60FB6833
S3150800471C00221A61FB6800225A61FB6800229A6122
S3150800472CFB680022DA61FB6800221A62FB681846ED
S3150800473CFCF740F80346002B01D0FFF72BFFFB686C
S3150800474C00211846FDF76EFB0346002B01D0FFF738
S3150800475C21FFFB6800211846FDF7AFFB0346002B2B
S3150800476C01D0FFF717FFFA791E491346DB009B1A8F
S3150800477C9B000B44043393F900300022052118469C
S3150800478CFBF7D7FDFA7917491346DB009B1A9B00F2
S3150800479C0B44043393F900301846FBF7E6FDFA7917
S315080047AC10491346DB009B1A9B000B44103393F9F4
S315080047BC0030002205211846FBF7BBFDFA7909499A
S315080047CC1346DB009B1A9B000B44103393F90030FD
S315080047DC1846FBF7CAFD002318461037BD4680BDA0
S315080047ECB4ED07209069000880B586B000AFBA60B2
S315080047FC7B600346FB730B46BB73FB7B012B02D911
S3150800480C4FF0FF3324E0BB68002B02D14FF0FF3387
S3150800481C1EE0FB7B542202FB03F30F4A13447B6115
S3150800482C08E07B691846FCF7AAF90346042B01D065
S3150800483CFFF7B0FE7869BB7B9BB25B0099B27B68CD
S3150800484C9BB2BA68FCF74EF80346002BE9D1002355
S3150800485C18461837BD4680BDB4ED072080B489B01C
S3150800486C00AF0346FB71FA792E4913469B00134495
S3150800487C9B000B441B68BB61BB69DB6943F00102F7
S3150800488CBB69DA61BB695B6903F00803002B42D08C
S3150800489CBB699B6903F00803002B3CD0FB7940F6F7
S315080048AC180202FB03F3204A13447B617B69043329
S315080048BC3B613B690433FB600023FB7726E0FB680E
S315080048CCD3F80424FB68D3F800349A4210D0FB685A
S315080048DCD3F80024FB6853F82220BB691A62FB68DC
S315080048ECD3F800340133DAB2FB68C3F800240AE0C3
S315080048FCBB695B6923F00802BB695A617B690222B2
S3150800490C1A7000BF07E0FB7F0133FB773B699B7886
S3150800491CFA7F9A42D3D300BF2437BD465DF8047B91
S3150800492C704700BFC86900085CEE072080B500AF69
S3150800493C0020FFF793FF00BF80BD000080B590B044
S3150800494C00AF03463960FB7100237B6300233B638E
S3150800495C0023BB6200237B6200233B623B681B7807
S3150800496C012B0BD83B685B78022B07D83B689B78E6
S3150800497C012B03D83B68DB78052B02D94FF0FF33A4
S3150800498C26E1FA79944913469B0013449B000B4481
S3150800499C1B68FB61FB7940F6180202FB03F38F4A8E
S315080049AC1344BB61BB6904337B614FF4006318463F
S315080049BCFDF7CAFE38613B681B7A002B6ED03B6B41
S315080049CC23F400233B633B685B681B023A69B2FB22
S315080049DCF3F3013303F01F03FB60FB681B053A6B0B
S315080049EC13433B63032387F82F3013E097F82F30D4
S315080049FC012202FA03F3FB633B68DB781A46784B11
S31508004A0C53F82220FB6B9A4209D997F82F300133B9
S31508004A1C87F82F3097F82F30072BE7D900E000BF1F
S31508004A2CFB6BBB633B68DB781A466D4B53F822204D
S31508004A3CBB6B9A424AD03B689B78012B46D1002324
S31508004A4C87F82F300CE097F82F30654A52F8232058
S31508004A5CBB6B9A4209D097F82F30013387F82F3061
S31508004A6C97F82F30052BEED900E000BF97F82F30BA
S31508004A7C062B00D1FEE797F82F305A4A52F8233006
S31508004A8C5B013A6B13433B633B68DB781A46544B22
S31508004A9C53F82230BA6BD31A7B6317E03B6B43F49B
S31508004AAC00233B633B68DB781A464D4B53F82230A0
S31508004ABCBB633B685B68BA6B02FB03F35B003A6942
S31508004ACCB2FBF3F3013303F01F03FB603B681B785F
S31508004ADC002B07D13B6B23F480533B637B69002285
S31508004AEC1A7006E03B6B43F480533B637B690122E7
S31508004AFC1A703B689B78002B04D13B6B43F480738C
S31508004B0C3B6303E03B6B23F480733B63BB6A43F064
S31508004B1C0203BB627B6904229A703B685B781A466F
S31508004B2C314B53F832203B685B782F49DB000B443A
S31508004B3C5B681A437B6A134343F480337B62BB6B13
S31508004B4C5B00BB60BB6B013B1A02BB68013B1343A2
S31508004B5C7A6A13437B623B68DB781A46214B53F817
S31508004B6C22305B013A6B13433B633B685B78022B41
S31508004B7C11D13B68DB781A46194B53F82220BB6BCC
S31508004B8C9A4208D03B68DB781A46154B53F8223004
S31508004B9CBA6BD31A7B637A6B3B6A134343F4403381
S31508004BAC43F480733B62FB693A6B5A60FB69BA6AD9
S31508004BBC9A60FB697A6ADA60FB693A6A1A610022BA
S31508004BCC05214A20FBF7B5FB4A20FBF7CEFB002351
S31508004BDC18464037BD4680BDC86900085CEE0720FC
S31508004BECF46900080C6A0008DC69000880B485B012
S31508004BFC00AF0346FB71FA79094913469B00134427
S31508004C0C9B000B441B68FB60FB685B6843F48032B3
S31508004C1CFB685A6000BF1437BD465DF8047B7047C5
S31508004C2CC869000880B582B000AF00237B6029E014
S31508004C3C7B6840F6180202FB03F3164A13443B60E2
S31508004C4C40F618020021386801F071FD12497A689D
S31508004C5C13469B0013449B000B440C331B6818B279
S31508004C6C0D497A6813469B0013449B000B44083382
S31508004C7C1B68194601F051FC3B6801221A707B68C7
S31508004C8C01337B607B68002BD2D000BF0837BD464A
S31508004C9C80BD00BF5CEE0720C869000880B584B0EB
S31508004CAC00AF03463960FB71FB79002B02D04FF03D
S31508004CBCFF3327E03B68002B02D14FF0FF3321E08E
S31508004CCCFB7940F6180202FB03F3104A1344FB6007
S31508004CDCFB681B78012B02D04FF0FF3312E0FB79EF
S31508004CEC39681846FFF72AFE0346002B02D04FF008
S31508004CFCFF3307E0FB791846FFF778FFFB680222BB
S31508004D0C1A70002318461037BD4680BD5CEE072086
S31508004D1C80B584B000AF0346FB71FA79184913467F
S31508004D2C9B001344DB000B441B68FB60FA791346A3
S31508004D3C9B0013449B00134A1344BB60BB681B7946
S31508004D4C002B10D1FB685A6BBB689A60BB68DB6892
S31508004D5C002B11D0BB68DB68BA681169BA6892680F
S31508004D6CF879984708E0BB681B79012B04D0BB6817
S31508004D7C1B79022B00D000BF00BF1037BD4680BD83
S31508004D8C246A000874F6072080B500AF0020FFF7E8
S31508004D9CBFFF00BF80BD80B500AF0120FFF7B8FF8D
S31508004DAC00BF80BD80B500AF0220FFF7B1FF00BF82
S31508004DBC80BD80B500AF0320FFF7AAFF00BF80BDFA
S31508004DCC80B500AF0420FFF7A3FF00BF80BD80B5F8
S31508004DDC00AF0520FFF79CFF00BF80BD80B500AF74
S31508004DEC0620FFF795FF00BF80BD000080B586B092
S31508004DFC00AF03463960FB71FA79294913469B00C3
S31508004E0C1344DB000B441B687B613B681B78002B47
S31508004E1C02D04FF0FF333EE0FA7913469B00134459
S31508004E2C9B00204A13443B617B6901221A603B684C
S31508004E3C1B78002B27D1FA7913469B001344DB0009
S31508004E4C1033174A1344FB60FB681A68FB68043373
S31508004E5C19461046FBF704FB3B6900221A717B695D
S31508004E6C01229A617B699B6943F030027B699A61DE
S31508004E7C7B691B6A23F00E027B691A627B699A6945
S31508004E8C7B699A6106E03B681B78012B02D03B686C
S31508004E9C1B78022B002318461837BD4680BD00BF69
S31508004EAC246A000874F6072080B582B000AF002388
S31508004EBC7B602BE07A6813469B0013449B00174AC9
S31508004ECC13443B6014220021386801F030FC3B681F
S31508004EDC04221A7112497A6813469B001344DB00A4
S31508004EEC0B440C331B6818B20D497A6813469B00A1
S31508004EFC1344DB000B4408331B68194601F00DFB01
S31508004F0C3B6801221A607B6801337B607B68062B41
S31508004F1CD0D900BF0837BD4680BD00BF74F6072040
S31508004F2C246A000880B586B000AFB9607A603B6029
S31508004F3C0346FB73FB7B062B02D94FF0FF334CE081
S31508004F4CFA7B13469B0013449B00264A13447B6149
S31508004F5C7B691B68012B02D04FF0FF333DE0BB6821
S31508004F6C1B78002B06D17B697A68DA607B693A680C
S31508004F7C1A6106E0BB681B78012B02D0BB681B784C
S31508004F8C022BFB7BB9681846FFF730FF38613B6983
S31508004F9C002B02D04FF0FF331FE0FA7B1249134661
S31508004FAC9B001344DB000B44043393F900300022B6
S31508004FBC05211846FBF7BDF9FA7B0B4913469B00EE
S31508004FCC1344DB000B44043393F900301846FBF703
S31508004FDCCCF97B6902221A60002318461837BD469D
S31508004FEC80BD00BF74F60720246A000880B485B01B
S31508004FFC00AF0346FB71FB79062B02D94FF0FF3342
S3150800500C2EE0FA7913469B0013449B00174A134467
S3150800501CFB60FB681B68022B02D04FF0FF331FE0C6
S3150800502CFB681B79002B02D04FF0FF3318E0FA7996
S3150800503C0F4913469B001344DB000B441B68BB60EB
S3150800504CBB681B6A43F00102BB681A62BB68DB6863
S3150800505C43F00202BB68DA60FB6803221A6000237D
S3150800506C18461437BD465DF8047B704774F607205E
S3150800507C246A000880B485B000AF03460A46FB8054
S3150800508C1346BB80FA88BB889A4204D9FA88BB882F
S3150800509CD31AFB8106E0FA88BB88D31A9BB203F5B0
S315080050AC8063FB81FB8918461437BD465DF8047B83
S315080050BC7047000080B586B000AF0346FB71FB79DC
S315080050CC534A1B0113441B687B61FB7940F62C027F
S315080050DC02FB03F34F4A13443B617B69DB6903F01C
S315080050EC0B03002B00D0FEE77B69DB6903F020037A
S315080050FC002B3AD03B691433FB60FB68B3F80234D7
S3150800510C0133C3F30903FA68B2F8002493422CD08E
S3150800511CFB68B3F802341A467B695B6AD9B2FB683A
S3150800512C9954FB68B3F8023401339BB2C3F30903F1
S3150800513C9AB2FB68A3F802243B695B68002B14D06F
S3150800514CFB68B3F802341A46FB68B3F80034D31A72
S3150800515C1A463B699B689A4207D33B6900229A60B8
S3150800516C3B695B68184601F0EDF97B699B6803F4AB
S3150800517C0003002B48D07B69DB6903F08003002B06
S3150800518C42D03B6903F58363FB60FB68B3F80224E2
S3150800519CFB68B3F800349A4230D0FB68B3F8003495
S315080051AC1A46FB689B5C1A467B699A62FB68B3F8DD
S315080051BC003401339BB2C3F309039AB2FB68A3F814
S315080051CC00243B69DB68002B1ED0FB68B3F800246F
S315080051DCFB68B3F8023419461046FFF74BFF034633
S315080051EC1A463B691B699A420ED33B6900221A611F
S315080051FC3B69DB68184601F0A5F905E07B699B68F5
S3150800520C23F400027B699A6000BF1837BD4680BD3F
S3150800521C3C6B000800F7072080B500AF0020FFF7AD
S3150800522C49FF00BF80BD80B500AF0120FFF742FFE4
S3150800523C00BF80BD80B483B000AF7860044A7B6839
S3150800524CB2FBF3F318460C37BD465DF8047B704782
S3150800525C00093D0080B582B000AF00237B6023E0D7
S3150800526C7B6840F62C0202FB03F3134A13443B609B
S3150800527C40F62C020021386801F059FA0F4A7B686F
S3150800528C1B0113440C331B6818B20C4A7B681B01B0
S3150800529C134408331B68194601F03FF93B68012291
S315080052AC1A707B6801337B607B68012BD8D900BFE9
S315080052BC0837BD4680BD00BF00F707203C6B0008C9
S315080052CC80B584B000AF03463960FB71FB7940F6B4
S315080052DC2C0202FB03F32E4A1344FB60FB79012BC9
S315080052EC02D94FF0FF334EE0FB681B78012B02D036
S315080052FC4FF0FF3347E0FB79264A1B0113441B6822
S3150800530CBB603868FFF796FF0246BB68DA60BB6875
S3150800531C1B6843F0005343F00C03BA681360BB6870
S3150800532C1B6843F00102BB681A60BB689A68BB68C5
S3150800533C9A60BB689B6843F02042BB689A60BB685E
S3150800534C9A68BB689A60BB689B6843F08052BB68D6
S3150800535C9A60FB790F4A1B011344043393F9003006
S3150800536C002205211846FAF7E4FFFB79094A1B01C6
S3150800537C1344043393F900301846FAF7F6FFFB6822
S3150800538C02221A70002318461037BD4680BD00BF8E
S3150800539C00F707203C6B000880B588B000AF0346C1
S315080053ACB9607A60FB73FB7B012B02D94FF0FF3394
S315080053BC5FE0BB68002B02D14FF0FF3359E0FB7B53
S315080053CC40F62C0202FB03F32C4A1344BB61BB695F
S315080053DC1B78022B02D04FF0FF334AE0BB6903F56A
S315080053EC83637B617B69B3F800247B69B3F8023469
S315080053FC19461046FFF73EFE03461A467B689A4244
S3150800540C09D2BB697A681A6101F017F80246BB69BA
S3150800541CDA6001F005F871B60023FB6117E07B69C9
S3150800542CB3F802341946BB685A1CBA601A787B69F9
S3150800543C5A547B69B3F8023401339BB2C3F309039C
S3150800544C9AB27B69A3F80224FB690133FB61FA69FA
S3150800545C7B689A42E3D361B6FB7B094A1B0113446A
S3150800546C1B683B613B699B6843F400023B699A6085
S3150800547C002318462037BD4680BD00BF00F707201D
S3150800548C3C6B000880B588B000AF0346B9607A60FB
S3150800549CFB73FB7B012B02D94FF0FF3356E0BB683D
S315080054AC002B02D14FF0FF3350E0FB7B40F62C0269
S315080054BC02FB03F3274A1344BB61BB691B78022B17
S315080054CC02D04FF0FF3341E0BB6914337B617B6933
S315080054DCB3F802341A467B69B3F80034D31A3B6125
S315080054ECBB6900229A603A697B689A420BD27A6841
S315080054FC3B69D21ABB699A6000F09FFF0246BB69EA
