S01000002E5C53797374656D2E7372656305
S3150800000000000320E5510008355200083552000863
S315080000103552000835520008355200080000000025
S315080000200000000000000000000000003142000847
S31508000030355200080000000031420008314200082D
S3150800004031420008314200083142000831420008B6
S3150800005031420008314200083142000831420008A6
S315080000603142000831420008314200083142000896
S315080000703142000831420008314200083142000886
S315080000803142000831420008314200083142000876
S315080000903142000831420008314200083142000866
S315080000A03142000831420008314200083142000856
S315080000B03142000831420008314200083142000846
S315080000C03142000831420008314200083142000836
S315080000D03142000831420008314200083142000826
S315080000E03142000831420008314200083142000816
S315080000F03142000831420008314200080000000081
S3150800010031420008314200083142000831420008F5
S3150800011031420008314200083142000831420008E5
S3150800012031420008314200083142000831420008D5
S3150800013031420008314200083142000831420008C5
S3150800014031420008314200083142000831420008B5
S3150800015031420008314200083142000831420008A5
S315080001603142000831420008314200083142000895
S31508000170314200083142000800000000000000007B
S315080001803142000831420008314200083142000875
S31508000190314200083142000800000000000000005B
S315080001A0000000000000000031420008314200084B
S311080001B0314200083142000831420008C4
S315080001BC10B5054C237833B9044B13B10448AFF387
S315080001CC00800123237010BD4800042000000000A5
S315080001DC7453000808B5034B1BB103490348AFF326
S315080001EC008008BD000000004C0004207453000871
S315080001FC10F8012B11F8013B012A28BF9A42F7D0B7
S3150800020CD01A7047034613F8012B002AFBD1181A8B
S3150800021C0138704780B400AF034B1B681846BD46BF
S3150800022C5DF8047B704700BF4418042080B400AF07
S3150800023C044BDB681B0A03F007031846BD465DF83A
S3150800024C047B704700ED00E080B483B000AF034632
S3150800025CFB71094997F907305B09FA7902F01F0215
S3150800026C012000FA02F241F8232000BF0C37BD46E4
S3150800027C5DF8047B704700BF00E100E080B483B0F2
S3150800028C00AF03463960FB7197F90730002B0BDA80
S3150800029C0D49FB7903F00F03043B3A68D2B21201FD
S315080002ACD2B20B441A7609E0084997F907303A682E
S315080002BCD2B21201D2B20B4483F8002300BF0C371A
S315080002CCBD465DF8047B704700ED00E000E100E0F8
S315080002DC80B489B000AFF860B9607A60FB6803F047
S315080002EC0703FB61FB69C3F10703042B28BF04232F
S315080002FCBB61FB690433062B02D9FB69033B00E09F
S3150800030C00237B610122BB6902FA03F35A1EBB6800
S3150800031C1A407B699A4001217B6901FA03F3591E3D
S3150800032C7B680B40134318462437BD465DF8047B9F
S3150800033C704780B586B000AF0346B9607A60FB7328
S3150800034C00237B61FFF772FF78617A68B968786970
S3150800035CFFF7BEFF024697F90F3011461846FFF70E
S3150800036C8DFF00BF1837BD4680BD80B582B000AF83
S3150800037C0346FB7197F907301846FFF765FF00BF70
S3150800038C0837BD4680BD80B584B000AF78600023C1
S3150800039CFB737B6893F82530DBB2022B05D07B68A0
S315080003AC0422DA630123FB7347E07B681B687A68CF
S315080003BC1268126822F00E021A607B681B687A684B
S315080003CC1268126822F001021A607B689B6C7A68C4
S315080003DC926C126822F480721A607B681B6C7A68BD
S315080003EC526C02F01C02012101FA02F25A607B6877
S315080003FCDB6C7A68126D5A607B685B6D002B0CD0CF
S3150800040C7B685B6D7A68526D126822F480721A608A
S3150800041C7B689B6D7A68D26D5A607B68012283F87B
S3150800042C25207B68002283F824207B689B6B002B95
S3150800043C03D07B689B6B78689847FB7B184610370C
S3150800044CBD4680BD80B483B000AF78607B6893F8F6
S3150800045C2530DBB218460C37BD465DF8047B704771
S3150800046C80B487B000AF7860396000237B6166E1A1
S3150800047C3B681A6801217B6901FA03F31340FB6098
S3150800048CFB68002B00F058813B685B6803F003039C
S3150800049C012B05D03B685B6803F00303022B30D1B4
S315080004AC7B689B683B617B695B00032202FA03F35A
S315080004BCDB433A6913403B613B68DA687B695B004E
S315080004CC02FA03F33A6913433B617B683A699A600B
S315080004DC7B685B683B6101227B6902FA03F3DB43A9
S315080004EC3A6913403B613B685B681B0903F00102E0
S315080004FC7B6902FA03F33A6913433B617B683A69F1
S3150800050C5A603B685B6803F00303032B17D07B68C0
S3150800051CDB683B617B695B00032202FA03F3DB436E
S3150800052C3A6913403B613B689A687B695B0002FA3F
S3150800053C03F33A6913433B617B683A69DA603B68B3
S3150800054C5B6803F00303022B23D17B69DA087B680B
S3150800055C083253F822303B617B6903F007039B0092
S3150800056C0F2202FA03F3DB433A6913403B613B68FB
S3150800057C1A697B6903F007039B0002FA03F33A69CD
S3150800058C13433B617B69DA087B680832396943F89F
S3150800059C22107B681B683B617B695B00032202FAAD
S315080005AC03F3DB433A6913403B613B685B6803F032
S315080005BC03027B695B0002FA03F33A6913433B6156
S315080005CC7B683A691A603B685B6803F44033002B16
S315080005DC00F0B280614A614B1B6E43F0010313664F
S315080005EC5E4B1B6E03F00103BB60BB685C4A7B6900
S315080005FC9B08023352F823303B617B6903F00303F3
S3150800060C9B000F2202FA03F3DB433A6913403B6162
S3150800061C7B68B3F1904F2BD07B68524A934225D016
S3150800062C7B68514A93421FD07B68504A934219D033
S3150800063C7B684F4A934213D07B684E4A93420DD03F
S3150800064C7B684D4A934207D07B684C4A934201D14A
S3150800065C07230EE008230CE006230AE0052308E02E
S3150800066C042306E0032304E0022302E0012300E04E
S3150800067C00237A6902F00302920093403A69134305
S3150800068C3B6137497B699B0802333A6941F8232059
S3150800069C3B4B9B683B61FB68DB433A6913403B6108
S315080006AC3B685B6803F48013002B03D03A69FB683C
S315080006BC13433B61324A3B699360314BDB683B61C0
S315080006CCFB68DB433A6913403B613B685B6803F4A0
S315080006DC0013002B03D03A69FB6813433B61284A85
S315080006EC3B69D360264B5B683B61FB68DB433A6925
S315080006FC13403B613B685B6803F40033002B03D063
S3150800070C3A69FB6813433B611D4A3B6953601C4BB2
S3150800071C1B683B61FB68DB433A6913403B613B68EA
S3150800072C5B6803F48033002B03D03A69FB681343E8
S3150800073C3B61134A3B6913607B6901337B613B68F8
S3150800074C1A687B6922FA03F3002B7FF491AE00BF7B
S3150800075C1C37BD465DF8047B704700BF001002408D
S3150800076C000001400004004800080048000C00483E
S3150800077C001000480014004800180048001C0048E7
S3150800078C0004014080B485B000AF78600B467B80CE
S3150800079C7B681A697B881340002B02D00123FB73F4
S315080007AC01E00023FB73FB7B18461437BD465DF846
S315080007BC047B704780B582B000AF78607B68002BED
S315080007CC01D1012380E07B6893F84130DBB2002B22
S315080007DC06D17B68002283F84020786800F078F808
S315080007EC7B68242283F841207B681B687A68126828
S315080007FC126822F001021A607B681B687A685268D4
S3150800080C22F070621A617B681B687A6812689268B3
S3150800081C22F400429A607B68DB68012B07D17B685F
S3150800082C1B687A68926842F400429A6006E07B6814
S3150800083C1B687A68926842F404429A607B68DB68A3
S3150800084C022B04D17B681B684FF400625A607B68E4
S3150800085C1A687B681B685B6843F0007343F40043B3
S3150800086C53607B681B687A681268D26822F4004267
S3150800087CDA607B681B687A6811697A685269114371
S3150800088C7A68926912020A43DA607B681B687A688E
S3150800089CD1697A68126A0A431A607B681B687A6897
S315080008AC1268126842F001021A607B6800225A64C8
S315080008BC7B68202283F841207B6800221A637B68B8
S315080008CC002283F84220002318460837BD4680BD0F
S315080008DC80B483B000AF786000BF0C37BD465DF8B6
S315080008EC047B704780B588B002AFF8607A601A4608
S315080008FC0B467B8113463B81FB6893F84130DBB290
S3150800090C202B53D1FB681B689B6903F40043B3F592
S3150800091C004F01D102234AE0FB6893F84030012BC3
S3150800092C01D1022343E0FB68012283F84020FB68CF
S3150800093C212283F84120FB68102283F84220FB68A9
S3150800094C00225A64FB687A685A62FB683A895A85A7
S3150800095CFB68194ADA62FB68184A5A63FB685B8DAE
S3150800096C9BB2FF2B06D9FB68FF221A854FF08073C2
S3150800097C7B6107E0FB685B8D9AB2FB681A854FF0C2
S3150800098C00737B61FB681B8DDAB279890C4B00937B
S3150800099C7B69F86801F04EF9FB68002283F8402061
S315080009AC0121F86801F076F9002300E002231846C5
S315080009BC1837BD4680BD00BF0000FFFFA30B00081B
S315080009CC0020008080B584B000AF78607B681B6817
S315080009DC9B69FB607B681B681B68BB607B685B6BF1
S315080009EC002B05D07B685B6BBA68F9687868984702
S315080009FC00BF1037BD4680BD80B586B000AF7860A5
S31508000A0C7B681B689B697B617B681B681B683B6101
S31508000A1C7B6903F48073002B0FD03B6903F08003CA
S31508000A2C002B0AD07B685B6C43F001027B685A6426
S31508000A3C7B681B684FF48072DA617B6903F4806308
S31508000A4C002B0FD03B6903F08003002B0AD07B6880
S31508000A5C5B6C43F008027B685A647B681B684FF42E
S31508000A6C8062DA617B6903F40073002B0FD03B6953
S31508000A7C03F08003002B0AD07B685B6C43F0020200
S31508000A8C7B685A647B681B684FF40072DA617B6872
S31508000A9C5B6CFB60FB6803F00B03002B03D0F96857
S31508000AAC786800F08DFF00BF1837BD4680BD80B44E
S31508000ABC83B000AF786000BF0C37BD465DF8047B89
S31508000ACC704780B483B000AF786000BF0C37BD4662
S31508000ADC5DF8047B704780B483B000AF786000BFC4
S31508000AEC0C37BD465DF8047B704780B483B000AF05
S31508000AFC786000BF0C37BD465DF8047B704780B440
S31508000B0C83B000AF78600B46FB7013463B8000BF82
S31508000B1C0C37BD465DF8047B704780B483B000AFD4
S31508000B2C786000BF0C37BD465DF8047B704780B40F
S31508000B3C83B000AF786000BF0C37BD465DF8047B08
S31508000B4C704780B483B000AF786000BF0C37BD46E1
S31508000B5C5DF8047B704780B483B000AF786000BF43
S31508000B6C0C37BD465DF8047B704780B483B000AF84
S31508000B7C786000BF0C37BD465DF8047B704780B4BF
S31508000B8C83B000AF78607B685B6C18460C37BD4643
S31508000B9C5DF8047B704780B588B002AFF860B96021
S31508000BAC7A60BB687B61FB6893F84030012B01D1F6
S31508000BBC022309E1FB68012283F840207B6903F0D4
S31508000BCC1003002B12D07B6803F01003002B0DD0FA
S31508000BDCFB681B681022DA61FB685B6C43F0040245
S31508000BECFB685A64F86800F0E2FFDAE07B6903F008
S31508000BFC0403002B22D07B6803F00403002B1DD0C2
S31508000C0C7B6923F004037B61FB685B6AFA681268EC
S31508000C1C526AD2B21A70FB685B6A5A1CFB685A6233
S31508000C2CFB681B8D013B9AB2FB681A85FB685B8DCA
S31508000C3C9BB2013B9AB2FB685A85B2E07B6903F01A
S31508000C4C0203002B1DD07B6803F00203002B18D07F
S31508000C5CFB681B68FA68526A12789A62FB685B6AC8
S31508000C6C5A1CFB685A62FB681B8D013B9AB2FB68DF
S31508000C7C1A85FB685B8D9BB2013B9AB2FB685A8559
S31508000C8C8FE07B6903F08003002B5DD07B6803F053
S31508000C9C4003002B58D0FB685B8D9BB2002B41D0D0
S31508000CACFB681B8D002B3DD1FB681B685B689BB2F0
S31508000CBCC3F309037B82FB685B8D9BB2FF2B0ED9B2
S31508000CCCFB68FF221A85FB681B8DDAB2798A00232A
S31508000CDC00934FF08073F86800F0ACFF33E0FB68C4
S31508000CEC5B8D9AB2FB681A85FB68DB6A13F5803F45
S31508000CFC0CD0FB681B8DDAB2FB68D86A798A00239C
S31508000D0C00930346F86800F095FF1CE0FB681B8D02
S31508000D1CDAB2798A002300934FF00073F86800F072
S31508000D2C89FF10E0FB681B685B6803F00073B3F17E
S31508000D3C007F03D0F86800F088FB32E04021F868A1
S31508000D4C00F03EFE2DE02CE07B6903F04003002BFF
S31508000D5C27D07B6803F04003002B22D0FB685B8D01
S31508000D6C9BB2002B19D1FB681B685B6803F00073F8
S31508000D7CB3F1007F15D0FB68DB6A13F5803F08D109
S31508000D8CFB681B68FA681268526842F480425A601B
S31508000D9C07E0F86800F059FB03E04021F86800F01A
S31508000DAC0FFE7B6903F02003002B08D07B6803F049
S31508000DBC2003002B03D07969F86800F0DFFBFB6889
S31508000DCC002283F84020002318461837BD4680BDFC
S31508000DDC80B586B000AFF860B9607A60FB68DB6AEC
S31508000DEC7B61BB683B61FB6893F84030012B01D1F2
S31508000DFC0223E1E0FB68012283F840203B6903F0FB
S31508000E0C2003002B08D07B6803F02003002B03D0AB
S31508000E1C3969F86800F07AFC3B6903F01003002B7B
S31508000E2C4BD07B6803F01003002B46D0FB685B8D18
S31508000E3C9BB2002B28D1FB6893F84130DBB2282BE8
S31508000E4C08D17B69B3F1007F04D13969F86800F0E1
S31508000E5C63FD31E0FB6893F84130DBB2292B0ED1E8
S31508000E6C7B6913F5803F0AD0FB681B681022DA6190
S31508000E7CF86800F09CFEF86800F024FB1CE0FB68A0
S31508000E8C1B681022DA618FE0FB681B681022DA6196
S31508000E9CFB685B6C43F00402FB685A647B69002BA5
S31508000EAC03D07B69B3F1807F7ED1FB685B6C1946F6
S31508000EBCF86800F085FD77E076E03B6903F00403FB
S31508000ECC002B2FD07B6803F00403002B2AD0FB6879
S31508000EDC5B8D9BB2002B18D0FB685B6AFA681268AC
S31508000EEC526AD2B21A70FB685B6A5A1CFB685A6261
S31508000EFCFB681B8D013B9AB2FB681A85FB685B8DF8
S31508000F0C9BB2013B9AB2FB685A85FB685B8D9BB218
S31508000F1C002B4BD17B6913F5803F47D0F86800F05E
S31508000F2CD1FA43E03B6903F00803002B09D07B6830
S31508000F3C03F00803002B04D03969F86800F001FAAD
S31508000F4C35E03B6903F00203002B30D07B6803F0D5
S31508000F5C0203002B2BD0FB685B8D9BB2002B18D0A1
S31508000F6CFB681B68FA68526A12789A62FB685B6AB5
S31508000F7C5A1CFB685A62FB685B8D9BB2013B9AB2A2
S31508000F8CFB685A85FB681B8D013B9AB2FB681A8570
S31508000F9C0DE07B69B3F1807F02D07B69002B06D10B
S31508000FACF86800F08FFA02E000BF00E000BFFB68AB
S31508000FBC002283F84020002318461837BD4680BD0A
S31508000FCC80B588B002AFF860B9607A60FB6893F8B0
S31508000FDC4030012B01D10223D9E0FB68012283F8AA
S31508000FEC4020BB6803F01003002B16D07B6803F077
S31508000FFC1003002B11D0FB681B681022DA61FB6802
S3150800100C5B6C43F00402FB685A642021F86800F014
S3150800101C41FEF86800F0CBFDB4E0BB6803F0800332
S3150800102C002B71D07B6803F04003002B6CD0FB6857
S3150800103C1B68FA681268126822F040021A60FB688C
S3150800104C5B8D9BB2002B4ED0FB681B685B689BB212
S3150800105CC3F309037B82FB685B8D9BB2FF2B06D916
S3150800106CFB68FF221A854FF080737B6110E0FB68E2
S3150800107C5B8D9AB2FB681A85FB68DB6A13F5803FB1
S3150800108C03D0FB68DB6A7B6102E04FF000737B617F
S3150800109CFB681B8DDAB2798A002300937B69F868A2
S315080010AC00F0C8FDFB685B8D9AB2FB681B8DD31AE2
S315080010BC9AB2FB685A85FB6893F84130DBB2222B4F
S315080010CC08D1FB681B68FA681268126842F4004279
S315080010DC1A6057E0FB681B68FA681268126842F4D3
S315080010EC80421A604EE0FB681B685B6803F000736D
S315080010FCB3F1007F03D0F86800F0A7F942E040216D
S3150800110CF86800F05DFC3DE0BB6803F04003002B7B
S3150800111C28D07B6803F04003002B23D0FB685B8D3B
S3150800112C9BB2002B19D1FB681B685B6803F0007334
S3150800113CB3F1007F25D0FB68DB6A13F5803F08D135
S3150800114CFB681B68FA681268526842F480425A6057
S3150800115C17E0F86800F079F913E04021F86800F018
S3150800116C2FFC0EE0BB6803F02003002B0AD07B682B
S3150800117C03F02003002B05D0B968F86800F0FEF9D7
S3150800118C00E000BFFB68002283F8402000231846C5
S3150800119C1837BD4680BD80B588B000AFF860B96019
S315080011AC7A60FB68DB6ABB610023FB61FB6893F81A
S315080011BC4030012B01D10223BFE0FB68012283F8E2
S315080011CC4020BB6803F02003002B08D07B6803F093
S315080011DC2003002B03D0B968F86800F097FABB68AF
S315080011EC03F01003002B00F095807B6803F01003C6
S315080011FC002B00F08F807B6803F48043002B04D10E
S3150800120C7B6803F40043002B7DD0FB68DB6B002B5B
S3150800121C0CD07B6803F40043002B07D0FB68DB6B10
S3150800122C1B685B68002B01D10123FB61FB689B6B78
S3150800123C002B0CD07B6803F48043002B07D0FB688B
S3150800124C9B6B1B685B68002B01D10123FB61FB6957
S3150800125C012B28D1FB6893F84130DBB2282B08D137
S3150800126CBB69B3F1007F04D1B968F86800F054FB88
S3150800127C48E0FB6893F84130DBB2292B0ED1BB69E9
S3150800128C13F5803F0AD0FB681B681022DA61F868F0
S3150800129C00F08DFCF86800F015F933E0FB681B6864
S315080012AC1022DA6134E0FB681B681022DA61FB68ED
S315080012BC5B6C43F00402FB685A64FB6893F8413094
S315080012CCFB75BB69002B03D0BB69B3F1807F1FD1BB
S315080012DCFB7D212B02D0FB7D292B03D1FB68212218
S315080012EC1A6308E0FB7D222B02D0FB7D2A2B02D148
S315080012FCFB6822221A63FB685B6C1946F86800F0D7
S3150800130C5FFB05E004E0FB681B681022DA610FE05E
S3150800131C00BF0DE0BB6803F00803002B08D07B6800
S3150800132C03F00803002B03D0B968F86800F009F835
S3150800133CFB68002283F84020002318462037BD4658
S3150800134C80BD80B584B000AF786039607B6893F84F
S3150800135C4130DBB203F02803282B6AD17B681B6863
S3150800136C9B691B0CDBB203F00103FB737B681B68E0
S3150800137C9B691B0C9BB203F0FE03BB817B681B6845
S3150800138C9B689BB2C3F309037B817B681B68DB688C
S3150800139C9BB203F0FE033B817B68DB68022B38D1DA
S315080013AC7B89DB099AB2BB8953409BB203F00603CF
S315080013BC002B1CD17B89BB817B689B6C5A1C7B6878
S315080013CC9A647B689B6C022B3BD17B6800229A64DF
S315080013DC7B681B680822DA617B68002283F8402048
S315080013ECBA89FB7B19467868FFF789FB29E03B89A4
S315080013FCBB814FF40041786800F0B6FC7B6800228C
S3150800140C83F84020BA89FB7B19467868FFF777FB87
S3150800141C17E04FF40041786800F0A6FC7B680022C0
S3150800142C83F84020BA89FB7B19467868FFF767FB77
S3150800143C07E07B681B680822DA617B68002283F860
S3150800144C402000BF1037BD4680BD80B582B000AFC6
S3150800145C78607B68002283F842207B6893F84130D9
S3150800146CDBB2212B15D17B68202283F841207B68BF
S3150800147C11221A637B6800225A630121786800F0EE
S3150800148C73FC7B68002283F840207868FFF70FFB13
S3150800149C14E07B68202283F841207B6812221A63A9
S315080014AC7B6800225A630221786800F05DFC7B6831
S315080014BC002283F840207868FFF703FB00BF083743
S315080014CCBD4680BD80B584B000AF78607B681B686C
S315080014DC1B68FB607B68002283F84220FB6803F4D8
S315080014EC8043002B08D07B681B687A6812681268E0
S315080014FC22F480421A600CE0FB6803F40043002BCC
S3150800150C07D07B681B687A681268126822F4004256
S3150800151C1A607B6893F84130DBB2292B12D17B68B1
S3150800152C282283F841207B6821221A6301217868D6
S3150800153C00F01AFC7B68002283F840207868FFF7D5
S3150800154CCAFA17E07B6893F84130DBB22A2B11D123
S3150800155C7B68282283F841207B6822221A630221A1
S3150800156C786800F001FC7B68002283F840207868D4
S3150800157CFFF7BBFA00BF1037BD4680BD80B586B0F5
S3150800158C00AF786039603B687B617B681B682022FA
S3150800159CDA617B6893F84130DBB2212B07D1012144
S315080015AC786800F0E1FB7B6811221A630CE07B6813
S315080015BC93F84130DBB2222B06D10221786800F071
S315080015CCD3FB7B6812221A637B681A687B681B68D4
S315080015DC59684C4B0B4053607B6800225A637B68F6
S315080015EC494ADA627B6903F01003002B09D07B6841
S315080015FC1B681022DA617B685B6C43F004027B681B
S3150800160C5A647B6893F84130DBB2602B0AD17B694C
S3150800161C03F00403002B05D07B681B685B6ADBB2FE
S3150800162CFB60FB68786800F0C2FA7B685B6C3B6110
S3150800163C7B6893F84130DBB2602B02D03B69002BF8
S3150800164C06D07B685B6C1946786800F0B9F954E0EB
S3150800165C7B6893F84130DBB2212B24D17B6820229E
S3150800166C83F841207B6800221A637B6893F8423022
S3150800167CDBB2402B0BD17B68002283F842207B68B7
S3150800168C002283F840207868FFF751FA35E07B682A
S3150800169C002283F842207B68002283F84020786871
S315080016ACFFF705FA29E07B6893F84130DBB2222B69
S315080016BC23D17B68202283F841207B6800221A6399
S315080016CC7B6893F84230DBB2402B0BD17B68002247
S315080016DC83F842207B68002283F840207868FFF75D
S315080016EC30FA0AE07B68002283F842207B680022E5
S315080016FC83F840207868FFF7E4F900BF1837BD4631
S3150800170C80BD00BF00E800FE0000FFFF80B586B074
S3150800171C00AF786039607B681B681B683B613B6867
S3150800172C7B617B6893F84130FB737B681B682022CE
S3150800173CDA61FB7B212B02D0FB7B292B08D148F2E3
S3150800174C0101786800F010FB7B6821221A630DE012
S3150800175CFB7B222B02D0FB7B2A2B07D148F20201FA
S3150800176C786800F001FB7B6822221A637B681B6889
S3150800177C7A681268526842F400425A607B681A68A2
S3150800178C7B681B685968624B0B405360786800F09D
S3150800179C0EFA3B6903F48043002B13D07B681B6855
S315080017AC7A681268126822F480421A607B689B6B0E
S315080017BC002B1FD07B689B6B1B685B689AB27B6897
S315080017CC5A8517E03B6903F40043002B12D07B685B
S315080017DC1B687A681268126822F400421A607B68E1
S315080017ECDB6B002B06D07B68DB6B1B685B689AB2DD
S315080017FC7B685A857B6903F00403002B20D07B6930
S3150800180C23F004037B617B685B6A7A681268526A08
S3150800181CD2B21A707B685B6A5A1C7B685A627B6800
S3150800182C1B8D002B0CD07B681B8D013B9AB27B68F9
S3150800183C1A857B685B8D9BB2013B9AB27B685A858D
S3150800184C7B685B8D9BB2002B05D07B685B6C43F089
S3150800185C04027B685A647B68002283F842207B6802
S3150800186C00225A637B685B6C002B10D07B685B6C20
S3150800187C1946786800F0A4F87B6893F84130DBB217
S3150800188C282B41D17969786800F046F83CE07B68EA
S3150800189CDB6A13F5803F14D07868FFF713FE7B6874
S315080018AC1C4ADA627B68202283F841207B68002276
S315080018BC1A637B68002283F840207868FFF72DF9B5
S315080018CC22E07B6893F84130DBB2222B0ED17B6881
S315080018DC202283F841207B6800221A637B68002249
S315080018EC83F840207868FFF700F90DE07B68202222
S315080018FC83F841207B6800221A637B68002283F8F0
S3150800190C40207868FFF7E7F800BF1837BD4680BD5A
S3150800191C00E800FE0000FFFF80B582B000AF7860DB
S3150800192C39607B68254ADA627B6800221A637B6811
S3150800193C202283F841207B68002283F842207B68AA
S3150800194C00225A633B6803F00403002B22D07B6801
S3150800195C5B6A7A681268526AD2B21A707B685B6ADA
S3150800196C5A1C7B685A627B681B8D002B12D07B68CD
S3150800197C1B8D013B9AB27B681A857B685B8D9BB283
S3150800198C013B9AB27B685A857B685B6C43F0040210
S3150800199C7B685A6448F20301786800F0E5F97B68BD
S315080019AC1B681022DA617B68002283F8402078686D
S315080019BCFFF7B3F800BF0837BD4680BD0000FFFF30
S315080019CC80B584B000AF786039607B6893F8413095
S315080019DCFB737B68002283F842207B685D4ADA62D7
S315080019EC7B6800225A857B685A6C3B681A437B686D
S315080019FC5A64FB7B282B05D0FB7B292B02D0FB7B5F
S31508001A0C2A2B0BD10321786800F0AEF97B682822C3
S31508001A1C83F841207B68504A5A6311E048F2030167
S31508001A2C786800F0A1F97B6893F84130DBB2602B3B
S31508001A3C03D07B68202283F841207B6800225A63F6
S31508001A4C7B681B6BBB607B689B6B002B39D0BB68B8
S31508001A5C112B02D0BB68212B33D17B681B681B6802
S31508001A6C03F48043B3F5804F07D17B681B687A680B
S31508001A7C1268126822F480421A607B689B6B1846BF
S31508001A8CFEF7E0FC0346012B17D07B689B6B334AA9
S31508001A9C9A637B68002283F840207B689B6B184608
S31508001AACFEF771FC0346002B4DD07B689B6B9B6B3A
S31508001ABC7A68926B1046984745E0786800F050F8BB
S31508001ACC41E07B68DB6B002B39D0BB68122B02D04C
S31508001ADCBB68222B33D17B681B681B6803F4004355
S31508001AECB3F5004F07D17B681B687A6812681268D1
S31508001AFC22F400421A607B68DB6B1846FEF7A2FCE0
S31508001B0C0346012B17D07B68DB6B144A9A637B68F8
S31508001B1C002283F840207B68DB6B1846FEF733FC03
S31508001B2C0346002B11D07B68DB6B9B6B7A68D26BF8
S31508001B3C1046984709E0786800F012F805E07868CE
S31508001B4C00F00EF802E000BF00E000BF00BF10373F
S31508001B5CBD4680BD0000FFFFDD0D0008031C000814
S31508001B6C80B582B000AF78607B6893F84130DBB201
S31508001B7C602B0ED17B68202283F841207B680022DB
S31508001B8C1A637B68002283F840207868FEF7EDFF1D
S31508001B9C09E07B6800221A637B68002283F84020E0
S31508001BAC7868FEF7D8FF00BF0837BD4680BD80B4FD
S31508001BBC83B000AF78607B681B689B6903F00203EF
S31508001BCC022B03D17B681B6800229A627B681B6810
S31508001BDC9B6903F00103012B07D07B681B687A68A5
S31508001BEC1268926942F001029A6100BF0C37BD4631
S31508001BFC5DF8047B704780B584B000AF78607B686D
S31508001C0C9B6AFB60FB689B6B002B03D0FB689B6B8A
S31508001C1C00229A63FB68DB6B002B03D0FB68DB6B3B
S31508001C2C00229A63F868FFF79BFF00BF1037BD4682
S31508001C3C80BD000080B487B000AFF8607B600B46AF
S31508001C4C7B8113467B727B89C3F309027B7A1B045F
S31508001C5C03F47F031A437B681A433B6A134323F046
S31508001C6C00437B61FB681A68FB681B6859683B6A0A
S31508001C7C5B0D03F48060064B0343DB4319407B6919
S31508001C8C0B43536000BF1C37BD465DF8047B704799
S31508001C9CFF63FF0380B485B000AF78600B467B808A
S31508001CAC0023FB607B685B6B2D4A934204D07B68F0
S31508001CBC5B6B2C4A93421DD1B7F90230002B03DA21
S31508001CCCFB6843F0B803FB607B88102B03D1FB68D9
S31508001CDC43F09003FB607B88202B03D1FB6843F011
S31508001CEC6003FB607B88402B2CD1FB6843F04003D8
S31508001CFCFB6027E0B7F90230002B03DAFB6843F0E8
S31508001D0CB803FB607B8803F00103002B03D0FB6848
S31508001D1C43F0F203FB607B8803F00203002B03D02D
S31508001D2CFB6843F0F403FB607B88102B03D1FB683C
S31508001D3C43F09003FB607B88202B03D1FB6843F0B0
S31508001D4C2003FB607B681B687A6812681168FA685E
S31508001D5C0A431A6000BF1437BD465DF8047B70470A
S31508001D6CCD0F0008A311000880B485B000AF7860C9
S31508001D7C0B467B800023FB607B8803F00103002B5A
S31508001D8C0FD0FB6843F04203FB607B6893F8413045
S31508001D9CDBB203F02803282B03D0FB6843F0B0030F
S31508001DACFB607B8803F00203002B0FD0FB6843F023
S31508001DBC4403FB607B6893F84130DBB203F02803DD
S31508001DCC282B03D0FB6843F0B003FB60B7F902304D
S31508001DDC002B03DAFB6843F0B803FB607B88102BF7
S31508001DEC03D1FB6843F09003FB607B88202B03D15F
S31508001DFCFB6843F02003FB607B88402B03D1FB6810
S31508001E0C43F04003FB607B681B687A6812681168AC
S31508001E1CFA68D2430A401A6000BF1437BD465DF80B
S31508001E2C047B704780B483B000AF786039607B68F8
S31508001E3C93F84130DBB2202B38D17B6893F84030CD
S31508001E4C012B01D1022332E07B68012283F8402062
S31508001E5C7B68242283F841207B681B687A681268A1
S31508001E6C126822F001021A607B681B687A6812688D
S31508001E7C126822F480521A607B681B687A681268AA
S31508001E8C11683A680A431A607B681B687A68126894
S31508001E9C126842F001021A607B68202283F84120FE
S31508001EAC7B68002283F84020002300E002231846B2
S31508001EBC0C37BD465DF8047B704780B485B000AF1F
S31508001ECC786039607B6893F84130DBB2202B39D1C6
S31508001EDC7B6893F84030012B01D1022333E07B68F1
S31508001EEC012283F840207B68242283F841207B68F2
S31508001EFC1B687A681268126822F001021A607B68FD
S31508001F0C1B681B68FB60FB6823F47063FB603B680B
S31508001F1C1B02FA681343FB607B681B68FA681A6035
S31508001F2C7B681B687A681268126842F001021A60AC
S31508001F3C7B68202283F841207B68002283F84020A6
S31508001F4C002300E0022318461437BD465DF8047BCF
S31508001F5C7047000080B400AF054A054B5B6843F434
S31508001F6C0073536000BFBD465DF8047B704700BF25
S31508001F7C0070004080B586B000AF78600023FB7413
S31508001F8C0023BB747B681B6803F40063002B3DD0ED
S31508001F9C7B68DB6E402B0BD0402B04D8002B0ED065
S31508001FAC202B15D01DE0602B1ED0802B1CD018E0E2
S31508001FBC864A864BDB6843F48033D36015E07B682E
S31508001FCC04330021184600F0FDFA0346FB740CE0B6
S31508001FDC7B6820330021184600F0E4FB0346FB74AB
S31508001FEC03E00123FB7400E000BFFB7C002B0BD144
S31508001FFC7649764BD3F89C3023F0E0027B68DB6E8F
S3150800200C1343C1F89C3001E0FB7CBB747B681B68EE
S3150800201C03F48053002B42D07B681B6FB3F5007F0B
S3150800202C0FD0B3F5007F05D8002B11D0B3F5807F00
S3150800203C17D01FE0B3F5407F1FD0B3F5806F1CD0C7
S3150800204C18E0624A614BDB6843F48033D36015E0D1
S3150800205C7B6804330021184600F0B4FA0346FB7477
S3150800206C0CE07B6820330021184600F09BFB0346E6
S3150800207CFB7403E00123FB7400E000BFFB7C002B20
S3150800208C0BD15249514BD3F89C3023F4E0627B6850
S3150800209C1B6F1343C1F89C3001E0FB7CBB747B6857
S315080020AC1B6803F40033002B00F09F8000237B741D
S315080020BC464B9B6D03F08053002B01D1012300E0A6
S315080020CC0023002B0DD0414A404B9B6D43F08053A7
S315080020DC93653E4B9B6D03F08053BB60BB68012335
S315080020EC7B743B4A3A4B1B6843F480731360FEF7C8
S315080020FC91F8F86009E0FEF78DF80246FB68D31AEA
S3150800210C022B02D90323FB7405E0314B1B6803F43D
S3150800211C8073002BEFD0FB7C002B5BD12B4BD3F8B9
S3150800212C903003F440737B617B69002B1FD07B686E
S3150800213CD3F890207B699A4219D0244BD3F8903067
S3150800214C23F440737B61214A204BD3F8903043F437
S3150800215C8033C2F890301D4A1C4BD3F8903023F4C8
S3150800216C8033C2F89030194A7B69C2F890307B6983
S3150800217C03F00103002B16D0FEF74CF8F8600BE0C1
S3150800218CFEF748F80246FB68D31A41F288329342A6
S3150800219C02D90323FB7406E00C4BD3F8903003F0FA
S315080021AC0203002BECD0FB7C002B0CD10749074B08
S315080021BCD3F8903023F440727B68D3F890301343ED
S315080021CCC1F8903008E0FB7CBB7405E000100240B7
S315080021DC00700040FB7CBB747B7C012B05D1A04AAC
S315080021EC9F4B9B6D23F0805393657B681B6803F0AC
S315080021FC0103002B0AD09A49994BD3F8883023F05F
S3150800220C03027B68DB6B1343C1F888307B681B6859
S3150800221C03F00203002B0AD09149914BD3F888306E
S3150800222C23F00C027B681B6C1343C1F888307B685F
S3150800223C1B6803F00403002B0AD08949884BD3F892
S3150800224C883023F030027B685B6C1343C1F8883006
S3150800225C7B681B6803F00803002B0AD08049804B67
S3150800226CD3F8883023F0C0027B689B6C1343C1F803
S3150800227C88307B681B6803F01003002B0AD078495A
S3150800228C774BD3F8883023F440727B68DB6C1343A6
S3150800229CC1F888307B681B6803F02003002B0AD032
S315080022AC6F496F4BD3F8883023F440627B681B6DFB
S315080022BC1343C1F888307B681B6803F40073002B42
S315080022CC0AD06749664BD3F8883023F440227B68DA
S315080022DC5B6E1343C1F888307B681B6803F4806314
S315080022EC002B0AD05E495E4BD3F8883023F4401293
S315080022FC7B689B6E1343C1F888307B681B6803F0B8
S3150800230C4003002B0AD05649554BD3F8883023F492
S3150800231C40527B685B6D1343C1F888307B681B6839
S3150800232C03F08003002B0AD04D494D4BD3F8883067
S3150800233C23F440427B689B6D1343C1F888307B6855
S3150800234C1B6803F48073002B0AD04549444BD3F819
S3150800235C883023F440327B68DB6D1343C1F8883030
S3150800236C7B681B6803F48013002B0AD03C493C4B52
S3150800237CD3F89C3023F003027B681B6E1343C1F819
S3150800238C9C307B681B6803F40053002B28D0344917
S3150800239C334BD3F8883023F040627B685B6F13436A
S315080023ACC1F888307B685B6FB3F1006F06D12C4A95
S315080023BC2B4BDB6843F48013D36011E07B685B6FAF
S315080023CCB3F1806F0CD17B6804330121184600F0F9
S315080023DCF9F80346FB74FB7C002B01D0FB7CBB7421
S315080023EC7B681B6803F40023002B4DD07B689B6F1E
S315080023FCB3F5804F08D11A4A194BD3F89C3043F4DD
S3150800240C8043C2F89C3012E0154A154BD3F89C3021
S3150800241C23F48043C2F89C301149114BD3F8883009
S3150800242C23F040627B689B6F1343C1F888307B6846
S3150800243C9B6FB3F1006F06D1094A094BDB6843F46D
S3150800244C8013D36020E07B689B6FB3F5804F09D16E
S3150800245C034A034BDB6843F48033D36014E000BFB4
S3150800246C001002407B689B6FB3F1806F0CD17B68C0
S3150800247C04330121184600F0A5F80346FB74FB7CCF
S3150800248C002B01D0FB7CBB747B681B6803F4802390
S3150800249C002B28D04A494A4BD3F8883023F040629F
S315080024AC7B68DB6F1343C1F888307B68DB6FB3F14D
S315080024BC006F06D1424A424BDB6843F48013D36063
S315080024CC11E07B68DB6FB3F1806F0CD17B6804334A
S315080024DC0121184600F076F80346FB74FB7C002BAA
S315080024EC01D0FB7CBB747B681B6803F48043002B10
S315080024FC1ED03349324BD3F8883023F040527B68D0
S3150800250CD3F880301343C1F888307B68D3F8803011
S3150800251CB3F1805F0CD17B6804330221184600F0B6
S3150800252C51F80346FB74FB7C002B01D0FB7CBB7477
S3150800253C7B681B6803F48033002B0BD02049204B97
S3150800254CD3F89C3023F004027B68D3F88430134309
S3150800255CC1F89C307B681B6803F40013002B0BD066
S3150800256C1749174BD3F89C3023F018027B68D3F81D
S3150800257C88301343C1F89C307B681B6803F0807362
S3150800258C002B17D00E490E4BD3F89C3023F440126F
S3150800259C7B68D3F88C301343C1F89C307B68D3F82E
S315080025AC8C30B3F5001F05D1054A054BDB6843F49F
S315080025BC8013D360BB7C18461837BD4680BD00BF58
S315080025CC0010024080B584B000AF786039600023F3
S315080025DCFB73704BDB6803F00303002B0ED06D4BBB
S315080025ECDB6803F003027B681B689A4203D17B689D
S315080025FC1B68002B3FD10123FB733CE07B681B68EF
S3150800260C022B0CD0032B13D0012B20D1614B1B684A
S3150800261C03F00203002B1DD10123FB731AE05D4B5B
S3150800262C1B6803F48063002B16D10123FB7313E09C
S3150800263C584B1B6803F40033002B0FD1554B1B6802
S3150800264C03F48023002B09D10123FB7306E0012335
S3150800265CFB7304E000BF02E000BF00E000BFFB7B99
S3150800266C002B08D14B494B4BDB6823F003027B68E4
S3150800267C1B681343CB60FB7B002B40F08680454AD6
S3150800268C444B1B6823F080631360FDF7C3FDB860E9
S3150800269C09E0FDF7BFFD0246BB68D31A022B02D927
S315080026AC0323FB7305E03B4B1B6803F00063002B0D
S315080026BCEFD1FB7B002B68D13B68002B13D1354837
S315080026CC344B1A69344B13407A68926811027A684B
S315080026DCD268D20611437A685268013A12010A4343
S315080026EC134303612DE03B68012B15D12948294B6F
S315080026FC1A692A4B13407A68926811027A68126929
S3150800270C5208013A520511437A685268013A120185
S3150800271C0A431343036114E01E481E4B1A69204BE7
S3150800272C13407A68926811027A6852695208013A1B
S3150800273C520611437A685268013A12010A43134346
S3150800274C0361144A134B1B6843F080631360FDF74F
S3150800275C61FDB86009E0FDF75DFD0246BB68D31A5A
S3150800276C022B02D90323FB7305E00A4B1B6803F003
S3150800277C0063002BEFD0FB7B002B06D10549054BDC
S3150800278C1A697B689B6913430B61FB7B18461037E8
S3150800279CBD4680BD001002400F80FF070F809FFFCB
S315080027AC0F80FFF980B584B000AF786039600023DC
S315080027BCFB73704BDB6803F00303002B0ED06D4BD9
S315080027CCDB6803F003027B681B689A4203D17B68BB
S315080027DC1B68002B3FD10123FB733CE07B681B680D
S315080027EC022B0CD0032B13D0012B20D1614B1B6869
S315080027FC03F00203002B1DD10123FB731AE05D4B7A
S3150800280C1B6803F48063002B16D10123FB7313E0BA
S3150800281C584B1B6803F40033002B0FD1554B1B6820
S3150800282C03F48023002B09D10123FB7306E0012353
S3150800283CFB7304E000BF02E000BF00E000BFFB7BB7
S3150800284C002B08D14B494B4BDB6823F003027B6802
S3150800285C1B681343CB60FB7B002B40F08680454AF4
S3150800286C444B1B6823F080531360FDF7D3FCB86008
S3150800287C09E0FDF7CFFC0246BB68D31A022B02D936
S3150800288C0323FB7305E03B4B1B6803F00053002B3B
S3150800289CEFD1FB7B002B68D13B68002B13D1354855
S315080028AC344B5A69344B13407A68926811027A6829
S315080028BCD268D20611437A685268013A12010A4361
S315080028CC134343612DE03B68012B15D12948294B4D
S315080028DC5A692A4B13407A68926811027A68126907
S315080028EC5208013A520511437A685268013A1201A4
S315080028FC0A431343436114E01E481E4B5A69204B86
S3150800290C13407A68926811027A6852695208013A39
S3150800291C520611437A685268013A12010A43134364
S3150800292C4361144A134B1B6843F080531360FDF73D
S3150800293C71FCB86009E0FDF76DFC0246BB68D31A5A
S3150800294C022B02D90323FB7305E00A4B1B6803F021
S3150800295C0053002BEFD0FB7B002B06D10549054B0A
S3150800296C5A697B689B6913434B61FB7B1846103786
S3150800297CBD4680BD001002400F80FF070F809FFFE9
S3150800298C0F80FFF980B584B000AF03463960FB7140
S3150800299C054BFB60FB681B68184602F0E4FB00BF9E
S315080029AC18461037BD4680BD6400042080B483B039
S315080029BC00AF03463960FB7100BF18460C37BD469D
S315080029CC5DF8047B7047000080B582B000AF124BEF
S315080029DC7B604FF488720021786802F0ADFC02F037
S315080029EC2CFB02467B681A607B6802221A727A688C
S315080029FC0A49002001F03EFB7A680949002001F0DB
S31508002A0C5FFB4FF41651002001F012FA386000BF34
S31508002A1C0837BD4680BD00BF640004209129000814
S31508002A2CB929000880B582B000AF094B7B6001E07C
S31508002A3C02F0F6FAFB1C01221946002001F0C2FA34
S31508002A4C0346002BF4D1FB7818460837BD4680BDE3
S31508002A5C6400042080B588B000AF0346FB712D4B8B
S31508002A6CBB61FB79092B4DD00A2B02D0082B4BD016
S31508002A7C3AE0BB6993F889305A1CD1B2BA6982F824
S31508002A8C89101A46BB69134400225A72BB6909336A
S31508002A9C1846FDF7B7FB0346FB750023FB7718E0D2
S31508002AACFB7F1133DB00BA69134404333B61BB6902
S31508002ABC03F109023B691B6819461046FDF798FB9A
S31508002ACC0346002B02D03B695B689847FB7F0133B2
S31508002ADCFB77BB6993F80C31FA7F9A42E0D3BB6952
S31508002AEC002283F8892010E0BB6993F889305A1CB8
S31508002AFCD1B2BA6982F889101A46BB691344FA79B5
S31508002B0C5A7202E000BF00E000BF00BF2037BD4686
S31508002B1C80BD00BF6400042080B586B000AF786025
S31508002B2C3960114B7B61FFF74FFF7B6993F889304E
S31508002B3C002B02D10D4800F01BF8FFF773FF034674
S31508002B4C3B7300237B733B7B0D2B01D10A233B7311
S31508002B5C07F10C03184600F00BF803463B613B7B68
S31508002B6C1846FFF777FFE0E7640004208C5300084B
S31508002B7C80B586B000AF7860094B7B617868FDF745
S31508002B8C41FB0346FB74FB7C1A467968002001F06E
S31508002B9CA7F9F860FB68DBB218461837BD4680BD46
S31508002BAC6400042080B485B000AF0346FB71074B64
S31508002BBCFB60FB68FA795A71FB6801229A7100BFAF
S31508002BCC1437BD465DF8047B704700BF7C010420B2
S31508002BDC80B582B000AF786000F0ACFA00BF083759
S31508002BECBD4680BD80B584B000AF78600C4BFB60E9
S31508002BFCFB68DB790A2B08D90320FFF7D3FF0948B2
S31508002C0C00F0EEF800F0B2FA05E0FB68DB79013368
S31508002C1CDAB2FB68DA7100BF1037BD4680BD00BF5B
S31508002C2C7C010420912E000880B584B000AF786032
S31508002C3C0123BB730023FB7304E0094B9847FB7B0A
S31508002C4C0133FB73FA7BBB7B9A42F6D364210548A6
S31508002C5C00F094F8B86000BF1037BD4680BD00BFC1
S31508002C6C09310008912E000880B588B000AF78604D
S31508002C7C39602A4BFB6108220021F86902F05CFBDB
S31508002C8C02F0DBF90246FB691A60FB6906221A7127
S31508002C9CFB6900225A71FB691B7907F10C0207F1D3
S31508002CAC1001184602F021FAFB695B791A46FB6893
S31508002CBC1B681B495200134451F83330BB61FB693E
S31508002CCC5B791A46FB681B68154952001344DB00EE
S31508002CDC0B441B79FB75FB69FA7D5A71FB68184620
S31508002CEC02F0DAF9BB69002B04D0FB685A68BB6999
S31508002CFC10469847FB7D042B07D0FB699B79002B64
S31508002D0C03D1FB69FA7D5A7106E0FB699B79012BA5
S31508002D1CC1D1FB6900229A71BDE700BF7C01042072
S31508002D2C7054000880B584B000AF786039600A200A
S31508002D3C02F008FA104B1B68FB600F4B1B68BB6054
S31508002D4C16E0FB68DB680A2B07D8FB685B689847B4
S31508002D5CFB689A68FB68DA6005E0FB68DB68A3F138
S31508002D6C0A02FB68DA60FB68BB60FB681B68FB60E1
S31508002D7CFB68002BE5D1DAE77401042080B584B032
S31508002D8C00AF786039607B68002B02D14FF0FF33B7
S31508002D9C20E0102002F06FF9B860BB687A685A60B8
S31508002DACBB683A689A60BB683A68DA60BB68002206
S31508002DBC1A600A4B1B68FB6003E0084B1B681B6810
S31508002DCCFB60FB68002BF8D1BB68FB60034ABB6849
S31508002DDC1360002318461037BD4680BD74010420C5
S31508002DEC80B485B000AF78607B68002B02D14FF0B9
S31508002DFCFF3322E0144BBB60134BFB600AE0BB6845
S31508002E0C1B685A687B689A4209D0BB68FB600E4BF4
S31508002E1C1B68BB60BB681B68002BF0D100E000BFC9
S31508002E2CBB681B68002B02D14FF0FF3305E0BB686B
S31508002E3C1B681A68FB681A60002318461437BD46C7
S31508002E4C5DF8047B704700BF7401042080B582B01E
S31508002E5C00AF0B4B7B60082002F00DF938603B681D
S31508002E6C00221A603B6800225A607B681B793A6814
S31508002E7C0821184602F021F900BF0837BD4680BD67
S31508002E8C7C01042080B582B000AF0B4B7B60082018
S31508002E9C02F0F1F838603B6801221A603B680022A0
S31508002EAC5A607B681B793A680821184602F005F9BE
S31508002EBC00BF0837BD4680BD7C01042080B500AF35
S31508002ECC00F046FD064A0021012000F085FC054A63
S31508002EDC0121022000F080FC00F056FD00BF80BDE9
S31508002EEC98530008B453000880B582B000AF0D4B58
S31508002EFC7B6000F02DFD0C4A0021012000F06CFCD3
S31508002F0C0A4A0121012000F067FC7B689B79084A74
S31508002F1C1946002000F060FC00F036FD00BF0837AB
S31508002F2CBD4680BD48180420D0530008DC53000861
S31508002F3CF053000880B582B000AF0346FB71FB79ED
S31508002F4C002B02D100F04AF901E000F02BF900BF82
S31508002F5C0837BD4680BD80B582B000AF0346FB710D
S31508002F6CFB79002B02D100F071F901E000F052F95F
S31508002F7C00BF0837BD4680BD80B582B000AF03469A
S31508002F8CFB71FB79002B02D100F098F901E000F0F7
S31508002F9C79F900BF0837BD4680BD80B582B000AF51
S31508002FAC0346FB71FB79002B02D100F0BFF901E057
S31508002FBC00F0A0F900BF0837BD4680BD80B582B0C9
S31508002FCC00AF0B4B7B6000F0E9FB0A4800F014FBE2
S31508002FDC094800F02DFB094800F046FB084800F0AC
S31508002FEC5FFB7B6800229A7100BF0837BD4680BD1F
S31508002FFC48180420412F0008632F0008852F000865
S3150800300CA72F000880B582B000AF114B7B607B6898
S3150800301C9B7901221946002000F058FC7B689B79A5
S3150800302C03F00103002B0CBF01230023DBB21A4665
S3150800303C7B689A717B689B79064A1946002000F0D2
S3150800304CCBFB00F0A1FC00BF0837BD4680BD00BF16
S3150800305C48180420F053000880B588B000AF786093
S3150800306C3960244BBB610023FB77FB7FFB75082279
S3150800307C0021B86902F060F901F0DFFF0246BB696E
S3150800308C1A60BB6908221A71BB691B7907F10C0215
S3150800309C07F10801184602F028F8FA7FFB68196848
S315080030AC154813465B0013449B0013440B4450F815
S315080030BC33303B61FA7FFB6819680F4813465B008F
S315080030CC13449B0013440B44DB0003441B79FB7528
S315080030DCFB68184601F0E0FFBB69FA7D5A713B693B
S315080030EC002B01D03B699847FB7D042BCCD0FB7D8C
S315080030FCFB77C9E748180420C054000880B582B08D
S3150800310C00AF0B4B7B60082001F0B5FF38603B68BD
S3150800311C00221A603B6800225A607B681B793A6861
S3150800312C0821184601F0C9FF00BF0837BD4680BD07
S3150800313C4818042080B582B000AF0B4B7B60082082
S3150800314C01F099FF38603B6801221A603B6800223F
S3150800315C5A607B681B793A680821184601F0ADFF5E
S3150800316C00BF0837BD4680BD4818042080B582B01C
S3150800317C00AF0B4B7B60082001F07DFF38603B6885
S3150800318C02221A603B6800225A607B681B793A68EF
S3150800319C0821184601F091FF00BF0837BD4680BDCF
S315080031AC4818042080B582B000AF0B4B7B60082012
S315080031BC01F061FF38603B6803221A603B68002205
S315080031CC5A607B681B793A680821184601F075FF26
S315080031DC00BF0837BD4680BD4818042080B582B0AC
S315080031EC00AF0B4B7B60082001F045FF38603B684D
S315080031FC04221A603B6800225A607B681B793A687D
S3150800320C0821184601F059FF00BF0837BD4680BD96
S3150800321C4818042080B582B000AF0B4B7B600820A1
S3150800322C01F029FF38603B6805221A603B680022CA
S3150800323C5A607B681B793A680821184601F03DFFED
S3150800324C00BF0837BD4680BD4818042080B582B03B
S3150800325C00AF0B4B7B60082001F00DFF38603B6814
S3150800326C06221A603B6800225A607B681B793A680A
S3150800327C0821184601F021FF00BF0837BD4680BD5E
S3150800328C4818042080B582B000AF0B4B7B60082031
S3150800329C01F0F1FE38603B6807221A603B68002291
S315080032AC5A607B681B793A680821184601F005FFB5
S315080032BC00BF0837BD4680BD4818042080B582B0CB
S315080032CC00AF0B4B7B60082001F0D5FE38603B68DD
S315080032DC08221A603B6800225A607B681B793A6898
S315080032EC0821184601F0E9FE00BF0837BD4680BD27
S315080032FC4818042080B582B000AF0B4B7B600820C1
S3150800330C01F0B9FE38603B6809221A603B68002256
S3150800331C5A607B681B793A680821184601F0CDFE7D
S3150800332C00BF0837BD4680BD4818042080B582B05A
S3150800333C00AF0B4B7B60082001F09DFE38603B68A4
S3150800334C0A221A603B6800225A607B681B793A6825
S3150800335C0821184601F0B1FE00BF0837BD4680BDEE
S3150800336C4818042080B400AFFEE7000080B5AEB064
S3150800337C00AF07F1240394220021184601F0DCFF64
S3150800338C40237B620023BB6707F124031846FEF72C
S3150800339CF1FD0346002B01D0FFF7E4FF324A324B0E
S315080033AC1B6E43F4804313662F4B1B6E03F480434A
S315080033BC3B623B6A2C4A2C4B9B6D43F4003393655A
S315080033CC294B9B6D03F40033FB61FB69264A264B9C
S315080033DC9B6D43F480239365234B9B6D03F48023E9
S315080033ECBB61BB69204A204B9B6D43F40013936564
S315080033FC1D4B9B6D03F400137B617B691A4A1A4BB0
S3150800340C9B6D43F080539365174B9B6D03F080536C
S3150800341C3B613B69144A144BDB6C43F00103D364E0
S3150800342C114BDB6C03F00103FB60FB680E4A0E4B79
S3150800343CDB6C43F04003D3640B4BDB6C03F04003AB
S3150800344CBB60BB68084A084BDB6C43F01003D364BB
S3150800345C054BDB6C03F010037B607B68FEF77AFD8B
S3150800346C00BFB837BD4680BD0010024080B588B095
S3150800347C00AF1A4BBB613B1D00221A605A609A605A
S3150800348CDA601A6134220021B86901F055FF00236D
S3150800349CFB7716E0FA7FB96913465B0013449B0069
S315080034AC0B44043301221A70FA7FB96913465B0080
S315080034BC13449B000B44053301221A70FB7F01331E
S315080034CCFB77FB7F032BE5D901F0B7FD0246BB69F9
S315080034DC1A6000BF2037BD4680BD00BF840104209A
S315080034EC80B586B000AF404B3B610023FB7574E09A
S315080034FCFA7D13465B0013449B003A691344043364
S3150800350CFB60FB7D394A52F83330BB60FB7D374A8A
S3150800351CDB0013449B88FB80FB881946B868FDF7CB
S3150800352C31F903467B717B79002B25D1FB685B78D7
S3150800353C032B4ED0FB6800225A70FB685B685A1C3A
S3150800354CFB685A60FB685B68642202FB03F33B600A
S3150800355C3B6840F6C412934236D9FB6803225A706C
S3150800356CFB689B68002B03D0FB689B680120984777
S3150800357C1F48FFF7FDFA27E0FB6801225A70FB6823
S3150800358C1B78002B19D1FB685B68642202FB03F3DA
S3150800359C3B60FB6800225A603B6840F2DB52934260
S315080035AC12D8FB689B68002B03D0FB689B6800202D
S315080035BC98471048FFF7DCFA06E0FB681B78032BE4
S315080035CC02D1FB6800225A60FB685A78FB681A70AD
S315080035DC00E000BFFB7D0133FB75FB7D032B87D910
S315080035EC00BF1837BD4680BD84010420C8560008A4
S315080035FCF4530008FC53000880B485B000AF78601B
S3150800360C0A4BFB60FB680433BB607B68002B02D15A
S3150800361C4FF0FF3303E0BB687A689A6000231846BC
S3150800362C1437BD465DF8047B704700BF840104203F
S3150800363C80B485B000AF78600A4BFB60FB6810332A
S3150800364CBB607B68002B02D14FF0FF3303E0BB68ED
S3150800365C7A689A60002318461437BD465DF8047BD1
S3150800366C704700BF8401042080B485B000AF786031
S3150800367C0A4BFB60FB681C33BB607B68002B02D1D2
S3150800368C4FF0FF3303E0BB687A689A60002318464C
S3150800369C1437BD465DF8047B704700BF84010420CF
S315080036AC80B485B000AF78600A4BFB60FB682833A2
S315080036BCBB607B68002B02D14FF0FF3303E0BB687D
S315080036CC7A689A60002318461437BD465DF8047B61
S315080036DC704700BF8401042080B582B000AF7860C3
S315080036EC3960FFF7C3FE642001F02CFDFFF7F8FEE6
S315080036FCF9E780B586B000AFF860B9601346FB7180
S3150800370CFB68002B02D0012B03D005E000233B7588
S3150800371C02E040233B7500BF0023FB7511E0FB7DDF
S3150800372CBA6813441B787B7507F1140202233E21F1
S3150800373C002000F059FA052001F004FDFB7D013349
S3150800374CFB75FA7DFB799A42E9D300BF1837BD465B
S3150800375C80BD000080B485B000AF0346FB80002313
S3150800376CFB810FE0FB890C4A32F82330FA889A421F
S3150800377C05D1FB89084A9B0013449B7806E0FB8914
S3150800378C0133FB81FB897A2BECD9FF2318461437B6
S3150800379CBD465DF8047B7047F456000880B582B0C8
S315080037AC00AF0B4B7B6021220021094801F0C4FDB8
S315080037BC002000F087F90A2206490020FFF799FF36
S315080037CC7B6801221A7000BF0837BD4680BD00BF52
S315080037DCB8010420E856000890B587B000AF034638
S315080037EC3A60FB710B46BB71374B3B610023FB758B
S315080037FC3B68002B02D14FF0FF3360E03B691B7826
S3150800380C002B02D14FF0FF3359E0FB79102B02D86D
S3150800381CBB79022B02D94FF0FF3350E0FC7938689C
S3150800382CFCF7F0FC0346DA0F13445B102344102B09
S3150800383C40D94FF0FF3342E03B681B88FB81FB897C
S3150800384C1B021BB223F0FF031AB2FB891B0A9BB29D
S3150800385C1BB213431BB2FB81FB891846FFF77AFF91
S3150800386C0346BB81BB89FF2B04D100F071F84FF0DE
S3150800387CFF3324E0BB791A01FB791A44FB7D134408
S3150800388C3A6913445B78202B02D04FF0FF3316E0CD
S3150800389CBB791A01FB791A44FB7D1344BA89D1B258
S315080038AC3A6913440A465A703B6802333B60FB7DFF
S315080038BC0133FB753B681B88002BBDD100231846CA
S315080038CC1C37BD4690BD00BFB801042080B485B036
S315080038DC00AF0346FB710B46BB7113467B711B4B42
S315080038ECBB600023FB73BB681B78002B02D14FF01F
S315080038FCFF3325E0FB79102B02D8BB79022B02D9B2
S3150800390C4FF0FF331CE0FA797B791344102B02D95C
S3150800391C4FF0FF3314E00023FB730CE0BB791A015C
S3150800392CFB791A44FB7B1344BA68134420225A7059
S3150800393CFB7B0133FB73FA7B7B799A42EED300232C
S3150800394C18461437BD465DF8047B7047B801042049
S3150800395C80B582B000AF0B4B7B600123FB707B6894
S3150800396C1B78002B02D14FF0FF3307E07B6801333D
S3150800397C20222021184601F0DFFC002318460837C0
S3150800398CBD4680BDB801042080B582B000AF164B89
S3150800399C7B607B681B78002B02D14FF0FF331FE04E
S315080039AC8023FB70FB1C012219460020FFF7A1FEA1
S315080039BC7B680133102219460120FFF79AFEC023B3
S315080039CCFB70FB1C012219460020FFF792FE7B6850
S315080039DC01331033102219460120FFF78AFE002303
S315080039EC18460837BD4680BDB801042080B400AF20
S315080039FCFEE7000080B582B000AF064B7B607B68A3
S31508003A0C002B03D07B681846FCF7DCFF00BF083791
S31508003A1CBD4680BDDC01042080B582B000AF064BE4
S31508003A2C7B607B68002B03D07B681846FCF7E4FFA9
S31508003A3C00BF0837BD4680BDDC01042080B582B0C6
S31508003A4C00AF00237B6032E07B68542202FB03F351
S31508003A5C1A4A13443B6054220021386801F06CFC66
S31508003A6C17497A681346DB009B1A9B000B440C33E8
S31508003A7C1B6818B212497A681346DB009B1A9B001E
S31508003A8C0B4408331B68194601F047FB302318B260
S31508003A9C0B497A681346DB009B1A9B000B441433BC
S31508003AAC1B68194601F039FB7B6801337B607B6820
S31508003ABC002BC9D000BF0837BD4680BDDC010420E9
S31508003ACCE058000880B584B000AF0346FB71FB795B
S31508003ADC002B02D04FF0FF337EE0FB79542202FB19
S31508003AEC03F33F4A1344FB60FA793E491346DB005D
S31508003AFC9B1A9B000B441A68FB681A60FB68042225
S31508003B0C5A60FB6800229A60FB680122DA60FB683F
S31508003B1C00221A61FB6800225A61FB6800229A612E
S31508003B2CFB680022DA61FB6800221A62FB681846F9
S31508003B3CFCF740FE0346002B01D0FFF757FFFB6846
S31508003B4C00211846FEF76EF90346002B01D0FFF745
S31508003B5C4DFFFB6800211846FEF7AFF90346002B0C
S31508003B6C01D0FFF743FFFA791E491346DB009B1A6F
S31508003B7C9B000B44043393F90030002205211846A8
S31508003B8CFCF7D7FBFA7917491346DB009B1A9B00FF
S31508003B9C0B44043393F900301846FCF7E6FBFA7924
S31508003BAC10491346DB009B1A9B000B44103393F900
S31508003BBC0030002205211846FCF7BBFBFA790949A7
S31508003BCC1346DB009B1A9B000B44103393F9003009
S31508003BDC1846FCF7CAFB002318461037BD4680BDAD
S31508003BECDC010420E058000880B586B000AFBA6046
S31508003BFC7B600346FB730B46BB73FB7B002B02D027
S31508003C0C4FF0FF3324E0BB68002B02D14FF0FF3393
S31508003C1C1EE0FB7B542202FB03F30F4A13447B6121
S31508003C2C08E07B691846FCF7AAFF0346042B01D06B
S31508003C3CFFF7DCFE7869BB7B9BB25B0099B27B68AD
S31508003C4C9BB2BA68FCF74EFE0346002BE9D100235B
S31508003C5C18461837BD4680BDDC01042080B586B0F1
S31508003C6C00AF0346FB71FB79474A1B0113441B68DB
S31508003C7C7B61FB7940F61C0202FB03F3434A1344AF
S31508003C8C3B617B69DB6903F00B03002B00D0FEE775
S31508003C9C7B69DB6903F02003002B2FD03B690233C9
S31508003CACFB60FB68B3F802340133C3F30903FA6803
S31508003CBCB2F80024934213D0FB68B3F802341A46C0
S31508003CCC7B695B6AD9B2FB689954FB68B3F8023412
S31508003CDC01339BB2C3F309039AB2FB68A3F8022417
S31508003CEC3B69D3F81438002B08D03B69D3F8143841
S31508003CFC3A69D2F81818FA79104698477B699B687E
S31508003D0C03F40003002B3AD07B69DB6903F08003CC
S31508003D1C002B34D03B6903F20643FB60FB68B3F80F
S31508003D2C0224FB68B3F800349A4222D0FB68B3F835
S31508003D3C00341A46FB689B5C1A467B699A62FB68D8
S31508003D4CB3F8003401339BB2C3F309039AB2FB6888
S31508003D5CA3F800243B69D3F80C38002B0FD03B6929
S31508003D6CD3F80C383A69D2F81018FA7910469847ED
S31508003D7C05E07B699B6823F400027B699A6000BFA7
S31508003D8C1837BD4680BD00BFFC5800083002042019
S31508003D9C80B500AF0020FFF761FF00BF80BD80B57E
S31508003DAC00AF0120FFF75AFF00BF80BD80B483B077
S31508003DBC00AF7860044A7B68B2FBF3F318460C37FD
S31508003DCCBD465DF8047B704700093D0080B582B09E
S31508003DDC00AF00237B6020E07B6840F61C0202FBE8
S31508003DEC03F3114A13443B6040F61C020021386861
S31508003DFC01F0A2FA0D4A7B681B0113440C331B68AD
S31508003E0C18B20A4A7B681B01134408331B68194607
S31508003E1C01F083F97B6801337B607B68012BDBD966
S31508003E2C00BF0837BD4680BD30020420FC58000888
S31508003E3C80B584B000AF03463960FB71FB79012B62
S31508003E4C02D94FF0FF3344E0FB79244A1B01134493
S31508003E5C1B68FB603868FFF7A9FF0246FB68DA6047
S31508003E6CFB681B6843F0005343F00C03FA681360B5
S31508003E7CFB681B6843F00102FB681A60FB689A68CA
S31508003E8CFB689A60FB689B6843F02042FB689A6063
S31508003E9CFB689A68FB689A60FB689B6843F08052DB
S31508003EACFB689A60FB790D4A1B011344043393F99A
S31508003EBC0030002205211846FCF73BFAFB79074A25
S31508003ECC1B011344043393F900301846FCF74DFADA
S31508003EDC002318461037BD4680BD00BFFC580008A5
S31508003EEC80B48BB000AF0346B9607A60FB73FB7B7A
S31508003EFC012B02D94FF0FF335AE0BB68002B02D1D5
S31508003F0C4FF0FF3354E0FB7B40F61C0202FB03F335
S31508003F1C2A4A1344FB61FB6903F20643BB61BB697E
S31508003F2CB3F802347B6200233B620FE07B6A0133F1
S31508003F3C7B62BB69B3F800341A467B6A9A4202D193
S31508003F4C4FF0FF3334E03B6A01333B623A6A7B68D5
S31508003F5C9A42EBD371B600233B6217E0BB69B3F800
S31508003F6C02341946BB685A1CBA601A78BB695A548B
S31508003F7CBB69B3F8023401339BB2C3F309039AB293
S31508003F8CBB69A3F802243B6A01333B623A6A7B6835
S31508003F9C9A42E3D361B6FB7B094A1B0113441B689F
S31508003FAC7B617B699B6843F400027B699A600023FA
S31508003FBC18462C37BD465DF8047B70473002042042
S31508003FCCFC58000880B489B000AF0346B9607A6023
S31508003FDCFB73FB7B012B02D94FF0FF3341E0BB6827
S31508003FEC002B02D14FF0FF333BE0FB7B40F61C0263
S31508003FFC02FB03F31E4A1344BB61BB6902337B61A4
S3150800400C7B69B3F800341A467B6813447A69B2F8AC
S3150800401C0224934202D94FF0FF3322E071B60023F3
S3150800402CFB6118E07B69B3F800341A467B699A5C25
S3150800403CBB681A707B69B3F8003401339BB2C3F3BF
S3150800404C09039AB27B69A3F80024BB680133BB60E9
S3150800405CFB690133FB61FA697B689A42E2D361B664
S3150800406C002318462437BD465DF8047B704700BF0D
S3150800407C3002042080B487B000AF0346B9607A607A
S3150800408CFB73BB68002B02D14FF0FF3310E0FB7BB0
S3150800409C40F61C0202FB03F3084A13447B617B6956
S315080040ACBA68C3F814287B697A68C3F818280023F9
S315080040BC18461C37BD465DF8047B70473002042051
S315080040CC80B487B000AF0346B9607A60FB73BB68EF
S315080040DC002B02D14FF0FF3310E0FB7B40F61C029D
S315080040EC02FB03F3084A13447B617B69BA68C3F87D
S315080040FC0C287B697A68C3F81028002318461C37E5
S3150800410CBD465DF8047B70473002042080B584B048
S3150800411C02AF78603960FFF759FEFFF78FFC002372
S3150800412C0193002300934FF4805302221A491B482B
S3150800413C00F050FF00230193002300934FF48053A3
S3150800414C03221749174800F045FF00230193002363
S3150800415C00934FF4805303221349144800F03AFF96
S3150800416C00230193002300934FF480530322104934
S3150800417C104800F02FFF00230193002300934FF4FF
S3150800418C805303220C490D4800F024FF0F2000F041
S3150800419C61FFFEF75BFEFEE704540008E5360008EF
S315080041AC14540008252B00081C5400086530000818
S315080041BC2C540008752C000838540008312D0008BA
S315080041CC80B582B002AFFFF7D1F800F0DDFF00230F
S315080041DC0193002300934FF480730022034904488B
S315080041EC00F004FD00231846BD4680BD4454000863
S315080041FC19410008854600980199029A039B049C6C
S3150800420C059D069E079FDDF82080DDF82490DDF8D5
S3150800421C28A0DDF82CB0DDF830C00DB000BD854601
S3150800422CBDE8F08F2DE9F04FEFF30580EFF3088129
S3150800423C00F0B6FCBDE8F08F80B483B000AF03463F
S3150800424C3960FB7197F90730002B0BDA0D49FB79AE
S3150800425C03F00F03043B3A68D2B21201D2B20B44F4
S3150800426C1A7609E0084997F907303A68D2B212016A
S3150800427CD2B20B4483F8002300BF0C37BD465DF859
S3150800428C047B704700ED00E000E100E080B582B0E9
S3150800429C00AF78607B68013BB3F1807F01D30123C3
S315080042AC0FE00A4A7B68013B536005214FF0FF304B
S315080042BCFFF7C2FF054B00229A60044B07221A60CF
S315080042CC002318460837BD4680BD00BF10E000E045
S315080042DC80B400AF1D4B1B68002B02D14FF0FF3387
S315080042EC2EE01A4B1B685B6A03F00103002B01D105
S315080042FC012325E0154B1B68DB69144A1268126802
S3150800430C134941F83320114B1B68DB69104A52F8E4
S3150800431C3330002B07D10D4B1B68DB690C4ADB00CD
S3150800432C134400225A60094B1B68084A1268526AE1
S3150800433C22F001025A62054B1B6800221A60002300
S3150800434C1846BD465DF8047B704700BF681204200A
S3150800435CB817042080B400AF214B1B68002B02D180
S3150800436C4FF0FF3336E01E4B1B685B6A03F0010304
S3150800437C002B01D001232DE0194B1B68DB69194A68
S3150800438CDB0013445B68002B0AD0154B1B68DB69F2
S3150800439C144ADB0013445B68114A12681A6007E07A
S315080043AC0F4B1B68DB690E4A12680E4941F833201D
S315080043BC0B4B1B68DB690A4A12680A49DB000B447B
S315080043CC5A60074B1B68064A1268526A42F0010289
S315080043DC5A6200231846BD465DF8047B704700BF39
S315080043EC68120420B817042080B500AF00F010FE40
S315080043FC00BF80BD80B582B000AF78607B689B6AD1
S3150800440C7A68D06A7A68126B11469847FFF7ECFF00
S3150800441C00BF0837BD4680BD80B588B000AFF860D0
S3150800442CB9607A603B600023FB610BE0FB699B017A
S3150800443C924A1344BB61BB699B6A002B06D0FB6985
S3150800444C0133FB61FB690E2BF0DD00E000BFFB6955
S3150800445C0F2B02D14FF0FF330CE140220021B86933
S3150800446C00F06AFFBB690C33B968184600F06CFF9C
S3150800447CBB6900221A60BB697A68DA61BB690022DB
S3150800448C5A62BB69FA689A62BB69BA6ADA62BB692C
S3150800449CFA6A1A637A4B1B683A680021184600F0C8
S315080044AC4BFF774B1A683B681344754A1360744B79
S315080044BC1A68BB691A62BB691B6A7B61714B1B68FC
S315080044CC002B5DD17B69043B7B616F4A7B691A6063
S315080044DC7B69043B7B616D4A7B691A607B69043B8B
S315080044EC7B617B6900221A607B69043B7B617B6973
S315080044FC00221A607B69043B7B617B6900221A6087
S3150800450C7B69043B7B617B6900221A607B69043BEF
S3150800451C7B617B6900221A607B69043B7B617B6942
S3150800452C00221A607B69043B7B617B6900221A6056
S3150800453C7B69043B7B617B6900221A607B69043BBF
S3150800454C7B617B6900221A607B69043B7B617B6912
S3150800455C00221A607B69043B7B617B6900221A6026
S3150800456C7B69043B7B617B6900221A607B69043B8F
S3150800457C7B61BA697B691A60424B01221A606DE04D
S3150800458C7B69043B7B61404A7B691A607B69043B07
S3150800459C7B617B694FF080721A607B69043B7B6197
S315080045AC3A4A7B691A607B69043B7B617B6900220A
S315080045BC1A607B69043B7B617B6900221A607B6904
S315080045CC043B7B617B6900221A607B69043B7B6137
S315080045DC7B6900221A607B69043B7B617B6900223C
S315080045EC1A607B69043B7B61BA697B691A607B69D3
S315080045FC043B7B617B696FF006021A607B69043B9E
S3150800460C7B617B6900221A607B69043B7B617B6951
S3150800461C00221A607B69043B7B617B6900221A6065
S3150800462C7B69043B7B617B6900221A607B69043BCE
S3150800463C7B617B6900221A607B69043B7B617B6921
S3150800464C00221A607B69043B7B617B6900221A6035
S3150800465C7B69043B7B617B6900221A607A69BB69BA
S3150800466CDA63FFF777FE0A4ABB691360FFF772FE37
S3150800467C074B1B6818462037BD4680BD6C120420B4
S3150800468C0000042040180420F543000801440008E3
S3150800469C6812042080B500AF094B1B680C3318460A
S315080046AC00F0FAFD074800F0F7FD054B1B684022A1
S315080046BC0021184600F040FE0023184680BD00BFB6
S315080046CC681204204C54000880B500AFFFF742FE70
S315080046DC0023184680BD80B400AF00231846BD469B
S315080046EC5DF8047B7047000080B582B000AF786037
S315080046FCFFF730FE7B68044A1360FFF72BFE002396
S3150800470C18460837BD4680BD6812042080B500AF30
S3150800471CFFF720FE014B1B68184680BD6812042063
S3150800472C80B584B000AF7860084B1B68DB69FB600A
S3150800473C7B68002B03DB054B1B687A68DA61FFF78D
S3150800474C09FEFB6818461037BD4680BD6812042062
S3150800475C80B582B000AF7860FFF7FCFD786800F092
S3150800476CCFFB034618460837BD4680BD80B582B0D8
S3150800477C00AF7860786800F0FFFBFFF7EBFD0023CD
S3150800478C18460837BD4680BD80B586B000AFF860C0
S3150800479CB9607A603B60102000F0B2FB78617B69E7
S315080047AC002B01D100F086FA7B6900221A607B691E
S315080047BCBA685A607B697A689A607B693A68DA6083
S315080047CCFB689B68002B04D0FB689B687A691A60A7
S315080047DC02E0FB687A695A60FB687A699A6000BFDE
S315080047EC1837BD4680BD80B584B000AF78607B684D
S315080047FC5B68FB60FB681A687B685A607B685B6859
S3150800480C002B02D17B6800229A60FB6800221A6092
S3150800481C7B681B689B6BBB60FB685B681A46BB684E
S3150800482CDA60BB685B68002B04D0BB685B68FA6807
S3150800483C92681A60BB689B68002B04D0BB689B689F
S3150800484CFA68D2681A607B6800221A60F86800F069
S3150800485C93FB00BF1037BD4680BD000080B586B0FF
S3150800486C00AF0346B9607A60FB73FB7B1B010F4AEA
S3150800487C13447B61FFF76EFD0D4B19687B68BA68AC
S3150800488C7869FFF781FF7B691B68002B08D07B6969
S3150800489C1B68074A13607869FFF7A5FFFFF75AFDEF
S315080048ACBB6818461837BD4680BD00BF20170420C4
S315080048BC6812042080B586B000AF0346B9607A60EA
S315080048CCFB73FB7B1B01104A13447B617B691B68DA
S315080048DC002B01D000F0EEF90C4B1A687B691A60B4
S315080048EC7B695B68002B02D14FF0FF3308E07869CF
S315080048FCFFF779FFFFF72EFD044B1B689B6BDB68F4
S3150800490C18461837BD4680BD2017042068120420A7
S3150800491C80B582B000AF03463960FB80B7F9063024
S3150800492C05493A6841F82320FFF714FD0023184679
S3150800493C0837BD4680BD00BF2C16042080B483B052
S3150800494C00AF78600E4B1B687A689A600D4B5B68F3
S3150800495C002B05D00B4B5B68094A12685A6003E0BA
S3150800496C074B1B68074A1360054B1B68054A5360BF
S3150800497C002318460C37BD465DF8047B704700BF0C
S3150800498C6812042038180420B0B584B002AF034668
S3150800499C3960FB71FB790C2B00F29D8001A252F851
S315080049AC23F000BFE5490008114A0008174A000819
S315080049BC234A00082F4A0008414A00084D4A0008B5
S315080049CC5F4A0008714A0008834A00089D4A000895
S315080049DCB74A0008D14A00083B6818683B6859680A
S315080049EC3B689C683B68DD683B681B693A6852699A
S315080049FC019200932B462246FFF70EFD02463B68B2
S31508004A0C9A6169E0FFF746FE66E0FFF75DFE02462F
S31508004A1C3B681A6060E0FFF75EFE02463B681A6068
S31508004A2C5AE03B681B681846FFF75EFE02463B6871
S31508004A3C5A6051E0FFF76AFE02463B681A604BE083
S31508004A4C3B681B681846FFF76BFE02463B685A60C4
S31508004A5C42E03B681B681846FFF77AFE02463B683D
S31508004A6C5A6039E03B681B681846FFF77FFE02461A
S31508004A7C3B685A6030E03B6818783B6859683B6875
S31508004A8C9B681A46FFF7EAFE02463B68DA6023E0A3
S31508004A9C3B6818783B6859683B689B681A46FFF769
S31508004AAC09FF02463B68DA6016E03B68B3F900205A
S31508004ABC3B685B6819461046FFF72AFF02463B68B7
S31508004ACC9A6009E03B681B681846FFF737FF0246F1
S31508004ADC3B685A6000E000BF00BF0837BD46B0BD52
S31508004AEC80B582B000AF03463960FB71FFF7F0FB67
S31508004AFCFB7939681846FFF747FF00BF0837BD46EC
S31508004B0C80BD000080B582B000AF03463960FB71EA
S31508004B1C054B00221A60FB7939681846FFF734FFF3
S31508004B2C00BF0837BD4680BD6812042080B582B028
S31508004B3C00AF00237B6008E00E4A7B6852F83330DE
S31508004B4C002B06D17B6801337B607B680F2BF3DD6A
S31508004B5C00E000BF7B68102B01D100F0ABF8054ACA
S31508004B6C7B6852F83330044A136000BF0837BD46D9
S31508004B7C80BD00BFB81704206812042080B500AFAA
S31508004B8C064B1B6893F83420044B1B689B6B194621
S31508004B9C1046FFF7A5FF00BF80BD00BF68120420B2
S31508004BAC80B582B000AF03463960FB800D4B1B689D
S31508004BBC3A68DA63B7F906300B4A52F82330002BF9
S31508004BCC05D0B7F90630084A52F823309847FFF74C
S31508004BDCADFF044B1B68D86BFFF721FB00BF0837EA
S31508004BECBD4680BD681204202C16042080B586B0FC
S31508004BFC02AFF860B9607A603B6000F063F9244B49
S31508004C0C00221A6080220021224800F095FB4FF4FE
S31508004C1C70720021204800F08FFBF42200211F48F7
S31508004C2C00F08AFB902200211D4800F085FB082223
S31508004C3C00211C4800F080FB082200211A4800F0CD
S31508004C4C7BFB1A490B20FFF763FE19490F20FFF768
S31508004C5C5FFE002205216FF00400FBF76AFBFB6977
S31508004C6C0193BB6900933B687A68B968F868FFF7E3
S31508004C7CD3FB03461A46064B1A6000F04DF8044B54
S31508004C8C1B68D86BFFF7B6FA00BF1037BD4680BD58
S31508004C9C68120420B81704206C1204202C16042061
S31508004CAC20170420B017042038180420894B000854
S31508004CBC494D000880B500AF014800F0EDFAFEE753
S31508004CCC5C54000880B483B000AF03463960FB71AE
S31508004CDC084B1B68FA7983F83420064B1B683A682C
S31508004CEC9A6300DF00BF00BF0C37BD465DF8047B36
S31508004CFC704700BF6812042080B582B000AF034627
S31508004D0C3960FB71FB7939681846FFF7FBFE00BF63
S31508004D1C0837BD4680BD000080B500AF054B1B6843
S31508004D2C054AA2FB03239B091846FFF7AFFA00BFF7
S31508004D3C80BD00BF44000420D34D621080B500AF7F
S31508004D4C0A4B1B680133094A1360084B1B68B3F5F9
S31508004D5C7A7F07D1054B5B680133044A5360034BD2
S31508004D6C00221A6000F004F800BF80BDB0170420BA
S31508004D7C80B483B000AF354B1B687B60334B1B6824
S31508004D8C3B6059E07B689B68002B4BD17B68DB69E1
S31508004D9C2F4ADB0013445B68002B08D07B68DB6961
S31508004DAC2B4ADB0013445B687A681A6005E07B685B
S31508004DBCDB6927497A6841F833207B68DB69244A22
S31508004DCCDB0013447A685A607B685B6A43F001021D
S31508004DDC7B685A627B685A683B685A601B4B1A6830
S31508004DEC7B689A420FD17B685B68002B06D1174B00
S31508004DFC00221A60154B00225A600CE07B685B682F
S31508004E0C124A136007E0114B5A687B689A4202D122
S31508004E1C0E4A3B6853607B6800225A603B685B68A5
S31508004E2C7B6009E07B689B685A1E7B689A607B6886
S31508004E3C3B607B685B687B607B68002BA2D100BFFC
S31508004E4C0C37BD465DF8047B704700BF3818042044
S31508004E5CB817042080B586B000AF7860184B1B686D
S31508004E6C3B617B680833FB6000237B611DE0FB68B4
S31508004E7C3A691A6008220021386900F05DFA7B68E5
S31508004E8C1A683B695A603B69FB607B681B681A4663
S31508004E9C3B6913443B610A4B1B687A6812681344D6
S31508004EAC074A13607B6901337B617B685A687B69A7
S31508004EBC9A42DCDC002318461837BD4680BD00BF75
S31508004ECC4000042080B582B000AF00237B600CE064
S31508004EDC7A6813465B0013449B00084A1344184629
S31508004EECFFF7B8FF7B6801337B607B68042BEFD92F
S31508004EFC002318460837BD4680BD00BF04000420B1
S31508004F0C80B586B000AF786000237B6127E07A69AC
S31508004F1C13465B0013449B00164A13443B613B69DA
S31508004F2C1B68A3F108027B689A4215D33B699B68F8
S31508004F3C002B03D1FFF7BEFE002316E03B699B68E6
S31508004F4CFB603B699B681A683B699A60FB680022A0
S31508004F5C1A60FB68083308E07B6901337B617B695F
S31508004F6C042BD4D9FFF7A6FE002318461837BD46DE
S31508004F7C80BD00BF0400042080B586B000AF786001
S31508004F8C7B68083B3B6100237B6118E07A69134612
S31508004F9C5B0013449B000E4A1344FB603B695A683A
S31508004FACFB681B689A4207D1FB689A683B691A60CA
S31508004FBCFB683A699A6007E07B6901337B617B6918
S31508004FCC042BE3D9FFF776FE1837BD4680BD00BF24
S31508004FDC0400042080B58CB000AFF860B9607A6024
S31508004FEC3B60FB687B61BB68BB617B68FB613B68AC
S31508004FFC3B62BB6B7B62FB6BBB6207F11403194606
S3150800500C0020FFF75FFEFB6A18463037BD4680BDA9
S3150800501C80B500AF00210120FFF754FE00BF80BD0C
S3150800502C80B588B000AF3B1D19460320FFF74AFE32
S3150800503C7B6818462037BD4680BD80B588B000AF62
S3150800504C3B1D19460520FFF73DFE7B6818462037A1
S3150800505CBD4680BD80B58AB000AF78607B68FB60C2
S3150800506C07F10C0319460620FFF72CFE3B69184678
S3150800507C2837BD4680BD80B58AB000AF78607B689E
S3150800508CFB6007F10C0319460720FFF71BFE3B696B
S3150800509C18462837BD4680BD80B58AB000AF786003
S315080050AC7B68FB6007F10C0319460820FFF70AFE1C
S315080050BC3B6918462837BD4680BD80B58CB000AF15
S315080050CC0346B9607A60FB73FB7B3B75BB68BB61B7
S315080050DC7B68FB6107F1140319460920FFF7F2FDFB
S315080050EC3B6A18463037BD4680BD80B58CB000AFDC
S315080050FC0346B9607A60FB73FB7B3B75BB68BB6187
S3150800510C7B68FB6107F1140319460A20FFF7DAFDE1
S3150800511C3B6A18463037BD4680BD80B58AB000AFAD
S3150800512C03463960FB80FB88BB813B683B6107F112
S3150800513C0C0319460B20FFF7C5FD7B691846283763
S3150800514CBD4680BD80B58AB000AF78607B68FB60D1
S3150800515C07F10C0319460C20FFF7B4FD3B691846FA
S3150800516C2837BD4680BD80B58AB000AF78607B68AD
S3150800517CFB6007F10C0319460420FFF7BDFD3B69DC
S3150800518C18462837BD4680BD80B582B000AF0A23C5
S3150800519C3B6000237B6015E00E497A6813465B007A
S315080051AC1344DB000B4418687A6813465B001344F7
S315080051BCDB00084A134404331946FBF751F97B689C
S315080051CC01337B607A683B689A42E5D300BF08379F
S315080051DCBD4680BD1C590008DFF834D0002103E019
S315080051EC0C4B5B58435004310B480C4B42189A42F3
S315080051FCF6D30B4A02E0002342F8043B094B9A42C9
S3150800520CF9D300F013F800F073F8FEF7D9FFFEE7B0
S3150800521C00000320145A000800000420480004204B
S3150800522C4800042054180420FEE7000080B400AFA0
S3150800523C174A174BD3F8883043F47003C2F88830F2
S3150800524C144A144B1B6843F001031360114B0022DC
S3150800525C9A60104A0F4B1B6823F0A85323F41023AB
S3150800526C13600C4B4FF48052DA600A4A094B1B68E0
S3150800527C23F480231360074B00229A61044B4FF0EA
S3150800528C00629A6000BFBD465DF8047B704700BF9C
S3150800529C00ED00E00010024080B586B000AF7860E3
S315080052AC7868FAF7AFFF03463B610023FB603A695F
S315080052BC7968012000F050F8F86001220B490120AA
S315080052CC00F04AF80246FB681344FB603B695A1C1B
S315080052DCFB689A4202D100237B6102E04FF0FF3350
S315080052EC7B617B6918461837BD4680BD6C5400082F
S315080052FC70B50D4E0D4CA41BA4100025A54209D162
S3150800530C0B4E0C4C00F030F8A41BA4100025A5423B
S3150800531C05D170BD56F8253098470135EEE756F895
S3150800532C253098470135F2E70C5A00080C5A000844
S3150800533C0C5A0008105A000802440346934200D13E
S3150800534C704703F8011BF9E7034611F8012B03F81C
S3150800535C012B002AF9D17047024B58221A604FF0DC
S3150800536CFF30704750180420F8B500BFF8BC08BCCD
S3150800537C9E467047F8B500BFF8BC08BC9E467047F9
S3150800538C636F6D6D616E643E000000008349839304
S3150800539C834A814A834E83548343835A8343835671
S315080053AC8358836583800000827582648271827259
S315080053BC8268826E826D82508144824F8144824F0C
S315080053CC0000000083548343835A83430000000083
S315080053DC835E814A83458393838D815B8367814A88
S315080053EC00000000818400006C6F6E670A000000E4
S315080053FC73686F72740A000042544E5F6465765F78
S3150800540C6D61696E00000000636F6E736F6C6500EA
S3150800541C4C43445F6170705F6D61696E00000000FB
S3150800542C63746C5F6D61696E0000000063746C5F79
S3150800543C6379636D7367000069646C65000000002E
S3150800544C20455849542E0A0020444F574E2E0A0020
S3150800545C73797374656D206572726F72210A000018
S3150800546C0A000000352C00080100000000000000AE
S3150800547C040000000000000004000000DD2B0008FA
S3150800548C020000000000000004000000F12B0008D8
S3150800549C02000000000000000400000000000000EC
S315080054AC04000000000000000000000000000000DE
S315080054BC00000000C92F00080100000000000000D1
S315080054CC04000000000000000400000000000000BA
S315080054DC04000000000000000400000000000000AA
S315080054EC040000000000000004000000000000009A
S315080054FC040000000000000004000000000000008A
